:020000040800F2
:10000000E00E0020050100082D2E000851270008F1
:10001000292E0008DD020008D93900080000000080
:10002000000000000000000000000000E9350008AA
:10003000E1020008000000002F2E0008EB35000848
:100040001F0100081F0100081F0100081D310008E2
:100050001F0100081F010008E30200081F0100083B
:100060001F0100081F0100081F0100081F010008F0
:100070001F0100081F0100081F0100081F010008E0
:100080001F0100081F0100081F0100081F010008D0
:100090001F0100081F0100081F0100081F010008C0
:1000A0001F0100081F0100081F0100081F010008B0
:1000B0001F0100081F0100081F0100081F010008A0
:1000C0001F0100081F0100081F0100081F01000890
:1000D0001F0100081F010008C93900081F0100089E
:1000E0001F010008112F00081F010008DFF810D0C1
:1000F00000F04CF8004800474D3E0008AFF3008088
:10010000E00E00200648804706480047FEE7FEE76D
:10011000FEE7FEE7FEE7FEE7FEE7FEE7FEE7FEE7B7
:10012000CD360008ED000008D2B201E000F8012B46
:10013000491EFBD270470022F6E710B513460A4667
:1001400004461946FFF7F0FF204610BDCBB203E08E
:100150000178994203D0401C521EF9D2002070470A
:1001600030B50B46014600202022012409E021FA87
:1001700002F59D4205D303FA02F5491B04FA02F584
:100180002844151EA2F10102F1DC30BD064C074DDA
:1001900006E0E06840F0010394E807009847103457
:1001A000AC42F6D3FFF7A6FF542F0108742F0108C5
:1001B00010B501244FF6FF700C4948600C48886068
:1001C000002008600B480C490860096808688047EF
:1001D0004FF6FF7002F0B0FB0A2000F021F907484B
:1001E00000F00EF80024204610BD0000EE040020B0
:1001F0005C000020A4000020880000207C0000207B
:100200000149886070470000EE04002010B586B0F8
:10021000044600BF6CB900BF1448806940F010006C
:10022000124988610846806900F01000019000BF03
:1002300000BF00BF0E4830F8140002900120039068
:1002400000200490032005900A4951F8240002A9D7
:1002500000F0A4F9064A32F81410064A52F82400B5
:10026000002200F035FB06B010BD00000010024077
:100270005C4A00085000002010B50446044A32F8D9
:100280001410044A52F82400012200F021FB10BD92
:100290005C4A00085000002010B50446044A32F8B9
:1002A0001410044A52F8240000F008FB10BD0000AE
:1002B0005C4A00085000002010B5034607E018789B
:1002C0000C78A04201D0104610BD5B1C491C101ECA
:1002D000A2F10104A2B2F2D100BFF5E700BFFEE730
:1002E000704710B5012000F04BF910BD04462146BF
:1002F00005A003F073FB05E00020FFF7CDFF6420AD
:1003000000F08EF8F8E700004572726F7220696E97
:100310002025730A0D0000000146002291F82100FB
:10032000022808D00420886300BF002081F8200044
:1003300000BF012070470868006820F00E000B68BD
:1003400018600868006820F001000B68186091F8D8
:10035000403001209840CB6B5860012081F821008B
:1003600000BF002081F8200000BF1046E2E7000037
:1003700070B50446002594F82100022803D004201B
:10038000A063012548E02068006820F00E00216885
:1003900008602068006820F00100216808601F499B
:1003A0002068884201D1012026E01C4914312068D0
:1003B000884201D110201FE0184928312068884266
:1003C00001D1801518E015493C312068884201D1DF
:1003D000801411E0114950312068884202D14FF455
:1003E000803009E00D4964312068884202D14FF421
:1003F000801001E04FF08070084908394860012002
:1004000084F8210000BF002084F8200000BF606B4A
:1004100010B12046616B8847284670BD0800024035
:1004200070B5044600F05AFA06462546681C10B11D
:1004300004480078054400BF00F050FA801BA84231
:10044000FAD370BD480000202DE9F04102460B466A
:10045000002080E00127874007EA0301002979D0C6
:10046000404F4FEA900C57F82C4087074FEA177C13
:100470000F2707FA0CF73C403B4FBA4201D1002747
:100480000FE03A4FBA4201D101270AE0384FBA4291
:1004900001D1022705E0374FBA4201D1032700E01E
:1004A00004274FEA807C4FEA1C7C07FA0CF7A7422E
:1004B00031D1314F3F688F43DFF8BCC0CCF80070BA
:1004C0000CF104073F688F430CF1040CCCF800706A
:1004D000294F0C373F688F43DFF89CC00CF10C0CA0
:1004E000CCF80070ACF104073F688F43ACF1040C0A
:1004F000CCF8007087074FEA177C0F2707FA0CF437
:10050000184F4FEA900C57F82CC02CEA040C4FEA15
:10051000900847F828C0FF2901D8174600E0171DAA
:100520003D46FF2901D8870002E0A0F10807BF007F
:100530003E462F684FF00F0C0CFA06FC27EA0C071A
:100540004FF0040C0CFA06FC47EA0C072F60D76842
:100550008F43D760401C23FA00F7002F7FF47AAF57
:10056000BDE8F0810800014000080140000C014096
:1005700000100140001401400004014070470000D9
:1005800010B5044604480068204020B102480460C9
:100590002046FFF7F3FF10BD140401402DE9F84792
:1005A0000346002294466EE14FF0010808FA02F477
:1005B000D1F8008008EA0400A0427DD1DFF8DCA277
:1005C000D1F80480A8EB0A09D0453AD014DCB8F180
:1005D000030F50D009DCB8F1000F31D0B8F1010F92
:1005E0001CD0B8F1020F49D120E0B8F1110F18D09A
:1005F000B8F1120F42D11EE0B9F5881F25D006DCF4
:10060000B9F5803F20D0B9F5801F37D11AE0B9F590
:10061000001F18D0B9F5041F30D117E0D1F80CC075
:100620002DE0D1F80C8008F1040C28E0D1F80C8002
:1006300008F1080C23E0D1F80C8008F10C0C1EE046
:1006400000BF00BF00BF00BF00BF00BFD1F80880DF
:10065000B8F1000F02D14FF0040C0BE0D1F8088084
:10066000B8F1010F03D14FF0080C1C6102E04FF00C
:10067000080C5C6103E04FF0000C00E000BF00BF1D
:10068000FF2801D8984601E003F104084646FF28F8
:1006900002D84FEA820803E0A2F108084FEA88086E
:1006A0004746D6F800804FF00F0909FA07F928EA03
:1006B00009080CFA07F900E088E048EA0908C6F8DA
:1006C0000080D1F8048008F08058B8F1805F7DD1B7
:1006D00000BFDFF8CC81D8F8188048F00108DFF8B7
:1006E000C091C9F81880C846D8F8188008F00108E9
:1006F000CDF8008000BF00BF4FEAB9384FEA920939
:1007000058F829504FEA82784FEA18794FF00F08CD
:1007100008FA09F825EA0805DFF88881434502D17F
:100720004FF0000816E0DFF88081434502D14FF01A
:1007300001080FE0DFF87481434502D14FF0020851
:1007400008E0DFF86C81434502D14FF0030801E077
:100750004FF004084FEA82794FEA197908FA09F84C
:1007600048EA0505DFF84C814FEA920948F829501C
:10077000D1F8048008F48018B8F5801F0AD1DFF89A
:100780003881D8F8008048EA0008DFF82C91C9F8D1
:10079000008009E0DFF82081D8F8008028EA00080E
:1007A000DFF81491C9F80080D1F8048008F400182B
:1007B000B8F5001F10D1DFF8008108F10408D8F85F
:1007C000008048EA0008DFF8F09000E05AE009F104
:1007D0000409C9F800800DE0DFF8DC8008F10408A6
:1007E000D8F8008028EA0008DFF8CC9009F1040965
:1007F000C9F80080D1F8048008F40038B8F5003F4B
:100800000ED1DFF8B480A8F10408D8F8008048EAD7
:100810000008DFF8A490A9F10409C9F800800DE0F0
:10082000DFF89480A8F10408D8F8008028EA0008CE
:10083000DFF88490A9F10409C9F80080D1F8048098
:1008400008F48038B8F5803F0ED1DFF86C80A8F14D
:100850000808D8F8008048EA0008DFF85C90A9F1A1
:100860000809C9F800800DE0DFF84C80A8F10808FD
:10087000D8F8008028EA0008DFF83C90A9F10809C0
:10088000C9F80080521CD1F8008028FA02F8B8F1AB
:10089000000F7FF489AEBDE8F8870000000011105A
:1008A0000010024000080140000C0140001001400F
:1008B00000140140080001400804014010B5C2685E
:1008C00021EA020302EA010443EA0443036110BD82
:1008D0000AB1016101E00B0403617047014800683F
:1008E0007047000040000020034800680349097871
:1008F000084401490860704740000020480000207B
:1009000010B50848006840F0100006490860032050
:1009100000F0A8F80F2000F007F800F02BF80020F6
:1009200010BD00000020024070B504460E4800785B
:100930004FF47A71B1FBF0F00C490968B1FBF0F5A6
:10094000284601F01DFC08B1012070BD102C07D213
:1009500000222146501E00F047F80548046001E0DF
:100960000120F2E70020F0E7480000204C000020C2
:100970004400002008B500BF1148806940F0010024
:100980000F4988610846806900F00100009000BFAF
:1009900000BF00BF0846C06940F08050C8610846EB
:1009A000C06900F08050009000BF00BF00BF054943
:1009B000486820F0E06040F08070486000BF08BDEB
:1009C000001002400000014001460846002809DBF3
:1009D00000F01F0301229A4043099B0003F1E0232A
:1009E000C3F8002100BF70472DE9F05F80460D4637
:1009F0001646002703F016F8074639462A463346BE
:100A000001F00700C0F1070ABAF1040F02D94FF054
:100A1000040A01E0C0F1070AD14600F1040ABAF164
:100A2000070F02D24FF0000A01E0A0F1030AD446FA
:100A30004FF0010A0AFA09FAAAF1010A0AEA020ABF
:100A40000AFA0CFA4FF0010B0BFA0CFBABF1010B9D
:100A50000BEA030B4AEA0B042146404602F0EAFF88
:100A6000BDE8F09F00BF00F00702064B19684FF683
:100A7000FF031940044B0B4343EA0221014B196069
:100A800000BF70470CED00E00000FA0501200149AD
:100A90000862704700000E422DE9F04706464FF00D
:100AA0000008002500270024A146012E31D0022E87
:100AB00056D0102E5FD132484468006800F0807034
:100AC00008B33048C4F38341475C04F4803078B104
:100AD0002B484068C0F340402B4911F8008004F4D3
:100AE000803040B12948B0FBF8F000FB07F502E088
:100AF000274807FB00F52248406800F48000B0F565
:100B0000800F01D1A94603E068000321B0FBF1F991
:100B100032E01B48046A04F44070B0F5807F05D1D0
:100B200004F0020010B14FF4004918E004F44070E2
:100B3000B0F5007F07D11248406A00F0020010B102
:100B400049F640490BE004F44070B0F5407F06D10F
:100B50000B48006800F4003008B14FF224490BE064
:100B600000F08CF906494968C1F38131491C4900FC
:100B7000B0FBF1F900E000BF00BF4846BDE8F087D8
:100B800000100240324A0008424A000800127A006F
:100B900000093D00F8B5044600260025207800F045
:100BA000010000286BD000274348C06900F0805046
:100BB00070B900BF4048C06940F080503E49C861EC
:100BC0000846C06900F08050009000BF00BF0127B8
:100BD0003A48006800F48070B0B93848006840F4C2
:100BE000807036490860FFF779FE064606E0FFF799
:100BF00075FE801B642801D90320F8BD2F480068CA
:100C000000F480700028F2D02B48006A00F4407590
:100C10002DB3A08800F44070A84220D02648006A76
:100C200020F4407501202649086000200860224811
:100C3000056205F0010090B1FFF750FE064608E09E
:100C4000FFF74CFE801B41F28831884201D9032016
:100C5000D3E71948006A00F002000028F0D01648D7
:100C6000006A20F440706168084313490862012F4C
:100C700004D10846C06920F08050C86100BF2078C8
:100C800000F00200022807D10B48406820F44040E1
:100C9000A168084308494860207800F01000102837
:100CA00007D10548406820F48000E1680843024904
:100CB00048600020A1E700000010024000700040E2
:100CC0004004424270B504460D460CB9012070BD87
:100CD0005A48006800F00700A8420ED25748006842
:100CE00020F007002843554908600846006800F0D6
:100CF0000700A84201D00120E9E7207800F00200B7
:100D000002281DD1207800F00400042805D14C48A9
:100D1000406840F4E0604A494860207800F00800EC
:100D2000082805D14648406840F46050444948606E
:100D30004348406820F0F000A168084340494860FB
:100D4000207800F0010078B36068012806D13C48A3
:100D5000006800F4003090B90120B8E7606802280C
:100D600006D13748006800F0007040B90120AEE7B6
:100D70003348006800F0020008B90120A7E73048B6
:100D8000406820F00300616808432D494860FFF780
:100D9000A5FD064609E0FFF7A1FD801B41F2883161
:100DA000884202D9032092E707E02548406800F016
:100DB0000C006168B0EB810FEDD12048006800F0B5
:100DC0000700A8420ED91D48006820F007002843FC
:100DD0001A4908600846006800F00700A84201D0E0
:100DE000012074E7207800F00400042807D114489B
:100DF000406820F4E060E1680843114948602078C9
:100E000000F00800082808D10D48406820F4605020
:100E1000216940EAC1000A49486000F03FF80849EA
:100E20004968C1F30311074A515CC840064908608C
:100E300006480068FFF778FD002048E700200240E0
:100E400000100240444A00084C00002044000020EA
:100E500001480068704700004C00002000B5FFF713
:100E6000F7FF04494968C1F30221034A515CC840B5
:100E700000BD000000100240544A000800B5FFF712
:100E8000E7FF04494968C1F3C221034A515CC840E5
:100E900000BD000000100240544A000870B5002157
:100EA0000022002400230020134D696801F00C0586
:100EB000F5B1042D02D0082D19D101E00F4819E039
:100EC0000F4DC1F38346AB5D01F4803555B10A4D3A
:100ED0006D68C5F340450B4E725D084D5D43B5FB33
:100EE000F2F402E0084D03FB05F4204602E000BFE7
:100EF000024800BF00BF70BD0010024000127A001F
:100F0000204A0008304A000800093D00F8B50446B0
:100F10000CB90120F8BD207800F00100002878D03D
:100F2000F848406800F00C0004280CD0F5484068F0
:100F300000F00C00082811D1F248406800F480301D
:100F4000B0F5803F0AD1EF48006800F40030002877
:100F50005FD0606800285CD10120DBE700BF6068DB
:100F6000B0F5803F06D1E748006840F48030E5499D
:100F7000086028E0606858B9E248006820F48030D2
:100F8000E04908600846006820F4802008601AE004
:100F90006068B0F5A02F0BD1DA48006840F48020DB
:100FA000D84908600846006840F4803008600AE0CC
:100FB000D448006820F48030D249086008460068B0
:100FC00020F48020086000BF606888B1FFF786FCCD
:100FD000054606E0FFF782FC401B642801D9032088
:100FE00098E7C848006800F400300028F2D010E00C
:100FF000FFF774FC054606E0FFF770FC401B642811
:1010000001D9032086E7BF48006800F400300028BB
:10101000F2D1207800F00200022857D1B948406888
:1010200000F00C0050B1B748406800F00C000828F0
:1010300018D1B448406800F4803098B9B1480068CD
:1010400000F0020020B12069012801D0012061E7F1
:10105000AC48006820F0F800616940EAC100A94985
:10106000086033E02069E8B10120A7490860FFF774
:1010700035FC054606E0FFF731FC401B022801D98C
:10108000032047E79F48006800F002000028F2D0E4
:101090009C48006820F0F800616940EAC100994965
:1010A000086013E0002098490860FFF717FC054628
:1010B00006E0FFF713FC401B022801D9032029E7B3
:1010C0009048006800F002000028F2D1207800F07B
:1010D000080008282DD1A069B8B101208B4908600B
:1010E000FFF7FCFB054606E0FFF7F8FB401B022874
:1010F00001D903200EE78348406A00F0020000286F
:10110000F2D0012001F094FE13E000207F49086036
:10111000FFF7E4FB054606E0FFF7E0FB401B022873
:1011200001D90320F6E67748406A00F00200002863
:10113000F2D1207800F00400042873D10027714810
:10114000C06900F0805070B900BF6E48C06940F0BF
:1011500080506C49C8610846C06900F0805000901A
:1011600000BF00BF01276A48006800F48070B0B972
:101170006748006840F4807065490860FFF7AEFB7F
:10118000054606E0FFF7AAFB401B642801D90320AF
:10119000C0E65F48006800F480700028F2D000BF0D
:1011A000E068012806D15748006A40F0010055491F
:1011B000086227E0E06858B95248006A20F0010050
:1011C000504908620846006A20F00400086219E0ED
:1011D000E06805280BD14B48006A40F004004949FB
:1011E00008620846006A40F0010008620AE04548CB
:1011F000006A20F00100434908620846006A20F0B6
:101200000400086200BFE068A0B1FFF767FB054675
:1012100009E0FFF763FB401B41F28831884202D9A5
:10122000032077E622E03748006A00F00200002839
:10123000EFD012E0FFF752FB054608E0FFF74EFB48
:10124000401B41F28831884201D9032062E62D48D3
:10125000006A00F002000028F0D1012F05D12948D2
:10126000C06920F080502749C86100BFE069C8B359
:101270002448406800F00C00082860D0E06902288B
:1012800048D1002020490866FFF728FB054606E004
:10129000FFF724FB401B022801D903203AE6194836
:1012A000006800F000700028F2D1206AB0F5803F9D
:1012B00007D11448406820F40030A1680843114960
:1012C0004860D4E9080108430E49496821F47411C3
:1012D00008430C49486001200B490866FFF7FEFAF5
:1012E000054607E03DE0FFF7F9FA401B022801D967
:1012F00003200FE60348006800F000700028F2D0D9
:101300002FE00000001002400000424280044242F0
:1013100000700040002014490866FFF7DFFA054618
:1013200006E0FFF7DBFA401B022801D90320F1E5B4
:101330000E48006800F000700028F2D111E0E0696A
:10134000012800D1E6E50948466806F48031206AA4
:10135000814204D106F47011606A814201D00120FB
:10136000D8E50020D6E5000000004242001002400F
:101370002DE9FC410446284801680091406801902D
:101380008025A84600222549204600F0E4F808EB15
:10139000C800C0EB8810642190FBF1F086B2A80071
:1013A00090FBF1F087B23146384601F051FF1B48FF
:1013B0000078C0EB00108000C0EB001080001749DF
:1013C0004978C1EB011100EB810014498978084488
:1013D0001349884218DD13480078A8B90F480078EF
:1013E000C0EB00108000C0EB001080000B49497872
:1013F000C1EB011100EB81000849897808440A49D2
:1014000008800120074908704FF400510748FFF792
:1014100055FABDE8FC810000940000202400002063
:101420008B500100330000203400002000100140E8
:10143000704710B504462068006800F00100F0B164
:101440002068406800F00100C8B120684068C0F31F
:10145000800048B12046FFF7EBFF6FF004002168E1
:1014600048600420607404E02046FFF781FF0120FB
:1014700060742068406820F001002168486010BD59
:10148000014609B90120704700BF087C012801D13D
:101490000220F8E70120087400BF022048740868A1
:1014A000006840F001000A6810600120487400BF25
:1014B0000020087400BF00BFE5E710B50446002017
:1014C000FEF7DAFE10BD000010B504462068006883
:1014D000C0F3400068B120684068C0F3400040B1EC
:1014E0002046FFF7EAFF2068406820F002002168EC
:1014F00048604FF40030024908600120607410BD5C
:1015000014040140F8B505460C461646002000902C
:1015100005B10CB90120F8BD00226946284600F04B
:101520001AF808B10120F6E7287B2070E87BE0700C
:10153000687B6070A87BA0705EB1E07801F0FBFC76
:10154000E070607801F0F7FC6070A07801F0F3FCC7
:10155000A0700020DFE72DE9F04780460C46914659
:1015600000250026AA460027B8F1000F00D014B9C4
:101570000120BDE8F087D8F800004068C0F3800083
:1015800008B10120F5E7404601F0F5FD05464FF4AE
:101590006160B5FBF0F7B5FBF0F100FB11503C21A9
:1015A000B0FBF1F060704FF46160B5FBF0F100FB4F
:1015B00011503C21B0FBF1F201FB1200A070182F7A
:1015C00039D31820B7FBF0FAB7FBF0F100FB11702C
:1015D0002070404601F0C3FD0646701C18B1AE42B3
:1015E00001D9761B01E04FF0FF360AEB4A00C0003C
:1015F000C0EB4011C1EB0020A5EB00152946404689
:1016000001F0C5FE08B10120B3E7701C38B12E44CB
:101610003146404601F0A4FE40B10120A9E7314621
:10162000404601F09DFE08B10120A2E75146404628
:1016300001F0DEFC00E02770B9F1000F0BD020783C
:1016400001F079FC2070607801F075FC6070A07882
:1016500001F071FCA07000208BE7000070B504461B
:1016600000250CB9012070BD607C20B900202074D9
:10167000204600F053F802206074204600F018FA6B
:1016800018B1042060740120EDE7204601F00BFD45
:1016900018B1042060740120E5E72068406820F05C
:1016A000070021684860A06828B11B48006820F046
:1016B0000100194908601848001F006820F4607094
:1016C000A16808431449091F08606068401C08B1FC
:1016D000656809E00120FFF7DFF905461DB9042020
:1016E00060740120BFE76D1EC5F303402168886068
:1016F000A8B22168C860204601F0F2FC18B10420AD
:1017000060740120AFE70021E17301216173A173CF
:10171000012060740020A6E7306C004030B58FB027
:10172000054600BF1C48C06940F080501A49C86196
:101730000846C06900F08050009000BF00BFFFF76E
:10174000A5F90C20059000200C90012008900020A5
:101750000B9005A8FFF7DAFB20B110A42046FEF796
:10176000C5FD00BF012001900002029001A8FFF713
:1017700011FA20B10EA42046FEF7B8FD00BF0120EB
:1017800012490860002205210320FFF72DF90320EC
:10179000FFF71AF90FB030BD0010024048414C5F0E
:1017A0005243435F4F7363436F6E66696700000087
:1017B00048414C5F52434345785F50657269706899
:1017C000434C4B436F6E6669670000003C04424225
:1017D0002DE9F84304460D461746002600200090E8
:1017E00004B115B90120BDE8F88300BF207C0128B1
:1017F00001D10220F7E70120207400BF02206074AD
:10180000002269462046FFF7A6FE08B10120EAE75C
:101810009DF800004FF4616148439DF80110C1EB51
:10182000011100EB81009DF8021000EB01085FB987
:1018300028784FF4616148436978C1EB011100EBEE
:101840008100A978461812E0287801F069FB4FF46E
:10185000616100FB01F9687801F062FBC0EB0010E8
:1018600009EB8009A87801F05BFB09EB000646450F
:1018700001D2184806443146204601F071FD38B1C6
:101880000420607400BF0020207400BF0120AAE77C
:101890002068406820F002002168486020680068E5
:1018A00040F00200216808600B48006840F40030F6
:1018B0000949086008480830006840F400300649CB
:1018C000083108600120607400BF0020207400BF50
:1018D00000BF88E780510100000401402DE9F04776
:1018E00004460D46904600260027B14604B115B9BE
:1018F0000120BDE8F08700BF207C012801D1022033
:10190000F7E70120207400BF02206074B8F1000FD7
:1019100006D1E978E17369786173A978A1730BE066
:10192000E87801F0FDFAE073687801F0F9FA607385
:10193000A87801F0F5FAA073A27B617BE07B01F04F
:10194000CDFC2073207B2870204601F014FC064655
:101950004FF46160B6FBF0F9B9F1180F2FD91820D8
:10196000B9FBF0F000EB4000C000C0EB4011C1EB50
:101970000020A6EB00163146204601F008FD38B1E4
:101980000420607400BF0020207400BF0120B0E775
:10199000204601F0E4FB0746781C80B1B7420ED226
:1019A0000B4807443946204601F0DAFC38B10420E0
:1019B000607400BF0020207400BF012099E701205F
:1019C000607400BF0020207400BF00BF91E70000DA
:1019D000805101002DE9F04704460D46904600264F
:1019E000002704B115B90120BDE8F08700BF207CB5
:1019F000012801D10220F7E70120207400BF022056
:101A00006074B8F1000F0BD128784FF4616148433E
:101A10006978C1EB011100EB8100A978461812E04A
:101A2000287801F07DFA4FF4616100FB01F96878D4
:101A300001F076FAC0EB001009EB8009A87801F0FC
:101A40006FFA09EB00063146204601F0A0FC38B1E0
:101A50000420607400BF0020207400BF0120C3E791
:101A60002068406820F0050021684860204601F0A9
:101A700076FB0746781C80B1B7420ED20B4807446C
:101A80003946204601F06CFC38B10420607400BF78
:101A90000020207400BF0120A6E70120607400BF71
:101AA0000020207400BF00BF9EE7000080510100AD
:101AB00070B5044600250CB9012070BD206840684F
:101AC00020F0080021684860FEF708FF054607E09F
:101AD000FEF704FF401BB0F57A7F01D90320ECE745
:101AE0002068406800F008000028F1D00020E4E7FA
:101AF00010B504460CB9012010BD022084F8510035
:101B00002068006820F0400021680860204600F04E
:101B100075F80020606584F8510000BF84F850001B
:101B200000BF00BFE8E7014691F851007047014649
:101B300009B901207047486A38B94868B0F5827F12
:101B400000D105E00022CA6102E000220A614A6178
:101B5000886AB0F5005F00D100BF91F8510010B95C
:101B6000002081F85000022081F8510008680068C8
:101B700020F040000A681060888800F482700A89AA
:101B800002F4044210438A8902F4006210430A7C82
:101B900002F0020210430A7D02F0010210430A8B98
:101BA00002F4007210430A7F02F038021043202230
:101BB000525C02F0800210430A8D02F4005210437E
:101BC0000A6810600422886902EA10400A685060BE
:101BD000886AB0F5005F03D1888D80B20A68106111
:101BE0000868C06920F400600A68D0610020486578
:101BF000012081F8510000209CE7000010B5044648
:101C00000749206888420AD10648C06920F480400C
:101C10000449C8614FF470410348FEF715FC10BD3C
:101C20000038004000100240000C01402DE9F8434C
:101C300004460F4616461D46FEF750FE8046B14646
:101C400094F85100012802D00220BDE8F88307B1C2
:101C50000EB90120F9E700BF94F85000012801D126
:101C60000220F2E7012084F8500000BF032084F82E
:101C70005100002060652763A686E686A063A087E2
:101C8000E08760642064A068B0F5004F0BD1206845
:101C9000006820F04000216808602068006840F477
:101CA000804021680860A06AB0F5005F0DD100BFD8
:101CB0002068006820F400502168086020680068EF
:101CC00040F400502168086000BF2068006800F000
:101CD0004000402805D02068006840F0400021689E
:101CE0000860E068B0F5006F37D1606810B1B9F1F5
:101CF000010F09D1206B00882168C860206B801C0F
:101D00002063E08E401EE08623E02068806800F0BB
:101D1000020002280AD1206B00882168C860206B6D
:101D2000801C2063E08E401EE08612E0FEF7D6FDA8
:101D3000A0EB0800A84201D3681C00B94DB90120EE
:101D400084F8510000BF002084F8500000BF032039
:101D50007BE7E08E0028D8D136E0606810B1B9F199
:101D6000010F09D1206B007821680873206B401C9B
:101D70002063E08E401EE08623E02068806800F04B
:101D8000020002280AD1206B007821680873206BBA
:101D9000401C2063E08E401EE08612E0FEF79EFDB0
:101DA000A0EB0800A84201D3681C00B94DB901207E
:101DB00084F8510000BF002084F8500000BF0320C9
:101DC00043E7E08E0028D8D1A06AB0F5005F05D1C6
:101DD0002068006840F48050216808604246294627
:101DE000204601F0EBFA08B120206065A06850B9E8
:101DF00000BF002000902068C068009020688068C4
:101E0000009000BF00BF012084F8510000BF0020F7
:101E100084F8500000BF606D08B1012015E7002074
:101E200013E72DE9FF5F0446884691461D460E9E46
:101E30000020029001200190FEF750FD074694F823
:101E400051B060680390AA46BBF1010F0CD0039813
:101E5000B0F5827F04D1A06810B9BBF1040F03D0A4
:101E6000022004B0BDE8F09FB8F1000F03D0B9F133
:101E7000000F00D00DB90120F3E700BF94F8500027
:101E8000012801D10220ECE7012084F8500000BFB6
:101E900094F85100042802D0052084F85100002055
:101EA0006065C4F83890E587A587C4F83080E5867A
:101EB000A58620646064A06AB0F5005F0DD100BF04
:101EC0002068006820F400502168086020680068DD
:101ED00040F400502168086000BF2068006800F0EE
:101EE0004000402805D02068006840F0400021688C
:101EF0000860E068B0F5006F69D1606810B1BAF1B0
:101F0000010F15D1206B00882168C860206B801CF0
:101F10002063E08E401EE086E08E48B9A06AB0F5EE
:101F2000005F05D12068006840F480502168086097
:101F300046E02068806800F0020002281CD1E08E94
:101F4000D0B10198012817D1206B00882168C860A2
:101F5000206B801C2063E08E401EE08600200190F4
:101F6000E08E48B9A06AB0F5005F05D1206800682E
:101F700040F48050216808602068806800F001000B
:101F800068B1E08F58B12068C068A16B0880A06B71
:101F9000801CA063E08F401EE08701200190FEF7C7
:101FA0009DFCC01BB0420BD3701C48B1012084F8CB
:101FB000510000BF002084F8500000BF032050E70C
:101FC000E08E0028B5D1E08F0028B2D169E06068CA
:101FD00010B1BAF1010F15D1206B00782168087398
:101FE000206B401C2063E08E401EE086E08E48B9E6
:101FF000A06AB0F5005F05D12068006840F4805009
:102000002168086047E02068806800F0020002282C
:102010001CD1E08ED0B10198012817D1206B007837
:1020200021680873206B401C2063E08E401EE08610
:1020300000200190E08E48B9A06AB0F5005F05D19C
:102040002068006840F4805021680860206880683B
:1020500000F0010068B1E08F58B12068C068A16B42
:102060000870A06B401CA063E08F401EE087012039
:102070000190FEF733FCC01BB04201D3701C00B9C5
:102080004EB9012084F8510000BF002084F85000B0
:1020900000BF0320E5E6E08E0028B4D1E08F0028E1
:1020A000B1D1A06AB0F5005F19D1334601221146C3
:1020B0002046009701F0A8F968B1606D40F0020079
:1020C0006065012084F8510000BF002084F85000B2
:1020D00000BF0320C5E62068C068029000BF2068EA
:1020E0008068C0F3001008B3204601F089F9012888
:1020F00018D1606D40F00200606500BF2068006884
:1021000020F40050216808602068006840F4005006
:102110002168086000BF00BF002084F8500000BFA5
:1021200001209EE64FF6EF70216888603A463146FE
:10213000204601F043F940B12020606500BF002037
:1021400084F8500000BF01208BE6A06850B900BFA2
:10215000002000902068C06800902068806800908F
:1021600000BF00BF012084F8510000BF002084F8A8
:10217000500000BF606D08B1012072E6002070E6DB
:1021800070B504462546681EB0F1807F01D301205A
:102190000FE0681E4FF0E02148610F214FF0FF3043
:1021A00001F048FC00204FF0E02188610720086121
:1021B000002070BD2DE9F84F04460F4690461D469D
:1021C000DDF828A094F84200202878D117B1B8F1A2
:1021D000000F02D10120BDE8F88F002060642220AA
:1021E00084F842000120206300206063FEF776FB44
:1021F0008346A4F82C80A4F82E80A068B0F5805FF8
:1022000004D1206910B90026B94602E03E464FF0DD
:1022100000090020288053E02068006800F01000CA
:10222000102813D100BF00200090206800680090A3
:1022300020684068009000BF00BF288830B10220AD
:102240006063202084F842000020C4E72068006812
:1022500000F02000202821D146B920684068C0F352
:102260000800A9F8000009F1020911E0A068B0F522
:10227000805F03D0A06828B9206918B92068406839
:10228000307004E02068406800F07F003070761CF9
:102290002888401C2880E08D401EE0850AF101005E
:1022A00070B1FEF71BFBA0EB0B00504502D8BAF152
:1022B000000F05D1202084F8420003208BE70BE0BB
:1022C000E08D0028A8D1A08DE18D401A2880202023
:1022D00084F8420000207EE702207CE7704700007F
:1022E00001A42046FEF702F848414C5F5541525484
:1022F0005F4572726F7243616C6C6261636B000068
:102300002DE9F84F0446206805682068C6682068F3
:1023100047694FF00009CA4605F00F09B9F1000FEF
:102320000AD105F0200038B106F0200020B1204687
:1023300001F01DFABDE8F88FB9F1000F7BD007F06E
:10234000010018B906F49070002874D005F001005F
:1023500030B106F4807018B1606C40F00100606428
:1023600005F0040030B107F0010018B1606C40F0D6
:102370000200606405F0020030B107F0010018B1FE
:10238000606C40F00400606405F0080048B106F09D
:10239000200010B907F0010018B1606C40F008008F
:1023A0006064606C002845D005F0200028B106F07C
:1023B000200010B1204601F0DAF920684069C0F32E
:1023C000801A606C00F0080010B9BAF1000F2CD030
:1023D000204601F086F92068406900F0400000B313
:1023E00000BF00BF2168143151E8001F21F04000F8
:1023F0002168143141E80002002AF3D100BFE06BEC
:1024000050B17948E16B4863E06BFDF7B1FF88B1EB
:10241000E06B416B88470DE02046FFF761FF09E064
:1024200009E02046FFF75CFF04E02046FFF758FF75
:10243000002060647EE7206B012877D105F0100052
:10244000002873D006F010000028FAD000BF00204A
:10245000009020680068009020684068009000BFED
:1024600000BF2068406900F0400000285FD0E06BAA
:10247000006840681FFA80F8B8F1000F55D0A08DB1
:10248000404552DDA4F82E80E06B8069202843D0BF
:1024900000BF00BF21680C3151E8001F21F480709B
:1024A00021680C3141E80002002AF3D100BF00BFCF
:1024B00000BF2168143151E8001F21F0010021689C
:1024C000143141E80002002AF3D100BF00BF00BF71
:1024D0002168143151E8001F21F0400021681431B7
:1024E00041E80002002AF3D100BF202084F8420016
:1024F0000020206300BF00BF21680C3151E8001F9D
:1025000021F0100021680C3141E80002002AF3D1CB
:1025100000BFE06BFDF700FF02206063A08DE28D3D
:10252000801A81B22046FFF7D9FE03E745E0A08D6F
:10253000E18D401A1FFA80F8E08DD0B3B8F1000F9A
:1025400037D000BF00BF21680C3151E8001F21F4D3
:10255000907021680C3141E80002002AF3D100BFDD
:1025600000BF00BF2168143151E8001F21F00100B5
:102570002168143141E80002002AF3D100BF202075
:1025800084F842000020206300BF00BF21680C31A6
:1025900051E8001F21F0100021680C3141E80002D1
:1025A000002AF3D100BF0220606341462046FFF7B6
:1025B00095FE204600F0A4F8BCE605F0800030B19E
:1025C00006F0800018B1204601F0CEF9B2E605F021
:1025D000400030B106F0400018B1204601F0B7F8D5
:1025E000A8E600BFA6E60000CF36000810B50446F6
:1025F0000CB9012010BDA06900B100E000BF94F843
:10260000410028B9002084F84000204600F02AF854
:10261000242084F841002068C06820F4005021681C
:10262000C860204601F022F92068006920F490403B
:10263000216808612068406920F02A00216848610B
:102640002068C06840F400502168C86000206064C1
:10265000202084F8410084F842000020606300BF1D
:10266000C8E7000010B586B0044600BF2248806964
:1026700040F00400204988610846806900F00400A9
:10268000019000BF00BF00BF0846806940F0040011
:1026900088610846806900F00400019000BF00BF17
:1026A00000BF0846C06940F40030C8610846C069F0
:1026B00000F40030019000BF00BF0420029002200F
:1026C0000390012004900320059002A90B48FDF718
:1026D00065FF082002900020039002A90748FDF73B
:1026E0005DFF022211462620FEF77EF92620FEF726
:1026F0006BF906B010BD0000001002400008014058
:102700000121014A117070470000002010B50346F6
:1027100093F84100202813D101B10AB9012010BD5E
:1027200019629A84DA8400205864212083F84100D9
:102730001868C06840F080001C68E0600020EEE788
:102740000220ECE70121014A1170704700000020CF
:1027500000BFFEE70A49096801F0010179B10849A3
:102760008039096801F0010149B100E000BF4FF074
:10277000604109680029F9D04FF06042107070473D
:10278000800E00E010B504462046FDF749FE10BD5E
:102790002DE9F84F05460C4617469846DDF828B057
:1027A0004FF08009CA4600224FF480511748FEF7C7
:1027B0008FF84D4501DA544501DBBDE8F88FE81983
:1027C000484502DBA9EB050087B204EB0800504541
:1027D00003DBAAEB04001FFA80F800260CE0A01926
:1027E00083B2E81982B2A01981B22846CDF800B0B0
:1027F00000F00EF8701CC6B24645F0DD0122110350
:102800000248FEF765F800BFD7E70000000C014062
:102810002DE9FC5F05460C4617461E46301B002876
:1028200001DD301B00E0A01B791B002901DD791BB5
:1028300000E0E91B884201DD012000E0002001905A
:10284000019828B1A84625464446B846374646462C
:10285000BD4205DDA8463D464746A04634464646AD
:10286000781B0FFA80F9301B002801DD301B00E0D7
:10287000A01B00B20090484609EBD07149100FFA36
:1028800081FAB44202DA4FF0010B01E04FF0FF3B56
:102890001DE0019828B1294620460C9A00F01CF84A
:1028A00004E0214628460C9A00F016F80098AAEB9E
:1028B00000000FFA80FABAF1000F06DA04EB0B0001
:1028C00084B20AEB09000FFA80FA681C85B2BD4297
:1028D000DFDDBDE8FC9F00002DE9F84304460D460E
:1028E00016468027B846002C05DBBC4203DA002DD3
:1028F00001DB454501DBBDE8F8832B46224629462E
:10290000204600F077F930128DF80000F0B28DF813
:10291000010000224FF480510648FDF7D9FF022143
:10292000684600F0F3F8012211030248FDF7D0FFDA
:1029300000BFE0E7000C01402DE9F8430446002702
:10294000B846B94680258026701E83B2681E82B2C2
:102950000021084600F04EF93246294617A001F042
:102960003DF8002269011F48FDF7B2FF00BF18E0E3
:102970004FF0000811E020128DF80000E0B28DF851
:1029800001000221684600F0C1F809F101001FFAB8
:1029900080F908F101001FFA80F8B045EBDB781CE4
:1029A00087B2AF42E4DB49460FA001F017F80122DD
:1029B00011030C48FDF78CFFBDE8F8832D2D4C4327
:1029C000445F5749445448203D202530346420203A
:1029D0004C43445F484549474854203D2025303406
:1029E000640A0D00000C01402D2D2D2D2D2D2D2DB7
:1029F0002D2D2D2D7A203D20253034640A0D000028
:102A000000B585B000BF2548806940F00800234923
:102A100088610846806900F00800009000BF00BF90
:102A200000BF0846806940F0080088610846806958
:102A300000F00800009000BF00BF00BF084680699A
:102A400040F0040088610846806900F004000090AE
:102A500000BF00BF88140190012002900320049061
:102A600001A90F48FDF79AFD0220019001A90C4829
:102A7000FDF794FD802001900120029001A90948F2
:102A8000FDF78CFD012211030548FDF721FF01220E
:102A900080210448FDF71CFF05B000BD0010024076
:102AA000000C01400008014010B5002280210748B9
:102AB000FDF70EFF1420FDF7B3FC0122802103482F
:102AC000FDF706FF0A20FDF7ABFC10BD0008014032
:102AD00001B500224FF480510A48FDF7F9FE0022AB
:102AE00002210848FDF7F4FE4FF0FF33012269464A
:102AF0000548FFF79BF8012211030248FDF7E8FEA5
:102B000008BD0000000C01404401002070B50646DD
:102B10000C4600224FF480511148FDF7D9FE0122E6
:102B200002210F48FDF7D4FE11E0B4F5803F02D337
:102B30004FF6FF7000E0204685B24FF0FF332A4683
:102B400031460848FFF772F82E44641B00BF002C82
:102B5000EBD1012211030248FDF7BAFE70BD00005F
:102B6000000C01404401002070B504460D460026CB
:102B700000224FF480511D48FDF7AAFE01220221D8
:102B80001A48FDF7A5FE012D03D1207800F016FDAF
:102B900026E02E461AE000BF15480068806800F065
:102BA00002000228F8D1607811490968087300BF53
:102BB0000F480068806800F002000228F8D12078F1
:102BC0000B4909680873761EA41C761E002EE2D1FC
:102BD00000BF07480068806800F080000028F8D136
:102BE000012211030148FDF773FE70BD000C014086
:102BF000440100202DE9F84F04460D4616461F46B5
:102C000000224FF480512148FDF762FE1FFA84F83C
:102C10001FFA86F91FFA85FA1FFA87FB2A20FFF7A9
:102C200057FF4FEA28208DF8000008F0FF008DF8CC
:102C300001004FEA29208DF8020009F0FF008DF80D
:102C4000030004216846FFF761FF2B20FFF740FFD8
:102C50004FEA2A208DF800000AF0FF008DF80100ED
:102C60004FEA2B208DF802000BF0FF008DF80300D7
:102C700004216846FFF74AFF2C20FFF729FF0122B5
:102C800011030248FDF724FEBDE8F88F000C014057
:102C90000FB42DE9F84F06460F469046DDE90F9A2E
:102CA00000224FF480512948FDF712FEBDF836008E
:102CB0003844401E83B2BDF834003044401E82B216
:102CC00039463046FFF796FF002432E0A8F1200095
:102CD000BDF8361000FB01400E9931F810001C4978
:102CE0000860002520E01A480088A84000F4004051
:102CF00060B14FEA29208DF8000009F0FF008DF83F
:102D0000010002216846FFF701FF0CE04FEA2A208C
:102D10008DF800000AF0FF008DF8010002216846DE
:102D2000FFF7F4FE00BF6D1CBDF83400A842DAD8EE
:102D3000641CBDF83600A042C8D801221103034824
:102D4000FDF7C6FDBDE8F80F5DF814FB000C01406F
:102D5000840000200FB42DE9FE4F05460E461446B0
:102D6000DDE911784FF08009CA4600224FF4805106
:102D70001A48FDF7ADFD24E0BDF83C002844484565
:102D80000FDB0025BDF83E00304486B2BDF83E00A2
:102D90003044504500DB17E02078202801D1641C26
:102DA0000FE0CDE90178109800902278314628464E
:102DB0000F9BFFF76DFFBDF83C00284485B2641CF3
:102DC00000BF20780028D7D100BF0122110303489B
:102DD000FDF77EFDBDE8FE0F5DF814FB000C014021
:102DE00010B50B480B4908604FF41650486000219D
:102DF00008488160C160016181610C214161FFF778
:102E0000F5FB18B104A42046FDF770FA10BD0000D0
:102E100000440040FC00002048414C5F55415254A2
:102E20005F496E697400000000BFFEE7704770479D
:102E300008B508490968C9084FF47A72B1FBF2F184
:102E40004143009100BF00BF00994A1E0092002933
:102E5000F9D108BD4C0000201FB525208DF80F00CA
:102E600001208DF80D0007208DF80E0002208DF84E
:102E70000C00012203A91848FEF730FD18B117A471
:102E80002046FDF733FA23208DF8080059208DF8ED
:102E9000090055208DF80A00012202A90E48FEF70C
:102EA00099FD18B111A42046FDF720FA00200190E9
:102EB00014208DF8000045208DF8010001208DF8C8
:102EC0000200012269460448FEF782FC18B10BA4F7
:102ED0002046FDF70BFA1FBDE800002048414C5F7B
:102EE0005254435F536574446174650048414C5FBC
:102EF0005254435F53657454696D650048414C5F9B
:102F00005254435F536574416C61726D5F49540064
:102F100010B50248FEF7D8FA10BD0000E800002006
:102F2000014600BF080900EB8000420001F00F00DD
:102F30001044C0B270470146002203E0521CA1F1C8
:102F40000A00C1B20A29F9D2100741EA106070479D
:102F500030B589B004460D461A48016807914068AB
:102F60000890002218491948FEF7CCFA16488278D2
:102F700017A1194800F042FD1348427814A11748E0
:102F800000F03CFD1048C27811A1154800F036FD54
:102F9000134B124A104904A800F016FF04A911A00F
:102FA00000F01CFD4FF6FF704FF47841CDE90110A1
:102FB0000898009004AA29462046079BFFF7CAFEFE
:102FC00009B030BD9400002027000020E800002058
:102FD00025303264000000000600002008000020B8
:102FE0000A00002064617465203D2025730A0D00ED
:102FF0002DE9F04706468846002700240025A14613
:10300000F77B747BB57B00BF40E0012C0BD0032C19
:1030100009D0052C07D0072C05D0082C03D00A2C8A
:1030200001D00C2C0CD11F2D01D26D1C2CE00C2CCE
:1030300002D0641C012527E0012401257F1C23E028
:10304000042C05D0062C03D0092C01D00B2C06D162
:103050001E2D01D26D1C17E0641C012514E0022C0A
:1030600012D11C2D01D26D1C0EE01C2D08D1B8B25E
:1030700000F05CF808B16D1C06E0641C012503E05B
:103080001D2D01D1641C012509F10109C145BCD3E5
:10309000F7737473B573EAB2E1B2384600F01EF903
:1030A0003073BDE8F08770B504460025FDF716FCC7
:1030B000054607E0FDF712FC401BB0F57A7F01D909
:1030C000032070BD2068406800F020000028F1D087
:1030D0002068406840F01000216848600020F0E758
:1030E00070B5044600252068406820F01000216873
:1030F0004860FDF7F3FB054607E0FDF7EFFB401BDB
:10310000B0F57A7F01D9032070BD2068406800F0D7
:1031100020000028F1D00020F6E7000010B502489A
:10312000FEF787F910BD0000E8000020014601F01D
:10313000030008B1002070476420B1FBF0F200FBEF
:10314000121008B10120F6E74FF4C870B1FBF0F29D
:1031500000FB121008B90120EDE70020EBE7014663
:10316000002200230868006A82B20868406A83B2BD
:1031700043EA0240704730B5014600220023002494
:1031800000200D68AD69AAB20D68ED69ACB20D689A
:10319000AD69ABB29A4205D00D68ED6963F31F4586
:1031A000284601E044EA024030BD00001CB525205D
:1031B0008DF8070001208DF8050007208DF8060026
:1031C00002208DF80400012201A91248FEF786FBB7
:1031D00018B111A42046FDF789F823208DF80000CE
:1031E00059208DF8010055208DF802000122694612
:1031F0000848FEF7EFFB18B10BA42046FDF776F860
:103200000448FEF73DF918B10BA42046FDF76EF80F
:103210001CBD0000E800002048414C5F5254435F51
:10322000536574446174650048414C5F5254435F78
:1032300053657454696D650048414C5F5254434571
:10324000785F5365745365636F6E645F4954000023
:1032500030B589B004460D461848016807914068AA
:103260000890002216491748FEF775F914480278AD
:1032700015A1174800F0C2FB1148427812A1154869
:1032800000F0BCFB0E4882780FA1134800F0B6FB9B
:10329000114B104A0E4904A800F0B4FD4FF6FF7020
:1032A0004FF47841CDE901100898009004AA29460E
:1032B0002046079BFFF74EFD09B030BD940000206B
:1032C00024000020E80000202530326400000000C7
:1032D0000C0000200E00002010000020F0B5044675
:1032E0000B460021002504F5FA61032B1BD2C3EB2A
:1032F000C30000EB03100926B0FBF6F01044001DDC
:103300004618481E06EB90066427B0FBF7F0361A05
:10331000481EBF00B0FBF7F030440726B0FBF6F7BD
:1033200006FB17051AE0C3EBC30000EB03100926E8
:10333000B0FBF6F01044001D084400EB9100642639
:10334000B1FBF6F6801B4FF4C876B1FBF6F63044BD
:10335000801E0726B0FBF6F706FB1705E8B2F0BDA6
:1033600070B504460D4600262046FFF79CFE08B1C6
:1033700001260AE0280C21680862A8B22168486288
:103380002046FFF7ADFE00B10126304670BD70B596
:1033900004460D4600262046FFF785FE08B10126AB
:1033A0000AE0280C21688861A8B22168C86120461B
:1033B000FFF796FE00B10126304670BDF8B5044611
:1033C0000E4615463346012202212046009500F0A4
:1033D0001BF828B1606D40F0200060650320F8BD47
:1033E0003346002280212046009500F00DF828B1D8
:1033F000606D40F0200060650320F0E70020EEE7FC
:1034000001460120704700002DE9F84F04460D46A3
:1034100090461E46DDF82890FDF760FAA0EB090003
:10342000371AFDF75BFA82462C480068C0F3CB30B0
:103430007843009045E0701C002842D0FDF74EFA1A
:10344000A0EB0A00B84200D2A7BB2068406820F079
:10345000E000216848606068B0F5827F0DD1A06807
:10346000B0F5004F03D0A068B0F5806F05D120689B
:10347000006820F0400021680860A06AB0F5005F95
:103480000DD100BF2068006820F40050216808605A
:103490002068006840F400502168086000BF0120E7
:1034A00084F8510000BF002084F8500000BF0320C2
:1034B000BDE8F88FFFE7009800B900270098401E8C
:1034C0000090206880682840A84201D1012000E0D7
:1034D00000204045AFD10020EAE700004C0000206A
:1034E00010B50348FEF704FB00F004F810BD00001F
:1034F0004401002010B51148FEF715FBE8B910484B
:103500000E49086000210D48C161816001214161BF
:1035100002210161002181620721C1620021C16095
:1035200001624FF400718161002141624FF48270A9
:10353000024948600846FEF7FAFA10BD440100202F
:103540000038004000B585B0002001900290039043
:10355000049000BF1748806940F008001549886151
:103560000846806900F00800009000BF00BF4FF4DB
:1035700000500190022002900320049001A90E48FF
:10358000FDF70CF84FF40040019001A90A48FDF73F
:1035900005F800BF0748C06940F480400549C8618C
:1035A0000846C06900F48040009000BF00BF05B02D
:1035B00000BD000000100240000C014011B583B0B6
:1035C000002407480068012302AA03A900900548C7
:1035D000FEF727FC04460CB1FFF782FF1FBD000079
:1035E0005800002044010020704710B5FDF77CF919
:1035F00010BD000010B594B028210AA8FCF79BFD6F
:10360000142105A8FCF797FD00200190029003907B
:10361000049005200A904FF480300B9000200C900D
:1036200001200D900E9002201190C10312914FF4D1
:10363000E01113910AA8FDF769FC18B112A4204605
:10364000FCF754FE0F200590022006900020079002
:103650004FF48060089000200990022105A8FDF732
:1036600031FB18B10DA42046FCF740FE012001906B
:103670000002029001A8FDF78DFA18B10CA42046B3
:10368000FCF734FE14B010BD48414C5F5243435F19
:103690004F7363436F6E66696700000048414C5F7B
:1036A0005243435F436C6F636B436F6E66696700A1
:1036B00048414C5F52434345785F5065726970687A
:1036C000434C4B436F6E666967000000704770B5EE
:1036D00005466C6A0020E085E0842046FEF700FE87
:1036E00070BD00BF00BF02680C3252E8002F22F408
:1036F000907102680C3242E80013002BF3D100BF36
:1037000000BF00BF0268143252E8002F22F001010E
:103710000268143242E80013002BF3D100BF016BA2
:1037200001290ED100BF00BF02680C3252E8002F01
:1037300022F0100102680C3242E80013002BF3D192
:1037400000BF202180F8421000210163704710B5AE
:1037500004462068C06820F040002168C86020202E
:1037600084F841002046FEF7EDFF002010BDF8B5BB
:10377000044694F84200222875D1A068B0F5805F15
:103780000CD1206950B90025A66A20684068C0F3B2
:1037900008003080A06A801CA06215E0A56A00269F
:1037A000A068B0F5805F03D0A06828B9206918B977
:1037B00020684068287004E02068406800F07F00BE
:1037C0002870A06A401CA062E08D401E80B2E08597
:1037D000002846D12068C06820F020002168C86019
:1037E0002068C06820F480702168C8602068406943
:1037F00020F0010021684861202084F84200002068
:103800006063206B012826D10020206300BF00BF29
:1038100021680C3151E8001F21F0100021680C31A3
:1038200041E80002002AF3D100BF2068006800F0E0
:10383000100010280AD100BF002000902068006806
:10384000009020684068009000BF00BFA18D204616
:10385000FEF744FD02E02046FEF752FF0020F8BDCF
:1038600001E00020FBE70220F9E7000070B5044604
:103870002168096921F44051E2681143226811610D
:103880002269A1681143626941EA02052168C96899
:1038900041F20C62914329432268D1602168496951
:1038A00021F44071A2691143226851612D4A2168B7
:1038B000914202D1FDF7E2FA01E0FDF7CFFA00EB09
:1038C000C00101EB001162689200B1FBF2F100EB64
:1038D000C00202EB001263689B00B2FBF3F26423A8
:1038E000B2FBF3F202EBC20303EB0212A1EB820183
:1038F000322202EB01116422B1FBF2F101F0F0017E
:1039000000EBC00202EB001263689B00B2FBF3F213
:103910006423B2FBF3F201EB021200EBC00101EBF6
:10392000001163689B00B1FBF3F100EBC00303EBF4
:1039300000136668B600B3FBF6F36426B3FBF6F338
:1039400003EBC30606EB0313A1EB8301322303EB66
:1039500001116423B1FBF3F101F00F01114422685E
:10396000916070BD00380140014691F84100212866
:1039700028D18868B0F5805F0BD1086948B90A6A18
:103980001088C0F308000B685860086A801C086241
:1039900005E00B6A581C086218780B685860C88CE0
:1039A000401E80B2C88458B90868C06820F0800002
:1039B0000B68D8600868C06840F040000B68D860A9
:1039C000002070470220FCE710B50248FEF798FC83
:1039D00010BD0000FC00002000BFFEE70FB4054B47
:1039E00010B503A9044A029800F048F810BC5DF82D
:1039F00014FB00003D3E0008120000200FB4084BED
:103A000010B504A902AA039800F038F8044602A9E8
:103A1000002000F0D4F9204610BC5DF814FB000033
:103A2000BF3D000802480068C0F302207047000054
:103A30000CED00E010B5002804DB0A07130E054A60
:103A4000135406E00A07140E034A00F00F031B1F6D
:103A5000D45410BD00E400E018ED00E002E008C816
:103A6000121F08C1002AFAD170477047002001E0F8
:103A700001C1121F002AFBD1704700002DE9FF4F42
:103A80008BB088460546002606E025280BD0DDE9E8
:103A90000D1290476D1C761C28780028F5D10FB0C8
:103AA0003046BDE8F08F0024A146A2460122AE496F
:103AB00000E0044315F8013F203B02FA03F00842FE
:103AC000F7D128782A2810D06FF02F022878A0F19B
:103AD0003001092915D809EB890102EB410144F0B5
:103AE000020400EB01096D1CF0E758F8041B5FEAC3
:103AF000010903D544F40054C9F1000944F002045B
:103B00006D1C28782E2817D115F8010F44F00404F5
:103B10002A280ED06FF02F022878A0F13001092951
:103B20000AD80AEB8A0102EB410100EB010A6D1C85
:103B3000F2E758F804AB6D1C28786C280FD006DC2F
:103B40004C2817D068280DD06A2814D104E07428B6
:103B500010D07A280FD10DE044F400140AE044F4A8
:103B6000801401E044F440146978814202D104F5E4
:103B700080146D1C6D1C2878692865D006DC00282F
:103B80008DD0632827D0642806D15DE06E2808D048
:103B900073282AD0752877D0DDE90D129047761C5E
:103BA000E0E0C4F30250022809D003280DD0D8F871
:103BB000001004280DD00E6008F10408D2E0D8F8F7
:103BC0000010F217C1E90062F6E7D8F800100E8085
:103BD000F2E70E70F0E718F8041B8DF800100020D3
:103BE0008DF80100EB46012003E058F804BB4FF0CC
:103BF000FF3061074FF0000701D40AE07F1C5745F2
:103C00000DDA8742FADB1BF807100029F6D106E02F
:103C10007F1C8742FCDB1BF807100029F8D1DDE987
:103C20000D23A9EB07008146214600F0B1F830448E
:103C3000C61904E0DDE90D121BF8010B90477F1E49
:103C4000F8D22146484688E058F8040BC4F30251E4
:103C50004FF00A0B032900D100B2042900D140B271
:103C6000002802DA40422D2102E0210505D52B2152
:103C70008DF82410012104E006E0E10710D0202196
:103C8000F6E708AF089113E058F8040BC4F30251AB
:103C90004FF00A0B032900D180B2042900D1C0B231
:103CA0000021EEE75946FCF75BFA303107F8011DB9
:103CB0000028F7D1ADEB070000F1200B600702D51B
:103CC00024F4803401E04FF0010ADA4502DDAAEB6A
:103CD0000B0000E00020824600EB0B010898014435
:103CE000A9EB01000A90E00306D4DDE90D2321468B
:103CF0000A9800F04DF806444FF0000908E009A9C1
:103D000011F80900DDE90D12904709F10109761C4F
:103D100008998945F3DBE0030CD5DDE90D23214645
:103D20000A9800F035F8064404E0DDE90D12302071
:103D30009047761CBAF10001AAF1010AF5DC05E012
:103D4000DDE90D1217F8010B9047761CBBF100015D
:103D5000ABF1010BF4DC0A982146DDE90D2300F0FC
:103D600005F806446D1C97E6092801002DE9F0418D
:103D7000044600251E461746880404D405E039464B
:103D80002020B0476D1C641EF9D52846BDE8F0819F
:103D90002DE9F041044600251E469046C80301D592
:103DA000302700E02027880404D505E04146384646
:103DB000B0476D1C641EF9D52846BDE8F0810A683D
:103DC000531C0B60107070471CB50CA42468019440
:103DD0000BA4246800940C8804809DF8044084702F
:103DE0001488A0F803409DF804404471BDF80040D9
:103DF000C4801C880481002484721CBD2E00000035
:103E0000323000001CB50BA4246801940AA4246875
:103E100000940C8804809DF8044084701488A0F8F5
:103E200003409DF8044044711C88C480002404723F
:103E30001CBD00003A0000003230000070B504469E
:103E40000D462046FEF786FC70BD00008AB0FCF7E8
:103E500057FDFFF7CFFB0020FCF7D8F9FEF7C0FFB6
:103E6000EDA0EE490860EEA04860F0A0C860F3A0A5
:103E70008860F5A0F5490860F5A04860F8A0C86022
:103E8000FAA08860FCA008610120FE490870FE4885
:103E900000680068FC480068C068EC48006805904D
:103EA000DE4800680490059900F034FB10B1002052
:103EB000F4490870E54840680590D8484068049087
:103EC000059900F027FB10B10020EE490870DF488B
:103ED000C0680590D148C0680490059900F01AFBAD
:103EE00010B10020E7490870E848E94908604FF040
:103EF000FF3048600846FDF7B1FB20B1E5A0059012
:103F00000598FCF7F3F9FEF77BFDFFF71BFBFFF7C6
:103F1000F1FAE4A0FFF762FDFCF74AF9EF48016807
:103F2000089140680990802007900690D548007855
:103F300001287DD1C54800680590B8480068049004
:103F4000059900F0E7FA20B1E5A005900598FCF787
:103F5000CDF9462106984843642190FBF1F080B2E8
:103F600005900798800090FBF1F080B204904FF626
:103F7000FF704FF47841CDE9011009980090A748EF
:103F8000006803900246089BDDE90401FEF7E2FEAB
:103F9000069800EB001000EB8000642190FBF1F02C
:103FA00080B205900798800090FBF1F080B20490F9
:103FB0004FF6FF704FF47841CDE901100998009059
:103FC000A248006803900246089BDDE90401FEF761
:103FD000C1FE4FF4FA70FCF723FA9C484068059044
:103FE0008E4840680490059900F094FA20B1BCA076
:103FF00005900598FCF77AF9462106984843642114
:1040000090FBF1F080B205904FF6FF700090002019
:10401000DDE906320599FEF7BBFB462106984843C9
:10402000642190FBF1F080B205900798800000E0D9
:10403000D5E090FBF1F080B204904FF6FF704FF4A2
:104040007841CDE9011009980090744840680390C8
:104050000246089BDDE90401FEF77CFE069800EBB2
:10406000001000EB8000642190FBF1F080B205901D
:104070000798800090FBF1F080B24FF6FF7104903A
:104080004FF47840CDE90101099800906F484068ED
:1040900003900246089BDDE90401FEF75BFE4FF446
:1040A000FA70FCF7BDF96948C06805905B48C068C4
:1040B0000490059900F02EFA20B189A0059005988A
:1040C000FCF714F9462106984843642190FBF1F06F
:1040D00080B205904FF6FF7000900020DDE90632B7
:1040E0000599FEF755FB462106984843642190FB4D
:1040F000F1F080B205900798800090FBF1F080B25B
:104100004FF6FF7104904FF47840CDE90101099812
:1041100000904248C06803900246089BDDE9040114
:10412000FEF718FE069800EB001000EB80006421FB
:1041300090FBF1F080B2059007988100642091FB1C
:10414000F0F080B204904FF6FF704FF47841CDE963
:104150000110099800903D48C06803900246089BF2
:10416000DDE90401FEF7F6FD4FF4FA70FCF758F9AB
:10417000462106984843642190FBF1F080B20590F7
:104180004FF6FF7000900020DDE906320599FEF73A
:10419000FFFA39A02D490861069800EB001000EBEA
:1041A0008000642190FBF1F080B2059007988100B7
:1041B000642091FBF0F080B24FF6FF7104904FF451
:1041C0007840CDE9010109980090204800690390EA
:1041D0000246089BDDE90401FEF7BCFD96E043A121
:1041E0001A480161069800EB001000EB8000642182
:1041F00090FBF1F080B205900798800090FBF1F001
:1042000080B24FF6FF7104904FF47840CDE9010180
:10421000099800900D4871E041540000CA04002044
:1042200041542B56455253494F4E000041542B4E9A
:10423000414D456D7948432D3036000041542B42A5
:1042400041554438000000004F4B0000DA040020C4
:104250004F4B6C696E766F7256312E38000000003D
:104260004F4B7365746E616D650000004F4B3131CB
:104270003532303000000000424C207072657365AA
:104280006E74000032000020FC0000200028004076
:10429000E800002048414C5F5254435F496E697406
:1042A000000000003D3D3D3D3D3D3D3D3D3D3D3D32
:1042B0003D3D3D3D3D3D5374617274205254432059
:1042C00057617463683D3D3D3D3D3D3D3D3D3D3D58
:1042D0003D3D3D3D3D3D3D3D0A0D0000940000202B
:1042E0006D7945786368616E67650000424C206EA9
:1042F0006F742070726573656E74000000690390BE
:104300000246089BDDE90401FEF724FD0020614917
:10431000087000215F4841705FA0FFF75FFB0698BF
:1043200000EB8001642091FBF0F080B205900798CB
:104330008100642091FBF0F080B204904FF6FF7092
:104340004FF47841CDE90110099800905DA2089BD7
:10435000DDE90401FEF7FEFC069800EB8000C000DA
:10436000642190FBF1F080B205900798800090FBEB
:10437000F1F080B204904FF6FF704FF47841CDE930
:1043800001100998009052A2089BDDE90401FEF794
:10439000E1FCFEF761FD069800EB800081006420DF
:1043A00091FBF0F080B2059007988100642091FBAA
:1043B000F0F080B204900599FEF7CAFD069800EB74
:1043C000C001C1EB8011642091FBF0F080B2059038
:1043D00007988000642190FBF1F080B20490059969
:1043E000FEF736FF3D4880783D490870FEF7DEFE57
:1043F0004FE03A480078C0EB00108000C0EB00109E
:10440000810036484078C0EB001001EB8001334852
:104410008078014433480088814211DC32480078BA
:1044200070B13248C07805903048407804902F48E9
:104430008078039001462EA0DDE90423FFF7CEFA31
:10444000069800EB80008000642190FBF1F080B2C0
:1044500005900798800090FBF1F080B204900599D8
:10446000FEF776FD1D480078C0EB00108000C0EB21
:104470000010810019484078C0EB001001EB80006B
:1044800016498978084481B21648018000201649EF
:104490000870AEE7BC0400203D3D3D3D3D3D3D3D47
:1044A0003D3D3D4141414141414141414141414108
:1044B0003D3D3D3D3D3D3D3D3D3D3D3D3D3D0A0D8F
:1044C000000000005265616C20446174653A000090
:1044D0005265616C2054696D653A0000240000202B
:1044E000310000203400002033000020270000208D
:1044F00059656172203D202564204D6F6E746820DF
:104500003D2025642044617465203D2025640A0D0A
:10451000000000002DE9F84F05460C4628480560CC
:10452000142200210068FBF711FE80462448007821
:10453000A8EB000000F0FF094A4621480168214825
:10454000FEF7E4F820B10FF2800A5046FBF7CEFEEA
:1045500000BF234800780128FBD1002020490870C3
:10456000142200212046FBF7F1FD0646301B87B2DE
:104570000C20144988854FF4FA6001F12C033A4667
:10458000184900900F48FDF715FE30B101280FD0F3
:1045900002280ED0032810D10DE03A4621461148DA
:1045A000FBF78AFE10B10120BDE8F88F0020FBE781
:1045B00003E00220F8E70320F6E700BF0020F3E75E
:1045C0002C000020FC00002048414C5F5541525413
:1045D0005F5472616E736D69745F4954000000002E
:1045E00000000020BC04002008B50020009013202B
:1045F000FEF76EFA0A20FEF7C5F82820FEF768FAE3
:104600000A20FEF7BFF83620FEF762FAC0200090BD
:1046100001216846FEF7A8FA08BD08B50020009001
:104620001320FEF755FA0A20FEF7ACF82920FEF712
:104630004FFA0A20FEF7A6F83620FEF749FAC02006
:10464000009001216846FEF78FFA08BD2DE9F04180
:10465000074688461446002500266688A08846EA54
:1046600000466589A08945EA0045701B46082C4430
:104670004021362000F0CAF94146384600F03AF9A8
:1046800071002046FEF770FAC021362000F0BEF916
:10469000BDE8F0812DE9F04107460D4690461C46E5
:1046A00000262819802801DDBDE8F0814146284612
:1046B00000F020F9002604E0064820F81670701C6F
:1046C000C6B2A642F8DB61000248FEF74DFA00BF11
:1046D000EAE70000600800202DE9F041074688461F
:1046E00014461D4600266019802801DDBDE8F081D2
:1046F000002607E0A01981B23A46404600F069F969
:10470000701CC6B2AE42F5DB00BFEFE780207047F9
:104710008020704700B585B0002004900A20FBF788
:104720007FFEFEF7C1F90120FEF7D2F99620FBF7D4
:1047300077FE1120FEF7CCF9FF20FBF771FEB120C8
:10474000FEF7C6F95AA000680390032103A8FEF7FC
:10475000DDF9B220FEF7BCF955A0006803900321F3
:1047600003A8FEF7D3F9B320FEF7B2F951A103C9AC
:10477000CDE90201062102A8FEF7C8F9B420FEF730
:10478000A7F907200490012104A8FEF7BFF9C02073
:10479000FEF79EF949A000680390032103A8FEF7E5
:1047A000B5F9C120FEF794F9C5200490012104A8B1
:1047B000FEF7ACF9C220FEF78BF941A00068039028
:1047C000022103A8FEF7A2F9C320FEF781F93DA05C
:1047D00000680390022103A8FEF798F9C420FEF7B1
:1047E00077F939A000680390022103A8FEF78EF93B
:1047F000C520FEF76DF90E200490012104A8FEF7F4
:1048000085F92020FEF764F93620FEF761F9C8200B
:104810000490012104A8FEF779F93A20FEF758F92F
:1048200005200490012104A8FEF770F92A20FEF764
:104830004FF926A000680390042103A8FEF766F94B
:104840002B20FEF745F921A000680390042103A85E
:10485000FEF75CF9E020FEF73BF91DA30FCB8DE8D6
:104860000F0010216846FEF751F9E120FEF730F9FC
:104870001BA3D3E901211868DB68CDE90213CDE958
:10488000000210216846FEF741F91320FEF720F9D7
:104890000A20FBF7C5FD2920FEF71AF96420FBF773
:1048A000BFFD012211031248FCF712F805B000BD4C
:1048B000012C2D00012C2D012C2D0000A2028400C2
:1048C0000A0000008A2A00008AEE00000000007F33
:1048D000021C07123732292D29252B39000103101C
:1048E000031D07062E2C292D2E2E373F0000021007
:1048F000000C014038B505460C46002000902A20E7
:10490000FEF7E6F82812009001216846FEF72CF920
:10491000E8B2009001216846FEF726F92B20FEF749
:10492000D7F82012009001216846FEF71DF9E0B289
:10493000009001216846FEF717F92C20FEF7C8F811
:1049400038BDF8B504460D4616461F4600200090B7
:104950002A20FEF7BDF82012009001216846FEF7DC
:1049600003F9E0B2009001216846FEF7FDF8A019B6
:10497000401EC0F30720009001216846FEF7F4F8BE
:10498000A019401EC0B2009001216846FEF7ECF865
:104990002B20FEF79DF82812009001216846FEF7B3
:1049A000E3F8E8B2009001216846FEF7DDF8E81967
:1049B000401EC0F30720009001216846FEF7D4F89E
:1049C000E819401EC0B2009001216846FEF7CCF8FD
:1049D000F8BDF8B506460D46144600200090802E1E
:1049E00001DA802D00DBF8BD29463046FFF782FF53
:1049F0002012009001216846FEF7B6F8E0B2009060
:104A000001216846FEF7B0F800BFECE713B5044695
:104A10002046FEF75DF8012101A8FEF7A5F81CBDB0
:104A200002030405060708090A0B0C0D0E0F1010EF
:104A3000010202030405060708090A0B0C0D0E0FFC
:104A40001010010200000000000000000102030439
:104A5000060708090000000001020304002001000D
:104A60000600000000000000000000000000000040
:104A70000000000000000000000000000000000036
:104A80000000000000000000000000000000000026
:104A90000000000000000000000000000000000016
:104AA0000000000000000000000000000000000303
:104AB00080000380000380000380000380000380E7
:104AC000000380000380000380000100000100005B
:104AD00000000000000003800003800000000000D0
:104AE00000000000000000000000000000000000C6
:104AF000000000000000000000000E70000E7000BA
:104B00000E70000420000420000420000420000097
:104B10000000000000000000000000000000000095
:104B20000000000000000000000000000000000085
:104B3000000000000000000000000000000000066F
:104B400060000660000660000660000660003FF836
:104B5000003FF8000660000CC0003FF8003FF8007E
:104B60000CC0000CC0000CC0000CC0000CC0000049
:104B70000000000000000000000000000000000035
:104B80000000000001800001800007B0000FF0006D
:104B90001870001870001C00000F800007E0000073
:104BA000F0001830001C30001C70001FE0001BC01B
:104BB00000018000018000018000018000000000F1
:104BC00000000000000000000000000000000007DE
:104BD00080000FC0001CE0001860001860001CE09E
:104BE000000FF80007E0001FF0000738000618006B
:104BF00006180007380003F00001E0000000000084
:104C000000000000000000000000000000000000A4
:104C10000000000000000000000000000003F000A1
:104C200007F0000C60000C00000C000006000007FC
:104C300000000F9C001DFC0018F0001870000FFC15
:104C40000007DC0000000000000000000000000081
:104C50000000000000000000000000000000000054
:104C600000000380000380000380000100000100B9
:104C70000001000001000000000000000000000032
:104C80000000000000000000000000000000000024
:104C90000000000000000000000000000000000014
:104CA0000000000000000000180000380000700044
:104CB00000F00000E00000E00001C00001C00001C1
:104CC000C00001C00001C00001C00000E00000E021
:104CD00000007000007000003800001800000000A4
:104CE00000000000000000000000000000000018AC
:104CF00000001C00000E00000E000007000007006E
:104D00000003800003800003800003800003800014
:104D10000380000700000700000F00000E00001CC9
:104D2000000018000000000000000000000000006B
:104D300000000000000000018000018000018000F0
:104D40001DB8001FF80007E00003C00003C0000604
:104D5000600006600000000000000000000000008D
:104D60000000000000000000000000000000000043
:104D70000000000000000000000000000000000033
:104D8000000000000001800001800001800001801F
:104D9000000180003FFC003FFC000180000180001A
:104DA0000180000180000180000000000000000080
:104DB00000000000000000000000000000000000F3
:104DC00000000000000000000000000000000000E3
:104DD00000000000000000000000000000000000D3
:104DE000000000000000000000000000E00000C023
:104DF0000001C000018000018000030000030000EA
:104E000000000000000000000000000000000000A2
:104E10000000000000000000000000000000000092
:104E2000000000001FF8001FF80000000000000054
:104E30000000000000000000000000000000000072
:104E40000000000000000000000000000000000062
:104E50000000000000000000000000000000000052
:104E60000000000000000000000000000000000042
:104E7000000000000000000000000003C00003C0AC
:104E80000003C0000000000000000000000000005F
:104E900000000000000000000000180000180000E2
:104EA000380000300000700000600000600000C0AA
:104EB0000000C0000180000180000300000300002A
:104EC0000600000600000E00000C00001C00001888
:104ED00000001800000000000000000000000000BA
:104EE0000000000000000003C00007E0000C3000DC
:104EF0000C3000181800181800181800181800189E
:104F000018001818001818000C30000C300007E0CA
:104F10000003C000000000000000000000000000CE
:104F20000000000000000000000000000000000081
:104F300080000780001F80001D800001800001802C
:104F400000018000018000018000018000018000DC
:104F50000180000180001FF8001FF8000000000021
:104F60000000000000000000000000000000000041
:104F70000000000000000007C0001FF000383000F3
:104F800030180030180000180000300000600001E8
:104F9000C0000380000600000C00001800003FF86D
:104FA000003FF800000000000000000000000000CA
:104FB00000000000000000000000000000000003EE
:104FC000C0000FE0000C70000030000030000060F6
:104FD0000003C00003E0000070000018000018008B
:104FE0000018001838001FF0000FC000000000007B
:104FF00000000000000000000000000000000000B1
:105000000000000000000000E00001E00001E000FE
:105010000360000660000660000C60000C60001871
:1050200060003060003FF8003FF80000600003F8C7
:105030000003F80000000000000000000000000075
:105040000000000000000000000000000000001F41
:10505000F0001FF0001800001800001800001BC02E
:10506000001FF0001C30000018000018000018009D
:105070000018003030003FF0000FC00000000000BA
:105080000000000000000000000000000000000020
:105090000000000000000000F80003F80007000016
:1050A0000E00000C00001800001BC0001FF0001CC8
:1050B00030001818001818001818000C38000FF0ED
:1050C0000003E000000000000000000000000000FD
:1050D0000000000000000000000000000000001FB1
:1050E000F8001FF8001818001838000030000030D1
:1050F0000000700000600000600000E00000C000E0
:1051000000C00001C000018000018000000000001C
:10511000000000000000000000000000000000008F
:105120000000000000000007E0000FF0001C380045
:105130001818001818000C300007E00007E0000CF9
:1051400030001818001818001818001C38000FF04C
:105150000007E00000000000000000000000000068
:105160000000000000000000000000000000000738
:10517000C0000FF0001C3000181800181800181894
:10518000000C38000FF80003D800001800003000B1
:1051900000700000E0001FC0001F000000000000C1
:1051A00000000000000000000000000000000000FF
:1051B00000000000000000000000000000000000EF
:1051C00000000003C00003C00003C0000000000096
:1051D000000000000000000000000003C00003C049
:1051E0000003C000000000000000000000000000FC
:1051F00000000000000000000000000000000000AF
:10520000000000000000000000000000F00000F0BE
:105210000000F0000000000000000000000000009E
:1052200000E00001C00001800001800003000002D6
:10523000000000000000000000000000000000006E
:1052400000000000000000000000000000001C0042
:10525000003C0000F00003C0000F00003C0000F024
:1052600000003C00000F000003C00000F000003C04
:1052700000001C0000000000000000000000000012
:10528000000000000000000000000000000000001E
:1052900000000000000000000000000000007FFC93
:1052A000007FFC000000000000007FFC007FFC008D
:1052B00000000000000000000000000000000000EE
:1052C00000000000000000000000000000000000DE
:1052D000000000000000000000000000007000005E
:1052E0007800001E000007800001E0000078000048
:1052F0001E0000780001E0000780001E000078001A
:10530000007000000000000000000000000000002D
:10531000000000000000000000000000000000008D
:10532000000007C0000FE0001870001830001830AF
:105330000000700000E00003C000038000030000D4
:10534000000000000000070000070000000000004F
:10535000000000000000000000000000000000004D
:105360000000000000000003E00007F0000E38001D
:105370000C180018780018F80019D80019980019AE
:10538000980019980018F8001878001800000C0010
:10539000000E180007F80003E00000000000000005
:1053A00000000000000000000000000000000000FD
:1053B00000001F80001FC00001C0000360000360E8
:1053C000000630000630000C30000FF8001FF80017
:1053D000180C00300C00FC7F00FC7F000000000077
:1053E00000000000000000000000000000000000BD
:1053F000000000000000000000007FE0007FF000DF
:105400001838001818001818001838001FF0001F6E
:10541000F800181C00180C00180C00180C007FF87D
:10542000007FF0000000000000000000000000000D
:10543000000000000000000000000000000000006C
:10544000000003EC000FFC001C1C00180C00300CCA
:10545000003000003000003000003000003000005C
:10546000180C001C1C000FF80003F00000000000E6
:10547000000000000000000000000000000000002C
:10548000000000000000000000007FC0007FF0006E
:10549000183800181800180C00180C00180C001808
:1054A0000C00180C00180C001818001838007FF0B9
:1054B000007FE0000000000000000000000000008D
:1054C00000000000000000000000000000000000DC
:1054D00000007FF8007FF8001818001818001998CD
:1054E000001980001F80001F80001980001998009B
:1054F0001818001818007FF8007FF800000000005E
:10550000000000000000000000000000000000009B
:10551000000000000000000000003FFC003FFC0015
:105520000C0C000C0C000CCC000CC0000FC0000FC9
:10553000C0000CC0000CC0000C00000C00003FC0FC
:10554000003FC0000000000000000000000000005C
:10555000000000000000000000000000000000004B
:10556000000003EC000FFC001C1C00180C00300CA9
:105570000030000030000030FE0030FE00300C0033
:10558000380C001C1C000FFC0003F00000000000A1
:10559000000000000000000000000000000000000B
:1055A000000000000000000000007E7E007E7E0003
:1055B0001818001818001818001818001FF8001FF5
:1055C000F8001818001818001818001818007E7E27
:1055D000007E7E00000000000000000000000000CF
:1055E00000000000000000000000000000000000BB
:1055F00000001FF8001FF8000180000180000180FA
:105600000001800001800001800001800001800015
:105610000180000180001FF8001FF800000000005A
:10562000000000000000000000000000000000007A
:105630000000000000000000000007FE0007FE0060
:10564000003000003000003000003000003000303A
:1056500030003030003030003030003060003FE04B
:10566000000F8000000000000000000000000000AB
:10567000000000000000000000000000000000002A
:1056800000007F3E007F3E0018300018600018C008
:10569000001980001B80001FC0001CE00018700073
:1056A0001830001838007F1F007F1F000000000026
:1056B00000000000000000000000000000000000EA
:1056C000000000000000000000007F80007F8000DC
:1056D0000C00000C00000C00000C00000C00000C82
:1056E00000000C0C000C0C000C0C000C0C007FFCDF
:1056F000007FFC000000000000000000000000002F
:105700000000000000000000000000000000000099
:105710000000F00F00F81F00381C003C3C003C3C2F
:1057200000366C00366C0033CC0033CC00318C007A
:10573000300C00300C00FE7F00FE7F0000000000F7
:105740000000000000000000000000000000000059
:105750000000000000000000000078FE0078FE005D
:105760001C18001E18001F18001B18001B98001999
:10577000D80018D80018F8001878001838007F18DA
:10578000007F180000000000000000000000000082
:105790000000000000000000000000000000000009
:1057A000000003C0000FF0001C3800181800381C5F
:1057B00000300C00300C00300C00300C00381C00A5
:1057C0001818001C38000FF00003C0000000000093
:1057D00000000000000000000000000000000000C9
:1057E000000000000000000000003FF0003FF80053
:1057F0000C1C000C0C000C0C000C0C000C18000F06
:10580000F8000FE0000C00000C00000C00003FC08E
:10581000003FC00000000000000000000000000089
:105820000000000000000000000000000000000078
:10583000000003C0000FF0001C3800181800381CCE
:1058400000300C00300C00300C00300C00381C0014
:105850001818001C38000FF00007C00007CC000F1C
:10586000FC000C38000000000000000000000000F8
:10587000000000000000000000007FE0007FF0005A
:105880001838001818001818001838001FF0001FEA
:10589000C00018E0001870001830001838007F1E93
:1058A000007F0E000000000000000000000000006B
:1058B00000000000000000000000000000000000E8
:1058C000000007D8000FF8001C380018180018183E
:1058D000001E00000FC00003F00000780018180040
:1058E0001818001C38001FF0001BE000000000002A
:1058F00000000000000000000000000000000000A8
:10590000000000000000000000003FFC003FFC0021
:10591000318C00318C00318C00318C000180000111
:1059200080000180000180000180000180000FF0F4
:10593000000FF00000000000000000000000000068
:105940000000000000000000000000000000000057
:1059500000007E7E007E7E001818001818001818BF
:105960000018180018180018180018180018180047
:105970001818000C30000FF00003C00000000000F9
:105980000000000000000000000000000000000017
:10599000000000000000000000007F7F007F7F000B
:1059A000180C000C18000C18000C1800063000062B
:1059B000300003600003600003600001C00001C00C
:1059C0000000800000000000000000000000000057
:1059D00000000000000000000000000000000000C7
:1059E0000000FE3F80FE3F8030060030060030861B
:1059F0000019CC0019CC001B6C001B6C001E7C0035
:105A00000E38000E38000C18000C180000000000C2
:105A10000000000000000000000000000000000086
:105A2000000000000000000000007E7E007E7E007E
:105A30001818000C300006600003C000018000014F
:105A4000800003C0000660000C30001818007E7E45
:105A5000007E7E000000000000000000000000004A
:105A60000000000000000000000000000000000036
:105A700000007C7E007C7E001818000C3000066060
:105A80000006600003C0000180000180000180006A
:105A90000180000180000FF0000FF0000000000006
:105AA00000000000000000000000000000000000F6
:105AB000000000000000000000001FF8001FF800B8
:105AC00018180018300018600018C000018000038A
:105AD00000000618000C18001818003018003FF8D5
