:020000040800F2
:10000000100C002005010008AD2300089D21000808
:10001000A92300082503000855340008000000004B
:10002000000000000000000000000000B9300008DF
:100030002903000800000000AF230008BB300008BF
:100040001F0100081F0100081F0100088D2600087D
:100050001F0100081F0100082B0300081F010008F2
:100060001F0100081F0100081F0100081F010008F0
:100070001F0100081F0100081F0100081F010008E0
:100080001F0100081F0100081F0100081F010008D0
:100090001F0100081F0100081F0100081F010008C0
:1000A0001F0100081F0100081F0100081F010008B0
:1000B0001F0100081F0100081F0100081F010008A0
:1000C0001F0100081F0100081F0100081F01000890
:1000D0001F0100081F010008453400081F01000827
:1000E0001F010008512400081F010008DFF810D08C
:1000F00000F068F800480047193A0008AFF30080A4
:10010000100C00200648804706480047FEE7FEE73F
:10011000FEE7FEE7FEE7FEE7FEE7FEE7FEE7FEE7B7
:100120004B310008ED000008D2B201E000F8012BCD
:10013000491EFBD270470022F6E710B513460A4667
:1001400004461946FFF7F0FF204610BDCBB203E08E
:100150000178994203D0401C521EF9D2002070470A
:100160002DE9F05F0546002092469B4688460646EC
:10017000814640241BE0284641464746224600F07F
:1001800042F853465A46C01A914110D311461846B8
:10019000224600F029F82D1A67EB01084F46224647
:1001A0000120002100F020F817EB00094E41201E2D
:1001B000A4F10104DFDC484631462A464346BDE847
:1001C000F09F0000064C074D06E0E06840F0010398
:1001D00094E8070098471034AC42F6D3FFF78AFF43
:1001E000F824010818250108202A04DB203A00FA27
:1001F00002F1002070479140C2F1200320FA03F37E
:10020000194390407047202A04DB203A21FA02F07B
:100210000021704721FA02F3D040C2F12002914040
:10022000084319467047000010B501244FF6FF70CF
:100230000A4948600A4888600020086002F09CFD76
:100240004FF6FF7002F056FD0A2000F0FDF8054859
:1002500000F00AF80024204610BD00009E04002093
:1002600050000020700000200149886070470000A5
:100270009E04002010B586B0044600BF6CB900BFD4
:100280001448806940F0100012498861084680696E
:1002900000F01000019000BF00BF00BF0E4830F812
:1002A0001400029001200390002004900320059088
:1002B0000A4951F8240002A900F0EAF8064A32F887
:1002C0001410064A52F82400002200F07BFA06B00F
:1002D00010BD000000100240004000084400002053
:1002E00010B50446044A32F81410044A52F82400A7
:1002F000012200F067FA10BD004000084400002011
:1003000010B5034607E018780C78A04201D01046DB
:1003100010BD5B1C491C101EA2F10104A2B2F2D157
:1003200000BFF5E700BFFEE7704710B5012000F001
:10033000A1F810BD03E04FF47A7000F085F8FAE7F9
:100340000146002291F82100022808D00420886389
:1003500000BF002081F8200000BF0120704708681E
:10036000006820F00E000B6818600868006820F034
:1003700001000B68186091F8403001209840CB6B69
:100380005860012081F8210000BF002081F8200082
:1003900000BF1046E2E7000070B50446002594F85F
:1003A0002100022803D00420A063012548E0206832
:1003B000006820F00E00216808602068006820F0C6
:1003C0000100216808601F492068884201D101208E
:1003D00026E01C4914312068884201D110201FE01A
:1003E000184928312068884201D1801518E0154944
:1003F0003C312068884201D1801411E0114950310C
:100400002068884202D14FF4803009E00D49643100
:100410002068884202D14FF4801001E04FF08070D4
:10042000084908394860012084F8210000BF0020F5
:1004300084F8200000BF606B10B12046616B8847D4
:10044000284670BD0800024070B5044600F0C0F9AF
:1004500006462546681C10B104480078054400BFD4
:1004600000F0B6F9801BA842FAD370BD3C00002012
:100470007047000010B5044604480068204020B1D1
:10048000024804602046FFF7F3FF10BD140401404A
:100490002DE9F8470346002294466EE14FF001082B
:1004A00008FA02F4D1F8008008EA0400A0427DD1E5
:1004B000DFF8DCA2D1F80480A8EB0A09D0453AD0D5
:1004C00014DCB8F1030F50D009DCB8F1000F31D0C3
:1004D000B8F1010F1CD0B8F1020F49D120E0B8F1FA
:1004E000110F18D0B8F1120F42D11EE0B9F5881FD4
:1004F00025D006DCB9F5803F20D0B9F5801F37D173
:100500001AE0B9F5001F18D0B9F5041F30D117E073
:10051000D1F80CC02DE0D1F80C8008F1040C28E0D3
:10052000D1F80C8008F1080C23E0D1F80C8008F118
:100530000C0C1EE000BF00BF00BF00BF00BF00BF2B
:10054000D1F80880B8F1000F02D14FF0040C0BE095
:10055000D1F80880B8F1010F03D14FF0080C1C61ED
:1005600002E04FF0080C5C6103E04FF0000C00E08B
:1005700000BF00BFFF2801D8984601E003F104083E
:100580004646FF2802D84FEA820803E0A2F1080895
:100590004FEA88084746D6F800804FF00F0909FA5D
:1005A00007F928EA09080CFA07F900E088E048EAA8
:1005B0000908C6F80080D1F8048008F08058B8F126
:1005C000805F7DD100BFDFF8CC81D8F8188048F07B
:1005D0000108DFF8C091C9F81880C846D8F818801B
:1005E00008F00108CDF8008000BF00BF4FEAB9381D
:1005F0004FEA920958F829504FEA82784FEA187961
:100600004FF00F0808FA09F825EA0805DFF8888195
:10061000434502D14FF0000816E0DFF880814345E2
:1006200002D14FF001080FE0DFF87481434502D199
:100630004FF0020808E0DFF86C81434502D14FF02B
:10064000030801E04FF004084FEA82794FEA197974
:1006500008FA09F848EA0505DFF84C814FEA9209E3
:1006600048F82950D1F8048008F48018B8F5801FA4
:100670000AD1DFF83881D8F8008048EA0008DFF8AE
:100680002C91C9F8008009E0DFF82081D8F80080BB
:1006900028EA0008DFF81491C9F80080D1F8048036
:1006A00008F40018B8F5001F10D1DFF8008108F138
:1006B0000408D8F8008048EA0008DFF8F09000E06D
:1006C0005AE009F10409C9F800800DE0DFF8DC8088
:1006D00008F10408D8F8008028EA0008DFF8CC9078
:1006E00009F10409C9F80080D1F8048008F4003841
:1006F000B8F5003F0ED1DFF8B480A8F10408D8F8AF
:10070000008048EA0008DFF8A490A9F10409C9F8BC
:1007100000800DE0DFF89480A8F10408D8F800808C
:1007200028EA0008DFF88490A9F10409C9F80080DC
:10073000D1F8048008F48038B8F5803F0ED1DFF896
:100740006C80A8F10808D8F8008048EA0008DFF8B3
:100750005C90A9F10809C9F800800DE0DFF84C8031
:10076000A8F10808D8F8008028EA0008DFF83C90D3
:10077000A9F10809C9F80080521CD1F8008028FAB4
:1007800002F8B8F1000F7FF489AEBDE8F8870000E9
:10079000000011100010024000080140000C014050
:1007A000001001400014014008000140080401400D
:1007B00010B5C26821EA020302EA010443EA0443D5
:1007C000036110BD0AB1016101E00B0403617047D0
:1007D00001480068704700003400002003480068AA
:1007E0000349097808440149086070473400002033
:1007F0003C00002010B50848006840F01000064991
:100800000860032000F0A8F80F2000F007F800F0BF
:100810002BF8002010BD00000020024070B50446F7
:100820000E4800784FF47A71B1FBF0F00C4909687A
:10083000B1FBF0F5284601F0D2F908B1012070BDF6
:10084000102C07D200222146501E00F047F8054820
:10085000046001E00120F2E70020F0E73C00002006
:10086000400000203800002008B500BF1148806912
:1008700040F001000F4988610846806900F00100DE
:10088000009000BF00BF00BF0846C06940F0805024
:10089000C8610846C06900F08050009000BF00BFEA
:1008A00000BF0549486820F0E06040F08070486073
:1008B00000BF08BD0010024000000140014608468C
:1008C000002809DB00F01F0301229A4043099B0026
:1008D00003F1E023C3F8002100BF70472DE9F05F6A
:1008E00080460D461646002702F0DAFD07463946D7
:1008F0002A46334601F00700C0F1070ABAF1040F97
:1009000002D94FF0040A01E0C0F1070AD14600F114
:10091000040ABAF1070F02D24FF0000A01E0A0F179
:10092000030AD4464FF0010A0AFA09FAAAF1010AA9
:100930000AEA020A0AFA0CFA4FF0010B0BFA0CFB56
:10094000ABF1010B0BEA030B4AEA0B0421464046CC
:1009500002F0AEFDBDE8F09F00BF00F00702064BBD
:1009600019684FF6FF031940044B0B4343EA022179
:10097000014B196000BF70470CED00E00000FA0564
:10098000012001490862704700000E422DE9F0473E
:1009900006464FF00008002500270024A146012E3E
:1009A00031D0022E56D0102E5FD1324844680068F4
:1009B00000F0807008B33048C4F38341475C04F40E
:1009C000803078B12B484068C0F340402B4911F883
:1009D000008004F4803040B12948B0FBF8F000FBFF
:1009E00007F502E0274807FB00F52248406800F4BD
:1009F0008000B0F5800F01D1A94603E06800032113
:100A0000B0FBF1F932E01B48046A04F44070B0F521
:100A1000807F05D104F0020010B14FF4004918E0C6
:100A200004F44070B0F5007F07D11248406A00F02E
:100A3000020010B149F640490BE004F44070B0F5F3
:100A4000407F06D10B48006800F4003008B14FF237
:100A500024490BE000F08CF906494968C1F3813163
:100A6000491C4900B0FBF1F900E000BF00BF484657
:100A7000BDE8F08700100240D63F0008E63F0008BE
:100A800000127A0000093D00F8B504460026002552
:100A9000207800F0010000286BD000274348C0698F
:100AA00000F0805070B900BF4048C06940F08050ED
:100AB0003E49C8610846C06900F08050009000BF00
:100AC00000BF01273A48006800F48070B0B9384888
:100AD000006840F4807036490860FFF779FE0646EA
:100AE00006E0FFF775FE801B642801D90320F8BDDE
:100AF0002F48006800F480700028F2D02B48006A6C
:100B000000F440752DB3A08800F44070A84220D0B6
:100B10002648006A20F4407501202649086000201C
:100B200008602248056205F0010090B1FFF750FE11
:100B3000064608E0FFF74CFE801B41F288318842F0
:100B400001D90320D3E71948006A00F00200002809
:100B5000F0D01648006A20F44070616808431349D9
:100B60000862012F04D10846C06920F08050C86196
:100B700000BF207800F00200022807D10B4840682F
:100B800020F44040A168084308494860207800F0FC
:100B90001000102807D10548406820F48000E16863
:100BA0000843024948600020A1E70000001002400D
:100BB000007000404004424270B504460D460CB936
:100BC000012070BD5A48006800F00700A8420ED20C
:100BD0005748006820F00700284355490860084638
:100BE000006800F00700A84201D00120E9E7207862
:100BF00000F0020002281DD1207800F00400042833
:100C000005D14C48406840F4E0604A49486020788B
:100C100000F00800082805D14648406840F46050BC
:100C2000444948604348406820F0F000A168084308
:100C300040494860207800F0010078B360680128DE
:100C400006D13C48006800F4003090B90120B8E7B4
:100C50006068022806D13748006800F0007040B98B
:100C60000120AEE73348006800F0020008B9012017
:100C7000A7E73048406820F00300616808432D4929
:100C80004860FFF7A5FD064609E0FFF7A1FD801BC0
:100C900041F28831884202D9032092E707E02548D3
:100CA000406800F00C006168B0EB810FEDD1204886
:100CB000006800F00700A8420ED91D48006820F027
:100CC000070028431A4908600846006800F007003A
:100CD000A84201D0012074E7207800F00400042825
:100CE00007D11448406820F4E060E16808431149E6
:100CF0004860207800F00800082808D10D484068B6
:100D000020F46050216940EAC1000A49486000F0BF
:100D10003FF808494968C1F30311074A515CC840CC
:100D20000649086006480068FFF778FD002048E79C
:100D30000020024000100240E83F00084000002070
:100D40003800002001480068704700004000002083
:100D500000B5FFF7F7FF04494968C1F30221034AD0
:100D6000515CC84000BD000000100240F83F000880
:100D700000B5FFF7E7FF04494968C1F3C221034A00
:100D8000515CC84000BD000000100240F83F000860
:100D900070B500210022002400230020134D696853
:100DA00001F00C05F5B1042D02D0082D19D101E098
:100DB0000F4819E00F4DC1F38346AB5D01F4803558
:100DC00055B10A4D6D68C5F340450B4E725D084D37
:100DD0005D43B5FBF2F402E0084D03FB05F4204649
:100DE00002E000BF024800BF00BF70BD001002401B
:100DF00000127A00C43F0008D43F000800093D00FB
:100E0000F8B504460CB90120F8BD207800F00100C7
:100E1000002878D0F848406800F00C0004280CD076
:100E2000F548406800F00C00082811D1F2484068ED
:100E300000F48030B0F5803F0AD1EF48006800F43C
:100E4000003000285FD0606800285CD10120DBE71B
:100E500000BF6068B0F5803F06D1E748006840F405
:100E60008030E549086028E0606858B9E2480068C9
:100E700020F48030E04908600846006820F48020B3
:100E800008601AE06068B0F5A02F0BD1DA4800685E
:100E900040F48020D84908600846006840F480305B
:100EA00008600AE0D448006820F48030D249086025
:100EB0000846006820F48020086000BF606888B1A0
:100EC000FFF786FC054606E0FFF782FC401B64281E
:100ED00001D9032098E7C848006800F400300028D2
:100EE000F2D010E0FFF774FC054606E0FFF770FC57
:100EF000401B642801D9032086E7BF48006800F43E
:100F000000300028F2D1207800F00200022857D1EA
:100F1000B948406800F00C0050B1B748406800F094
:100F20000C00082818D1B448406800F4803098B903
:100F3000B148006800F0020020B12069012801D00A
:100F4000012061E7AC48006820F0F800616940EAE0
:100F5000C100A949086033E02069E8B10120A74930
:100F60000860FFF735FC054606E0FFF731FC401B43
:100F7000022801D9032047E79F48006800F00200DB
:100F80000028F2D09C48006820F0F800616940EA2F
:100F9000C1009949086013E0002098490860FFF7F4
:100FA00017FC054606E0FFF713FC401B022801D999
:100FB000032029E79048006800F002000028F2D1E1
:100FC000207800F0080008282DD1A069B8B10120D0
:100FD0008B490860FFF7FCFB054606E0FFF7F8FBCE
:100FE000401B022801D903200EE78348406A00F025
:100FF00002000028F2D0012001F0DAF913E000200D
:101000007F490860FFF7E4FB054606E0FFF7E0FBD9
:10101000401B022801D90320F6E67748406A00F019
:1010200002000028F2D1207800F00400042873D1D7
:1010300000277148C06900F0805070B900BF6E4849
:10104000C06940F080506C49C8610846C06900F032
:101050008050009000BF00BF01276A48006800F47C
:101060008070B0B96748006840F4807065490860D6
:10107000FFF7AEFB054606E0FFF7AAFB401B64281E
:1010800001D90320C0E65F48006800F480700028A2
:10109000F2D000BFE068012806D15748006A40F04E
:1010A00001005549086227E0E06858B95248006AD3
:1010B00020F00100504908620846006A20F0040050
:1010C000086219E0E06805280BD14B48006A40F03F
:1010D0000400494908620846006A40F001000862BD
:1010E0000AE04548006A20F00100434908620846CA
:1010F000006A20F00400086200BFE068A0B1FFF7BA
:1011000067FB054609E0FFF763FB401B41F28831AE
:10111000884202D9032077E622E03748006A00F0CF
:1011200002000028EFD012E0FFF752FB054608E06E
:10113000FFF74EFB401B41F28831884201D9032062
:1011400062E62D48006A00F002000028F0D1012F6D
:1011500005D12948C06920F080502749C86100BFE7
:10116000E069C8B32448406800F00C00082860D04B
:10117000E069022848D1002020490866FFF728FBD3
:10118000054606E0FFF724FB401B022801D9032097
:101190003AE61948006800F000700028F2D1206A91
:1011A000B0F5803F07D11448406820F40030A168B2
:1011B000084311494860D4E9080108430E494968C9
:1011C00021F4741108430C49486001200B4908665A
:1011D000FFF7FEFA054607E03DE0FFF7F9FA401B8E
:1011E000022801D903200FE60348006800F00070D0
:1011F0000028F2D02FE00000001002400000424220
:101200008004424200700040002014490866FFF745
:10121000DFFA054606E0FFF7DBFA401B022801D99A
:101220000320F1E50E48006800F000700028F2D1BC
:1012300011E0E069012800D1E6E50948466806F4B6
:101240008031206A814204D106F47011606A8142C3
:1012500001D00120D8E50020D6E500000000424280
:101260000010024010B5044600220749204600F055
:10127000A2F882210A2001F0BDFA4FF40051034880
:10128000FFF796FA10BD0000240000200010014076
:10129000704710B504462068006800F00100F0B106
:1012A0002068406800F00100C8B120684068C0F3C1
:1012B000800048B12046FFF7EBFF6FF00400216883
:1012C00048600420607404E02046FFF7CBFF012053
:1012D00060742068406820F001002168486010BDFB
:1012E000014609B90120704700BF087C012801D1DF
:1012F0000220F8E70120087400BF02204874086843
:10130000006840F001000A6810600120487400BFC6
:101310000020087400BF00BFE5E710B504460020B8
:10132000FEF7DEFF10BD000010B50446206800681F
:10133000C0F3400068B120684068C0F3400040B18D
:101340002046FFF7EAFF2068406820F0020021688D
:1013500048604FF40030024908600120607410BDFD
:1013600014040140F8B505460C46164600200090CE
:1013700005B10CB90120F8BD00226946284600F0ED
:101380001AF808B10120F6E7287B2070E87BE070AE
:10139000687B6070A87BA0705EB1E07801F06BF8AC
:1013A000E070607801F067F86070A07801F063F891
:1013B000A0700020DFE72DE9F04780460C469146FB
:1013C00000250026AA460027B8F1000F00D014B966
:1013D0000120BDE8F087D8F800004068C0F3800025
:1013E00008B10120F5E7404601F07DF905464FF4CC
:1013F0006160B5FBF0F7B5FBF0F100FB11503C214B
:10140000B0FBF1F060704FF46160B5FBF0F100FBF0
:1014100011503C21B0FBF1F201FB1200A070182F1B
:1014200039D31820B7FBF0FAB7FBF0F100FB1170CD
:101430002070404601F04BF90646701C18B1AE42D0
:1014400001D9761B01E04FF0FF360AEB4A00C000DD
:10145000C0EB4011C1EB0020A5EB0015294640462A
:1014600001F073FA08B10120B3E7701C38B12E44C3
:101470003146404601F052FA40B10120A9E7314619
:10148000404601F04BFA08B10120A2E75146404620
:1014900001F066F800E02770B9F1000F0BD020785A
:1014A00000F0E9FF2070607800F0E5FF6070A07840
:1014B00000F0E1FFA07000208BE7000070B504464B
:1014C00000250CB9012070BD607C20B9002020747B
:1014D000204600F053F802206074204600F0FAF92C
:1014E00018B1042060740120EDE7204601F093F864
:1014F00018B1042060740120E5E72068406820F0FE
:10150000070021684860A06828B11B48006820F0E7
:101510000100194908601848001F006820F4607035
:10152000A16808431449091F08606068401C08B19D
:10153000656809E00120FFF729FA05461DB9042076
:1015400060740120BFE76D1EC5F303402168886009
:10155000A8B22168C860204601F07AF818B10420CA
:1015600060740120AFE70021E17301216173A17371
:10157000012060740020A6E7306C004010B590B0E8
:10158000044600BF1948C06940F080501749C8613F
:101590000846C06900F08050019000BF00BFFFF70F
:1015A000EFF90C20069000200D90012009900020FA
:1015B0000C9006A8FFF724FC08B1FEF7BBFE012043
:1015C00002900002039002A8FFF75EFA08B1FEF74E
:1015D000B1FE012006490860002205210320FFF723
:1015E0007DF90320FFF76AF910B010BD001002402A
:1015F0003C0442422DE9F84304460D4617460026B6
:101600000020009004B115B90120BDE8F88300BFA7
:10161000207C012801D10220F7E70120207400BFBF
:1016200002206074002269462046FFF7C4FE08B11C
:101630000120EAE79DF800004FF4616148439DF8FE
:101640000110C1EB011100EB81009DF8021000EBCD
:1016500001085FB928784FF4616148436978C1EBAC
:10166000011100EB8100A978461812E0287800F0FB
:10167000F7FE4FF4616100FB01F9687800F0F0FEBD
:10168000C0EB001009EB8009A87800F0E9FE09EB37
:101690000006464501D2184806443146204601F06E
:1016A0003DF938B10420607400BF0020207400BFF1
:1016B0000120AAE72068406820F002002168486005
:1016C0002068006840F00200216808600B4800684C
:1016D00040F400300949086008480830006840F4C8
:1016E00000300649083108600120607400BF002006
:1016F000207400BF00BF88E7805101000004014052
:101700002DE9F04704460D46904600260027B146D5
:1017100004B115B90120BDE8F08700BF207C012885
:1017200001D10220F7E70120207400BF022060747D
:10173000B8F1000F06D1E978E17369786173A9788F
:10174000A1730BE0E87800F08BFEE073687800F09E
:1017500087FE6073A87800F083FEA073A27B617B94
:10176000E07B01F099F82073207B2870204600F080
:10177000BAFF06464FF46160B6FBF0F9B9F1180FF5
:101780002FD91820B9FBF0F000EB4000C000C0EBEF
:101790004011C1EB0020A6EB00163146204601F0B7
:1017A000D4F838B10420607400BF0020207400BF5A
:1017B0000120B0E7204600F08AFF0746781C80B180
:1017C000B7420ED20B4807443946204601F0A6F82E
:1017D00038B10420607400BF0020207400BF0120D5
:1017E00099E70120607400BF0020207400BF00BF93
:1017F00091E70000805101002DE9F04704460D46B5
:1018000090460026002704B115B90120BDE8F087F5
:1018100000BF207C012801D10220F7E701202074BD
:1018200000BF02206074B8F1000F0BD128784FF48C
:10183000616148436978C1EB011100EB8100A9782F
:10184000461812E0287800F00BFE4FF4616100FBAF
:1018500001F9687800F004FEC0EB001009EB800984
:10186000A87800F0FDFD09EB00063146204601F0A6
:101870006CF838B10420607400BF0020207400BFF1
:101880000120C3E72068406820F005002168486017
:10189000204600F01CFF0746781C80B1B7420ED2EC
:1018A0000B4807443946204601F038F838B1042087
:1018B000607400BF0020207400BF0120A6E7012053
:1018C000607400BF0020207400BF00BF9EE70000CE
:1018D0008051010070B5044600250CB9012070BD8F
:1018E0002068406820F0080021684860FEF770FF1B
:1018F000054607E0FEF76CFF401BB0F57A7F01D983
:101900000320ECE72068406800F008000028F1D0D0
:101910000020E4E7014691F851007047014609B9FB
:1019200001207047486A38B94868B0F5827F00D115
:1019300005E00022CA6102E000220A614A61886A69
:10194000B0F5005F00D100BF91F8510010B9002040
:1019500081F85000022081F851000868006820F0EA
:1019600040000A681060888800F482700A8902F4D6
:10197000044210438A8902F4006210430A7C02F098
:10198000020210430A7D02F0010210430A8B02F4A6
:10199000007210430A7F02F0380210432022525C8A
:1019A00002F0800210430A8D02F4005210430A68CC
:1019B00010600422886902EA10400A685060886A50
:1019C000B0F5005F03D1888D80B20A6810610868A5
:1019D000C06920F400600A68D061002048650120D9
:1019E00081F8510000209CE72DE9F84304460F469A
:1019F00016461D46FEF7ECFE8046B14694F85100AF
:101A0000012802D00220BDE8F88307B10EB90120F9
:101A1000F9E700BF94F85000012801D10220F2E755
:101A2000012084F8500000BF032084F851000020FA
:101A300060652763A686E686A063A087E08760646A
:101A40002064A068B0F5004F0BD12068006820F03A
:101A50004000216808602068006840F480402168E8
:101A60000860A06AB0F5005F0DD100BF2068006873
:101A700020F40050216808602068006840F400509D
:101A80002168086000BF2068006800F0400040281E
:101A900005D02068006840F0400021680860E068D8
:101AA000B0F5006F37D1606810B1B9F1010F09D1FD
:101AB000206B00882168C860206B801C2063E08E4A
:101AC000401EE08623E02068806800F002000228C3
:101AD0000AD1206B00882168C860206B801C2063BD
:101AE000E08E401EE08612E0FEF772FEA0EB0800DA
:101AF000A84201D3681C00B94DB9012084F85100F7
:101B000000BF002084F8500000BF03207BE7E08E78
:101B10000028D8D136E0606810B1B9F1010F09D1C1
:101B2000206B007821680873206B401C2063E08ED6
:101B3000401EE08623E02068806800F00200022852
:101B40000AD1206B007821680873206B401C206349
:101B5000E08E401EE08612E0FEF73AFEA0EB0800A1
:101B6000A84201D3681C00B94DB9012084F8510086
:101B700000BF002084F8500000BF032043E7E08E40
:101B80000028D8D1A06AB0F5005F05D120680068B0
:101B900040F480502168086042462946204600F003
:101BA000EBFE08B120206065A06850B900BF00209E
:101BB00000902068C068009020688068009000BF96
:101BC00000BF012084F8510000BF002084F85000BD
:101BD00000BF606D08B1012015E7002013E770B564
:101BE00004462546681EB0F1807F01D301200FE036
:101BF000681E4FF0E02148610F214FF0FF3001F0E7
:101C000057FC00204FF0E021886107200861002088
:101C100070BD2DE9F84F04460F4690461D46DDF88D
:101C200028A094F84200202878D117B1B8F1000F0D
:101C300002D10120BDE8F88F00206064222084F8E2
:101C400042000120206300206063FEF7C1FD83464F
:101C5000A4F82C80A4F82E80A068B0F5805F04D191
:101C6000206910B90026B94602E03E464FF000094F
:101C70000020288053E02068006800F01000102841
:101C800013D100BF002000902068006800902068F9
:101C90004068009000BF00BF288830B10220606318
:101CA000202084F842000020C4E72068006800F08B
:101CB0002000202821D146B920684068C0F30800E0
:101CC000A9F8000009F1020911E0A068B0F5805FF1
:101CD00003D0A06828B9206918B92068406830701E
:101CE00004E02068406800F07F003070761C28888F
:101CF000401C2880E08D401EE0850AF1010070B193
:101D0000FEF766FDA0EB0B00504502D8BAF1000FBC
:101D100005D1202084F8420003208BE70BE0E08D02
:101D20000028A8D1A08DE18D401A2880202084F8B9
:101D3000420000207EE702207CE7704770470000E9
:101D40002DE9F84F0446206805682068C6682068B9
:101D500047694FF00009CA4605F00F09B9F1000FB5
:101D60000FD105F0200060B106F0200048B1B04866
:101D70000078401CAE490870204601F037FABDE8F3
:101D8000F88FB9F1000F7BD007F0010018B906F405
:101D90009070002874D005F0010030B106F4807016
:101DA00018B1606C40F00100606405F0040030B1CF
:101DB00007F0010018B1606C40F00200606405F0AB
:101DC000020030B107F0010018B1606C40F004006F
:101DD000606405F0080048B106F0200010B907F073
:101DE000010018B1606C40F008006064606C00286D
:101DF00045D005F0200028B106F0200010B12046A3
:101E000001F0F4F920684069C0F3801A606C00F0BA
:101E1000080010B9BAF1000F2CD0204601F0A0F94B
:101E20002068406900F0400000B300BF00BF216897
:101E3000143151E8001F21F040002168143141E8BD
:101E40000002002AF3D100BFE06B50B17948E16B8A
:101E50004863E06BFEF7A0FA88B1E06B416B8847FE
:101E60000DE02046FFF76AFF09E009E02046FFF792
:101E700065FF04E02046FFF761FF002060647EE715
:101E8000206B012877D105F01000002873D006F0F0
:101E900010000028FAD000BF0020009020680068E1
:101EA000009020684068009000BF00BF2068406933
:101EB00000F0400000285FD0E06B006840681FFA27
:101EC00080F8B8F1000F55D0A08D404552DDA4F840
:101ED0002E80E06B8069202843D000BF00BF2168BE
:101EE0000C3151E8001F21F4807021680C3141E869
:101EF0000002002AF3D100BF00BF00BF21681431E7
:101F000051E8001F21F001002168143141E800026E
:101F1000002AF3D100BF00BF00BF2168143151E88F
:101F2000001F21F040002168143141E80002002A1E
:101F3000F3D100BF202084F842000020206300BFBE
:101F400000BF21680C3151E8001F21F0100021680A
:101F50000C3141E80002002AF3D100BFE06BFEF72C
:101F6000EFF902206063A08DE28D801A81B22046D5
:101F7000FFF7E3FE03E745E0A08DE18D401A1FFA6D
:101F800080F8E08DD0B3B8F1000F37D000BF00BFAC
:101F900021680C3151E8001F21F4907021680C3148
:101FA00041E80002002AF3D100BF00BF00BF216852
:101FB000143151E8001F21F001002168143141E87B
:101FC0000002002AF3D100BF202084F84200002044
:101FD000206300BF00BF21680C3151E8001F21F0D1
:101FE000100021680C3141E80002002AF3D100BF43
:101FF0000220606341462046FFF79FFE204600F026
:10200000A5F8BCE605F0800030B106F0800018B1FC
:10201000204601F0E7F9B2E605F0400030B106F0E5
:10202000400018B1204601F0D1F8A8E600BFA6E6AE
:102030002F0000204D31000810B504460CB90120D6
:1020400010BDA06900B100E000BF94F8410028B9BC
:10205000002084F84000204600F02AF8242084F86C
:1020600041002068C06820F400502168C860204604
:1020700001F03AF92068006920F490402168086175
:102080002068406920F02A00216848612068C06803
:1020900040F400502168C86000206064202084F86B
:1020A000410084F842000020606300BFC8E70000E0
:1020B00010B586B0044600BF2248806940F0040095
:1020C000204988610846806900F00400019000BF43
:1020D00000BF00BF0846806940F0040088610846E0
:1020E000806900F00400019000BF00BF00BF0846F7
:1020F000C06940F40030C8610846C06900F400308F
:10210000019000BF00BF0420029002200390012034
:1021100004900320059002A90B48FEF7B9F90820A6
:1021200002900020039002A90748FEF7B1F90222AD
:1021300011462620FEF7D2FB2620FEF7BFFB06B095
:1021400010BD000000100240000801400121014ABA
:10215000117070470000002010B5034693F841004D
:10216000202813D101B10AB9012010BD19629A8447
:10217000DA8400205864212083F841001868C06880
:1021800040F080001C68E0600020EEE70220ECE7F1
:102190000121014A117070470000002000BFFEE7D6
:1021A0000A49096801F0010179B1084980390968D3
:1021B00001F0010149B100E000BF4FF06041096842
:1021C0000029F9D04FF0604210707047800E00E097
:1021D00000B585B000BF2548806940F0080023495C
:1021E00088610846806900F00800009000BF00BFC9
:1021F00000BF0846806940F0080088610846806991
:1022000000F00800009000BF00BF00BF08468069D2
:1022100040F0040088610846806900F004000090E6
:1022200000BF00BF88140190012002900320049099
:1022300001A90F48FEF72CF90220019001A90C48D2
:10224000FEF726F9802001900120029001A909489B
:10225000FEF71EF9012211030548FEF7B3FA012229
:1022600080210448FEF7AEFA05B000BD0010024020
:10227000000C01400008014010B5002280210748F1
:10228000FEF7A0FA1420FEF7DFF8012280210348B0
:10229000FEF798FA0A20FEF7D7F810BD00080140B3
:1022A00001B500224FF480510A48FEF78BFA002254
:1022B00002210848FEF786FA4FF0FF3301226946F3
:1022C0000548FFF791FB012211030248FEF77AFA55
:1022D00008BD0000000C0140F400002070B5064667
:1022E0000C4600224FF480511148FEF76BFA012290
:1022F00002210F48FEF766FA11E0B4F5803F02D3E1
:102300004FF6FF7000E0204685B24FF0FF332A46BB
:1023100031460848FFF768FB2E44641B00BF002CC1
:10232000EBD1012211030248FEF74CFA70BD000008
:10233000000C0140F400002001B500224FF4805150
:102340000A48FEF73FFA012202210848FEF73AFA4E
:102350004FF0FF33012269460548FFF745FB012294
:1023600011030248FEF72EFA08BD0000000C0140E0
:10237000F400002010B50A480A4908604FF41650CE
:102380004860002107488160C160016181610C21C2
:102390004161FFF751FE08B1FDF7CCFF10BD000011
:1023A00000440040AC00002000BFFEE770477047CB
:1023B00008B508490968C9084FF47A72B1FBF2F10F
:1023C0004143009100BF00BF00994A1E00920029BE
:1023D000F9D108BD400000201FB525208DF80F0061
:1023E00001208DF80D0007208DF80E0002208DF8D9
:1023F0000C00012203A91548FFF782F908B1FDF787
:1024000099FF14208DF8080045208DF8090001205F
:102410008DF80A00012202A90C48FFF7EDF908B176
:10242000FDF788FF0020019014208DF80000452062
:102430008DF8010001208DF8020001226946034851
:10244000FFF7D8F808B1FDF775FF1FBD9800002011
:1024500010B50248FEF768FF10BD0000980000208C
:10246000014600BF080900EB8000420001F00F00A8
:102470001044C0B270470146002203E0521CA1F193
:102480000A00C1B20A29F9D2100741EA1060704768
:1024900008B501460948405C0007000E8DF80000B1
:1024A000064A481C105C00F00F008DF801009DF8F2
:1024B00000009DF801201044C0B208BD6C0400204B
:1024C00030B589B004460D46002208A91A48FEF727
:1024D00049FF9DF82220022318A11A4800F0CCFFE2
:1024E0009DF8212015A1184800F0C6FF9DF8232073
:1024F00012A1164800F0C0FF144B134A114905A859
:1025000001F042FA05A912A000F0A6FF4FF6FF70F5
:102510004FF47841CDE901101048406800900F4811
:102520000168039140680B4605AA2946049020469D
:1025300000F07EFD09B030BD9800002025303264E7
:102540000000000006000020080000200A00002013
:1025500064617465203D2025730A0D008C00002005
:102560002DE9F04706468846002700240025A146AD
:10257000F77B747BB57B00BF40E0012C0BD0032CB4
:1025800009D0052C07D0072C05D0082C03D00A2C25
:1025900001D00C2C0CD11F2D01D26D1C2CE00C2C69
:1025A00002D0641C012527E0012401257F1C23E0C3
:1025B000042C05D0062C03D0092C01D00B2C06D1FD
:1025C0001E2D01D26D1C17E0641C012514E0022CA5
:1025D00012D11C2D01D26D1C0EE01C2D08D1B8B2F9
:1025E00000F05CF808B16D1C06E0641C012503E0F6
:1025F0001D2D01D1641C012509F10109C145BCD380
:10260000F7737473B573EAB2E1B2384600F044F977
:102610003073BDE8F08770B504460025FEF7D8F8A2
:10262000054607E0FEF7D4F8401BB0F57A7F01D9E4
:10263000032070BD2068406800F020000028F1D021
:102640002068406840F01000216848600020F0E7F2
:1026500070B5044600252068406820F0100021680D
:102660004860FEF7B5F8054607E0FEF7B1F8401BF5
:10267000B0F57A7F01D9032070BD2068406800F072
:1026800020000028F1D00020F6E7000010B5024835
:10269000FEF7FFFD10BD000098000020014601F08C
:1026A000030008B1002070476420B1FBF0F200FB8A
:1026B000121008B10120F6E74FF4C870B1FBF0F238
:1026C00000FB121008B90120EDE70020EBE70146FE
:1026D000002200230868006A82B20868406A83B258
:1026E00043EA0240704730B501460022002300242F
:1026F00000200D68AD69AAB20D68ED69ACB20D6835
:10270000AD69ABB29A4205D00D68ED6963F31F4520
:10271000284601E044EA024030BD00001FB52520F4
:102720008DF80F0001208DF80D0007208DF80E00A8
:1027300002208DF80C00012203A91448FEF7E0FFE7
:1027400008B1FDF7F7FD13208DF8080029208DF85A
:10275000090050208DF80A00012202A90B48FFF75A
:102760004BF808B1FDF7E6FD0020019014208DF82C
:10277000000050208DF8010001208DF80200034870
:10278000FEF7AEFD08B1FDF7D5FD1FBD9800002096
:102790001CB50020FFF77CFE8DF806000220FFF735
:1027A00077FE8DF805000420FFF772FE8DF8070014
:1027B000012201A90E48FEF7A3FF08B1FDF7BAFDFB
:1027C0000620FFF765FE8DF800000820FFF760FE89
:1027D0008DF801000A20FFF75BFE8DF80200012250
:1027E00069460348FFF708F808B1FDF7A3FD1CBDD3
:1027F0009800002030B589B004460D4600221B49E0
:102800001B48FEF7D8FD194802781AA11B4800F0B2
:1028100033FE1648427817A1194800F02DFE1348E0
:10282000827814A1174800F027FE164B144A13496A
:1028300006A801F0CDF806A913A000F00DFE4FF692
:10284000FF704FF47841CDE90110124840680090C4
:1028500010480168049140680B4606AA2946059075
:10286000204600F0E5FB09B030BD00002400002048
:102870009800002025303264000000000C00002089
:102880000E0000201000002074696D65203D202599
:10289000730A0D008C000020F0B504460B460021A1
:1028A000002504F5FA61032B1BD2C3EBC30000EB38
:1028B00003100926B0FBF6F01044001D4618481E10
:1028C00006EB90066427B0FBF7F0361A481EBF00EF
:1028D000B0FBF7F030440726B0FBF6F706FB170510
:1028E0001AE0C3EBC30000EB03100926B0FBF6F0BF
:1028F0001044001D084400EB91006426B1FBF6F67D
:10290000801B4FF4C876B1FBF6F63044801E0726D4
:10291000B0FBF6F706FB1705E8B2F0BD70B504464C
:102920000D4600262046FFF776FE08B101260AE094
:10293000280C21680862A8B2216848622046FFF787
:1029400087FE00B10126304670BD70B504460D46C5
:1029500000262046FFF75FFE08B101260AE0280C9A
:1029600021688861A8B22168C8612046FFF770FE1F
:1029700000B10126304670BDF8B504460E46154636
:102980003346012202212046009500F017F828B1B5
:10299000606D40F0200060650320F8BD33460022E2
:1029A00080212046009500F009F828B1606D40F0C4
:1029B000200060650320F0E70020EEE72DE9F84FE6
:1029C00004460D4690461E46DDF82890FDF700FFB0
:1029D000A0EB0900371AFDF7FBFE82462C48006881
:1029E000C0F3CB307843009045E0701C002842D003
:1029F000FDF7EEFEA0EB0A00B84200D2A7BB2068AC
:102A0000406820F0E000216848606068B0F5827F8F
:102A10000DD1A068B0F5004F03D0A068B0F5806F6D
:102A200005D12068006820F0400021680860A06A95
:102A3000B0F5005F0DD100BF2068006820F40050A1
:102A4000216808602068006840F400502168086030
:102A500000BF012084F8510000BF002084F850001E
:102A600000BF0320BDE8F88FFFE7009800B90027FA
:102A70000098401E0090206880682840A84201D13C
:102A8000012000E000204045AFD10020EAE700002F
:102A90004000002010B51148FEF73CFFE8B910488F
:102AA0000E49086000210D48C1618160012141612A
:102AB00002210161002181620721C1620021C16000
:102AC00001624FF400718161002141624FF4827014
:102AD000024948600846FEF721FF10BDF4000020BF
:102AE0000038004000B585B00020019002900390AE
:102AF000049000BF1748806940F0080015498861BC
:102B00000846806900F00800009000BF00BF4FF445
:102B100000500190022002900320049001A90E4869
:102B2000FDF7B6FC4FF40040019001A90A48FDF7FB
:102B3000AFFC00BF0748C06940F480400549C86148
:102B40000846C06900F48040009000BF00BF05B097
:102B500000BD000000100240000C01402DE9F843C8
:102B600005460C4617469846DDF8209000224FF4A3
:102B700080511748FDF726FEF02D01DAF02C01DB1D
:102B8000BDE8F883E819F02802DBC5F1F00087B250
:102B900004EB0800F02803DBC4F1F0001FFA80F812
:102BA00000260CE0A01983B2E81982B2A01981B204
:102BB0002846CDF8009000F00DF8701CC6B24645CE
:102BC000F0DD012211030248FDF7FCFD00BFD7E74D
:102BD000000C01402DE9FC5F05460C4617461E46D9
:102BE000301B002801DD301B00E0A01B791B0029F1
:102BF00001DD791B00E0E91B884201DD012000E0D6
:102C000000200190019828B1A84625464446B846C0
:102C100037464646BD4205DDA8463D464746A046E6
:102C200034464646781B0FFA80F9301B002801DD38
:102C3000301B00E0A01B00B20090484609EBD071A9
:102C400049100FFA81FAB44202DA4FF0010B01E0A9
:102C50004FF0FF3B1DE0019828B1294620460C9A11
:102C600000F01CF804E0214628460C9A00F016F803
:102C70000098AAEB00000FFA80FABAF1000F06DA0A
:102C800004EB0B0084B20AEB09000FFA80FA681C0F
:102C900085B2BD42DFDDBDE8FC9F0000F8B504460B
:102CA0000D461646002C05DBF02C03DA002D01DB67
:102CB000F02D00DBF8BD2B4622462946204600F0C9
:102CC000E7F830128DF80000F0B28DF80100002214
:102CD0004FF480510648FDF775FD02216846FFF765
:102CE000FDFA012211030248FDF76CFD00BFE1E788
:102CF000000C0140F8B50446002500260027EF230C
:102D00001A460021084600F0C3F800224FF4805113
:102D10001248FDF757FD00BF13E000260DE020121A
:102D20008DF80000E0B28DF8010002216846FFF73F
:102D3000D5FA781C87B2701C86B2F02EEFDB681CC7
:102D400085B2F02DE9DB394605A000F085FB0122B4
:102D500011030248FDF736FDF8BD0000000C0140EC
:102D60002D2D2D2D2D2D2D2D2D2D2D2D7A203D2050
:102D7000253034640A0D00001FB50A20FDF764FBFE
:102D8000FFF77AFA3A20FFF78BFA5520FFF7D4FACB
:102D9000B220FFF785FA34A103C9CDE9020105216C
:102DA00002A8FFF79BFA022000F0C0F8B720FFF757
:102DB00077FA3520FFF7C0FABB20FFF771FA192028
:102DC000FFF7BAFAC020FFF76BFA2C20FFF7B4FA2E
:102DD000C220FFF765FA0120FFF7AEFAC320FFF724
:102DE0005FFA1220FFF7A8FAC420FFF759FA202053
:102DF000FFF7A2FAC620FFF753FA0F20FFF79CFA5D
:102E0000D020FFF74DFAA420FFF796FAA120FFF794
:102E100093FAE020FFF744FA15A090E80E00C0688E
:102E20008DE80E0003900E216846FFF757FAE12067
:102E3000FFF736FA12A3D3E901021968DB6801AC87
:102E40000DC400910E216846FFF748FA2120FFF7D4
:102E500027FA1120FFF724FA1320FFF721FA29207F
:102E6000FFF71EFA1FBD00000C0C003333000000FA
:102E7000D0040D11132B3F544C180D0B1F230000D1
:102E8000D0040C11132C3F44512F1F1F202300008E
:102E90002DE9F84F04460D4616461F4600224FF412
:102EA00080512148FDF78EFC1FFA84F81FFA86F93D
:102EB0001FFA85FA1FFA87FB2A20FFF7F1F94FEA7C
:102EC00028208DF8000008F0FF008DF801004FEA7F
:102ED00029208DF8020009F0FF008DF8030004217D
:102EE0006846FFF7FBF92B20FFF7DAF94FEA2A20B3
:102EF0008DF800000AF0FF008DF801004FEA2B204A
:102F00008DF802000BF0FF008DF8030004216846E5
:102F1000FFF7E4F92C20FFF7C3F90122110302485F
:102F2000FDF750FCBDE8F88F000C014010B50446D9
:102F30003620FFF7B5F934B1012C08D0022C0AD0A5
:102F4000032C10D10BE0C020FFF7F6F90CE0A02015
:102F5000FFF7F2F908E00020FFF7EEF904E0602047
:102F6000FFF7EAF900E000BF00BF10BD0FB42DE984
:102F7000F84F06460F469046DDE90F9A00224FF4BF
:102F800080512948FDF71EFCBDF836003844401E2C
:102F900083B2BDF834003044401E82B23946304618
:102FA000FFF776FF002432E0A8F12000BDF83610CC
:102FB00000FB01400E9931F810001C490860002503
:102FC00020E01A480088A84000F4004060B14FEAB1
:102FD00029208DF8000009F0FF008DF80100022182
:102FE0006846FFF77BF90CE04FEA2A208DF80000D5
:102FF0000AF0FF008DF8010002216846FFF76EF924
:1030000000BF6D1CBDF83400A842DAD8641CBDF8BE
:103010003600A042C8D8012211030348FDF7D2FBB5
:10302000BDE8F80F5DF814FB000C0140940000208F
:103030000FB42DE9FE4305460E461446DDE90F7830
:1030400000224FF480511B48FDF7BCFB24E0BDF883
:1030500034002844F0280FDB0025BDF8360030444A
:1030600086B2BDF836003044F02800DB17E0207847
:10307000202801D1641C0FE0CDE901780E98009062
:103080002278314628460D9BFFF770FFBDF83400CB
:10309000284485B2641C00BF20780028D7D100BF27
:1030A000012211030348FDF78DFBBDE8FE035DF827
:1030B00014FB0000000C0140704710B5FDF78EFBBB
:1030C00010BD00B593B0282109A8FDF734F81421EC
:1030D00004A8FDF730F800200090019002900390C2
:1030E000052009904FF480300A9000200B900120B9
:1030F0000C900D9002201090C10311914FF4E0113B
:10310000129109A8FDF77CFE08B1FDF713F90F2015
:10311000049002200590002006904FF480600790F4
:1031200000200890022104A8FDF746FD08B1FDF734
:1031300001F901200090000201906846FDF7A4FC0F
:1031400008B1FDF7F7F813B000BD704770B505463C
:103150006C6A0020E085E0842046FEF7EFFD70BD3C
:1031600000BF00BF02680C3252E8002F22F49071B9
:1031700002680C3242E80013002BF3D100BF00BFFD
:1031800000BF0268143252E8002F22F001010268E9
:10319000143242E80013002BF3D100BF016B012968
:1031A0000ED100BF00BF02680C3252E8002F22F09F
:1031B000100102680C3242E80013002BF3D100BF6B
:1031C000202180F8421000210163704710B50446A9
:1031D0002068C06820F040002168C860202084F882
:1031E00041002046FEF7D4FF002010BDF8B504468C
:1031F00094F84200222875D1A068B0F5805F0CD108
:10320000206950B90025A66A20684068C0F308000C
:103210003080A06A801CA06215E0A56A0026A06824
:10322000B0F5805F03D0A06828B9206918B920687C
:103230004068287004E02068406800F07F00287033
:10324000A06A401CA062E08D401E80B2E08500288C
:1032500046D12068C06820F020002168C86020683E
:10326000C06820F480702168C8602068406920F040
:10327000010021684861202084F84200002060633A
:10328000206B012826D10020206300BF00BF2168E9
:103290000C3151E8001F21F0100021680C3141E889
:1032A0000002002AF3D100BF2068006800F010007F
:1032B00010280AD100BF002000902068006800900C
:1032C00020684068009000BF00BFA18D2046FEF737
:1032D00034FD02E02046FEF739FF0020F8BD01E092
:1032E0000020FBE70220F9E770B504462168096970
:1032F00021F44051E2681143226811612269A168FA
:103300001143626941EA02052168C96841F20C6211
:10331000914329432268D1602168496921F44071B1
:10332000A2691143226851612D4A2168914202D15C
:10333000FDF71EFD01E0FDF70BFD00EBC00101EB09
:10334000001162689200B1FBF2F100EBC00202EBE7
:10335000001263689B00B2FBF3F26423B2FBF3F24A
:1033600002EBC20303EB0212A1EB8201322202EB59
:1033700001116422B1FBF2F101F0F00100EBC00297
:1033800002EB001263689B00B2FBF3F26423B2FB12
:10339000F3F201EB021200EBC00101EB00116368D4
:1033A0009B00B1FBF3F100EBC00303EB0013666875
:1033B000B600B3FBF6F36426B3FBF6F303EBC306E8
:1033C00006EB0313A1EB8301322303EB011164230A
:1033D000B1FBF3F101F00F0111442268916070BD5F
:1033E00000380140014691F84100212828D1886821
:1033F000B0F5805F0BD1086948B90A6A1088C0F33C
:1034000008000B685860086A801C086205E00B6AB7
:10341000581C086218780B685860C88C401E80B22F
:10342000C88458B90868C06820F080000B68D8606C
:103430000868C06840F040000B68D8600020704702
:103440000220FCE710B50248FEF77AFC10BD000030
:10345000AC00002000BFFEE70FB4054B10B503A978
:10346000044A029800F048F810BC5DF814FB000014
:10347000093A0008120000200FB4084B10B504A947
:1034800002AA039800F038F8044602A9002000F0D0
:103490005EFA204610BC5DF814FB00004F390008AE
:1034A00002480068C0F30220704700000CED00E005
:1034B00010B5002804DB0A07130E054A135406E072
:1034C0000A07140E034A00F00F031B1FD45410BD4B
:1034D00000E400E018ED00E002E008C8121F08C197
:1034E000002AFAD170477047002001E001C1121F85
:1034F000002AFBD1704700002DE9FF4F8DB00F4629
:103500000546002606E025280BD0DDE90F1290477E
:103510006D1C761C28780028F5D111B03046BDE826
:10352000F08F0024A246A1460122E94900E00443AD
:1035300015F8013F203B02FA03F00842F7D1287842
:103540002A2810D06FF02F022878A0F13001092925
:1035500014D80AEB8A0102EB410144F0020400EBAB
:10356000010A6D1CF0E701CF5FEA000A03D544F4BD
:103570000054CAF1000A44F002046D1C28782E2879
:1035800017D115F8010F44F004042A280ED06FF06B
:103590002F022878A0F1300109290AD809EB890106
:1035A00002EB410100EB01096D1CF2E757F8049BA7
:1035B0006D1C28786C280FD006DC4C2817D06828A2
:1035C0000DD06A2814D104E0742810D07A280FD1C5
:1035D0000DE044F400140AE044F4801401E044F4E3
:1035E00040146978814202D104F580146D1C6D1C71
:1035F00028786E281ED00CDC632830D004DC00282C
:103600008BD0582811D19FE0642867D069280CD14D
:1036100064E073282DD004DC6F2872D0702804D1A8
:1036200094E075286ED078286DD0DDE90F129047B0
:10363000761C4BE1C4F30250022806D0032809D0BF
:10364000042801CF09D0066040E101CFF117C0E99D
:1036500000613BE101CF068038E1067036E117F8E2
:10366000040B8DF8000000208DF80100EB460120CE
:1036700003E057F804BB4FF0FF3061074FF0000143
:1036800002D40DE008F10101884649450FDA804572
:10369000F8DB1BF808100029F4D108E008F101015B
:1036A00088468142FADB1BF808100029F6D1DDE9D3
:1036B0000F23AAEB08008146214600F031F930447F
:1036C00000EB080604E0DDE90F121BF8010B904740
:1036D000B8F10108F7D221464846F2E00A21C4F3C6
:1036E00002524FF0000B0891022A04D001CFC117FB
:1036F000032A09D00AE0FF1D27F00707F7E80201B7
:1037000008E02CE01EE01FE000B2C117042A01D13E
:1037100040B2C117021E71F1000206DA0023D0EB9D
:10372000030063EB01012D2202E0220504D52B22C8
:103730008DF82420012203E0E20701D02022F7E7E0
:10374000904653E00A210BE0102109E010214FF0D0
:10375000000B44F004044FF00809089103E008212D
:103760004FF0000B0891C4F30252022A04D001CF9B
:103770000021032A06D006E0FF1D27F00707F7E81F
:10378000020103E080B2042A00D1C0B24FF0000869
:1037900022072BD52A78702A07D0DDF820C08CF0BC
:1037A000100C5CEA0B0C05D00EE040228DF82420B2
:1037B000012208E050EA010306D030238DF82430BE
:1037C0008DF8252002229046089B83F0080353EAD7
:1037D0000B030BD150EA010201D1620706D530225A
:1037E0008DF824204FF00108A9F101092A78582A00
:1037F00004D038A20B9208AA0A920BE03AA2F9E789
:103800005B46089AFCF7ACFC0B9B9B5C0A9A521E29
:103810000A92137050EA0102F2D10A98ADEB00004F
:1038200000F1200B600702D524F4803401E04FF052
:103830000109D94502DDA9EB0B0000E0002000EBF7
:103840000B0141440890AAEB010AE00306D4DDE92C
:103850000F232146504600F063F806444FF000095C
:1038600008E009A911F80900DDE90F12904709F1F4
:103870000109761CC145F4DBE0030CD5DDE90F231B
:103880002146504600F04CF8064404E0DDE90F12F2
:1038900030209047761C0899481E08900029F5DCD6
:1038A00008E00A980A990078491C0A91DDE90F128C
:1038B0009047761CBBF10001ABF1010BF1DC214616
:1038C0005046DDE90F2300F019F806446D1C21E68F
:1038D00009280100303132333435363738396162E6
:1038E00063646566000000003031323334353637AA
:1038F0003839414243444546000000002DE9F0417B
:10390000044600251E461746880404D405E03946BF
:103910002020B0476D1C641EF9D52846BDE8F08113
:103920002DE9F041044600251E469046C80301D506
:10393000302700E02027880404D505E041463846BA
:10394000B0476D1C641EF9D52846BDE8F0810A68B1
:10395000531C0B601070704730B502460B460021B7
:103960000024002002E0155C2944401C9842FADB48
:103970000846CD1701EB15652D12A1EB0525A1EB2E
:103980000525ECB2204630BD1EB50EA42468029475
:103990000DA4246801940DA4246800940C8804806C
:1039A0009DF8084084701488A0F803409DF80840F2
:1039B0004471BDF80040C4801C88048100248472D6
:1039C0001EBD00002E00000020000000323000006C
:1039D0001CB50BA4246801940AA4246800940C88E4
:1039E00004809DF8044084701488A0F803409DF87A
:1039F000044044711C88C480002404721CBD000073
:103A00003A0000003230000070B504460D462046F2
:103A1000FEF7C6FB70BD000086B0FCF7EBFEFFF7BB
:103A200050FB0020FCF726FCFEF7A4FCEBA0EC49C1
:103A30000860ECA04860EEA0C860F1A08860F3A028
:103A4000F3490860F3A04860F6A0C860F8A0886059
:103A5000FAA008610120FC490870ED4A1168E04AAB
:103A6000106800F053FA10B10020F7490870E84AD6
:103A70005168DB4A506800F049FA10B10020F24961
:103A80000870E34AD168D64AD06800F03FFA10B116
:103A90000020ED490870ED48ED4908604FF0FF3017
:103AA00048600846FDF70AFD08B1FCF743FCFEF745
:103AB0008FFBFFF717F8FEF7EDFFE6A0FFF7CCFC52
:103AC000FCF7B2FBE048007801287DD1D04A1168AC
:103AD000C34A106800F01AFA08B1FCF72BFC4FF645
:103AE000FF704FF47841CDE90110E848406800903C
:103AF000BB480268E5480168049140680B46B42160
:103B000005900A20FFF794FA4FF6FF704FF47841C2
:103B1000CDE90110DD4840680090BD480268DB48EF
:103B20000168049140680B46CE2105900A20FFF7FA
:103B30007FFA4FF4FA70FCF787FCB54A5168A84A3F
:103B4000506800F0E3F908B1FCF7F4FB4FF6FF70A2
:103B5000F0231A46B42100900020FEF7FFFF4FF635
:103B6000FF704FF47841CDE90110C84840680090DB
:103B70009B484268C5480168049140680B46B421DF
:103B800005900A20FFF754FA4FF6FF704FF4784182
:103B9000CDE90110BD48406800909D484268BB488F
:103BA0000168049140680B46CE2105900A20FFF77A
:103BB0003FFA4FF4FA70FCF747FC954AD168884AFF
:103BC000D06800F0A3F900E05BE008B1FCF7B2FBBD
:103BD0004FF6FF70F0231A46B42100900020FEF744
:103BE000BDFF4FF6FF704FF47841CDE90110A748B3
:103BF000406800907A48C268A4480168049140680F
:103C00000B46B42105900A20FFF712FA4FF6FF7019
:103C10004FF47841CDE901109C48406800907C4801
:103C2000C2689A480168049140680B46CE2105900D
:103C30000A20FFF7FDF94FF4FA70FCF705FC4FF688
:103C4000FF70F0231A46B42100900020FEF786FF93
:103C50007AA06F4908614FF6FF704FF47841CDE9C3
:103C600001108A48406800906948026987480168E5
:103C7000049140680B46CE2105900A20FFF7D8F941
:103C800017E083A0624908614FF6FF704FF4784156
:103C9000CDE901107D48406800905D4802697B488D
:103CA0000168049140680B46CE2105900A20FFF779
:103CB000BFF900207A49087048707AA0FFF7CCFB62
:103CC0004FF6FF704FF47841CDE901106F4840681E
:103CD00000906E480168049140680B467CA2142154
:103CE00005900A20FFF7A4F94FF6FF704FF47841D2
:103CF000CDE901106548406800906448016804916E
:103D000040680B4675A2642105900A20FFF790F9E0
:103D1000FEF762FB32210A20FEF7D2FB82210A2045
:103D2000FEF768FD7048807870490870FEF7F6FC71
:103D3000EAE06D48007817280FD16B4840783B289F
:103D40000BD1694880783B2807D14FF49660FCF787
:103D50007BFB32210A20FEF7B3FB4FF4FA60644B81
:103D60000E224F490090A3F12C00FDF752FF30B115
:103D7000012830D002282FD003282BD1C2E05C4884
:103D80002C38808D801E81B24548FFF7E5FD5949EA
:103D9000087008460078020957A15848FFF76CFBE5
:103DA0005448007800F00F0253A15448401CFFF71C
:103DB00063FB022251493A480C30FCF7A1FA48B99A
:103DC000FEF7E6FC32210A20FEF77AFB82210A2068
:103DD000FEF710FD97E093E093E0000041540000EF
:103DE0007A04002041542B56455253494F4E00004F
:103DF00041542B4E414D456D7948432D30360000DE
:103E000041542B4241554438000000004F4B000004
:103E10008A0400204F4B6C696E766F7256312E38D3
:103E2000000000004F4B7365746E616D650000000B
:103E30004F4B31313532303000000000424C2070A1
:103E4000726573656E7400002E000020002800402B
:103E5000980000203D3D3D3D3D3D3D3D3D3D3D3DCE
:103E60003D3D3D3D3D3D53746172742052544320AD
:103E700057617463683D3D3D3D3D3D3D3D3D3D3DAC
:103E80003D3D3D3D3D3D3D3D0A0D00008C00002087
:103E9000424C206E6F742070726573656E74000002
:103EA0006C0400203D3D3D3D3D3D3D3D3D3D3D41A2
:103EB0004141414141414141414141413D3D3D3D02
:103EC0003D3D3D3D3D3D3D3D3D3D0A0D0000000079
:103ED0005265616C20446174653A00005265616C02
:103EE0002054696D653A0000240000202D00002058
:103EF000D80000202C000020257800002F00002092
:103F000001E000E000BF00BF13E700002DE9F84327
:103F100005460C4627480560142200210068FCF77E
:103F200015F9804623480078A8EB000000F0FF094F
:103F30004A46204801682048FEF70EF908B1FCF710
:103F4000F9F900BF1D4800780128FBD100201B496A
:103F50000870142200212046FCF7F8F80646301BB2
:103F600087B20C20144988854FF4FA6001F12C03C4
:103F70003A46134900901048FDF74BFE30B1012836
:103F80000FD002280FD0032811D10EE03A46214667
:103F90000B48FCF7B5F910B10120BDE8F88300200B
:103FA000FBE7FCF7C7F90220F7E70320F5E700BFBE
:103FB00000BFF2E728000020AC0000200000002035
:103FC0006C04002002030405060708090A0B0C0D07
:103FD0000E0F1010010202030405060708090A0B60
:103FE0000C0D0E0F10100102000000000000000078
:103FF000010203040607080900000000010203048F
:104000000020010006000000000000000000000089
:1040100000000000000000000000000000000000A0
:104020000000000000000000000000000000000090
:104030000000000000000000000000000000000080
:104040000000000000000000000000000000000070
:104050000000000380000380000380000380000351
:1040600080000380000380000380000380000100C3
:104070000001000000000000000003800003800039
:104080000000000000000000000000000000000030
:1040900000000000000000000000000000000E70A2
:1040A000000E70000E7000042000042000042000A8
:1040B00004200000000000000000000000000000DC
:1040C00000000000000000000000000000000000F0
:1040D00000000000000000000000000000000000E0
:1040E0000000000660000660000660000660000632
:1040F00060003FF8003FF8000660000CC0003FF889
:10410000003FF8000CC0000CC0000CC0000CC00048
:104110000CC00000000000000000000000000000D3
:10412000000000000000000001800001800007B0D6
:10413000000FF0001870001870001C00000F8000C5
:1041400007E00000F0001830001C30001C70001F59
:10415000E0001BC0000180000180000180000180A0
:10416000000000000000000000000000000000004F
:104170000000000780000FC0001CE000186000185D
:1041800060001CE0000FF80007E0001FF000073897
:104190000006180006180007380003F00001E000D0
:1041A000000000000000000000000000000000000F
:1041B00000000000000000000000000000000000FF
:1041C0000003F00007F0000C60000C00000C000081
:1041D0000600000700000F9C001DFC0018F00018EE
:1041E00070000FFC0007DC00000000000000000071
:1041F00000000000000000000000000000000000BF
:104200000000000000000380000380000380000124
:10421000000001000001000001000000000000009B
:10422000000000000000000000000000000000008E
:10423000000000000000000000000000000000007E
:10424000000000000000000000000000180000381E
:104250000000700000F00000E00000E00001C0007D
:1042600001C00001C00001C00001C00001C0000089
:10427000E00000E00000700000700000380000184E
:10428000000000000000000000000000000000002E
:104290000000001800001C00000E00000E000007C7
:1042A00000000700000380000380000380000380FB
:1042B000000380000380000700000700000F0000DB
:1042C0000E00001C000018000000000000000000AC
:1042D00000000000000000000000000180000180DC
:1042E000000180001DB8001FF80007E00003C000B7
:1042F00003C000066000066000000000000000002F
:1043000000000000000000000000000000000000AD
:10431000000000000000000000000000000000009D
:10432000000000000000000000018000018000018A
:1043300080000180000180003FFC003FFC00018004
:104340000001800001800001800001800000000069
:10435000000000000000000000000000000000005D
:10436000000000000000000000000000000000004D
:10437000000000000000000000000000000000003D
:10438000000000000000000000000000000000002D
:10439000E00000C00001C0000180000180000300B7
:1043A000000300000000000000000000000000000A
:1043B00000000000000000000000000000000000FD
:1043C00000000000000000001FF8001FF8000000BF
:1043D00000000000000000000000000000000000DD
:1043E00000000000000000000000000000000000CD
:1043F00000000000000000000000000000000000BD
:1044000000000000000000000000000000000000AC
:104410000000000000000000000000000000000399
:10442000C00003C00003C000000000000000000046
:104430000000000000000000000000000000180064
:10444000001800003800003000007000006000001C
:10445000600000C00000C000018000018000030077
:10446000000300000600000600000E00000C000023
:104470001C000018000018000000000000000000F0
:10448000000000000000000000000003C00007E082
:10449000000C30000C300018180018180018180014
:1044A0001818001818001818001818000C30000C04
:1044B000300007E00003C000000000000000000022
:1044C00000000000000000000000000000000000EC
:1044D0000000000080000780001F80001D80000198
:1044E00080000180000180000180000180000180C7
:1044F000000180000180000180001FF8001FF8000B
:1045000000000000000000000000000000000000AB
:10451000000000000000000000000007C0001FF0C5
:10452000003830003018003018000018000030004B
:1045300000600001C0000380000600000C000018AD
:1045400000003FF8003FF8000000000000000000FD
:10455000000000000000000000000000000000005B
:1045600000000003C0000FE0000C700000300000ED
:10457000300000600003C00003E00000700000187D
:10458000000018000018001838001FF0000FC000CD
:10459000000000000000000000000000000000001B
:1045A000000000000000000000000000E00001E04A
:1045B0000001E0000360000660000660000C60007F
:1045C0000C60001860003060003FF8003FF8000009
:1045D000600003F80003F800000000000000000085
:1045E00000000000000000000000000000000000CB
:1045F0000000001FF0001FF0001800001800001855
:1046000000001BC0001FF0001C3000001800001844
:10461000000018000018003030003FF0000FC0000C
:10462000000000000000000000000000000000008A
:10463000000000000000000000000000F80003F887
:10464000000700000E00000C00001800001BC00056
:104650001FF0001C30001818001818001818000C63
:1046600038000FF00003E000000000000000000030
:10467000000000000000000000000000000000003A
:104680000000001FF8001FF800181800183800007C
:10469000300000300000700000600000600000E0AA
:1046A0000000C00000C00001C000018000018000C7
:1046B00000000000000000000000000000000000FA
:1046C000000000000000000000000007E0000FF004
:1046D000001C38001818001818000C300007E00003
:1046E00007E0000C30001818001818001818001CFB
:1046F00038000FF00007E00000000000000000009C
:1047000000000000000000000000000000000000A9
:1047100000000007C0000FF0001C3000181800183F
:1047200018001818000C38000FF80003D800001803
:104730000000300000700000E0001FC0001F0000FB
:104740000000000000000000000000000000000069
:104750000000000000000000000000000000000059
:104760000000000000000003C00003C00003C00000
:104770000000000000000000000000000000000336
:10478000C00003C00003C0000000000000000000E3
:104790000000000000000000000000000000000019
:1047A0000000000000000000000000000000000009
:1047B000F00000F00000F000000000000000000029
:1047C0000000000000E00001C00001800001800046
:1047D00003000002000000000000000000000000D4
:1047E00000000000000000000000000000000000C9
:1047F00000001C00003C0000F00003C0000F00009F
:104800003C0000F000003C00000F000003C000006E
:10481000F000003C00001C00000000000000000050
:104820000000000000000000000000000000000088
:104830000000000000000000000000000000000078
:1048400000007FFC007FFC000000000000007FFCF7
:10485000007FFC00000000000000000000000000DD
:104860000000000000000000000000000000000048
:104870000000000000000000000000000000000038
:10488000007000007800001E000007800001E000BA
:10489000007800001E0000780001E0000780001E84
:1048A0000000780000700000000000000000000020
:1048B00000000000000000000000000000000000F8
:1048C00000000000000007C0000FE0001870001892
:1048D000300018300000700000E00003C0000380CA
:1048E00000030000000000000000070000070000B7
:1048F00000000000000000000000000000000000B8
:10490000000000000000000000000003E00007F0CD
:10491000000E38000C180018780018F80019D8009C
:1049200019980019980019980018F80018780018BC
:1049300000000C00000E180007F80003E000000063
:104940000000000000000000000000000000000067
:104950000000000000001F80001FC00001C0000315
:1049600060000360000630000630000C30000FF8D5
:10497000001FF800180C00300C00FC7F00FC7F00CA
:104980000000000000000000000000000000000027
:1049900000000000000000000000000000007FE0B8
:1049A000007FF00018380018180018180018380098
:1049B0001FF0001FF800181C00180C00180C00183D
:1049C0000C007FF8007FF0000000000000000000F5
:1049D00000000000000000000000000000000000D7
:1049E00000000000000003EC000FFC001C1C00187D
:1049F0000C00300C003000003000003000003000AF
:104A000000300000180C001C1C000FF80003F00020
:104A10000000000000000000000000000000000096
:104A200000000000000000000000000000007FC047
:104A3000007FF000183800181800180C00180C003F
:104A4000180C00180C00180C00180C00181800188E
:104A500038007FF0007FE000000000000000000050
:104A60000000000000000000000000000000000046
:104A70000000000000007FF8007FF8001818001800
:104A800018001998001980001F80001F80001980ED
:104A9000001998001818001818007FF8007FF80017
:104AA0000000000000000000000000000000000006
:104AB00000000000000000000000000000003FFCBB
:104AC000003FFC000C0C000C0C000CCC000CC000D7
:104AD0000FC0000FC0000CC0000CC0000C00000C88
:104AE00000003FC0003FC0000000000000000000C8
:104AF00000000000000000000000000000000000B6
:104B000000000000000003EC000FFC001C1C00185B
:104B10000C00300C0030000030000030FE0030FE91
:104B200000300C00380C001C1C000FFC0003F000CF
:104B30000000000000000000000000000000000075
:104B400000000000000000000000000000007E7E69
:104B5000007E7E0018180018180018180018180099
:104B60001FF8001FF800181800181800181800186F
:104B700018007E7E007E7E00000000000000000025
:104B80000000000000000000000000000000000025
:104B90000000000000001FF8001FF8000180000165
:104BA0008000018000018000018000018000018000
:104BB000000180000180000180001FF8001FF80044
:104BC00000000000000000000000000000000000E5
:104BD000000000000000000000000000000007FED0
:104BE0000007FE0000300000300000300000300000
:104BF00000300030300030300030300030300030D5
:104C000060003FE0000F8000000000000000000096
:104C10000000000000000000000000000000000094
:104C20000000000000007F3E007F3E0018300018AA
:104C3000600018C0001980001B80001FC0001CE02D
:104C4000001870001830001838007F1F007F1F0008
:104C50000000000000000000000000000000000054
:104C600000000000000000000000000000007F8045
:104C7000007F80000C00000C00000C00000C000005
:104C80000C00000C00000C0C000C0C000C0C000CB8
:104C90000C007FFC007FFC00000000000000000012
:104CA0000000000000000000000000000000000004
:104CB000000000000000F00F00F81F00381C003C4E
:104CC0003C003C3C00366C00366C0033CC0033CCEE
:104CD00000318C00300C00300C00FE7F00FE7F00A5
:104CE00000000000000000000000000000000000C4
:104CF000000000000000000000000000000078FE3E
:104D00000078FE001C18001E18001F18001B180059
:104D10001B980019D80018D80018F8001878001847
:104D200038007F18007F180000000000000000001D
:104D30000000000000000000000000000000000073
:104D400000000000000003C0000FF0001C38001835
:104D50001800381C00300C00300C00300C00300CF7
:104D600000381C001818001C38000FF00003C000A9
:104D70000000000000000000000000000000000033
:104D800000000000000000000000000000003FF0F4
:104D9000003FF8000C1C000C0C000C0C000C0C006C
:104DA0000C18000FF8000FE0000C00000C00000CC5
:104DB00000003FC0003FC0000000000000000000F5
:104DC00000000000000000000000000000000000E3
:104DD00000000000000003C0000FF0001C380018A5
:104DE0001800381C00300C00300C00300C00300C67
:104DF00000381C001818001C38000FF00007C00015
:104E000007CC000FFC000C38000000000000000080
:104E100000000000000000000000000000007FE033
:104E2000007FF00018380018180018180018380013
:104E30001FF0001FC00018E00018700018300018A4
:104E400038007F1E007F0E00000000000000000000
:104E50000000000000000000000000000000000052
:104E600000000000000007D8000FF8001C380018F0
:104E700018001818001E00000FC00003F000007892
:104E8000001818001818001C38001FF0001BE00064
:104E90000000000000000000000000000000000012
:104EA00000000000000000000000000000003FFCC7
:104EB000003FFC00318C00318C00318C00318C00C3
:104EC000018000018000018000018000018000015C
:104ED00080000FF0000FF000000000000000000054
:104EE00000000000000000000000000000000000C2
:104EF0000000000000007E7E007E7E001818001872
:104F00001800181800181800181800181800181899
:104F1000001818001818000C30000FF00003C00033
:104F20000000000000000000000000000000000081
:104F300000000000000000000000000000007F7F73
:104F4000007F7F00180C000C18000C18000C1800D3
:104F500006300006300003600003600003600001BB
:104F6000C00001C000008000000000000000000040
:104F70000000000000000000000000000000000031
:104F8000000000000000FE3F80FE3F803006003041
:104F9000060030860019CC0019CC001B6C001B6C7D
:104FA000001E7C000E38000E38000C18000C180093
:104FB00000000000000000000000000000000000F1
:104FC00000000000000000000000000000007E7EE5
:104FD000007E7E001818000C300006600003C00040
:104FE00001800001800003C0000660000C30001842
:104FF00018007E7E007E7E000000000000000000A1
:1050000000000000000000000000000000000000A0
:105010000000000000007C7E007C7E001818000C60
:10502000300006600006600003C0000180000180BF
:10503000000180000180000180000FF0000FF000EF
:105040000000000000000000000000000000000060
:1050500000000000000000000000000000001FF839
:10506000001FF80018180018300018600018C00061
:105070000180000300000618000C1800181800300A
:1050800018003FF8003FF80000000000000000009A
:105090000000000000000000000000000000000010
:1050A00000000001F00001F000018000018000011B
:1050B00080000180000180000180000180000180EB
:1050C000000180000180000180000180000180005B
:1050D00001800001F00001F000000000000000006D
:1050E00000000000001800001800001C00000C0068
:1050F000000E000006000006000003000003000090
:1051000001800001800000C00000C00000600000BD
:105110006000007000003000003800001800001827
:10512000000000000000000000000000000000007F
:105130000000000F80000F8000018000018000014E
:10514000800001800001800001800001800001805A
:1051500000018000018000018000018000018000CA
:105160000180000F80000F800000000000000000A0
:10517000000000000000000000800001C00003E00B
:10518000000770000630000C1800180C0010040016
:10519000000000000000000000000000000000000F
:1051A00000000000000000000000000000000000FF
:1051B00000000000000000000000000000000000EF
:1051C00000000000000000000000000000000000DF
:1051D00000000000000000000000000000000000CF
:1051E00000000000000000000000000000000000BF
:1051F000000000000000000000000000000000FFB0
:10520000FF00FFFF0000000003000003800000E03B
:10521000000060000000000000000000000000002E
:10522000000000000000000000000000000000007E
:10523000000000000000000000000000000000006E
:10524000000000000000000000000000000000005E
:105250000000000000000000000000000000000F3F
:10526000C0001FE00000300000300007F0001FF019
:10527000003830003030003070001FFC000FBC00E0
:10528000000000000000000000000000000000001E
:10529000000000000000000000000078000078001E
:1052A000001800001800001BE0001FF8001C180088
:1052B000180C00180C00180C00180C00180C001C1E
:1052C00018007FF8007BE0000000000000000000F4
:1052D00000000000000000000000000000000000CE
:1052E00000000000000000000000000000000003BB
:1052F000EC000FFC001C1C00380C00300C003000CF
:1053000000300000380C001C1C000FF80003F000F7
:10531000000000000000000000000000000000008D
:10532000000000000000000000000000780000788D
:105330000000180000180007D8001FF800183800F7
:1053400030180030180030180030180030180018DD
:1053500038001FFE0007DE00000000000000000013
:10536000000000000000000000000000000000003D
:105370000000000000000000000000000000000726
:10538000E0001FF800181800300C003FFC003FFC44
:1053900000300000300000180C001FFC0007F00077
:1053A00000000000000000000000000000000000FD
:1053B000000000000000000000000001FC0003FCF1
:1053C000000600000600003FF8003FF8000600005D
:1053D00006000006000006000006000006000006A9
:1053E00000003FF0003FF00000000000000000005F
:1053F00000000000000000000000000000000000AD
:105400000000000000000000000000000000000795
:10541000DE001FFE00183800301800301800301869
:10542000003018003018001838001FF80007D800A6
:105430000018000018000038000FF0000FC0000036
:10544000000000000000000000000078000078006C
:10545000001800001800001BE0001FF0001C3800BE
:105460001818001818001818001818001818001834
:1054700018007E7E007E7E0000000000000000001C
:10548000000000000000000000000000000000001C
:105490000000000180000180000000000000001FEB
:1054A00080001F80000180000180000180000180D9
:1054B000000180000180000180003FFC003FFC00F3
:1054C00000000000000000000000000000000000DC
:1054D000000000000000000000000000C00000C04C
:1054E000000000000000001FF0001FF0000030006E
:1054F00000300000300000300000300000300000BC
:10550000300000300000300000300000300000703B
:10551000001FE0001F8000000000000000000000ED
:105520000000003C00003C00000C00000C00000CDF
:10553000F8000CF8000CC0000D80000F80000F0078
:10554000000F80000DC0000CE0003C7C003C7C00A3
:10555000000000000000000000000000000000004B
:1055600000000000000000000000001F80001F80FD
:1055700000018000018000018000018000018000A6
:105580000180000180000180000180000180000195
:1055900080003FFC003FFC00000000000000000015
:1055A00000000000000000000000000000000000FB
:1055B000000000000000000000000000000000F7F4
:1055C0007800FFFC0039CC00318C00318C00318C2C
:1055D00000318C00318C00318C00FDEF00FDEF00BC
:1055E00000000000000000000000000000000000BB
:1055F00000000000000000000000000000000000AB
:10560000000000000000007BE0007FF0001C38007C
:105610001818001818001818001818001818001882
:1056200018007E7E007E7E0000000000000000006A
:10563000000000000000000000000000000000006A
:105640000000000000000000000000000000000357
:10565000C0000FF0001C3800381C00300C00300C6B
:1056600000300C00381C001C38000FF00003C00094
:10567000000000000000000000000000000000002A
:10568000000000000000000000000000000000001A
:10569000000000000000007BE0007FF8001C180004
:1056A000180C00180C00180C00180C00180C001C2A
:1056B00018001FF8001BE000180000180000180078
:1056C000007F00007F0000000000000000000000DC
:1056D00000000000000000000000000000000007C3
:1056E000DE001FFE00183800301800301800301897
:1056F000003018003018001838001FF80007D800D4
:1057000000180000180000180000FE0000FE000055
:105710000000000000000000000000000000000089
:10572000000000000000003E78003EFC0007CC00B6
:105730000700000600000600000600000600000644
:1057400000003FF0003FF0000000000000000000FB
:105750000000000000000000000000000000000049
:105760000000000000000000000000000000000732
:10577000F8000FF8001818001818001F80000FF02C
:105780000000F8001818001838001FF0001FE00093
:105790000000000000000000000000000000000009
:1057A00000000000000000000000000C00000C00E1
:1057B000000C00000C00003FF0003FF0000C000067
:1057C0000C00000C00000C00000C00000C00000C91
:1057D0001C0007FC0003F0000000000000000000B7
:1057E00000000000000000000000000000000000B9
:1057F0000000000000000000000000000000007831
:105800007800787800181800181800181800181870
:10581000001818001818001838000FFE0007DE00E6
:105820000000000000000000000000000000000078
:105830000000000000000000000000000000000068
:10584000000000000000007C3E007C3E00181800B4
:105850001818000C30000C300006600006600007CD
:10586000E00003C00003C0000000000000000000D2
:105870000000000000000000000000000000000028
:1058800000000000000000000000000000000078A0
:105890003C00783C003118003398003398001AB06F
:1058A000001EF0001EF0001C60000C60000C600088
:1058B00000000000000000000000000000000000E8
:1058C00000000000000000000000000000000000D8
:1058D000000000000000003E7C003E7C000C300018
:1058E00006600003C00001800003C0000660000CD9
:1058F00030003E7C003E7C00000000000000000004
:105900000000000000000000000000000000000097
:105910000000000000000000000000000000007E09
:105920001F007E1F00180C000C18000C1800063019
:105930000006300003600003E00001C00000C0006A
:105940000180000180000300003FC0003FC0000054
:105950000000000000000000000000000000000047
:10596000000000000000001FF8001FF800183000C1
:1059700018600000C0000180000300000618000C41
:1059800018001FF8001FF8000000000000000000D1
:105990000000000000000000000000000000000007
:1059A00000000000E00001E0000180000180000133
:1059B000800001800001800001800003800007005A
:1059C0000003800001800001800001800001800050
:1059D00001800001E00000E0000000000000000085
:1059E00000000000000000000000000180000180B5
:1059F0000001800001800001800001800001800022
:105A00000180000180000180000180000180000110
:105A10008000018000018000018000018000018081
:105A20000000000000000000000000000000000076
:105A300000000007000007800001800001800001D5
:105A4000800001800001800001800001C00000E0B2
:105A50000001C00001800001800001800001800081
:105A60000180000780000700000000000000000027
:105A70000000000000000000000000000000000026
:105A8000000000000000000000000000000E000008
:105A90001F18003BB80031F00000E00000000000DB
:105AA00000000000000000000000000000000000F6
:105AB00000000000000000000000000000000000E6
:105AC00000000000000000000000000000000000D6
:105AD00000000000000000000000000000000000C6
