:020000040800F2
:10000000900B002005010008351A00082719000888
:10001000311A00086D0200082D26000800000000BB
:10002000000000000000000000000000992500080A
:100030007102000800000000371A00089B25000824
:100040001F0100081F0100081F0100086D1C0008A7
:100050001F0100081F010008730200081F010008AB
:100060001F0100081F0100081F0100081F010008F0
:100070001F0100081F0100081F0100081F010008E0
:100080001F0100081F0100081F0100081F010008D0
:100090001F0100081F0100081F0100081F010008C0
:1000A0001F0100081F0100081F0100081F010008B0
:1000B0001F0100081F0100081F0100081F010008A0
:1000C0001F0100081F0100081F0100081F01000890
:1000D0001F0100081F0100081F0100081F01000880
:1000E0001F010008611A00081F010008DFF810D086
:1000F00000F042F800480047AD2A0008AFF3008046
:10010000900B00200648804706480047FEE7FEE7C0
:10011000FEE7FEE7FEE7FEE7FEE7FEE7FEE7FEE7B7
:100120002B260008ED000008D2B201E000F8012BF8
:10013000491EFBD270470022F6E710B513460A4667
:1001400004461946FFF7F0FF204610BD30B50B46B8
:10015000014600202022012409E021FA02F59D42F7
:1001600005D303FA02F5491B04FA02F52844151ECB
:10017000A2F10102F1DC30BD064C074D06E0E0685B
:1001800040F0010394E8070098471034AC42F6D3DE
:10019000FFF7B0FF401101086011010810B50124FC
:1001A0004FF6FF70084948600848886000200860E2
:1001B00001F0E8FF0A2000F067F8054800F00AF8AF
:1001C0000024204610BD0000180400204400002038
:1001D0006400002001498860704700001804002076
:1001E00010B586B0044600BF6CB900BF14488069E2
:1001F00040F01000124988610846806900F0100044
:10020000019000BF00BF00BF0E4830F814000290FC
:100210000120039000200490032005900A4951F822
:10022000240002A900F054F8064A32F81410064AD5
:1002300052F82400002200F0E5F906B010BD0000DD
:1002400000100240482C00083800002010B5044679
:10025000044A32F81410044A52F82400012200F033
:10026000D1F910BD482C00083800002000BFFEE77F
:10027000704710B5012000F01DF810BD03E04FF4E9
:100280007A7000F001F8FAE770B5044600F0C0F9A2
:1002900006462546681C10B104480078054400BF96
:1002A00000F0B6F9801BA842FAD370BD30000020E0
:1002B0007047000010B5044604480068204020B193
:1002C000024804602046FFF7F3FF10BD140401400C
:1002D0002DE9F8470346002294466EE14FF00108ED
:1002E00008FA02F4D1F8008008EA0400A0427DD1A7
:1002F000DFF8DCA2D1F80480A8EB0A09D0453AD097
:1003000014DCB8F1030F50D009DCB8F1000F31D084
:10031000B8F1010F1CD0B8F1020F49D120E0B8F1BB
:10032000110F18D0B8F1120F42D11EE0B9F5881F95
:1003300025D006DCB9F5803F20D0B9F5801F37D134
:100340001AE0B9F5001F18D0B9F5041F30D117E035
:10035000D1F80CC02DE0D1F80C8008F1040C28E095
:10036000D1F80C8008F1080C23E0D1F80C8008F1DA
:100370000C0C1EE000BF00BF00BF00BF00BF00BFED
:10038000D1F80880B8F1000F02D14FF0040C0BE057
:10039000D1F80880B8F1010F03D14FF0080C1C61AF
:1003A00002E04FF0080C5C6103E04FF0000C00E04D
:1003B00000BF00BFFF2801D8984601E003F1040800
:1003C0004646FF2802D84FEA820803E0A2F1080857
:1003D0004FEA88084746D6F800804FF00F0909FA1F
:1003E00007F928EA09080CFA07F900E088E048EA6A
:1003F0000908C6F80080D1F8048008F08058B8F1E8
:10040000805F7DD100BFDFF8CC81D8F8188048F03C
:100410000108DFF8C091C9F81880C846D8F81880DC
:1004200008F00108CDF8008000BF00BF4FEAB938DE
:100430004FEA920958F829504FEA82784FEA187922
:100440004FF00F0808FA09F825EA0805DFF8888157
:10045000434502D14FF0000816E0DFF880814345A4
:1004600002D14FF001080FE0DFF87481434502D15B
:100470004FF0020808E0DFF86C81434502D14FF0ED
:10048000030801E04FF004084FEA82794FEA197936
:1004900008FA09F848EA0505DFF84C814FEA9209A5
:1004A00048F82950D1F8048008F48018B8F5801F66
:1004B0000AD1DFF83881D8F8008048EA0008DFF870
:1004C0002C91C9F8008009E0DFF82081D8F800807D
:1004D00028EA0008DFF81491C9F80080D1F80480F8
:1004E00008F40018B8F5001F10D1DFF8008108F1FA
:1004F0000408D8F8008048EA0008DFF8F09000E02F
:100500005AE009F10409C9F800800DE0DFF8DC8049
:1005100008F10408D8F8008028EA0008DFF8CC9039
:1005200009F10409C9F80080D1F8048008F4003802
:10053000B8F5003F0ED1DFF8B480A8F10408D8F870
:10054000008048EA0008DFF8A490A9F10409C9F87E
:1005500000800DE0DFF89480A8F10408D8F800804E
:1005600028EA0008DFF88490A9F10409C9F800809E
:10057000D1F8048008F48038B8F5803F0ED1DFF858
:100580006C80A8F10808D8F8008048EA0008DFF875
:100590005C90A9F10809C9F800800DE0DFF84C80F3
:1005A000A8F10808D8F8008028EA0008DFF83C9095
:1005B000A9F10809C9F80080521CD1F8008028FA76
:1005C00002F8B8F1000F7FF489AEBDE8F8870000AB
:1005D000000011100010024000080140000C014012
:1005E00000100140001401400800014008040140CF
:1005F00010B5C26821EA020302EA010443EA044397
:10060000036110BD0AB1016101E00B040361704791
:100610000148006870470000280000200348006877
:100620000349097808440149086070472800002000
:100630003000002010B50848006840F0100006495E
:100640000860032000F0A8F80F2000F007F800F081
:100650002BF8002010BD00000020024070B50446B9
:100660000E4800784FF47A71B1FBF0F00C4909683C
:10067000B1FBF0F5284601F03CF908B1012070BD4E
:10068000102C07D200222146501E00F047F80548E2
:10069000046001E00120F2E70020F0E730000020D4
:1006A000340000202C00002008B500BF11488069EC
:1006B00040F001000F4988610846806900F00100A0
:1006C000009000BF00BF00BF0846C06940F08050E6
:1006D000C8610846C06900F08050009000BF00BFAC
:1006E00000BF0549486820F0E06040F08070486035
:1006F00000BF08BD0010024000000140014608464E
:10070000002809DB00F01F0301229A4043099B00E7
:1007100003F1E023C3F8002100BF70472DE9F05F2B
:1007200080460D461646002701F0A6FF07463946CB
:100730002A46334601F00700C0F1070ABAF1040F58
:1007400002D94FF0040A01E0C0F1070AD14600F1D6
:10075000040ABAF1070F02D24FF0000A01E0A0F13B
:10076000030AD4464FF0010A0AFA09FAAAF1010A6B
:100770000AEA020A0AFA0CFA4FF0010B0BFA0CFB18
:10078000ABF1010B0BEA030B4AEA0B04214640468E
:1007900001F07AFFBDE8F09F00BF00F00702064BB2
:1007A00019684FF6FF031940044B0B4343EA02213B
:1007B000014B196000BF70470CED00E00000FA0526
:1007C000012001490862704700000E422DE9F04700
:1007D00006464FF00008002500270024A146012E00
:1007E00031D0022E56D0102E5FD1324844680068B6
:1007F00000F0807008B33048C4F38341475C04F4D0
:10080000803078B12B484068C0F340402B4911F844
:10081000008004F4803040B12948B0FBF8F000FBC0
:1008200007F502E0274807FB00F52248406800F47E
:100830008000B0F5800F01D1A94603E068000321D4
:10084000B0FBF1F932E01B48046A04F44070B0F5E3
:10085000807F05D104F0020010B14FF4004918E088
:1008600004F44070B0F5007F07D11248406A00F0F0
:10087000020010B149F640490BE004F44070B0F5B5
:10088000407F06D10B48006800F4003008B14FF2F9
:1008900024490BE000F07CF906494968C1F3813135
:1008A000491C4900B0FBF1F900E000BF00BF484619
:1008B000BDE8F087001002401E2C00082E2C000816
:1008C00000127A0000093D00F8B504460026002514
:1008D000207800F0010000286BD000274348C06951
:1008E00000F0805070B900BF4048C06940F08050AF
:1008F0003E49C8610846C06900F08050009000BFC2
:1009000000BF01273A48006800F48070B0B9384849
:10091000006840F4807036490860FFF779FE0646AB
:1009200006E0FFF775FE801B642801D90320F8BD9F
:100930002F48006800F480700028F2D02B48006A2D
:1009400000F440752DB3A08800F44070A84220D078
:100950002648006A20F440750120264908600020DE
:1009600008602248056205F0010090B1FFF750FED3
:10097000064608E0FFF74CFE801B41F288318842B2
:1009800001D90320D3E71948006A00F002000028CB
:10099000F0D01648006A20F440706168084313499B
:1009A0000862012F04D10846C06920F08050C86158
:1009B00000BF207800F00200022807D10B484068F1
:1009C00020F44040A168084308494860207800F0BE
:1009D0001000102807D10548406820F48000E16825
:1009E0000843024948600020A1E7000000100240CF
:1009F000007000404004424270B504460D460CB9F8
:100A0000012070BD5A48006800F00700A8420ED2CD
:100A10005748006820F007002843554908600846F9
:100A2000006800F00700A84201D00120E9E7207823
:100A300000F0020002281DD1207800F004000428F4
:100A400005D14C48406840F4E0604A49486020784D
:100A500000F00800082805D14648406840F460507E
:100A6000444948604348406820F0F000A1680843CA
:100A700040494860207800F0010078B360680128A0
:100A800006D13C48006800F4003090B90120B8E776
:100A90006068022806D13748006800F0007040B94D
:100AA0000120AEE73348006800F0020008B90120D9
:100AB000A7E73048406820F00300616808432D49EB
:100AC0004860FFF7A5FD064609E0FFF7A1FD801B82
:100AD00041F28831884202D9032092E707E0254895
:100AE000406800F00C006168B0EB810FEDD1204848
:100AF000006800F00700A8420ED91D48006820F0E9
:100B0000070028431A4908600846006800F00700FB
:100B1000A84201D0012074E7207800F004000428E6
:100B200007D11448406820F4E060E16808431149A7
:100B30004860207800F00800082808D10D48406877
:100B400020F46050216940EAC1000A49486000F081
:100B50002FF808494968C1F30311074A515CC8409E
:100B60000649086006480068FFF778FD002048E75E
:100B70000020024000100240302C00083400002009
:100B80002C0000200148006870470000340000205D
:100B900000B5FFF7F7FF04494968C1F3C221034AD2
:100BA000515CC84000BD000000100240402C00080D
:100BB00070B500210022002400230020134D696835
:100BC00001F00C05F5B1042D02D0082D19D101E07A
:100BD0000F4819E00F4DC1F38346AB5D01F480353A
:100BE00055B10A4D6D68C5F340450B4E725D084D19
:100BF0005D43B5FBF2F402E0084D03FB05F420462B
:100C000002E000BF024800BF00BF70BD00100240FC
:100C100000127A000C2C00081C2C000800093D0072
:100C2000F8B504460CB90120F8BD207800F00100A9
:100C3000002878D0F848406800F00C0004280CD058
:100C4000F548406800F00C00082811D1F2484068CF
:100C500000F48030B0F5803F0AD1EF48006800F41E
:100C6000003000285FD0606800285CD10120DBE7FD
:100C700000BF6068B0F5803F06D1E748006840F4E7
:100C80008030E549086028E0606858B9E2480068AB
:100C900020F48030E04908600846006820F4802095
:100CA00008601AE06068B0F5A02F0BD1DA48006840
:100CB00040F48020D84908600846006840F480303D
:100CC00008600AE0D448006820F48030D249086007
:100CD0000846006820F48020086000BF606888B182
:100CE000FFF796FC054606E0FFF792FC401B6428E0
:100CF00001D9032098E7C848006800F400300028B4
:100D0000F2D010E0FFF784FC054606E0FFF780FC18
:100D1000401B642801D9032086E7BF48006800F41F
:100D200000300028F2D1207800F00200022857D1CC
:100D3000B948406800F00C0050B1B748406800F076
:100D40000C00082818D1B448406800F4803098B9E5
:100D5000B148006800F0020020B12069012801D0EC
:100D6000012061E7AC48006820F0F800616940EAC2
:100D7000C100A949086033E02069E8B10120A74912
:100D80000860FFF745FC054606E0FFF741FC401B05
:100D9000022801D9032047E79F48006800F00200BD
:100DA0000028F2D09C48006820F0F800616940EA11
:100DB000C1009949086013E0002098490860FFF7D6
:100DC00027FC054606E0FFF723FC401B022801D95B
:100DD000032029E79048006800F002000028F2D1C3
:100DE000207800F0080008282DD1A069B8B10120B2
:100DF0008B490860FFF70CFC054606E0FFF708FC8E
:100E0000401B022801D903200EE78348406A00F006
:100E100002000028F2D0012000F00EFE13E00020B6
:100E20007F490860FFF7F4FB054606E0FFF7F0FB9B
:100E3000401B022801D90320F6E67748406A00F0FB
:100E400002000028F2D1207800F00400042873D1B9
:100E500000277148C06900F0805070B900BF6E482B
:100E6000C06940F080506C49C8610846C06900F014
:100E70008050009000BF00BF01276A48006800F45E
:100E80008070B0B96748006840F4807065490860B8
:100E9000FFF7BEFB054606E0FFF7BAFB401B6428E0
:100EA00001D90320C0E65F48006800F48070002884
:100EB000F2D000BFE068012806D15748006A40F030
:100EC00001005549086227E0E06858B95248006AB5
:100ED00020F00100504908620846006A20F0040032
:100EE000086219E0E06805280BD14B48006A40F021
:100EF0000400494908620846006A40F0010008629F
:100F00000AE04548006A20F00100434908620846AB
:100F1000006A20F00400086200BFE068A0B1FFF79B
:100F200077FB054609E0FFF773FB401B41F2883170
:100F3000884202D9032077E622E03748006A00F0B1
:100F400002000028EFD012E0FFF762FB054608E040
:100F5000FFF75EFB401B41F28831884201D9032034
:100F600062E62D48006A00F002000028F0D1012F4F
:100F700005D12948C06920F080502749C86100BFC9
:100F8000E069C8B32448406800F00C00082860D02D
:100F9000E069022848D1002020490866FFF738FBA5
:100FA000054606E0FFF734FB401B022801D9032069
:100FB0003AE61948006800F000700028F2D1206A73
:100FC000B0F5803F07D11448406820F40030A16894
:100FD000084311494860D4E9080108430E494968AB
:100FE00021F4741108430C49486001200B4908663C
:100FF000FFF70EFB054607E03DE0FFF709FB401B4E
:10100000022801D903200FE60348006800F00070B1
:101010000028F2D02FE00000001002400000424201
:101020008004424200700040002014490866FFF727
:10103000EFFA054606E0FFF7EBFA401B022801D95C
:101040000320F1E50E48006800F000700028F2D19E
:1010500011E0E069012800D1E6E50948466806F498
:101060008031206A814204D106F47011606A8142A5
:1010700001D00120D8E50020D6E500000000424262
:101080000010024010B5044600220749204600F037
:10109000A2F882210A2000F06BFE4FF400510348B1
:1010A000FFF7A6FA10BD0000240000200010014048
:1010B000704710B504462068006800F00100F0B1E8
:1010C0002068406800F00100C8B120684068C0F3A3
:1010D000800048B12046FFF7EBFF6FF00400216865
:1010E00048600420607404E02046FFF7CBFF012035
:1010F00060742068406820F001002168486010BDDD
:10110000014609B90120704700BF087C012801D1C0
:101110000220F8E70120087400BF02204874086824
:10112000006840F001000A6810600120487400BFA8
:101130000020087400BF00BFE5E710B5044600209A
:10114000FFF784F810BD000010B504462068006861
:10115000C0F3400068B120684068C0F3400040B16F
:101160002046FFF7EAFF2068406820F0020021686F
:1011700048604FF40030024908600120607410BDDF
:1011800014040140F8B505460C46164600200090B0
:1011900005B10CB90120F8BD00226946284600F0CF
:1011A0001AF808B10120F6E7287B2070E87BE07090
:1011B000687B6070A87BA0705EB1E07800F063FC93
:1011C000E070607800F05FFC6070A07800F05BFC7D
:1011D000A0700020DFE72DE9F04780460C469146DD
:1011E00000250026AA460027B8F1000F00D014B948
:1011F0000120BDE8F087D8F800004068C0F3800007
:1012000008B10120F5E7404600F05DFD05464FF4CA
:101210006160B5FBF0F7B5FBF0F100FB11503C212C
:10122000B0FBF1F060704FF46160B5FBF0F100FBD2
:1012300011503C21B0FBF1F201FB1200A070182FFD
:1012400039D31820B7FBF0FAB7FBF0F100FB1170AF
:101250002070404600F02BFD0646701C18B1AE42CF
:1012600001D9761B01E04FF0FF360AEB4A00C000BF
:10127000C0EB4011C1EB0020A5EB0015294640460C
:1012800000F01FFE08B10120B3E7701C38B12E44F6
:101290003146404600F0FEFD40B10120A9E731464D
:1012A000404600F0F7FD08B10120A2E75146404654
:1012B00000F046FC00E02770B9F1000F0BD0207859
:1012C00000F0E1FB2070607800F0DDFB6070A0783A
:1012D00000F0D9FBA07000208BE7000070B5044639
:1012E00000250CB9012070BD607C20B9002020745D
:1012F000204600F053F802206074204600F074F994
:1013000018B1042060740120EDE7204600F073FC62
:1013100018B1042060740120E5E72068406820F0DF
:10132000070021684860A06828B11B48006820F0C9
:101330000100194908601848001F006820F4607017
:10134000A16808431449091F08606068401C08B17F
:10135000656809E00120FFF739FA05461DB9042048
:1013600060740120BFE76D1EC5F3034021688860EB
:10137000A8B22168C860204600F05AFC18B10420C9
:1013800060740120AFE70021E17301216173A17353
:10139000012060740020A6E7306C004010B590B0CA
:1013A000044600BF1948C06940F080501749C86121
:1013B0000846C06900F08050019000BF00BFFFF7F1
:1013C000FFF90C20069000200D90012009900020CC
:1013D0000C9006A8FFF724FC08B1FEF74FFF012090
:1013E00002900002039002A8FFF76EFA08B1FEF720
:1013F00045FF012006490860052211460320FFF73A
:101400008DF90320FFF77AF910B010BD00100240EB
:101410003C0442422DE9F04704460D469046002622
:101420000027B14604B115B90120BDE8F08700BF1F
:10143000207C012801D10220F7E70120207400BFA1
:1014400002206074B8F1000F06D1E978E173697881
:101450006173A978A1730BE0E87800F009FBE073F1
:10146000687800F005FB6073A87800F001FBA073BA
:10147000A27B617BE07B00F0CBFC2073207B28709B
:10148000204600F020FC06464FF46160B6FBF0F900
:10149000B9F1180F2FD91820B9FBF0F000EB40007C
:1014A000C000C0EB4011C1EB0020A6EB0016314696
:1014B000204600F006FD38B10420607400BF002013
:1014C000207400BF0120B0E7204600F0F0FB074683
:1014D000781C80B1B7420ED20B48074439462046EB
:1014E00000F0D8FC38B10420607400BF00202074E4
:1014F00000BF012099E70120607400BF0020207424
:1015000000BF00BF91E70000805101002DE9F047C6
:1015100004460D4690460026002704B115B9012067
:10152000BDE8F08700BF207C012801D10220F7E749
:101530000120207400BF02206074B8F1000F0BD1AD
:1015400028784FF4616148436978C1EB011100EBE1
:101550008100A978461812E0287800F089FA4FF443
:10156000616100FB01F9687800F082FAC0EB0010BD
:1015700009EB8009A87800F07BFA09EB00063146F8
:10158000204600F09EFC38B10420607400BF0020AB
:10159000207400BF0120C3E72068406820F00500E8
:1015A00021684860204600F082FB0746781C80B125
:1015B000B7420ED20B4807443946204600F06AFC79
:1015C00038B10420607400BF0020207400BF0120E7
:1015D000A6E70120607400BF0020207400BF00BF98
:1015E0009EE700008051010070B5044600250CB94B
:1015F000012070BD2068406820F008002168486024
:10160000FFF706F8054607E0FFF702F8401BB0F5C4
:101610007A7F01D90320ECE72068406800F00800D9
:101620000028F1D00020E4E7014691F8510070470E
:10163000014609B901207047486A38B94868B0F5D1
:10164000827F00D105E00022CA6102E000220A6127
:101650004A61886AB0F5005F00D100BF91F851007F
:1016600010B9002081F85000022081F8510008686C
:10167000006820F040000A681060888800F48270DA
:101680000A8902F4044210438A8902F4006210437A
:101690000A7C02F0020210430A7D02F001021043AC
:1016A0000A8B02F4007210430A7F02F038021043E2
:1016B0002022525C02F0800210430A8D02F4005294
:1016C00010430A6810600422886902EA10400A6820
:1016D0005060886AB0F5005F03D1888D80B20A68D7
:1016E00010610868C06920F400600A68D0610020B9
:1016F0004865012081F8510000209CE72DE9F8435E
:1017000004460F4616461D46FEF782FF8046B14648
:1017100094F85100012802D00220BDE8F88307B1F7
:101720000EB90120F9E700BF94F85000012801D15B
:101730000220F2E7012084F8500000BF032084F863
:101740005100002060652763A686E686A063A08717
:10175000E08760642064A068B0F5004F0BD120687A
:10176000006820F04000216808602068006840F4AC
:10177000804021680860A06AB0F5005F0DD100BF0D
:101780002068006820F40050216808602068006824
:1017900040F400502168086000BF2068006800F035
:1017A0004000402805D02068006840F040002168D3
:1017B0000860E068B0F5006F37D1606810B1B9F12A
:1017C000010F09D1206B00882168C860206B801C44
:1017D0002063E08E401EE08623E02068806800F0F1
:1017E000020002280AD1206B00882168C860206BA3
:1017F000801C2063E08E401EE08612E0FEF708FFAA
:10180000A0EB0800A84201D3681C00B94DB9012023
:1018100084F8510000BF002084F8500000BF03206E
:101820007BE7E08E0028D8D136E0606810B1B9F1CE
:10183000010F09D1206B007821680873206B401CD0
:101840002063E08E401EE08623E02068806800F080
:10185000020002280AD1206B007821680873206BEF
:10186000401C2063E08E401EE08612E0FEF7D0FEB2
:10187000A0EB0800A84201D3681C00B94DB90120B3
:1018800084F8510000BF002084F8500000BF0320FE
:1018900043E7E08E0028D8D1A06AB0F5005F05D1FB
:1018A0002068006840F4805021680860424629465C
:1018B000204600F01DFB08B120206065A06850B9EB
:1018C00000BF002000902068C068009020688068F9
:1018D000009000BF00BF012084F8510000BF00202D
:1018E00084F8500000BF606D08B1012015E70020AA
:1018F00013E770B504462546681EB0F1807F01D31A
:1019000001200FE0681E4FF0E02148610F214FF0E9
:10191000FF3000F0B9FE00204FF0E0218861072081
:101920000861002070BD00BFFEE700000A49096899
:1019300001F0010179B108498039096801F001011C
:1019400049B100E000BF4FF0604109680029F9D0BB
:101950004FF0604210707047800E00E000B585B017
:1019600000BF2648806940F0080024498861084685
:10197000806900F00800009000BF00BF00BF08466B
:10198000806940F0080088610846806900F008001E
:10199000009000BF00BF00BF0846806940F004000F
:1019A00088610846806900F00400009000BF00BF15
:1019B00088140190012002900320049001A910488E
:1019C000FEF786FC0220019001A90D48FEF780FC7D
:1019D0004FF4006001900120029001A90848FEF731
:1019E00077FC012211030648FEF70CFE0122D1020A
:1019F0000348FEF707FE05B000BD000000100240DE
:101A0000000C014010B500224FF400610748FEF7BA
:101A1000F9FD1420FEF738FC0122D1020348FEF73D
:101A2000F1FD0A20FEF730FC10BD0000000C014063
:101A300000BFFEE77047704708B508490968C90844
:101A40004FF47A72B1FBF2F14143009100BF00BF45
:101A500000994A1E00920029F9D108BD34000020E7
:101A600010B50248FFF770FB10BD00008C0000208D
:101A7000014600BF080900EB8000420001F00F00A2
:101A80001044C0B270470146002203E0521CA1F18D
:101A90000A00C1B20A29F9D2100741EA1060704762
:101AA00030B589B004460D46002208A91A48FFF750
:101AB00069FB9DF82220022318A11A4800F0C8FDF6
:101AC0009DF8212015A1184800F0C2FD9DF82320A3
:101AD00012A1164800F0BCFD144B134A114905A889
:101AE00000F09CFF05A912A000F0A2FD4FF6FF70C8
:101AF0004FF47841CDE901101048406800900F483C
:101B00000168039140680B4605AA294604902046C7
:101B100000F0FEFC09B030BD8C000020253032649E
:101B20000000000005000020070000200900002040
:101B300064617465203D2025730A0D00800000203B
:101B40002DE9F04706468846002700240025A146D7
:101B5000F77B747BB57B00BF40E0012C0BD0032CDE
:101B600009D0052C07D0072C05D0082C03D00A2C4F
:101B700001D00C2C0CD11F2D01D26D1C2CE00C2C93
:101B800002D0641C012527E0012401257F1C23E0ED
:101B9000042C05D0062C03D0092C01D00B2C06D127
:101BA0001E2D01D26D1C17E0641C012514E0022CCF
:101BB00012D11C2D01D26D1C0EE01C2D08D1B8B223
:101BC00000F05CF808B16D1C06E0641C012503E020
:101BD0001D2D01D1641C012509F10109C145BCD3AA
:101BE000F7737473B573EAB2E1B2384600F010F9D6
:101BF0003073BDE8F08770B504460025FEF708FD98
:101C0000054607E0FEF704FD401BB0F57A7F01D9D9
:101C1000032070BD2068406800F020000028F1D04B
:101C20002068406840F01000216848600020F0E71C
:101C300070B5044600252068406820F01000216837
:101C40004860FEF7E5FC054607E0FEF7E1FC401BB7
:101C5000B0F57A7F01D9032070BD2068406800F09C
:101C600020000028F1D00020F6E7000010B502485F
:101C7000FFF71FFA10BD00008C000020014601F0A4
:101C8000030008B1002070476420B1FBF0F200FBB4
:101C9000121008B10120F6E74FF4C870B1FBF0F262
:101CA00000FB121008B90120EDE70020EBE7014628
:101CB000002200230868006A82B20868406A83B282
:101CC00043EA0240704730B5014600220023002459
:101CD00000200D68AD69AAB20D68ED69ACB20D685F
:101CE000AD69ABB29A4205D00D68ED6963F31F454B
:101CF000284601E044EA024030BD00001FB5242020
:101D00008DF80F0012208DF80D0020208DF80E00A8
:101D100005208DF80C00012203A91448FFF77AFB77
:101D200008B1FEF7ABFA23208DF8080059208DF892
:101D3000090050208DF80A00012202A90B48FFF784
:101D4000E5FB08B1FEF79AFA0020019014208DF807
:101D5000000050208DF8010001208DF8020003489A
:101D6000FFF7CEF908B1FEF789FA1FBD8C000020FD
:101D700030B589B004460D46002208A91A48FFF77D
:101D80002AFA9DF8202019A11A4800F061FC9DF85C
:101D9000212016A1184800F05BFC9DF8222013A119
:101DA000164800F055FC154B134A124905A800F0DF
:101DB00059FE05A912A000F03BFC4FF6FF704FF44E
:101DC0007841CDE901101148406800900F48016842
:101DD000039140680B4605AA29460490204600F06E
:101DE00097FB09B030BD00008C0000202530326424
:101DF000000000000B0000200D0000200F0000205C
:101E000074696D65203D2025730A0D008000002057
:101E1000F0B504460B460021002504F5FA61032BBA
:101E20001BD2C3EBC30000EB03100926B0FBF6F096
:101E30001044001D4618481E06EB90066427B0FBB0
:101E4000F7F0361A481EBF00B0FBF7F03044072603
:101E5000B0FBF6F706FB17051AE0C3EBC30000EB77
:101E600003100926B0FBF6F01044001D084400EBF7
:101E700091006426B1FBF6F6801B4FF4C876B1FBE7
:101E8000F6F63044801E0726B0FBF6F706FB170572
:101E9000E8B2F0BD70B504460D4600262046FFF7B7
:101EA000AAFE08B101260AE0280C21680862A8B23F
:101EB000216848622046FFF7BBFE00B1012630468C
:101EC00070BD70B504460D4600262046FFF793FE10
:101ED00008B101260AE0280C21688861A8B22168AF
:101EE000C8612046FFF7A4FE00B10126304670BD50
:101EF000F8B504460E461546334601220221204617
:101F0000009500F017F828B1606D40F02000606582
:101F10000320F8BD3346002280212046009500F0C2
:101F200009F828B1606D40F0200060650320F0E7FB
:101F30000020EEE72DE9F84F04460D4690461E4678
:101F4000DDF82890FEF764FBA0EB0900371AFEF7D6
:101F50005FFB82462C480068C0F3CB30784300908A
:101F600045E0701C002842D0FEF752FBA0EB0A00AF
:101F7000B84200D2A7BB2068406820F0E00021688A
:101F800048606068B0F5827F0DD1A068B0F5004F61
:101F900003D0A068B0F5806F05D12068006820F0FC
:101FA000400021680860A06AB0F5005F0DD100BF55
:101FB0002068006820F400502168086020680068EC
:101FC00040F400502168086000BF012084F85100EF
:101FD00000BF002084F8500000BF0320BDE8F88F48
:101FE000FFE7009800B900270098401E0090206885
:101FF00080682840A84201D1012000E0002040452F
:10200000AFD10020EAE700003400002010B51148ED
:10201000FFF70AFBE8B910480E49086000210D4897
:10202000C161816001214161022101610021816260
:102030000721C1620021C16001624FF4007181611A
:10204000002141624FF48270024948600846FFF760
:10205000EFFA10BDA00000200038004000B585B0A8
:102060000020019002900390049000BF22488069F4
:1020700040F00800204988610846806900F00800A7
:10208000009000BF00BF00BF0846806940F0080014
:1020900088610846806900F00800009000BF00BF1A
:1020A0004FF400500190022002900320049001A9F7
:1020B0001248FEF70DF94FF40040019001A90F48B6
:1020C000FEF706F94FF4804001900020029001A92C
:1020D0000A48FEF7FDF800BF0748C06940F4804099
:1020E0000549C8610846C06900F48040009000BFFF
:1020F00000BF05B000BD000000100240000C014010
:10210000F8B50446002500260027EF231A460021D3
:10211000084600F0C3F800224FF480511248FEF741
:1021200071FA00BF13E000260DE020128DF80000C8
:10213000E0B28DF801000221684600F09DF9781C9C
:1021400087B2701C86B2F02EEFDB681C85B2F02DD2
:10215000E9DB394605A000F06BFA012211030248C1
:10216000FEF750FAF8BD0000000C01402D2D2D2D7A
:102170002D2D2D2D2D2D2D2D7A203D202530346413
:102180000A0D00001FB50A20FEF77EF8FFF73AFCA3
:102190003A2000F053F9552000F09CF9B22000F0ED
:1021A0004DF934A103C9CDE90201052102A800F0CF
:1021B00063F9022000F0C0F8B72000F03FF93520A5
:1021C00000F088F9BB2000F039F9192000F082F9FD
:1021D000C02000F033F92C2000F07CF9C22000F080
:1021E0002DF9012000F076F9C32000F027F9122024
:1021F00000F070F9C42000F021F9202000F06AF905
:10220000C62000F01BF90F2000F064F9D02000F088
:1022100015F9A42000F05EF9A12000F05BF9E020A0
:1022200000F00CF915A090E80E00C0688DE80E00D3
:1022300003900E21684600F01FF9E12000F0FEF83F
:1022400012A3D3E901021968DB6801AC0DC4009147
:102250000E21684600F010F9212000F0EFF811205F
:1022600000F0ECF8132000F0E9F8292000F0E6F87F
:102270001FBD00000C0C003333000000D0040D1112
:10228000132B3F544C180D0B1F230000D0040C11CE
:10229000132C3F44512F1F1F202300002DE9F84F1E
:1022A00004460D4616461F4600224FF48051214831
:1022B000FEF7A8F91FFA84F81FFA86F91FFA85FAC3
:1022C0001FFA87FB2A2000F0B9F84FEA28208DF882
:1022D000000008F0FF008DF801004FEA29208DF87A
:1022E000020009F0FF008DF803000421684600F0A9
:1022F000C3F82B2000F0A2F84FEA2A208DF8000046
:102300000AF0FF008DF801004FEA2B208DF8020043
:102310000BF0FF008DF803000421684600F0ACF8D4
:102320002C2000F08BF8012211030248FEF76AF915
:10233000BDE8F88F000C014010B50446362000F0CF
:102340007DF834B1012C08D0022C0AD0032C10D116
:102350000BE0C02000F0BEF80CE0A02000F0BAF8BE
:1023600008E0002000F0B6F804E0602000F0B2F8C9
:1023700000E000BF00BF10BD0FB42DE9F84F0646C6
:102380000F469046DDE90F9A00224FF4805129480C
:10239000FEF738F9BDF836003844401E83B2BDF868
:1023A00034003044401E82B239463046FFF776FF93
:1023B000002432E0A8F12000BDF8361000FB0140F7
:1023C0000E9931F810001C490860002520E01A48D9
:1023D0000088A84000F4004060B14FEA29208DF841
:1023E000000009F0FF008DF801000221684600F0AE
:1023F00043F80CE04FEA2A208DF800000AF0FF00B5
:102400008DF801000221684600F036F800BF6D1C0F
:10241000BDF83400A842DAD8641CBDF83600A042EA
:10242000C8D8012211030348FEF7ECF8BDE8F80F05
:102430005DF814FB000C01408800002001B500226B
:102440004FF480510A48FEF7DDF8002202210848C7
:10245000FEF7D8F84FF0FF33012269460548FFF731
:102460004DF9012211030248FEF7CCF808BD000027
:10247000000C0140A000002070B506460C4600226A
:102480004FF480511148FEF7BDF8012202210F4898
:10249000FEF7B8F811E0B4F5803F02D34FF6FF70B5
:1024A00000E0204685B24FF0FF332A463146084807
:1024B000FFF724F92E44641B00BF002CEBD101224E
:1024C00011030248FEF79EF870BD0000000C0140A9
:1024D000A000002001B500224FF480510A48FEF709
:1024E00091F8012202210848FEF78CF84FF0FF33E3
:1024F000012269460548FFF701F90122110302484C
:10250000FEF780F808BD0000000C0140A00000208C
:102510000FB42DE9FE4305460E461446DDE90F785B
:1025200000224FF480511B48FEF76CF824E0BDF800
:1025300034002844F0280FDB0025BDF83600304475
:1025400086B2BDF836003044F02800DB17E0207872
:10255000202801D1641C0FE0CDE901780E9800908D
:102560002278314628460D9BFFF706FFBDF8340060
:10257000284485B2641C00BF20780028D7D100BF52
:10258000012211030348FEF73DF8BDE8FE035DF8A4
:1025900014FB0000000C0140704710B5FEF73EF838
:1025A00010BD00B593B0282109A8FDF7C4FD142182
:1025B00004A8FDF7C0FD0020009001900290039058
:1025C000052009904FF480300A9000200B900120E4
:1025D0000C900D9002201090C10311914FF4E01166
:1025E000129109A8FEF71CFB08B1FDF747FE0F206A
:1025F000049002200590002006904FF48060079020
:1026000000200890022104A8FEF7F6F908B1FDF7B2
:1026100035FE01200090000201906846FEF754F953
:1026200008B1FDF72BFE13B000BD704700BFFEE7F9
:102630000FB4054B10B503A9044A029800F048F8FE
:1026400010BC5DF814FB00009D2A0008110000205A
:102650000FB4084B10B504A902AA039800F038F88B
:10266000044602A9002000F0D4F9204610BC5DF811
:1026700014FB0000132A000802480068C0F302207F
:10268000704700000CED00E010B5002804DB0A07DD
:10269000130E054A135406E00A07140E034A00F00D
:1026A0000F031B1FD45410BD00E400E018ED00E040
:1026B00002E008C8121F08C1002AFAD1704770470B
:1026C000002001E001C1121F002AFBD17047000069
:1026D0002DE9FF4F8BB088460546002606E02528E9
:1026E0000BD0DDE90D1290476D1C761C2878002870
:1026F000F5D10FB03046BDE8F08F0024A146A246C8
:102700000122AE4900E0044315F8013F203B02FAE4
:1027100003F00842F7D128782A2810D06FF02F0252
:102720002878A0F13001092915D809EB890102EBBD
:10273000410144F0020400EB01096D1CF0E758F878
:10274000041B5FEA010903D544F40054C9F10009F0
:1027500044F002046D1C28782E2817D115F8010FBB
:1027600044F004042A280ED06FF02F022878A0F13C
:10277000300109290AD80AEB8A0102EB410100EB7A
:10278000010A6D1CF2E758F804AB6D1C28786C2820
:102790000FD006DC4C2817D068280DD06A2814D139
:1027A00004E0742810D07A280FD10DE044F400140E
:1027B0000AE044F4801401E044F440146978814252
:1027C00002D104F580146D1C6D1C2878692865D031
:1027D00006DC00288DD0632827D0642806D15DE070
:1027E0006E2808D073282AD0752877D0DDE90D121D
:1027F0009047761CE0E0C4F30250022809D0032879
:102800000DD0D8F8001004280DD00E6008F104088F
:10281000D2E0D8F80010F217C1E90062F6E7D8F864
:1028200000100E80F2E70E70F0E718F8041B8DF828
:10283000001000208DF80100EB46012003E058F85D
:1028400004BB4FF0FF3061074FF0000701D40AE0EE
:102850007F1C57450DDA8742FADB1BF80710002969
:10286000F6D106E07F1C8742FCDB1BF8071000292D
:10287000F8D1DDE90D23A9EB07008146214600F0E0
:10288000B1F83044C61904E0DDE90D121BF8010B64
:1028900090477F1EF8D22146484688E058F8040B3E
:1028A000C4F302514FF00A0B032900D100B20429EE
:1028B00000D140B2002802DA40422D2102E0210579
:1028C00005D52B218DF82410012104E006E0E10755
:1028D00010D02021F6E708AF089113E058F8040B58
:1028E000C4F302514FF00A0B032900D180B204292E
:1028F00000D1C0B20021EEE75946FDF727FC303188
:1029000007F8011D0028F7D1ADEB070000F1200BFF
:10291000600702D524F4803401E04FF0010ADA4563
:1029200002DDAAEB0B0000E00020824600EB0B0169
:1029300008980144A9EB01000A90E00306D4DDE900
:102940000D2321460A9800F04DF806444FF0000987
:1029500008E009A911F80900DDE90D12904709F115
:102960000109761C08998945F3DBE0030CD5DDE904
:102970000D2321460A9800F035F8064404E0DDE90D
:102980000D1230209047761CBAF10001AAF1010A1D
:10299000F5DC05E0DDE90D1217F8010B9047761C18
:1029A000BBF10001ABF1010BF4DC0A982146DDE933
:1029B0000D2300F005F806446D1C97E60928010078
:1029C0002DE9F041044600251E461746880404D42C
:1029D00005E039462020B0476D1C641EF9D5284615
:1029E000BDE8F0812DE9F041044600251E469046E1
:1029F000C80301D5302700E02027880404D505E06E
:102A000041463846B0476D1C641EF9D52846BDE8DE
:102A1000F0810A68531C0B60107070471EB50EA43D
:102A2000246802940DA4246801940DA424680094E1
:102A30000C8804809DF8084084701488A0F8034036
:102A40009DF808404471BDF80040C4801C88048192
:102A5000002484721EBD00002E0000002000000033
:102A6000323000001CB50BA4246801940AA4246829
:102A700000940C8804809DF8044084701488A0F8A9
:102A800003409DF8044044711C88C48000240472F3
:102A90001CBD00003A0000003230000070B5044652
:102AA0000D462046FEF742FF70BD000086B0FDF7E0
:102AB000C1FDFFF776FD0020FDF792FB304831495C
:102AC00008604FF0FF3048600846FEF707FC08B189
:102AD000FDF7D4FBFFF712F9FEF740FFFFF7BEFA50
:102AE000FFF794FA28A0FFF7A3FDFDF757FB4FF679
:102AF000FF70FFF705FB4FF6FF704FF47841CDE90B
:102B000001102F48406800902D48016804914068EA
:102B10000B462CA2142105900A20FFF7F9FC4FF672
:102B2000FF704FF47841CDE90110254840680090CE
:102B300023480168049140680B4625A26421059052
:102B40000A20FFF7E5FC25A0FFF772FD32210A20DD
:102B5000FEF7A6FF13E02C48007817280FD12A486B
:102B600040783B280BD1284880783B2807D14FF488
:102B70009660FDF789FB32210A20FEF791FFEAE714
:102B8000002800408C0000203D3D3D3D3D3D3D3D49
:102B90003D3D3D3D3D3D3D3D3D3D537461727420A5
:102BA0005254432057617463683D3D3D3D3D3D3D7A
:102BB0003D3D3D3D3D3D3D3D3D3D3D3D0A0D000022
:102BC000800000205265616C20446174653A000009
:102BD0005265616C2054696D653A00003D3D3D3D94
:102BE0003D3D3D3D3D3D3D414141414141414141F1
:102BF000414141413D3D3D3D3D3D3D3D3D3D3D3DF5
:102C00003D3D0A0D000000002400002002030405E1
:102C1000060708090A0B0C0D0E0F10100102020323
:102C20000405060708090A0B0C0D0E0F101001020F
:102C3000000000000000000001020304060708096C
:102C40000000000001020304002001000600000053
:102C50000000000000000000000000000000000074
:102C60000000000000000000000000000000000064
:102C70000000000000000000000000000000000054
:102C80000000000000000000000000000000000044
:102C9000000000000000000000000003800003802E
:102CA0000003800003800003800003800003800095
:102CB000038000038000010000010000000000000C
:102CC00000000380000380000000000000000000FE
:102CD00000000000000000000000000000000000F4
:102CE0000000000000000E70000E70000E70000466
:102CF0002000042000042000042000000000000048
:102D000000000000000000000000000000000000C3
:102D100000000000000000000000000000000000B3
:102D200000000000000000000000000660000660D7
:102D3000000660000660000660003FF8003FF800F3
:102D40000660000CC0003FF8003FF8000CC0000C0B
:102D5000C0000CC0000CC0000CC00000000000004F
:102D60000000000000000000000000000000000063
:102D700001800001800007B0000FF00018700018FB
:102D800070001C00000F800007E00000F000183009
:102D9000001C30001C70001FE0001BC00001800000
:102DA00001800001800001800000000000000000A0
:102DB00000000000000000000000000780000FC0BD
:102DC000001CE0001860001860001CE0000FF80014
:102DD00007E0001FF000073800061800061800077B
:102DE000380003F00001E0000000000000000000D7
:102DF00000000000000000000000000000000000D3
:102E000000000000000000000003F00007F0000CCC
:102E100060000C00000C00000600000700000F9C82
:102E2000001DFC0018F0001870000FFC0007DC000B
:102E30000000000000000000000000000000000092
:102E400000000000000000000000000000000380FF
:102E50000003800003800001000001000001000069
:102E60000100000000000000000000000000000061
:102E70000000000000000000000000000000000052
:102E80000000000000000000000000000000000042
:102E900000000000180000380000700000F0000082
:102EA000E00000E00001C00001C00001C00001C05E
:102EB0000001C00001C00000E00000E00000700060
:102EC0000070000038000018000000000000000042
:102ED00000000000000000000000001800001C00BE
:102EE000000E00000E000007000007000003800035
:102EF000038000038000038000038000038000073C
:102F000000000700000F00000E00001C0000180069
:102F100000000000000000000000000000000000B1
:102F20000000000180000180000180001DB8001F2A
:102F3000F80007E00003C00003C000066000066060
:102F40000000000000000000000000000000000081
:102F50000000000000000000000000000000000071
:102F60000000000000000000000000000000000061
:102F700000018000018000018000018000018000CC
:102F80003FFC003FFC000180000180000180000147
:102F90008000018000000000000000000000000030
:102FA0000000000000000000000000000000000021
:102FB0000000000000000000000000000000000011
:102FC0000000000000000000000000000000000001
:102FD0000000000000000000E00000C00001C00090
:102FE00001800001800003000003000000000000D9
:102FF00000000000000000000000000000000000D1
:1030000000000000000000000000000000000000C0
:103010001FF8001FF8000000000000000000000082
:1030200000000000000000000000000000000000A0
:103030000000000000000000000000000000000090
:103040000000000000000000000000000000000080
:103050000000000000000000000000000000000070
:103060000000000000000003C00003C00003C00017
:103070000000000000000000000000000000000050
:1030800000000000000018000018000038000030A8
:103090000000700000600000600000C00000C00080
:1030A000018000018000030000030000060000060C
:1030B00000000E00000C00001C00001800001800AA
:1030C0000000000000000000000000000000000000
:1030D00000000003C00007E0000C30000C300018B6
:1030E00018001818001818001818001818001818D8
:1030F000001818000C30000C300007E00003C0007E
:1031000000000000000000000000000000000000BF
:1031100000000000000000000000000080000780A8
:10312000001F80001D8000018000018000018000E0
:103130000180000180000180000180000180000109
:1031400080001FF8001FF8000000000000000000D1
:10315000000000000000000000000000000000006F
:1031600000000007C0001FF00038300030180030A9
:10317000180000180000300000600001C00003804B
:10318000000600000C00001800003FF8003FF800A7
:10319000000000000000000000000000000000002F
:1031A000000000000000000000000003C0000FE06D
:1031B000000C700000300000300000600003C00010
:1031C00003E000007000001800001800001800184C
:1031D00038001FF0000FC0000000000000000000D9
:1031E00000000000000000000000000000000000DF
:1031F00000000000E00001E00001E00003600006C4
:1032000060000660000C60000C6000186000306018
:10321000003FF8003FF80000600003F80003F800EA
:10322000000000000000000000000000000000009E
:1032300000000000000000000000001FF0001FF070
:10324000001800001800001800001BC0001FF0004C
:103250001C30000018000018000018000018003092
:1032600030003FF0000FC000000000000000000030
:10327000000000000000000000000000000000004E
:1032800000000000F80003F8000700000E00000C2A
:1032900000001800001BC0001FF0001C30001818B0
:1032A000001818001818000C38000FF00003E00098
:1032B000000000000000000000000000000000000E
:1032C00000000000000000000000001FF8001FF8D0
:1032D000001818001838000030000030000070009E
:1032E00000600000600000E00000C00000C00001BD
:1032F000C00001800001800000000000000000000C
:1033000000000000000000000000000000000000BD
:1033100000000007E0000FF0001C3800181800182B
:1033200018000C300007E00007E0000C300018180F
:10333000001818001818001C38000FF00007E000F3
:10334000000000000000000000000000000000007D
:10335000000000000000000000000007C0000FF0A7
:10336000001C30001818001818001818000C38003D
:103370000FF80003D80000180000300000700000B3
:10338000E0001FC0001F000000000000000000005F
:10339000000000000000000000000000000000002D
:1033A000000000000000000000000000000000031A
:1033B000C00003C00003C0000000000000000000C7
:1033C0000000000000000003C00003C00003C000B4
:1033D00000000000000000000000000000000000ED
:1033E00000000000000000000000000000000000DD
:1033F0000000000000000000F00000F00000F000FD
:1034000000000000000000000000000000E00001DB
:10341000C0000180000180000300000200000000E5
:10342000000000000000000000000000000000009C
:10343000000000000000000000001C00003C000034
:10344000F00003C0000F00003C0000F000003C0052
:10345000000F000003C00000F000003C00001C0052
:10346000000000000000000000000000000000005C
:10347000000000000000000000000000000000004C
:10348000000000000000000000007FFC007FFC0046
:103490000000000000007FFC007FFC000000000036
:1034A000000000000000000000000000000000001C
:1034B000000000000000000000000000000000000C
:1034C0000000000000000000007000007800001EF6
:1034D000000007800001E000007800001E00007876
:1034E0000001E0000780001E00007800007000006E
:1034F00000000000000000000000000000000000CC
:10350000000000000000000000000000000007C0F4
:10351000000FE00018700018300018300000700034
:1035200000E00003C0000380000300000000000072
:10353000000007000007000000000000000000007D
:10354000000000000000000000000000000000007B
:1035500000000003E00007F0000E38000C1800180F
:10356000780018F80019D8001998001998001998CF
:103570000018F8001878001800000C00000E180061
:1035800007F80003E0000000000000000000000059
:1035900000000000000000000000000000001F808C
:1035A000001FC00001C0000360000360000630007F
:1035B0000630000C30000FF8001FF800180C003027
:1035C0000C00FC7F00FC7F000000000000000000F9
:1035D00000000000000000000000000000000000EB
:1035E0000000000000007FE0007FF00018380018A5
:1035F00018001818001838001FF0001FF800181CD9
:1036000000180C00180C00180C007FF8007FF00068
:1036100000000000000000000000000000000000AA
:10362000000000000000000000000000000003ECAB
:10363000000FFC001C1C00180C00300C00300000B7
:10364000300000300000300000300000180C001C7A
:103650001C000FF80003F000000000000000000054
:10366000000000000000000000000000000000005A
:103670000000000000007FC0007FF0001838001834
:103680001800180C00180C00180C00180C00180C6E
:1036900000180C001818001838007FF0007FE000B8
:1036A000000000000000000000000000000000001A
:1036B00000000000000000000000000000007FF893
:1036C000007FF800181800181800199800198000D9
:1036D0001F80001F8000198000199800181800181A
:1036E00018007FF8007FF8000000000000000000D4
:1036F00000000000000000000000000000000000CA
:103700000000000000003FFC003FFC000C0C000C1F
:103710000C000CCC000CC0000FC0000FC0000CC08F
:10372000000CC0000C00000C00003FC0003FC000B7
:103730000000000000000000000000000000000089
:10374000000000000000000000000000000003EC8A
:10375000000FFC001C1C00180C00300C0030000096
:1037600030000030FE0030FE00300C00380C001C31
:103770001C000FFC0003F00000000000000000002F
:103780000000000000000000000000000000000039
:103790000000000000007E7E007E7E0018180018E9
:1037A00018001818001818001FF8001FF800181843
:1037B000001818001818001818007E7E007E7E0081
:1037C00000000000000000000000000000000000F9
:1037D00000000000000000000000000000001FF8D2
:1037E000001FF800018000018000018000018000BE
:1037F0000180000180000180000180000180000143
:1038000080001FF8001FF80000000000000000000A
:1038100000000000000000000000000000000000A8
:1038200000000000000007FE0007FE00003000005E
:103830003000003000003000003000303000303008
:10384000003030003030003060003FE0000F80007A
:103850000000000000000000000000000000000068
:1038600000000000000000000000000000007F3E9B
:10387000007F3E0018300018600018C0001980005A
:103880001B80001FC0001CE00018700018300018DA
:1038900038007F1F007F1F000000000000000000B4
:1038A0000000000000000000000000000000000018
:1038B0000000000000007F80007F80000C00000CF2
:1038C00000000C00000C00000C00000C00000C0CB0
:1038D000000C0C000C0C000C0C007FFC007FFC00AA
:1038E00000000000000000000000000000000000D8
:1038F0000000000000000000000000000000F00FC9
:1039000000F81F00381C003C3C003C3C00366C00BA
:10391000366C0033CC0033CC00318C00300C0030DE
:103920000C00FE7F00FE7F00000000000000000091
:103930000000000000000000000000000000000087
:1039400000000000000078FE0078FE001C18001E39
:1039500018001F18001B18001B980019D80018D851
:103960000018F8001878001838007F18007F180039
:103970000000000000000000000000000000000047
:10398000000000000000000000000000000003C074
:10399000000FF0001C3800181800381C00300C0014
:1039A000300C00300C00300C00381C001818001CC3
:1039B00038000FF00003C00000000000000000000D
:1039C00000000000000000000000000000000000F7
:1039D0000000000000003FF0003FF8000C1C000C4D
:1039E0000C000C0C000C0C000C18000FF8000FE081
:1039F000000C00000C00000C00003FC0003FC000A5
:103A000000000000000000000000000000000000B6
:103A1000000000000000000000000000000003C0E3
:103A2000000FF0001C3800181800381C00300C0083
:103A3000300C00300C00300C00381C001818001C32
:103A400038000FF00007C00007CC000FFC000C3856
:103A50000000000000000000000000000000000066
:103A60000000000000007FE0007FF0001838001820
:103A700018001818001838001FF0001FC00018E0C8
:103A8000001870001830001838007F1E007F0E00EC
:103A90000000000000000000000000000000000026
:103AA000000000000000000000000000000007D837
:103AB000000FF8001C38001818001818001E00002D
:103AC0000FC00003F0000078001818001818001C40
:103AD00038001FF0001BE0000000000000000000A4
:103AE00000000000000000000000000000000000D6
:103AF0000000000000003FFC003FFC00318C003162
:103B00008C00318C00318C0001800001800001802C
:103B1000000180000180000180000FF0000FF00024
:103B20000000000000000000000000000000000095
:103B300000000000000000000000000000007E7E89
:103B4000007E7E00181800181800181800181800B9
:103B50001818001818001818001818001818000C69
:103B600030000FF00003C000000000000000000063
:103B70000000000000000000000000000000000045
:103B80000000000000007F7F007F7F00180C000C09
:103B900018000C18000C18000630000630000360F6
:103BA0000003600003600001C00001C0000080004D
:103BB0000000000000000000000000000000000005
:103BC0000000000000000000000000000000FE3FB8
:103BD00080FE3F8030060030060030860019CC00A1
:103BE00019CC001B6C001B6C001E7C000E38000EF4
:103BF00038000C18000C1800000000000000000045
:103C000000000000000000000000000000000000B4
:103C10000000000000007E7E007E7E001818000C70
:103C2000300006600003C00001800001800003C076
:103C3000000660000C30001818007E7E007E7E00BA
:103C40000000000000000000000000000000000074
:103C500000000000000000000000000000007C7E6A
:103C6000007C7E001818000C300006600006600022
:103C700003C000018000018000018000018000017C
:103C800080000FF0000FF0000000000000000000B6
:103C90000000000000000000000000000000000024
:103CA0000000000000001FF8001FF800181800189E
:103CB000300018600018C0000180000300000618E2
:103CC000000C18001818003018003FF8003FF800EA
:103CD00000000000000000000000000000000000E4
:103CE000000000000000000000000001F00001F0F2
:103CF000000180000180000180000180000180003F
:103D0000018000018000018000018000018000012D
:103D1000800001800001800001800001F00001F0BE
:103D2000000000000000000000000000001800007B
:103D30001800001C00000C00000E00000600000629
:103D4000000003000003000001800001800000C0AB
:103D50000000C00000600000600000700000300043
:103D600000380000180000180000000000000000EB
:103D700000000000000000000000000F80000F8025
:103D800000018000018000018000018000018000AE
:103D9000018000018000018000018000018000019D
:103DA00080000180000180000180000F80000F80F2
:103DB0000000000000000000000000000000000003
:103DC00000800001C00003E0000770000630000C16
:103DD0001800180C00100400000000000000000093
:103DE00000000000000000000000000000000000D3
:103DF00000000000000000000000000000000000C3
:103E000000000000000000000000000000000000B2
:103E100000000000000000000000000000000000A2
:103E20000000000000000000000000000000000092
:103E30000000000000000000000000000000000082
:103E400000000000000000FFFF00FFFF0000000076
:103E500003000003800000E000006000000000009C
:103E60000000000000000000000000000000000052
:103E70000000000000000000000000000000000042
:103E80000000000000000000000000000000000032
:103E90000000000000000000000000000000000022
:103EA000000000000000000FC0001FE00000300014
:103EB00000300007F0001FF00038300030300030D4
:103EC00070001FFC000FBC0000000000000000009C
:103ED00000000000000000000000000000000000E2
:103EE0000000007800007800001800001800001B97
:103EF000E0001FF8001C1800180C00180C00180C2B
:103F000000180C00180C001C18007FF8007BE00063
:103F100000000000000000000000000000000000A1
:103F20000000000000000000000000000000000091
:103F30000000000000000003EC000FFC001C1C004F
:103F4000380C00300C00300000300000380C001C31
:103F50001C000FF80003F00000000000000000004B
:103F60000000000000000000000000000000000051
:103F7000000000007800007800001800001800071A
:103F8000D8001FF80018380030180030180030181A
:103F9000003018003018001838001FFE0007DE003F
:103FA0000000000000000000000000000000000011
:103FB0000000000000000000000000000000000001
:103FC0000000000000000007E0001FF800181800C3
:103FD000300C003FFC003FFC0030000030000018B7
:103FE0000C001FFC0007F0000000000000000000B3
:103FF00000000000000000000000000000000000C1
:1040000000000001FC0003FC000600000600003F69
:10401000F8003FF800060000060000060000060059
:10402000000600000600000600003FF0003FF00020
:104030000000000000000000000000000000000080
:104040000000000000000000000000000000000070
:104050000000000000000007DE001FFE001838000E
:1040600030180030180030180030180030180018D0
:1040700038001FF80007D8000018000018000038AA
:10408000000FF0000FC00000000000000000000062
:104090000000007800007800001800001800001BE5
:1040A000E0001FF0001C380018180018180018183D
:1040B000001818001818001818007E7E007E7E0078
:1040C00000000000000000000000000000000000F0
:1040D00000000000000000000000000180000180DE
:1040E000000000000000001F80001F800001800011
:1040F000018000018000018000018000018000013A
:1041000080003FFC003FFC000000000000000000B9
:10411000000000000000000000000000000000009F
:1041200000000000C00000C0000000000000001FF0
:10413000F0001FF0000030000030000030000030C0
:10414000000030000030000030000030000030007F
:104150000030000030000070001FE0001F800000F1
:1041600000000000000000000000003C00003C00D7
:10417000000C00000C00000CF8000CF8000CC00053
:104180000D80000F80000F00000F80000DC0000C9C
:10419000E0003C7C003C7C000000000000000000CF
:1041A000000000000000000000000000000000000F
:1041B0000000001F80001F800001800001800001BE
:1041C00080000180000180000180000180000180EA
:1041D000000180000180000180003FFC003FFC00E6
:1041E00000000000000000000000000000000000CF
:1041F00000000000000000000000000000000000BF
:1042000000000000000000F77800FFFC0039CC003F
:10421000318C00318C00318C00318C00318C0031BC
:104220008C00FDEF00FDEF0000000000000000002A
:10423000000000000000000000000000000000007E
:104240000000000000000000000000000000007BF3
:10425000E0007FF0001C380018180018180018182B
:10426000001818001818001818007E7E007E7E00C6
:10427000000000000000000000000000000000003E
:10428000000000000000000000000000000000002E
:104290000000000000000003C0000FF0001C380008
:1042A000381C00300C00300C00300C00381C001C96
:1042B00038000FF00003C000000000000000000004
:1042C00000000000000000000000000000000000EE
:1042D0000000000000000000000000000000007B63
:1042E000E0007FF8001C1800180C00180C00180CD7
:1042F00000180C00180C001C18001FF8001BE00030
:104300001800001800001800007F00007F00000067
:10431000000000000000000000000000000000009D
:104320000000000000000007DE001FFE001838003B
:1043300030180030180030180030180030180018FD
:1043400038001FF80007D8000018000018000018F7
:104350000000FE0000FE0000000000000000000061
:104360000000000000000000000000000000003E0F
:1043700078003EFC0007CC000700000600000600A5
:10438000000600000600000600003FF0003FF000BD
:10439000000000000000000000000000000000001D
:1043A000000000000000000000000000000000000D
:1043B0000000000000000007F8000FF800181800C7
:1043C0001818001F80000FF00000F80018180018DF
:1043D00038001FF0001FE000000000000000000097
:1043E00000000000000000000000000000000000CD
:1043F0000000000C00000C00000C00000C00003F4E
:10440000F0003FF0000C00000C00000C00000C005D
:10441000000C00000C00000C1C0007FC0003F00066
:10442000000000000000000000000000000000008C
:10443000000000000000000000000000000000007C
:10444000000000000000007878007878001818005C
:104450001818001818001818001818001818001854
:1044600038000FFE0007DE00000000000000000022
:10447000000000000000000000000000000000003C
:104480000000000000000000000000000000007CB0
:104490003E007C3E001818001818000C30000C304C
:1044A0000006600006600007E00003C00003C000D3
:1044B00000000000000000000000000000000000FC
:1044C00000000000000000000000000000000000EC
:1044D00000000000000000783C00783C003118002B
:1044E0003398003398001AB0001EF0001EF0001C34
:1044F00060000C60000C6000000000000000000084
:1045000000000000000000000000000000000000AB
:104510000000000000000000000000000000003E5D
:104520007C003E7C000C300006600003C00001806F
:104530000003C0000660000C30003E7C003E7C00A2
:10454000000000000000000000000000000000006B
:10455000000000000000000000000000000000005B
:10456000000000000000007E1F007E1F00180C00ED
:104570000C18000C18000630000630000360000321
:10458000E00001C00000C0000180000180000300C5
:10459000003FC0003FC0000000000000000000001D
:1045A0000000000000000000000000000000001FEC
:1045B000F8001FF80018300018600000C0000180EB
:1045C000000300000618000C18001FF8001FF80078
:1045D00000000000000000000000000000000000DB
:1045E000000000000000000000000000E00001E00A
:1045F0000001800001800001800001800001800036
:10460000018000038000070000038000018000019A
:10461000800001800001800001800001E00000E0D6
:10462000000000000000000000000000000000008A
:104630000000000180000180000180000180000175
:104640008000018000018000018000018000018065
:1046500000018000018000018000018000018000D5
:1046600001800001800001800000000000000000C7
:1046700000000000000000000000000700000780AC
:1046800000018000018000018000018000018000A5
:1046900001800001C00000E00001C00001800001B5
:1046A0008000018000018000018000078000070079
:1046B00000000000000000000000000000000000FA
:1046C00000000000000000000000000000000000EA
:1046D00000000000000E00001F18003BB80031F081
:1046E0000000E000000000000000000000000000EA
:1046F00000000000000000000000000000000000BA
:1047000000000000000000000000000000000000A9
:104710000000000000000000000000000000000099
:104720000000000000000000000000000000000782
:10473000000700070007000700070007000200024B
:10474000000000000007000700000000000000005B
:104750000000000000000000001CE01CE01CE0085D
:104760004008400840000000000000000000000079
:10477000000000000000000000000000000CC00C61
:10478000C00CC00CC00CC03FF03FF00CC00CC03FD0
:10479000F03FF00CC00CC00CC00CC00CC0000000FE
:1047A00000000000000300030007E00FE01860189D
:1047B000001F000FC000E0186018601FC01F8003BA
:1047C0000003000300000000000000000000001CC7
:1047D000002200220022001C6001E00F803C00311A
:1047E000C002200220022001C000000000000000E2
:1047F000000000000000000000000003E00FE00CDB
:10480000000C0006000F301FF019E018C01FF00761
:10481000B0000000000000000000000000000000E8
:1048200000038003800380010001000100000000FC
:104830000000000000000000000000000000000078
:104840000000000000000000C000C00180018001E5
:104850008003000300030003000300030001800144
:1048600080018000C000C000000000000000000CBB
:10487000000C00060006000600030003000300030E
:1048800000030003000600060006000C000C0000F8
:10489000000000000000000300030003001B601F75
:1048A000E0078007800FC00CC0000000000000007F
:1048B00000000000000000000000000000000000F8
:1048C00000000003000300030003003FF03FF0037B
:1048D00000030003000300000000000000000000CF
:1048E00000000000000000000000000000000000C8
:1048F000000000000000000000000003800300032F
:104900000006000600040000000000000000000097
:1049100000000000000000000000003FE03FE00059
:104920000000000000000000000000000000000087
:104930000000000000000000000000000000000077
:10494000000000000000000000000003800380035E
:104950008000000000000000000000000000600077
:104960006000C000C000C001800180030003000699
:104970000006000C000C000C0018001800000000DD
:10498000000000000000000F801FC018C030603021
:10499000603060306030603060306018C01FC00F21
:1049A0008000000000000000000000000000000384
:1049B000001F001F000300030003000300030003A7
:1049C00000030003001FE01FE000000000000000E3
:1049D000000000000000000F801FC038E0306000C1
:1049E0006000C00180030006000C0018003FE03F9B
:1049F000E000000000000000000000000000000FC8
:104A0000803FC030E0006000E007C007C000E00069
:104A100060006060E07FC03F800000000000000098
:104A20000000000000000001C003C003C006C00C6D
:104A3000C00CC018C030C03FE03FE000C003E0033E
:104A4000E000000000000000000000000000001F67
:104A5000C01FC0180018001F801FC018E0006000B1
:104A600060006030E03FC01F8000000000000000D8
:104A70000000000000000003E00FE01E00180038F6
:104A80000037803FC038E03060306018E01FC0075A
:104A90008000000000000000000000000000003F57
:104AA000E03FE03060006000C000C000C001800155
:104AB00080018003000300030000000000000000EC
:104AC000000000000000000F801FC038E030603898
:104AD000E01FC01FC038E03060306038E01FC00FFA
:104AE0008000000000000000000000000000000F37
:104AF000001FC038C03060306038E01FE00F600039
:104B0000E000C003C03F803E000000000000000045
:104B10000000000000000000000000000000000392
:104B200080038003800000000000000380038003F6
:104B300080000000000000000000000000000000F5
:104B40000000000000000001C001C001C000000022
:104B500000000003800300060006000400000000BF
:104B60000000000000000000000000003000F00322
:104B7000C007001C0078001C00070003C000F00004
:104B800030000000000000000000000000000000F5
:104B9000000000000000007FF07FF0000000007FB8
:104BA000F07FF000000000000000000000000000A6
:104BB000000000000000000000000030003C000F7A
:104BC00000038000E0007800E003800F003C00302C
:104BD00000000000000000000000000000000000D5
:104BE000000F801FC018601860006001C0038003C0
:104BF00000000000000700070000000000000000A7
:104C00000000000000000003800C800840104010ED
:104C10004011C012401240124011C010000800089C
:104C200040078000000000000000000000000000BD
:104C3000001F801F80038006C006C00CC00C601FD0
:104C4000E01FE03030787878780000000000000045
:104C50000000000000000000003F803FC018601806
:104C60006018E01FC01FE01870183018303FF03F88
:104C7000E000000000000000000000000000000054
:104C80000007B00FF01C70383030003000300030BA
:104C90000038301C700FE007C0000000000000006A
:104CA0000000000000000000007F807FC030E03086
:104CB000703030303030303030307030E07FC07F96
:104CC0008000000000000000000000000000000064
:104CD000003FF03FF01830183019801F801F8019F6
:104CE00080183018303FF03FF00000000000000056
:104CF0000000000000000000003FF03FF0183018F6
:104D00003019801F801F801980180018003F003F55
:104D10000000000000000000000000000000000093
:104D20000007B01FF0187030303000300031F8311B
:104D3000F8303018301FF007C000000000000000FD
:104D40000000000000000000003CF03CF01860187B
:104D50006018601FE01FE01860186018603CF03CAD
:104D6000F000000000000000000000000000000053
:104D7000001FE01FE0030003000300030003000323
:104D800000030003001FE01FE0000000000000001F
:104D900000000000000000000003F803F8006000BD
:104DA000600060006030603060306030E03FC00F15
:104DB0008000000000000000000000000000000073
:104DC000003EF83EF818E019801B001F001D8018F7
:104DD000C018C018603E783E380000000000000097
:104DE0000000000000000000003F003F000C000C2D
:104DF000000C000C000C000C300C300C303FF03F6D
:104E0000F0000000000000000000000000000000B2
:104E1000007878787838703CF034B037B037B033F9
:104E200030333030307CF87CF800000000000000A7
:104E300000000000000000000039F03DF01C601E82
:104E4000601E601B601B6019E019E018E03EE03E48
:104E500060000000000000000000000000000000F2
:104E60000007800FC01CE0387030303030303030F8
:104E70003038701CE00FC007800000000000000008
:104E80000000000000000000003FC03FE018701864
:104E900030183018701FE01FC0180018003F003F86
:104EA0000000000000000000000000000000000002
:104EB0000007800FC01CE0387030303030303030A8
:104EC0003038701CE00FC0078007B00FF00CE00016
:104ED0000000000000000000003FC03FE018701814
:104EE0003018701FE01FC018E0186018703E383E80
:104EF000180000000000000000000000000000009A
:104F0000000FB01FF03870303038001F8007E0000D
:104F100070303038703FE037C00000000000000003
:104F20000000000000000000003FF03FF03330338D
:104F3000303330030003000300030003000FC00FF1
:104F4000C0000000000000000000000000000000A1
:104F5000003CF03CF0186018601860186018601889
:104F60006018601CE00FC007800000000000000017
:104F700000000000000000000078F078F0306030A1
:104F80006018C018C00D800D800D80070007000755
:104F90000000000000000000000000000000000011
:104FA000007C7C7C7C301833983398339836D81644
:104FB000D01C701C701C7018300000000000000035
:104FC00000000000000000000078F078F030601869
:104FD000C00D80070007000D8018C0306078F078A1
:104FE000F0000000000000000000000000000000D1
:104FF000003CF03CF018600CC00780078003000301
:1050000000030003000FC00FC000000000000000FC
:105010000000000000000000001FE01FE018601802
:10502000C001800300030006000C6018601FE01F31
:10503000E00000000000000000000000000000038D
:10504000C003C003000300030003000300030003C8
:10505000000300030003000300030003C003C000BB
:105060000000000000180018000C000C000C0006E6
:10507000000600030003000180018000C000C000A2
:10508000C000600060000000000000000000000F91
:10509000000F0003000300030003000300030003EC
:1050A00000030003000300030003000F000F0000D3
:1050B00000000000000000020007000D8018C03052
:1050C0006020200000000000000000000000000040
:1050D00000000000000000000000000000000000D0
:1050E00000000000000000000000000000000000C0
:1050F00000000000000000000000000000000000B0
:1051000000FFFCFFFC000004000300008000000022
:10511000000000000000000000000000000000008F
:10512000000000000000000000000000000000007F
:10513000000000000000000FC01FE000600FE01F33
:10514000E0386030E03FF01F700000000000000019
:1051500000000000000000700070003000300037D8
:10516000803FE0386030303030303038607FE0777A
:1051700080000000000000000000000000000000AF
:105180000000000000000007B01FF0183030303081
:1051900000300038301FF00FC00000000000000099
:1051A00000000000000000007000700030003007B8
:1051B000B01FF0187030303030303038701FF807C2
:1051C000B800000000000000000000000000000027
:1051D0000000000000000007801FE018603FF03F63
:1051E000F0300018301FF007C00000000000000081
:1051F0000000000000000003F007F0060006001F9A
:10520000E01FE0060006000600060006001FE01F83
:10521000E0000000000000000000000000000000AE
:105220000000000000000007B81FF8187030303090
:1052300030303018701FF007B0003000700FE00FF2
:10524000C000000000000038003800180018001BE3
:10525000C01FE01C6018601860186018603CF03CCB
:10526000F00000000000000000000000000000034B
:10527000000300000000001F001F000300030003E4
:1052800000030003001FE01FE0000000000000001A
:105290000000000000000003000300000000001FE9
:1052A000C01FC000C000C000C000C000C000C000DF
:1052B000C000C001C03F803F000000000000003877
:1052C000003800180018001BE01BE01B001E001E29
:1052D000001B00198039F039F000000000000000C8
:1052E000000000000000001F001F00030003000377
:1052F000000300030003000300030003001FE01F7E
:10530000E0000000000000000000000000000000BD
:10531000000000000000007EE07FF03330333033C7
:1053200030333033307BB87BB80000000000000021
:105330000000000000000000000000000000003B32
:10534000C03FE01C6018601860186018603CF03CBA
:10535000F00000000000000000000000000000005D
:105360000000000000000007801FE01860303030AF
:1053700030303018601FE00780000000000000009F
:1053800000000000000000000000000000000077A6
:10539000807FE0386030303030303038603FE03788
:1053A00080300030007C007C000000000000000025
:1053B0000000000000000007B81FF81870303030FF
:1053C00030303018701FF007B00030003000F800A7
:1053D000F800000000000000000000000000003C99
:1053E000E03DF00F300E000C000C000C003FC03F01
:1053F000C0000000000000000000000000000000ED
:105400000000000000000007E01FE018601E000F11
:10541000C001E018601FE01F8000000000000000D5
:105420000000000000000000000C000C000C003F19
:10543000E03FE00C000C000C000C000C300FF007FB
:10544000C00000000000000000000000000000009C
:105450000000000000000038E038E0186018601814
:1054600060186018E01FF00F7000000000000000DE
:1054700000000000000000000000000000000078B4
:10548000F078F0306018C018C00D800D800700075C
:10549000000000000000000000000000000000000C
:1054A0000000000000000078F078F03260326037D1
:1054B000E01DC01DC018C018C000000000000000A2
:1054C0000000000000000000000000000000003CA0
:1054D000F03CF00CC00780030007800CC03CF03C9F
:1054E000F0000000000000000000000000000000CC
:1054F0000000000000000078F078F0306018C0185C
:10550000C00D800F800700060006000C007F007FA2
:105510000000000000000000000000000000001F6C
:10552000E01FE018C00180030006000C601FE01FB0
:10553000E00000000000000000000000000000018A
:10554000C003C00300030003000300030007000EB4
:10555000000700030003000300030003C001C000B4
:10556000000000000000000300030003000300032C
:105570000003000300030003000300030003000313
:105580000003000300030000000000000000001CF6
:10559000001E0006000600060006000600070003C5
:1055A00080070006000600060006001E001C000022
:1055B00000000000000000000000000000000000EB
:1055C000000E003F3033F001E0000000000000005A
:1055D00000000000000000000000000000000000CB
:1055E00000000000000000000000000000000000BB
:1055F0000000000000000000000000000000000C9F
:10560000000C000C000C000C000C000C000C000046
:10561000000C00000000000000000000000000007E
:10562000001DC01DC0088008800880000000000028
:105630000000000000000000000000000000000D5D
:10564000800D800D800D803FC01B003FC01B001BE4
:10565000001B001B00000000000000000004001FF1
:10566000803180318038001E000F0003803180318E
:10567000803F00040004000000000000000000184B
:10568000002400240018C007801E00318002400260
:105690004001800000000000000000000000000049
:1056A000000F001800180018000C001D8037003390
:1056B000001D80000000000000000000000000004D
:1056C00000070007000200020002000000000000C6
:1056D00000000000000000000000000000000003C7
:1056E00000030006000E000C000C000C000C000E65
:1056F0000006000300030000000000000000001886
:105700000018000C00060006000600060006000651
:10571000000C001C00180000000000000000000643
:105720000006003FC03FC00F001F8019800000002E
:105730000000000000000000000000000000000069
:105740000000000400040004003F80040004000482
:105750000000000000000000000000000000000049
:105760000000000000000000000000000000000633
:105770000004000C00080008000000000000000009
:105780000000000000000000003F8000000000005A
:105790000000000000000000000000000000000009
:1057A0000000000000000000000000000000000CED
:1057B000000C000000000000000000000000C0001D
:1057C000C0018001800300030006000C000C0018DB
:1057D0000018003000300000000000000000000E43
:1057E000001B003180318031803180318031801B5D
:1057F000000E000000000000000000000000000695
:10580000003E000600060006000600060006000630
:10581000003FC00000000000000000000000000F7A
:1058200000198031803180030006000C0018003020
:10583000003F800000000000000000000000003F6A
:10584000006180018003001F0003800180018061EE
:10585000803F000000000000000000000000000782
:105860000007000F000B001B00130033003F8003F4
:10587000000F800000000000000000000000001F7A
:10588000801800180018001F00118001800180217D
:10589000801F000000000000000000000000000762
:1058A000801C0018003000370039803180318019A9
:1058B000800F000000000000000000000000007FDA
:1058C000004300030006000600060006000C000C62
:1058D000000C000000000000000000000000001F9D
:1058E000003180318031801F003180318031803142
:1058F000801F000000000000000000000000001EEB
:105900000033003180318033801D80018003000727
:10591000003C00000000000000000000000000004B
:1059200000000000000C000C000000000000000C53
:10593000000C00000000000000000000000000005B
:10594000000000000003000300000000000000064B
:105950000004000800080000000000000000000033
:105960000000C003000400180060001800040003D9
:105970000000C00000000000000000000000000067
:10598000000000000000007FC000007FC000000099
:105990000000000000000000000000000000000007
:1059A00000600018000400030000C0030004001899
:1059B0000060000000000000000000000000000087
:1059C000001F0031803180018007000C000C0000B6
:1059D000000C000000000000000000000000000EAD
:1059E00000110021002100270029002900270020A4
:1059F0000011000E00000000000000000000000088
:105A0000003F000F000900198019801F8030C0304E
:105A1000C079E0000000000000000000000000006D
:105A2000007F003180318031803F00318031803112
:105A3000807F000000000000000000000000000067
:105A4000001F4030C0604060006000600060403077
:105A5000801F0000000000000000000000000000A7
:105A6000007F00318030C030C030C030C030C03125
:105A7000807F000000000000000000000000000027
:105A8000007F803080308032003E00320030803035
:105A9000807F800000000000000000000000000087
:105AA000007FC03040304032003E003200300030D5
:105AB000007C00000000000000000000000000006A
:105AC000001E80318060806000600067C0618031AE
:105AD000801F000000000000000000000000000027
