:020000040800F2
:1000000040110020050100087D320008A92B0008DE
:1000100079320008A9060008794C000800000000A9
:100020000000000000000000000000001948000867
:10003000AD060008000000007F3200084D480008AF
:100040001F0100081F0100081F010008C934000833
:100050001F0100081F010008050800081F01000813
:100060001F0100081F0100081F0100081F010008F0
:100070001F0100081F0100081F0100081F010008E0
:100080001F0100081F0100081F0100081F010008D0
:100090001F0100081F0100081F0100081F010008C0
:1000A0001F0100081F0100081F0100081F010008B0
:1000B0001F0100081F0100081F0100081F010008A0
:1000C0001F0100081F0100081F0100081F01000890
:1000D0001F0100081F010008694C00081F010008EB
:1000E0001F010008A93200081F010008DFF810D026
:1000F00000F068F80048004735520008AFF3008070
:10010000401100200648804706480047FEE7FEE70A
:10011000FEE7FEE7FEE7FEE7FEE7FEE7FEE7FEE7B7
:100120002D490008ED000008D2B201E000F8012BD3
:10013000491EFBD270470022F6E710B513460A4667
:1001400004461946FFF7F0FF204610BDCBB203E08E
:100150000178994203D0401C521EF9D2002070470A
:100160002DE9F05F0546002092469B4688460646EC
:10017000814640241BE0284641464746224600F07F
:1001800042F853465A46C01A914110D311461846B8
:10019000224600F029F82D1A67EB01084F46224647
:1001A0000120002100F020F817EB00094E41201E2D
:1001B000A4F10104DFDC484631462A464346BDE847
:1001C000F09F0000064C074D06E0E06840F0010398
:1001D00094E8070098471034AC42F6D3FFF78AFF43
:1001E000781D0108981D0108202A04DB203A00FA36
:1001F00002F1002070479140C2F1200320FA03F37E
:10020000194390407047202A04DB203A21FA02F07B
:100210000021704721FA02F3D040C2F12002914040
:10022000084319467047000070B5054600240B4886
:100230000668056000BF05E0A1B2F022002000F0D2
:10024000E5F8641C00F08AF9A042F5D8034806607E
:100250000146098888B200F0B9F970BD080600208F
:100260002DE9F04106460F461446A4F120000B4943
:100270008968C9884843094989688988CD1DE91773
:1002800005EB5171C910054B9B681B6800FB0132DF
:100290003946304600F00CFABDE8F081080600202F
:1002A0002DE9FF5F044615461F464FF001084FF049
:1002B00000090026B246AB4600224FF48051314877
:1002C00000F098FD00E0761C1BF8011B0029FAD114
:1002D00000F03CF92C4989688988B0FBF1FA012FBC
:1002E00004D0022F0FD0032F18D10AE0AAEB06008A
:1002F000254989688988484304EB50001FFA80F833
:100300000EE0A0460CE0AAEB06001F498968898828
:10031000624200FB01201FFA80F801E0A04600BF06
:1003200000BF0FE02A7840460199FFF799FF164871
:100330008068808840441FFA80F86D1C09F1010034
:100340001FFA80F900F002F90F498968898809FBD2
:10035000110080B20C4989688988884201D3012044
:1003600000E00020297809B1012100E000210840C7
:100370000028D7D101221103024800F03BFDBDE85F
:10038000FF9F0000000C0140080600202DE9F04707
:1003900005460E4614460027B846A07CE17C00EBDB
:1003A0000120217D00EB0140617D00EB0168A07D13
:1003B000E17D00EB0120217E00EB0140617E00EB3E
:1003C0000167BBB21FFA88F23146284604F026FACC
:1003D0000D480068806D30B10B480068836D22467F
:1003E00031462846984700F0B9F81FFA80F900F026
:1003F000ADF81FFA80FA4B4652460021084604F039
:100400000DFABDE8F0870000880000202DE9F041DA
:1004100004460F46154600260F480068006D58B187
:100420000E49098888B20C490968D1F850C02B469A
:100430003A462146E0470CE0002608E007490988D3
:100440008AB2A11988B2394600F00AF8761CAE4289
:10045000F4D3BDE8F08100008800002008060020E9
:1004600070B504460D46164605480068006930B16F
:10047000034800680369324629462046984770BD04
:10048000880000202DE9F04105460E4617461C461F
:100490003A4631462846FFF7B9FF301981B23A464D
:1004A0002846FFF7B3FF22463146284600F008F8F9
:1004B000E91988B22246314600F002F8BDE8F08121
:1004C0002DE9F04107460C46154600260F48006806
:1004D000406D58B10E49098888B20C490968D1F8B5
:1004E00054C02B4622463946E0470CE0002608E07F
:1004F0000748008882B2A01981B23846FFF7B0FFE2
:10050000761CAE42F4D3BDE8F081000088000020E4
:10051000080600202DE9F04106460C4617461D4608
:100520000949098888B200F051F800BF2146621CD1
:1005300094B23A463046FFF769FF281EA5F1010143
:100540008DB2F3D1BDE8F0810806002010B5024954
:100550000968886C804710BD8800002010B50249EA
:100560000968C86C804710BD8800002010B50124C0
:100570004FF6FF700B4948600B4888600020086008
:100580000A480B490860096808688047002002F0A3
:10059000F9FB0A2000F0D6F9034800F011F8002416
:1005A000204610BD08060020A4000020AC0000205A
:1005B00088000020014948607047000008060020BC
:1005C0000149886070470000080600200149086062
:1005D000704700000806002010B586B0044600BF32
:1005E0006CB900BF1448806940F01000124988615E
:1005F0000846806900F01000019000BF00BF00BFF6
:100600000E4830F81400029001200390002004905E
:10061000032005900A4951F8240002A900F050FA7D
:10062000064A32F81410064A52F82400002200F05C
:10063000E1FB06B010BD0000001002409C5A00080B
:100640007800002010B50446044A32F81410044A19
:1006500052F82400012200F0CDFB10BD9C5A000886
:100660007800002010B50446044A32F81410044AF9
:1006700052F8240000F0B4FB10BD00009C5A0008A2
:100680007800002010B5034607E018780C78A042E7
:1006900001D0104610BD5B1C491C101EA2F10104C4
:1006A000A2B2F2D100BFF5E700BFFEE7704700003D
:1006B0002DE9F74F82B092460027B846B94600258B
:1006C0000024A3460026002001904C488068C5887D
:1006D0004A488068848805FB04F0362101EB40001D
:1006E0004749488005FB04F0362101EB40004FF6F6
:1006F000FF7101EA2040424988803620488108463F
:100700004482201488820846C58228140883E01D8C
:10071000C11700EB5171C910C4EBC10101F0FF0B0F
:1007200000BF60E0E01DC11700EB5171C91001FB73
:1007300007A6C11700EB51710322B2EBE10F07D1FD
:1007400030780004717840EA0120B17808430190C4
:10075000E01DC11700EB51710222B2EBE10F04D191
:100760007078317840EA01200190E01DC11700EB5C
:1007700051710122B2EBE10F01D1307801904FF0BD
:1007800000082DE0E81B401E00FB0480362101EB31
:100790004009A4EB08005844401E012101FA00F072
:1007A0000199084068B115480078154901F8090019
:1007B00012480088C0F30721114A09F101001154C1
:1007C0000CE00E4800790E4901F809000B488088BA
:1007D000C0F307210A4A09F10100115408F1010888
:1007E000A045CFD37F1CAF429CD3054ADDE902016F
:1007F000FFF7CCFD05B0BDE8F08F00000806002033
:100800001406002010B5012000F04CF910BD0000C6
:100810000446214605A004F031FA05E00020FFF768
:1008200021FF642000F08EF8F8E700004572726F37
:100830007220696E2025730A0D0000000146002217
:1008400091F82100022808D00420886300BF00200E
:1008500081F8200000BF012070470868006820F080
:100860000E000B6818600868006820F001000B6833
:10087000186091F8403001209840CB6B58600120FF
:1008800081F8210000BF002081F8200000BF104641
:10089000E2E7000070B50446002594F82100022824
:1008A00003D00420A063012548E02068006820F000
:1008B0000E00216808602068006820F001002168AF
:1008C00008601F492068884201D1012026E01C49A8
:1008D00014312068884201D110201FE018492831C6
:1008E0002068884201D1801518E015493C31206804
:1008F000884201D1801411E01149503120688842AA
:1009000002D14FF4803009E00D49643120688842FB
:1009100002D14FF4801001E04FF08070084908398F
:100920004860012084F8210000BF002084F82000E6
:1009300000BF606B10B12046616B8847284670BDD0
:100940000800024070B5044600F05AFA06462546F3
:10095000681C10B104480078054400BF00F050FA4C
:10096000801BA842FAD370BD700000202DE9F04131
:1009700002460B46002080E00127874007EA03017A
:10098000002979D0404F4FEA900C57F82C40870748
:100990004FEA177C0F2707FA0CF73C403B4FBA424F
:1009A00001D100270FE03A4FBA4201D101270AE0F6
:1009B000384FBA4201D1022705E0374FBA4201D180
:1009C000032700E004274FEA807C4FEA1C7C07FAEB
:1009D0000CF7A74231D1314F3F688F43DFF8BCC0DD
:1009E000CCF800700CF104073F688F430CF1040C45
:1009F000CCF80070294F0C373F688F43DFF89CC05C
:100A00000CF10C0CCCF80070ACF104073F688F437C
:100A1000ACF1040CCCF8007087074FEA177C0F2765
:100A200007FA0CF4184F4FEA900C57F82CC02CEA38
:100A3000040C4FEA900847F828C0FF2901D8174650
:100A400000E0171D3D46FF2901D8870002E0A0F114
:100A50000807BF003E462F684FF00F0C0CFA06FC4B
:100A600027EA0C074FF0040C0CFA06FC47EA0C07C7
:100A70002F60D7688F43D760401C23FA00F7002F00
:100A80007FF47AAFBDE8F081080001400008014022
:100A9000000C01400010014000140140000401401E
:100AA0007047000010B5044604480068204020B19B
:100AB000024804602046FFF7F3FF10BD1404014014
:100AC0002DE9F8470346002294466EE14FF00108F5
:100AD00008FA02F4D1F8008008EA0400A0427DD1AF
:100AE000DFF8DCA2D1F80480A8EB0A09D0453AD09F
:100AF00014DCB8F1030F50D009DCB8F1000F31D08D
:100B0000B8F1010F1CD0B8F1020F49D120E0B8F1C3
:100B1000110F18D0B8F1120F42D11EE0B9F5881F9D
:100B200025D006DCB9F5803F20D0B9F5801F37D13C
:100B30001AE0B9F5001F18D0B9F5041F30D117E03D
:100B4000D1F80CC02DE0D1F80C8008F1040C28E09D
:100B5000D1F80C8008F1080C23E0D1F80C8008F1E2
:100B60000C0C1EE000BF00BF00BF00BF00BF00BFF5
:100B7000D1F80880B8F1000F02D14FF0040C0BE05F
:100B8000D1F80880B8F1010F03D14FF0080C1C61B7
:100B900002E04FF0080C5C6103E04FF0000C00E055
:100BA00000BF00BFFF2801D8984601E003F1040808
:100BB0004646FF2802D84FEA820803E0A2F108085F
:100BC0004FEA88084746D6F800804FF00F0909FA27
:100BD00007F928EA09080CFA07F900E088E048EA72
:100BE0000908C6F80080D1F8048008F08058B8F1F0
:100BF000805F7DD100BFDFF8CC81D8F8188048F045
:100C00000108DFF8C091C9F81880C846D8F81880E4
:100C100008F00108CDF8008000BF00BF4FEAB938E6
:100C20004FEA920958F829504FEA82784FEA18792A
:100C30004FF00F0808FA09F825EA0805DFF888815F
:100C4000434502D14FF0000816E0DFF880814345AC
:100C500002D14FF001080FE0DFF87481434502D163
:100C60004FF0020808E0DFF86C81434502D14FF0F5
:100C7000030801E04FF004084FEA82794FEA19793E
:100C800008FA09F848EA0505DFF84C814FEA9209AD
:100C900048F82950D1F8048008F48018B8F5801F6E
:100CA0000AD1DFF83881D8F8008048EA0008DFF878
:100CB0002C91C9F8008009E0DFF82081D8F8008085
:100CC00028EA0008DFF81491C9F80080D1F8048000
:100CD00008F40018B8F5001F10D1DFF8008108F102
:100CE0000408D8F8008048EA0008DFF8F09000E037
:100CF0005AE009F10409C9F800800DE0DFF8DC8052
:100D000008F10408D8F8008028EA0008DFF8CC9041
:100D100009F10409C9F80080D1F8048008F400380A
:100D2000B8F5003F0ED1DFF8B480A8F10408D8F878
:100D3000008048EA0008DFF8A490A9F10409C9F886
:100D400000800DE0DFF89480A8F10408D8F8008056
:100D500028EA0008DFF88490A9F10409C9F80080A6
:100D6000D1F8048008F48038B8F5803F0ED1DFF860
:100D70006C80A8F10808D8F8008048EA0008DFF87D
:100D80005C90A9F10809C9F800800DE0DFF84C80FB
:100D9000A8F10808D8F8008028EA0008DFF83C909D
:100DA000A9F10809C9F80080521CD1F8008028FA7E
:100DB00002F8B8F1000F7FF489AEBDE8F8870000B3
:100DC000000011100010024000080140000C01401A
:100DD00000100140001401400800014008040140D7
:100DE00010B5C26821EA020302EA010443EA04439F
:100DF000036110BD0AB1016101E00B04036170479A
:100E0000014800687047000068000020034800683F
:100E100003490978084401490860704768000020C8
:100E20007000002010B50848006840F01000064926
:100E30000860032000F0A8F8042000F007F800F094
:100E40002BF8002010BD00000020024070B50446C1
:100E50000E4800784FF47A71B1FBF0F00C49096844
:100E6000B1FBF0F5284601F0A1FB08B1012070BDEF
:100E7000102C07D200222146501E00F047F80548EA
:100E8000046001E00120F2E70020F0E7700000209C
:100E9000740000206C00002008B500BF1148806974
:100EA00040F001000F4988610846806900F00100A8
:100EB000009000BF00BF00BF0846C06940F08050EE
:100EC000C8610846C06900F08050009000BF00BFB4
:100ED00000BF0549486820F0E06040F0807048603D
:100EE00000BF08BD00100240000001400146084656
:100EF000002809DB00F01F0301229A4043099B00F0
:100F000003F1E023C3F8002100BF70472DE9F05F33
:100F100080460D461646002703F0D4FE07463946A4
:100F20002A46334601F00700C0F1070ABAF1040F60
:100F300002D94FF0040A01E0C0F1070AD14600F1DE
:100F4000040ABAF1070F02D24FF0000A01E0A0F143
:100F5000030AD4464FF0010A0AFA09FAAAF1010A73
:100F60000AEA020A0AFA0CFA4FF0010B0BFA0CFB20
:100F7000ABF1010B0BEA030B4AEA0B042146404696
:100F800003F0A8FEBDE8F09F00BF00F00702064B8B
:100F900019684FF6FF031940044B0B4343EA022143
:100FA000014B196000BF70470CED00E00000FA052E
:100FB000012001490862704700000E422DE9F04708
:100FC00006464FF00008002500270024A146012E08
:100FD00031D0022E56D0102E5FD1324844680068BE
:100FE00000F0807008B33048C4F38341475C04F4D8
:100FF000803078B12B484068C0F340402B4911F84D
:10100000008004F4803040B12948B0FBF8F000FBC8
:1010100007F502E0274807FB00F52248406800F486
:101020008000B0F5800F01D1A94603E068000321DC
:10103000B0FBF1F932E01B48046A04F44070B0F5EB
:10104000807F05D104F0020010B14FF4004918E090
:1010500004F44070B0F5007F07D11248406A00F0F8
:10106000020010B149F640490BE004F44070B0F5BD
:10107000407F06D10B48006800F4003008B14FF201
:1010800024490BE000F08CF906494968C1F381312D
:10109000491C4900B0FBF1F900E000BF00BF484621
:1010A000BDE8F08700100240725A0008825A00081A
:1010B00000127A0000093D00F8B50446002600251C
:1010C000207800F0010000286BD000274348C06959
:1010D00000F0805070B900BF4048C06940F08050B7
:1010E0003E49C8610846C06900F08050009000BFCA
:1010F00000BF01273A48006800F48070B0B9384852
:10110000006840F4807036490860FFF779FE0646B3
:1011100006E0FFF775FE801B642801D90320F8BDA7
:101120002F48006800F480700028F2D02B48006A35
:1011300000F440752DB3A08800F44070A84220D080
:101140002648006A20F440750120264908600020E6
:1011500008602248056205F0010090B1FFF750FEDB
:10116000064608E0FFF74CFE801B41F288318842BA
:1011700001D90320D3E71948006A00F002000028D3
:10118000F0D01648006A20F44070616808431349A3
:101190000862012F04D10846C06920F08050C86160
:1011A00000BF207800F00200022807D10B484068F9
:1011B00020F44040A168084308494860207800F0C6
:1011C0001000102807D10548406820F48000E1682D
:1011D0000843024948600020A1E7000000100240D7
:1011E000007000404004424270B504460D460CB900
:1011F000012070BD5A48006800F00700A8420ED2D6
:101200005748006820F00700284355490860084601
:10121000006800F00700A84201D00120E9E720782B
:1012200000F0020002281DD1207800F004000428FC
:1012300005D14C48406840F4E0604A494860207855
:1012400000F00800082805D14648406840F4605086
:10125000444948604348406820F0F000A1680843D2
:1012600040494860207800F0010078B360680128A8
:1012700006D13C48006800F4003090B90120B8E77E
:101280006068022806D13748006800F0007040B955
:101290000120AEE73348006800F0020008B90120E1
:1012A000A7E73048406820F00300616808432D49F3
:1012B0004860FFF7A5FD064609E0FFF7A1FD801B8A
:1012C00041F28831884202D9032092E707E025489D
:1012D000406800F00C006168B0EB810FEDD1204850
:1012E000006800F00700A8420ED91D48006820F0F1
:1012F000070028431A4908600846006800F0070004
:10130000A84201D0012074E7207800F004000428EE
:1013100007D11448406820F4E060E16808431149AF
:101320004860207800F00800082808D10D4840687F
:1013300020F46050216940EAC1000A49486000F089
:101340003FF808494968C1F30311074A515CC84096
:101350000649086006480068FFF778FD002048E766
:101360000020024000100240845A0008740000204F
:101370006C000020014800687047000074000020E5
:1013800000B5FFF7F7FF04494968C1F30221034A9A
:10139000515CC84000BD000000100240945A000893
:1013A00000B5FFF7E7FF04494968C1F3C221034ACA
:1013B000515CC84000BD000000100240945A000873
:1013C00070B500210022002400230020134D69681D
:1013D00001F00C05F5B1042D02D0082D19D101E062
:1013E0000F4819E00F4DC1F38346AB5D01F4803522
:1013F00055B10A4D6D68C5F340450B4E725D084D01
:101400005D43B5FBF2F402E0084D03FB05F4204612
:1014100002E000BF024800BF00BF70BD00100240E4
:1014200000127A00605A0008705A000800093D0056
:10143000F8B504460CB90120F8BD207800F0010091
:10144000002878D0F848406800F00C0004280CD040
:10145000F548406800F00C00082811D1F2484068B7
:1014600000F48030B0F5803F0AD1EF48006800F406
:10147000003000285FD0606800285CD10120DBE7E5
:1014800000BF6068B0F5803F06D1E748006840F4CF
:101490008030E549086028E0606858B9E248006893
:1014A00020F48030E04908600846006820F480207D
:1014B00008601AE06068B0F5A02F0BD1DA48006828
:1014C00040F48020D84908600846006840F4803025
:1014D00008600AE0D448006820F48030D2490860EF
:1014E0000846006820F48020086000BF606888B16A
:1014F000FFF786FC054606E0FFF782FC401B6428E8
:1015000001D9032098E7C848006800F4003000289B
:10151000F2D010E0FFF774FC054606E0FFF770FC20
:10152000401B642801D9032086E7BF48006800F407
:1015300000300028F2D1207800F00200022857D1B4
:10154000B948406800F00C0050B1B748406800F05E
:101550000C00082818D1B448406800F4803098B9CD
:10156000B148006800F0020020B12069012801D0D4
:10157000012061E7AC48006820F0F800616940EAAA
:10158000C100A949086033E02069E8B10120A749FA
:101590000860FFF735FC054606E0FFF731FC401B0D
:1015A000022801D9032047E79F48006800F00200A5
:1015B0000028F2D09C48006820F0F800616940EAF9
:1015C000C1009949086013E0002098490860FFF7BE
:1015D00017FC054606E0FFF713FC401B022801D963
:1015E000032029E79048006800F002000028F2D1AB
:1015F000207800F0080008282DD1A069B8B101209A
:101600008B490860FFF7FCFB054606E0FFF7F8FB97
:10161000401B022801D903200EE78348406A00F0EE
:1016200002000028F2D0012001F02AFE13E0002081
:101630007F490860FFF7E4FB054606E0FFF7E0FBA3
:10164000401B022801D90320F6E67748406A00F0E3
:1016500002000028F2D1207800F00400042873D1A1
:1016600000277148C06900F0805070B900BF6E4813
:10167000C06940F080506C49C8610846C06900F0FC
:101680008050009000BF00BF01276A48006800F446
:101690008070B0B96748006840F4807065490860A0
:1016A000FFF7AEFB054606E0FFF7AAFB401B6428E8
:1016B00001D90320C0E65F48006800F4807000286C
:1016C000F2D000BFE068012806D15748006A40F018
:1016D00001005549086227E0E06858B95248006A9D
:1016E00020F00100504908620846006A20F004001A
:1016F000086219E0E06805280BD14B48006A40F009
:101700000400494908620846006A40F00100086286
:101710000AE04548006A20F0010043490862084693
:10172000006A20F00400086200BFE068A0B1FFF783
:1017300067FB054609E0FFF763FB401B41F2883178
:10174000884202D9032077E622E03748006A00F099
:1017500002000028EFD012E0FFF752FB054608E038
:10176000FFF74EFB401B41F28831884201D903202C
:1017700062E62D48006A00F002000028F0D1012F37
:1017800005D12948C06920F080502749C86100BFB1
:10179000E069C8B32448406800F00C00082860D015
:1017A000E069022848D1002020490866FFF728FB9D
:1017B000054606E0FFF724FB401B022801D9032061
:1017C0003AE61948006800F000700028F2D1206A5B
:1017D000B0F5803F07D11448406820F40030A1687C
:1017E000084311494860D4E9080108430E49496893
:1017F00021F4741108430C49486001200B49086624
:10180000FFF7FEFA054607E03DE0FFF7F9FA401B57
:10181000022801D903200FE60348006800F0007099
:101820000028F2D02FE000000010024000004242E9
:101830008004424200700040002014490866FFF70F
:10184000DFFA054606E0FFF7DBFA401B022801D964
:101850000320F1E50E48006800F000700028F2D186
:1018600011E0E069012800D1E6E50948466806F480
:101870008031206A814204D106F47011606A81428D
:1018800001D00120D8E50020D6E50000000042424A
:1018900000100240014609B90120704700BF087CD2
:1018A000012801D10220F8E70120087400BF0220BE
:1018B00048740868006820F001000A681060012080
:1018C000487400BF0020087400BF00BFE5E70000B7
:1018D0007CB504461F480168009140680190F025DE
:1018E000F02600221C49204600F0D3F81A48007860
:1018F000C0EB00108000C0EB001080001649497852
:10190000C1EB011100EB81001349897808441349A8
:10191000884218DD12480078A8B90F480078C0EB5B
:1019200000108000C0EB001080000B494978C1EB2B
:10193000011100EB810008498978084409490880B1
:101940000120074908704FF400510748FFF748FA93
:101950007CBD00009C0000202C0000208B5001006A
:101960003B0000203C00002000100140704710B5F3
:1019700004462068006800F00100F0B1206840686B
:1019800000F00100C8B120684068C0F3800048B191
:101990002046FFF7EBFF6FF0040021684860042049
:1019A000607404E02046FFF793FF01206074206814
:1019B000406820F001002168486010BD014609B967
:1019C0000120704700BF087C012801D10220F8E700
:1019D0000120087400BF022048740868006840F0C5
:1019E00001000A6810600120487400BF00200874DC
:1019F00000BF00BFE5E710B504460020FEF722FE59
:101A000010BD000010B5044620680068C0F3400017
:101A100068B120684068C0F3400040B12046FFF73D
:101A2000EAFF2068406820F00200216848604FF417
:101A30000030024908600120607410BD14040140A8
:101A4000F8B505460C4616460020009005B10CB9C5
:101A50000120F8BD00226946284600F01AF808B1B6
:101A60000120F6E7287B2070E87BE070687B6070DF
:101A7000A87BA0705EB1E07801F029FCE07060788E
:101A800001F025FC6070A07801F021FCA07000201E
:101A9000DFE72DE9F04780460C46914600250026F9
:101AA000AA460027B8F1000F00D014B90120BDE804
:101AB000F087D8F800004068C0F3800008B101202A
:101AC000F5E7404601F02DFD05464FF46160B5FB9A
:101AD000F0F7B5FBF0F100FB11503C21B0FBF1F049
:101AE00060704FF46160B5FBF0F100FB11503C21D8
:101AF000B0FBF1F201FB1200A070182F39D31820AF
:101B0000B7FBF0FAB7FBF0F100FB11702070404614
:101B100001F0FBFC0646701C18B1AE4201D9761BE1
:101B200001E04FF0FF360AEB4A00C000C0EB401165
:101B3000C1EB0020A5EB00152946404601F05FFEF1
:101B400008B10120B3E7701C38B12E44314640463D
:101B500001F03EFE40B10120A9E73146404601F0C8
:101B600037FE08B10120A2E75146404601F016FCBD
:101B700000E02770B9F1000F0BD0207801F0A7FB2F
:101B80002070607801F0A3FB6070A07801F09FFBEB
:101B9000A07000208BE7000070B5044600250CB94A
:101BA000012070BD607C20B900202074204600F028
:101BB00053F802206074204600F090F918B1042018
:101BC00060740120EDE7204601F043FC18B10420C9
:101BD00060740120E5E72068406820F00700216874
:101BE0004860A06828B11B48006820F0010019492E
:101BF00008601848001F006820F46070A16808435E
:101C00001449091F08606068401C08B1656809E054
:101C10000120FFF7D3F905461DB9042060740120A7
:101C2000BFE76D1EC5F3034021688860A8B2216834
:101C3000C860204601F02AFC18B10420607401201D
:101C4000AFE70021E17301216173A173012060748A
:101C50000020A6E7306C004030B58FB0054600BFCD
:101C60001C48C06940F080501A49C8610846C069E4
:101C700000F08050009000BF00BFFFF799F90C20E2
:101C8000059000200C900120089000200B9005A8E2
:101C9000FFF7CEFB20B110A42046FEF7B9FD00BF30
:101CA000012001900002029001A8FFF705FA20B17F
:101CB0000EA42046FEF7ACFD00BF012012490860CB
:101CC000002205210320FFF721F90320FFF70EF979
:101CD0000FB030BD0010024048414C5F5243435F9B
:101CE0004F7363436F6E66696700000048414C5F45
:101CF00052434345785F506572697068434C4B436B
:101D00006F6E6669670000003C0442422DE9F047AF
:101D100004460D46904600260027B14604B115B989
:101D20000120BDE8F08700BF207C012801D10220FE
:101D3000F7E70120207400BF02206074B8F1000FA3
:101D400006D1E978E17369786173A978A1730BE032
:101D5000E87801F0B1FAE073687801F0ADFA6073E9
:101D6000A87801F0A9FAA073A27B617BE07B01F067
:101D7000EDFC2073207B2870204601F0D2FB064644
:101D80004FF46160B6FBF0F9B9F1180F2FD91820A4
:101D9000B9FBF0F000EB4000C000C0EB4011C1EB1C
:101DA0000020A6EB00163146204601F028FD38B190
:101DB0000420607400BF0020207400BF0120B0E741
:101DC000204601F0A2FB0746781C80B1B7420ED234
:101DD0000B4807443946204601F0FAFC38B104208C
:101DE000607400BF0020207400BF012099E701202B
:101DF000607400BF0020207400BF00BF91E70000A6
:101E0000805101002DE9F04104460D469046002620
:101E1000002704B115B90120BDE8F08100BF207C86
:101E2000012801D10220F7E70120207400BF022021
:101E30006074B8F1000F0BD128784FF4616148430A
:101E40006978C1EB011100EB8100A978461811E017
:101E5000287801F031FA4FF4616100FB01F36878F2
:101E600001F02AFAC0EB001003EB8003A87801F020
:101E700023FA1E183146204601F0C1FC38B1042077
:101E8000607400BF0020207400BF0120C4E72068F8
:101E9000406820F0050021684860204601F035FBCD
:101EA0000746781C80B1B7420ED20B48074439462A
:101EB000204601F08DFC38B10420607400BF002082
:101EC000207400BF0120A7E70120607400BF00203C
:101ED000207400BF00BF9FE78051010070B5044629
:101EE00000250CB9012070BD2068406820F0080072
:101EF00021684860FEF784FF054607E0FEF780FF93
:101F0000401BB0F57A7F01D90320ECE720684068D8
:101F100000F008000028F1D00020E4E710B50446E6
:101F20000CB9012010BD022084F85100206800681F
:101F300020F0400021680860204600F075F800207D
:101F4000606584F8510000BF84F8500000BF00BFF6
:101F5000E8E7014691F851007047014609B90120B0
:101F60007047486A38B94868B0F5827F00D105E00B
:101F70000022CA6102E000220A614A61886AB0F563
:101F8000005F00D100BF91F8510010B9002081F826
:101F90005000022081F851000868006820F04000DD
:101FA0000A681060888800F482700A8902F404428A
:101FB00010438A8902F4006210430A7C02F0020294
:101FC00010430A7D02F0010210430A8B02F40072F2
:101FD00010430A7F02F0380210432022525C02F0C4
:101FE000800210430A8D02F4005210430A68106008
:101FF0000422886902EA10400A685060886AB0F5D5
:10200000005F03D1888D80B20A6810610868C069DA
:1020100020F400600A68D06100204865012081F842
:10202000510000209CE7000010B5044607492068D5
:1020300088420AD10648C06920F480400449C8613A
:102040004FF470410348FEF791FC10BD003800408A
:1020500000100240000C01402DE9F84304460F46F1
:1020600016461D46FEF7CCFE8046B14694F8510058
:10207000012802D00220BDE8F88307B10EB9012083
:10208000F9E700BF94F85000012801D10220F2E7DF
:10209000012084F8500000BF032084F85100002084
:1020A00060652763A686E686A063A087E0876064F4
:1020B0002064A068B0F5004F0BD12068006820F0C4
:1020C0004000216808602068006840F48040216872
:1020D0000860A06AB0F5005F0DD100BF20680068FD
:1020E00020F40050216808602068006840F4005027
:1020F0002168086000BF2068006800F040004028A8
:1021000005D02068006840F0400021680860E06861
:10211000B0F5006F37D1606810B1B9F1010F09D186
:10212000206B00882168C860206B801C2063E08ED3
:10213000401EE08623E02068806800F0020002284C
:102140000AD1206B00882168C860206B801C206346
:10215000E08E401EE08612E0FEF752FEA0EB080083
:10216000A84201D3681C00B94DB9012084F8510080
:1021700000BF002084F8500000BF03207BE7E08E02
:102180000028D8D136E0606810B1B9F1010F09D14B
:10219000206B007821680873206B401C2063E08E60
:1021A000401EE08623E02068806800F002000228DC
:1021B0000AD1206B007821680873206B401C2063D3
:1021C000E08E401EE08612E0FEF71AFEA0EB08004B
:1021D000A84201D3681C00B94DB9012084F8510010
:1021E00000BF002084F8500000BF032043E7E08ECA
:1021F0000028D8D1A06AB0F5005F05D1206800683A
:1022000040F480502168086042462946204601F08B
:102210000DFB08B120206065A06850B900BF002008
:1022200000902068C068009020688068009000BF1F
:1022300000BF012084F8510000BF002084F8500046
:1022400000BF606D08B1012015E7002013E72DE9FC
:10225000FF5F0446884691461D460E9E0020029070
:1022600001200190FEF7CCFD074694F851B060685C
:102270000390AA46BBF1010F0CD00398B0F5827F02
:1022800004D1A06810B9BBF1040F03D0022004B040
:10229000BDE8F09FB8F1000F03D0B9F1000F00D0F6
:1022A0000DB90120F3E700BF94F85000012801D1D7
:1022B0000220ECE7012084F8500000BF94F85100A0
:1022C000042802D0052084F8510000206065C4F87D
:1022D0003890E587A587C4F83080E586A586206418
:1022E0006064A06AB0F5005F0DD100BF206800688F
:1022F00020F40050216808602068006840F4005015
:102300002168086000BF2068006800F04000402895
:1023100005D02068006840F0400021680860E0684F
:10232000B0F5006F69D1606810B1BAF1010F15D135
:10233000206B00882168C860206B801C2063E08EC1
:10234000401EE086E08E48B9A06AB0F5005F05D176
:102350002068006840F480502168086046E02068EA
:10236000806800F0020002281CD1E08ED0B10198F4
:10237000012817D1206B00882168C860206B801C61
:102380002063E08E401EE08600200190E08E48B978
:10239000A06AB0F5005F05D12068006840F4805065
:1023A000216808602068806800F0010068B1E08F53
:1023B00058B12068C068A16B0880A06B801CA06326
:1023C000E08F401EE08701200190FEF719FDC01B41
:1023D000B0420BD3701C48B1012084F8510000BFFB
:1023E000002084F8500000BF032050E7E08E002852
:1023F000B5D1E08F0028B2D169E0606810B1BAF1C0
:10240000010F15D1206B007821680873206B401CE8
:102410002063E08E401EE086E08E48B9A06AB0F5E9
:10242000005F05D12068006840F480502168086092
:1024300047E02068806800F0020002281CD1E08E8E
:10244000D0B10198012817D1206B0078216808735A
:10245000206B401C2063E08E401EE086002001902F
:10246000E08E48B9A06AB0F5005F05D12068006829
:1024700040F48050216808602068806800F0010006
:1024800068B1E08F58B12068C068A16B0870A06B7C
:10249000401CA063E08F401EE08701200190FEF702
:1024A000AFFCC01BB04201D3701C00B94EB9012073
:1024B00084F8510000BF002084F8500000BF0320C2
:1024C000E5E6E08E0028B4D1E08F0028B1D1A06A03
:1024D000B0F5005F19D1334601221146204600971E
:1024E00001F0CAF968B1606D40F00200606501203A
:1024F00084F8510000BF002084F8500000BF032082
:10250000C5E62068C068029000BF20688068C0F3FC
:10251000001008B3204601F0ABF9012818D1606D16
:1025200040F00200606500BF2068006820F40050A1
:10253000216808602068006840F400502168086045
:1025400000BF00BF002084F8500000BF01209EE6BD
:102550004FF6EF70216888603A463146204601F018
:1025600065F940B12020606500BF002084F850006C
:1025700000BF01208BE6A06850B900BF002000908A
:102580002068C068009020688068009000BF00BF8D
:10259000012084F8510000BF002084F8500000BFE3
:1025A000606D08B1012072E6002070E670B5044647
:1025B0002546681EB0F1807F01D301200FE0681E20
:1025C0004FF0E02148610F214FF0FF3002F082FB15
:1025D00000204FF0E021886107200861002070BDD5
:1025E0002DE9F84F04460F4690461D46DDF828A019
:1025F00094F84200202878D117B1B8F1000F02D129
:102600000120BDE8F88F00206064222084F8420099
:102610000120206300206063FEF7F2FB8346A4F8EC
:102620002C80A4F82E80A068B0F5805F04D12069CA
:1026300010B90026B94602E03E464FF000090020DE
:10264000288053E02068006800F01000102813D1A3
:1026500000BF00200090206800680090206840685B
:10266000009000BF00BF288830B1022060632020A6
:1026700084F842000020C4E72068006800F02000D1
:10268000202821D146B920684068C0F30800A9F885
:10269000000009F1020911E0A068B0F5805F03D0E5
:1026A000A06828B9206918B920684068307004E033
:1026B0002068406800F07F003070761C2888401C3D
:1026C0002880E08D401EE0850AF1010070B1FEF720
:1026D00097FBA0EB0B00504502D8BAF1000F05D1D3
:1026E000202084F8420003208BE70BE0E08D0028D7
:1026F000A8D1A08DE18D401A2880202084F84200C6
:1027000000207EE702207CE770470000014601A020
:102710007047000048414C5F554152545F4572720A
:102720006F7243616C6C6261636B00002DE9F84F5E
:102730000446206805682068C668206847694FF02D
:102740000009CA4605F00F09B9F1000F0AD105F0DA
:10275000200038B106F0200020B1204602F037F901
:10276000BDE8F88FB9F1000F7BD007F0010018B970
:1027700006F49070002874D005F0010030B106F422
:10278000807018B1606C40F00100606405F00400D6
:1027900030B107F0010018B1606C40F002006064D5
:1027A00005F0020030B107F0010018B1606C40F094
:1027B0000400606405F0080048B106F0200010B97C
:1027C00007F0010018B1606C40F008006064606CB4
:1027D000002845D005F0200028B106F0200010B1F7
:1027E000204602F0F4F820684069C0F3801A606C5B
:1027F00000F0080010B9BAF1000F2CD0204602F00A
:10280000A0F82068406900F0400000B300BF00BF9E
:102810002168143151E8001F21F040002168143173
:1028200041E80002002AF3D100BFE06B50B17948C3
:10283000E16B4863E06BFEF72DF888B1E06B416B0C
:1028400088470DE02046FFF761FF09E009E02046D8
:10285000FFF75CFF04E02046FFF758FF00206064AC
:102860007EE7206B012877D105F01000002873D097
:1028700006F010000028FAD000BF00200090206869
:102880000068009020684068009000BF00BF20688A
:10289000406900F0400000285FD0E06B00684068AD
:1028A0001FFA80F8B8F1000F55D0A08D404552DDD9
:1028B000A4F82E80E06B8069202843D000BF00BFC1
:1028C00021680C3151E8001F21F4807021680C311F
:1028D00041E80002002AF3D100BF00BF00BF216819
:1028E000143151E8001F21F001002168143141E842
:1028F0000002002AF3D100BF00BF00BF21681431DD
:1029000051E8001F21F040002168143141E8000225
:10291000002AF3D100BF202084F842000020206369
:1029200000BF00BF21680C3151E8001F21F01000EA
:1029300021680C3141E80002002AF3D100BFE06BAE
:10294000FDF77CFF02206063A08DE28D801A81B2CA
:102950002046FFF7D9FE03E745E0A08DE18D401A40
:102960001FFA80F8E08DD0B3B8F1000F37D000BF68
:1029700000BF21680C3151E8001F21F490702168DC
:102980000C3141E80002002AF3D100BF00BF00BFB4
:102990002168143151E8001F21F001002168143131
:1029A00041E80002002AF3D100BF202084F8420051
:1029B0000020206300BF00BF21680C3151E8001FD8
:1029C00021F0100021680C3141E80002002AF3D107
:1029D00000BF0220606341462046FFF795FE204677
:1029E00000F0BAF8BCE605F0800030B106F08000D7
:1029F00018B1204602F008F9B2E605F0400030B107
:102A000006F0400018B1204601F0D1FFA8E600BF53
:102A1000A6E600002F49000810B504460CB90120B5
:102A200010BDA06900B100E000BF94F8410028B9D2
:102A3000002084F84000204600F02AF8242084F882
:102A400041002068C06820F400502168C86020461A
:102A500002F03CF82068006920F490402168086189
:102A60002068406920F02A00216848612068C06819
:102A700040F400502168C86000206064202084F881
:102A8000410084F842000020606300BFC8E70000F6
:102A900010B586B0044600BF2248806940F00400AB
:102AA000204988610846806900F00400019000BF59
:102AB00000BF00BF0846806940F0040088610846F6
:102AC000806900F00400019000BF00BF00BF08460D
:102AD000C06940F40030C8610846C06900F40030A5
:102AE000019000BF00BF042002900220039001204B
:102AF00004900320059002A90B48FDF7E1FF082090
:102B000002900020039002A90748FDF7D9FF022296
:102B100011462620FEF7FAF92620FEF7E7F906B05F
:102B200010BD0000001002400008014070B50446CE
:102B30000D46164694F8420020280BD105B10EB977
:102B4000012070BD0020206332462946204602F055
:102B50003BF8F6E70220F4E70121014A11707047C3
:102B60000100002010B5034693F84100202813D13E
:102B700001B10AB9012010BD19629A84DA840020DB
:102B80005864212083F841001868C06840F0800034
:102B90001C68E0600020EEE70220ECE70121014A1A
:102BA000117070470100002000BFFEE70A49096864
:102BB00001F0010179B108498039096801F001018A
:102BC00049B100E000BF4FF0604109680029F9D029
:102BD0004FF0604210707047800E00E02DE9F84F12
:102BE00005460C4617469846DDF828B04FF0F00928
:102BF000CA4600224FF480511748FEF7FBF84D45B6
:102C000001DA544501DBBDE8F88FE819484502DBDD
:102C1000A9EB050087B204EB0800504503DBAAEBE3
:102C200004001FFA80F800260CE0A01983B2E8190E
:102C300082B2A01981B22846CDF800B000F00EF89B
:102C4000701CC6B24645F0DD012211030248FEF7B2
:102C5000D1F800BFD7E70000000C01402DE9FC5F70
:102C600005460C4617461E46301B002801DD301B6A
:102C700000E0A01B791B002901DD791B00E0E91BA6
:102C8000884201DD012000E000200190019828B178
:102C9000A84625464446B84637464646BD4205DD69
:102CA000A8463D464746A04634464646781B0FFA9E
:102CB00080F9301B002801DD301B00E0A01B00B2B2
:102CC0000090484609EBD07149100FFA81FAB442DE
:102CD00002DA4FF0010B01E04FF0FF3B1DE00198DD
:102CE00028B1294620460C9A00F01CF804E0214641
:102CF00028460C9A00F016F80098AAEB00000FFA8C
:102D000080FABAF1000F06DA04EB0B0084B20AEB8A
:102D100009000FFA80FA681C85B2BD42DFDDBDE80C
:102D2000FC9F00002DE9F84304460D461646F027A7
:102D3000B846002C05DBBC4203DA002D01DB45451B
:102D400001DBBDE8F8832B4622462946204600F0E9
:102D500079F930128DF80000F0B28DF801000022F0
:102D60004FF480510648FEF745F80221684600F00E
:102D7000F5F8012211030248FEF73CF800BFE0E736
:102D8000000C01402DE9F84304460027B846B94637
:102D9000F025F026701E83B2681E82B2002108461C
:102DA00000F050F93246294618A001F067FF0022D2
:102DB0004FF480511F48FEF71DF800BF18E04FF098
:102DC000000811E020128DF80000E0B28DF801003B
:102DD0000221684600F0C2F809F101001FFA80F9EB
:102DE00008F101001FFA80F8B045EBDB781C87B2D0
:102DF000AF42E4DB494610A001F040FF012211037D
:102E00000C48FDF7F7FFBDE8F88300002D2D4C437B
:102E1000445F5749445448203D20253034642020E5
:102E20004C43445F484549474854203D20253034B1
:102E3000640A0D00000C01402D2D2D2D2D2D2D2D62
:102E40002D2D2D2D7A203D20253034640A0D0000D3
:102E500000B585B000BF2548806940F008002349CF
:102E600088610846806900F00800009000BF00BF3C
:102E700000BF0846806940F0080088610846806904
:102E800000F00800009000BF00BF00BF0846806946
:102E900040F0040088610846806900F0040000905A
:102EA00000BF00BF8814019001200290032004900D
:102EB00001A90F48FDF704FE0220019001A90C486A
:102EC000FDF7FEFD802001900120029001A9094834
:102ED000FDF7F6FD012211030548FDF78BFF0122E6
:102EE00080210448FDF786FF05B000BD00100240B8
:102EF000000C01400008014010B500228021074865
:102F0000FDF778FF1420FDF71DFD01228021034805
:102F1000FDF770FF0A20FDF715FD10BD0008014008
:102F200001B500224FF480510A48FDF763FF0022EB
:102F300002210848FDF75EFF4FF0FF33012269468A
:102F40000548FFF789F8012211030248FDF752FFF7
:102F500008BD0000000C01406801002070B5064665
:102F60000C4600224FF480511148FDF743FF012227
:102F700002210F48FDF73EFF11E0B4F5803F02D378
:102F80004FF6FF7000E0204685B24FF0FF332A462F
:102F900031460848FFF760F82E44641B00BF002C40
:102FA000EBD1012211030248FDF724FF70BD0000A0
:102FB000000C01406801002070B504460D46002653
:102FC00000224FF480511D48FDF714FF0122022119
:102FD0001A48FDF70FFF012D03D1207800F026FDE0
:102FE00026E02E461AE000BF15480068806800F011
:102FF00002000228F8D1607811490968087300BFFF
:103000000F480068806800F002000228F8D120789C
:103010000B4909680873761EA41C761E002EE2D1A7
:1030200000BF07480068806800F080000028F8D1E1
:10303000012211030148FDF7DDFE70BD000C0140C7
:10304000680100202DE9F84F04460D4616461F463C
:1030500000224FF480512148FDF7CCFE1FFA84F87E
:103060001FFA86F91FFA85FA1FFA87FB2A20FFF755
:1030700057FF4FEA28208DF8000008F0FF008DF878
:1030800001004FEA29208DF8020009F0FF008DF8B9
:10309000030004216846FFF761FF2B20FFF740FF84
:1030A0004FEA2A208DF800000AF0FF008DF8010099
:1030B0004FEA2B208DF802000BF0FF008DF8030083
:1030C00004216846FFF74AFF2C20FFF729FF012261
:1030D00011030248FDF78EFEBDE8F88F000C014099
:1030E0000FB42DE9F84F06460F469046DDE90F9ADA
:1030F00000224FF480512948FDF77CFEBDF83600D0
:103100003844401E83B2BDF834003044401E82B2C1
:1031100039463046FFF796FF002432E0A8F1200040
:10312000BDF8361000FB01400E9931F810001C4923
:103130000860002520E01A480088A84000F40040FC
:1031400060B14FEA29208DF8000009F0FF008DF8EA
:10315000010002216846FFF701FF0CE04FEA2A2038
:103160008DF800000AF0FF008DF80100022168468A
:10317000FFF7F4FE00BF6D1CBDF83400A842DAD89A
:10318000641CBDF83600A042C8D8012211030348D0
:10319000FDF730FEBDE8F80F5DF814FB000C0140B0
:1031A000840000200FB42DE9FE4F05460E4614465C
:1031B000DDE911784FF0F009CA4600224FF4805142
:1031C0001A48FDF717FE24E0BDF83C0028444845A6
:1031D0000FDB0025BDF83E00304486B2BDF83E004E
:1031E0003044504500DB17E02078202801D1641CD2
:1031F0000FE0CDE9017810980090227831462846FA
:103200000F9BFFF76DFFBDF83C00284485B2641C9E
:1032100000BF20780028D7D100BF01221103034846
:10322000FDF7E8FDBDE8FE0F5DF814FB000C014062
:1032300010B50B480B4908604FF416504860002148
:1032400008488160C160016181610C214161FFF723
:10325000E3FB18B104A42046FDF7DAFA10BD000024
:10326000004400402001002048414C5F5541525429
:103270005F496E697400000000BFFEE77047704749
:1032800008B508490968C9084FF47A72B1FBF2F130
:103290004143009100BF00BF00994A1E00920029DF
:1032A000F9D108BD7400002010B50248FEF7AAFB52
:1032B00010BD00000C010020014600BF080900EB12
:1032C0008000420001F00F001044C0B27047014678
:1032D000002203E0521CA1F10A00C1B20A29F9D26E
:1032E000100741EA1060704708B501460948405C84
:1032F0000007000E8DF80000064A481C105C00F024
:103300000F008DF801009DF800009DF80120104489
:10331000C0B208BD2005002030B58BB004460D4674
:10332000194801680691406807900022174918481B
:10333000FEF786FB1548827816A10AA801F0AEFCBC
:103340001248427813A109A801F0A8FC0F48C278DE
:1033500010A108A801F0A2FC08AB09AA0AA903A8B9
:1033600001F026FF00208DF816004FF4FC61CDE936
:1033700001100798009003AA29462046069BFFF7F4
:1033800011FF0BB030BD00009C0000202F0000207A
:103390000C01002025303264000000002DE9F047C8
:1033A00006468846002700240025A146F77B747B4B
:1033B000B57B00BF40E0012C0BD0032C09D0052CBD
:1033C00007D0072C05D0082C03D00A2C01D00C2CD8
:1033D0000CD11F2D01D26D1C2CE00C2C02D0641CD2
:1033E000012527E0012401257F1C23E0042C05D0C2
:1033F000062C03D0092C01D00B2C06D11E2D01D296
:103400006D1C17E0641C012514E0022C12D11C2D48
:1034100001D26D1C0EE01C2D08D1B8B200F05CF892
:1034200008B16D1C06E0641C012503E01D2D01D1CF
:10343000641C012509F10109C145BCD3F7737473FC
:10344000B573EAB2E1B2384600F080F93073BDE8F6
:10345000F08770B504460025FDF7D2FC054607E06D
:10346000FDF7CEFC401BB0F57A7F01D9032070BD7B
:103470002068406800F020000028F1D020684068F3
:1034800040F01000216848600020F0E770B5044665
:1034900000252068406820F0100021684860FDF792
:1034A000AFFC054607E0FDF7ABFC401BB0F57A7FAB
:1034B00001D9032070BD2068406800F0200000287A
:1034C000F1D00020F6E7000010B50248FEF74FFAF1
:1034D00010BD00000C010020014601F0030008B1FE
:1034E000002070476420B1FBF0F200FB121008B11D
:1034F0000120F6E74FF4C870B1FBF0F200FB1210A8
:1035000008B90120EDE70020EBE701460022002387
:103510000868006A82B20868406A83B243EA0240DF
:10352000704730B5014600220023002400200D68BA
:10353000AD69AAB20D68ED69ACB20D68AD69ABB208
:103540009A4205D00D68ED6963F31F45284601E0F6
:1035500044EA024030BD000010B501221049114874
:10356000FEF7D4FB28B110A4214613A001F086FB7E
:1035700000BF012211490B48FEF744FC28B110A4FA
:1035800021460DA001F07AFB00BF0648FEF716FAAF
:1035900028B10FA4214608A001F070FB00BF10BDA8
:1035A000020000200C01002048414C5F5254435F50
:1035B00053657444617465002573000006000020A3
:1035C00048414C5F5254435F53657454696D6500C4
:1035D00048414C5F52544345785F5365745365636B
:1035E0006F6E645F4954000010B50020FFF77CFE49
:1035F000184988700220FFF777FE164948700420AA
:10360000FFF772FE1349C87001221348FEF77EFBD4
:1036100028B112A4214615A001F030FB00BF0620FE
:10362000FFF762FE124908700820FFF75DFE10499F
:1036300048700A20FFF758FE0D498870012206489D
:10364000FEF7E0FB28B10BA4214608A001F016FB11
:1036500000BF10BD2F0000200C01002048414C5F2E
:103660005254435F536574446174650025730000D0
:103670002C00002048414C5F5254435F5365745402
:10368000696D65002DE9F04188B0074688462248FB
:103690000168039140680490F025F02600221F493C
:1036A0001F48FEF7F6F91D4802781EA107A801F091
:1036B000F5FA1A4842781BA106A801F0EFFA17485C
:1036C000827818A105A801F0E9FA05AB06AA07A9B6
:1036D000684601F08BFD00208DF808004FF6FF7062
:1036E000FCF7A2FD0020FCF771FF4FF6FF70FCF71E
:1036F00061FF0948FCF764FFFCF730FF1B21C1EBB9
:10370000500084B2012309A221460020FCF7C8FD25
:1037100008B0BDE8F0810000A40000202C000020CB
:103720000C01002025303264000000004265666F05
:103730007265207573696E672074686520546F75B3
:10374000636873637265656E00000000F0B504463F
:103750000B460021002504F5FA61032B1BD2C3EBB5
:10376000C30000EB03100926B0FBF6F01044001D67
:103770004618481E06EB90066427B0FBF7F0361A91
:10378000481EBF00B0FBF7F030440726B0FBF6F749
:1037900006FB17051AE0C3EBC30000EB0310092674
:1037A000B0FBF6F01044001D084400EB91006426C5
:1037B000B1FBF6F6801B4FF4C876B1FBF6F6304449
:1037C000801E0726B0FBF6F706FB1705E8B2F0BD32
:1037D00070B504460D4600262046FFF73AFE08B1B4
:1037E00001260AE0280C21680862A8B22168486214
:1037F0002046FFF74BFE00B10126304670BD70B584
:1038000004460D4600262046FFF723FE08B1012698
:103810000AE0280C21688861A8B22168C8612046A6
:10382000FFF734FE00B10126304670BDF8B50446FE
:103830000E4615463346012202212046009500F02F
:103840001BF828B1606D40F0200060650320F8BDD2
:103850003346002280212046009500F00DF828B163
:10386000606D40F0200060650320F0E70020EEE787
:1038700001460120704700002DE9F84F04460D462F
:1038800090461E46DDF82890FDF7BAFAA0EB090035
:10389000371AFDF7B5FA82462C480068C0F3CB30E2
:1038A0007843009045E0701C002842D0FDF7A8FA4C
:1038B000A0EB0A00B84200D2A7BB2068406820F005
:1038C000E000216848606068B0F5827F0DD1A06893
:1038D000B0F5004F03D0A068B0F5806F05D1206827
:1038E000006820F0400021680860A06AB0F5005F21
:1038F0000DD100BF2068006820F4005021680860E6
:103900002068006840F400502168086000BF012072
:1039100084F8510000BF002084F8500000BF03204D
:10392000BDE8F88FFFE7009800B900270098401E17
:103930000090206880682840A84201D1012000E062
:1039400000204045AFD10020EAE7000074000020CD
:1039500010B50348FEF7E2FA00F004F810BD0000CD
:103960006801002010B51148FEF7F3FAE8B91048D5
:103970000E49086000210D48C1618160012141614B
:1039800002210161002181620721C1620021C16021
:1039900001624FF400718161002141624FF4827035
:1039A000024948600846FEF7D8FA10BD68010020B9
:1039B0000038004000B585B00020019002900390CF
:1039C000049000BF1748806940F0080015498861DD
:1039D0000846806900F00800009000BF00BF4FF467
:1039E00000500190022002900320049001A90E488B
:1039F000FDF766F84FF40040019001A90A48FDF771
:103A00005FF800BF0748C06940F480400549C861BD
:103A10000846C06900F48040009000BF00BF05B0B8
:103A200000BD000000100240000C014011B583B041
:103A3000002407480068012302AA03A90090054852
:103A4000FEF705FC04460CB1FFF782FF1FBD000026
:103A500080000020680100202DE9F04107468846DB
:103A60001446002500266688A08846EA0046658937
:103A7000A08945EA0045701B46082C4440213620A9
:103A800000F07BFE4146384600F052FD71002046B2
:103A9000FFF792FAC021362000F06FFEBDE8F081FA
:103AA0002DE9FF5F05460E469046C8F101094FF02B
:103AB000010A4FEA4800C0F1000B002744460022EB
:103AC0004FF480513B48FDF795F906EB080081B2B1
:103AD0002846039A00F0C0FAA6EB080081B22846F7
:103AE000039A00F0B9FA05EB080188B23146039A4F
:103AF00000F0B2FAA5EB080188B23146039A00F053
:103B0000ABFA4EE0B9F1000F09DB601E04B20BF115
:103B100002000FFA80FB09EB0B000FFA80F9781C0A
:103B200007B20AF102000FFA80FA09EB0A000FFA55
:103B300080F9321991B2EA1990B2039A00F08CFA26
:103B4000321991B2EA1B90B2039A00F085FA321B47
:103B500091B2EA1990B2039A00F07EFA321B91B248
:103B6000EA1B90B2039A00F077FAF21991B22A197F
:103B700090B2039A00F070FAF21991B22A1B90B237
:103B8000039A00F069FAF21B91B22A1990B2039AD3
:103B900000F062FAF21B91B22A1B90B2039A00F075
:103BA0005BFAA742AEDB012211030248FDF722F9BE
:103BB000BDE8FF9F000C01402DE9FC5F05460E4665
:103BC0001746994600224FF480515448FDF712F9E8
:103BD000C7F101000FFA80FA4FF0010B7800404264
:103BE00000B201904FF000083C46F21991B2A8B221
:103BF0004A4600F031FAF21B91B2A8B24A4600F0F0
:103C00002BFAB1B2EA1990B24A4600F025FAB1B2E5
:103C1000EA1B90B24A4600F01FFAB3B205EB070C5C
:103C20001FFA8CF2B1B2A5EB070C1FFA8CF0CDF89D
:103C3000009000F0ADF968E0BAF1000F09DB601EFA
:103C400004B20198801C00B20190019850440FFA10
:103C500080FA08F101000FFA80F80BF102000FFA68
:103C600080FB0AEB0B000FFA80FA06EB040C1FFA3C
:103C70008CF305EB080C1FFA8CF206EB040C1FFA10
:103C80008CF1A5EB080C1FFA8CF0CDF8009000F039
:103C90007FF9A6EB040C1FFA8CF3A5EB080C1FFAB6
:103CA0008CF2A6EB040C1FFA8CF105EB080C1FFA42
:103CB0008CF0CDF8009000F06BF906EB080C1FFAC1
:103CC0008CF3A5EB040C1FFA8CF206EB080C1FFA20
:103CD0008CF105EB040C1FFA8CF0CDF8009000F08D
:103CE00057F9A6EB080C1FFA8CF3A5EB040C1FFA8E
:103CF0008CF2A6EB080C1FFA8CF105EB040C1FFAF2
:103D00008CF0CDF8009000F043F9A04594DB01223F
:103D100011030248FDF76EF8BDE8FC9F000C01405E
:103D20002DE9F84305460C4617469846DDF82090E5
:103D300000224FF480511748FDF75CF8F02D01DAAE
:103D4000F02C01DBBDE8F883E819F02802DBC5F1AF
:103D5000F00087B204EB0800F02803DBC4F1F000A8
:103D60001FFA80F800260CE0A01983B2E81982B28D
:103D7000A01981B22846CDF8009000F009F9701C16
:103D8000C6B24645F0DD012211030248FDF732F8C4
:103D900000BFD7E7000C01402DE9F04F8BB005467E
:103DA0000E4691469A4600224FF480514A48FDF74C
:103DB00021F80027B846BB4600200A9009900890D9
:103DC0000790069000240590049003900290A9EBC0
:103DD0000500002802DDA9EB050001E0A5EB0900C4
:103DE00007B2AAEB0600002802DDAAEB060001E0FC
:103DF000A6EB0A000FFA80F80FFA85FB30B20A90A2
:103E0000A94503DB01200990089003E04FF0FF3043
:103E100009900890B24503DB01200790069003E06B
:103E20004FF0FF300790069047450DDB00200990CA
:103E300006903C46384607EBD071491009B205910F
:103E4000CDF8108003970CE00020089007904446BE
:103E5000404608EBD071491009B205910497CDF89E
:103E60000C80002002902BE0169800900A9A91B2E4
:103E70001FFA8BF0DDE9142300F08AF8DDE9041065
:103E8000084400B205900598A0420CDB0598001B81
:103E900000B20590099858440FFA80FB07990A98D8
:103EA000084400B20A90089858440FFA80FB06991B
:103EB0000A98084400B20A900298401C00B202908E
:103EC000DDE902018842CFDD012211030248FCF73F
:103ED00091FF0BB0BDE8F08F000C01402DE9F041DF
:103EE00007460D4690461C4600262819F02801DD9D
:103EF000BDE8F0814146284600F01AFB002604E0A8
:103F0000064820F81670701CC6B2A642F8DB6100A5
:103F10000248FFF751F800BFEAE700007A090020E5
:103F20002DE9F04104460D4616461F46DDF818807F
:103F3000F02C01DAF02D01DBBDE8F081A019401E64
:103F4000F02800DBF8E7E819401EF02800DBF3E773
:103F500000224FF480510D48FCF74CFFE819401E39
:103F600083B2A019401E82B22946204600F092FA80
:103F7000700000FB07F14046FEF7F0FF012211033D
:103F80000248FCF737FF00BFD6E70000000C0140F5
:103F90002DE9FC5F05460C4617461E46301B0028DF
:103FA00001DD301B00E0A01B791B002901DD791B1E
:103FB00000E0E91B884201DD012000E000200190C3
:103FC000019828B1A84625464446B8463746464695
:103FD000BD4205DDA8463D464746A0463446464616
:103FE000781B0FFA80F9301B002801DD301B00E040
:103FF000A01B00B20090484609EBD07149100FFA9F
:1040000081FAB44202DA4FF0010B01E04FF0FF3BBE
:104010001DE0019828B1294620460C9A00F01CF8B2
:1040200004E0214628460C9A00F016F80098AAEB06
:1040300000000FFA80FABAF1000F06DA04EB0B0069
:1040400084B20AEB09000FFA80FA681C85B2BD42FF
:10405000DFDDBDE8FC9F0000F8B506460C461546BE
:10406000F02E01DAF02C00DBF8BD23463246214663
:10407000304600F00FFA28128DF80000E8B28DF8F3
:10408000010000224FF480510648FCF7B3FE0221E4
:104090006846FEF763FF012211030248FCF7AAFEFF
:1040A00000BFE1E7000C0140F8B504460D46164696
:1040B000002C05DDF02C03DC002D01DDF02D00DDF2
:1040C000F8BD00224FF480510A48FCF793FE6F1CA4
:1040D000BBB2671CBAB26F1EB9B2671EB8B2009607
:1040E00000F084F8012211030248FCF783FE00BFB0
:1040F000E6E70000000C01402DE9F84305460E46B6
:1041000017469846089C00224FF480511248FCF74D
:1041100071FE33463A46314628460094FFF738FF91
:1041200043462A46314628460094FFF731FF43466E
:104130003A46414628460094FFF72AFF43463A464E
:10414000314638460094FFF723FF0122110302484D
:10415000FCF750FEBDE8F883000C01402DE9F84F54
:1041600005460E4617469846DDE90A9A0C9C002241
:104170004FF480510F48FCF73DFE43463A46314626
:1041800028460094FFF704FF53464A464146384606
:104190000094FFF7FDFE33462A46514648460094F8
:1041A000FFF7F6FE012211030248FCF723FEBDE8EB
:1041B000F88F0000000C01402DE9F04107468846C9
:1041C00014461D4600266019F02801DDBDE8F08187
:1041D000002607E0A01981B23A46404600F0B0FA46
:1041E000701CC6B2AE42F5DB00BFEFE72DE9F84F19
:1041F0000746884614461D46DDF82890F02C01DA63
:10420000F02D01DBBDE8F88F00224FF480511548F6
:10421000FCF7F0FD2B4622464146384600F03AF9BD
:10422000464615E0BA460FE04FEA29208DF8000017
:1042300009F0FF008DF8010002216846FEF78EFEAE
:104240000AF101001FFA80FAA245EDDD701C86B26A
:10425000AE42E7DD012211030248FCF7CBFD00BFAF
:10426000D0E70000000C0140F8B504460025002608
:104270000027EF231A460021084600F00BF9002220
:104280004FF480511248FCF7B5FD00BF13E0002643
:104290000DE020128DF80000E0B28DF8010002213F
:1042A0006846FEF75BFE781C87B2701C86B2F02E63
:1042B000EFDB681C85B2F02DE9DB394605A000F084
:1042C000DDFC012211030248FCF794FDF8BD00005B
:1042D000000C01402D2D2D2D2D2D2D2D2D2D2D2D75
:1042E0007A203D20253034640A0D0000F02070470C
:1042F000F02070471FB50A20FCF724FBFEF7FCFDF9
:104300003A20FEF70DFE44A000680390012103A8A7
:10431000FEF724FEB220FEF703FE40A103C9CDE95B
:104320000201052102A8FEF719FE022000F070F933
:10433000B720FEF7F5FD3BA000680390012103A81C
:10434000FEF70CFEBB20FEF7EBFD37A000680390E4
:10435000012103A8FEF702FEC020FEF7E1FD33A015
:1043600000680390012103A8FEF7F8FDC220FEF7C4
:10437000D7FD2FA000680390012103A8FEF7EEFDF2
:10438000C320FEF7CDFD2BA000680390012103A8F8
:10439000FEF7E4FDC420FEF7C3FD27A000680390EC
:1043A000012103A8FEF7DAFDC620FEF7B9FD23A020
:1043B00000680390012103A8FEF7D0FDD020FEF78E
:1043C000AFFD1FA000680390022103A8FEF7C6FD01
:1043D000E020FEF7A5FD1BA30FCB8DE80F000E21FB
:1043E0006846FEF7BBFDE120FEF79AFD19A30FCB4F
:1043F0008DE80F000E216846FEF7B0FD2120FEF784
:104400008FFD1120FEF78CFD1320FEF789FD29207A
:10441000FEF786FD1FBD0000550000000C0C0033A8
:104420003300000035000000190000002C000000DF
:104430000100000012000000200000000F0000003A
:10444000A4A10000D0040D11132B3F544C180D0BE8
:104450001F230000D0040C11132C3F44512F1F1FA9
:104460002023000010B5044600224FF48051084874
:10447000FCF7C0FC0CB1212100E020210846FEF72A
:104480004FFD012211030248FCF7B4FC10BD0000EF
:10449000000C01402DE9F84F04460D4616461F4614
:1044A00000224FF480512148FCF7A4FC1FFA84F845
:1044B0001FFA86F91FFA85FA1FFA87FB2A20FEF7F2
:1044C0002FFD4FEA28208DF8000008F0FF008DF83E
:1044D00001004FEA29208DF8020009F0FF008DF855
:1044E000030004216846FEF739FD2B20FEF718FD76
:1044F0004FEA2A208DF800000AF0FF008DF8010035
:104500004FEA2B208DF802000BF0FF008DF803001E
:1045100004216846FEF722FD2C20FEF701FD012252
:1045200011030248FCF766FCBDE8F88F000C01405F
:1045300038B505460C46002000902A20FEF7F0FC16
:104540002812009001216846FEF736FDE8B200907F
:1045500001216846FEF730FD2B20FEF7E1FC20121A
:10456000009001216846FEF727FDE0B2009001218E
:104570006846FEF721FD2C20FEF7D2FC38BDF8B5C9
:1045800004460D4616461F46002000902A20FEF7DE
:10459000C7FC2012009001216846FEF70DFDE0B235
:1045A000009001216846FEF707FDA019401EC0F3E8
:1045B0000720009001216846FEF7FEFCA019401E6E
:1045C000C0B2009001216846FEF7F6FC2B20FEF7F2
:1045D000A7FC2812009001216846FEF7EDFCE8B226
:1045E000009001216846FEF7E7FCE819401EC0F381
:1045F0000720009001216846FEF7DEFCE819401E06
:10460000C0B2009001216846FEF7D6FCF8BD00005C
:1046100038B504463620FEF783FC34B1012C0CD0AB
:10462000022C12D0032C1FD116E011A000680090BC
:1046300001216846FEF792FC17E00EA0006800908A
:1046400001216846FEF78AFC0FE00020009001215E
:104650006846FEF783FC08E007A00068009001218F
:104660006846FEF77BFC00E000BF00BF38BD0000DD
:10467000C0000000A0000000600000000FB42DE9A1
:10468000F84F06460F469046DDE90F9A00224FF498
:1046900080512948FCF7AEFBBDF836003844401E77
:1046A00083B2BDF834003044401E82B239463046F1
:1046B000FFF7F0FE002432E0A8F12000BDF836102C
:1046C00000FB01400E9931F810001C4908600025DC
:1046D00020E01A480088A84000F4004060B14FEA8A
:1046E00029208DF8000009F0FF008DF8010002215B
:1046F0006846FEF733FC0CE04FEA2A208DF80000F4
:104700000AF0FF008DF8010002216846FEF726FC42
:1047100000BF6D1CBDF83400A842DAD8641CBDF897
:104720003600A042C8D8012211030348FCF762FBFF
:10473000BDE8F80F5DF814FB000C01408400002078
:10474000F8B506460D46144600200090F02E01DA1A
:10475000F02D00DBF8BD29463046FFF7E9FE2012B8
:10476000009001216846FEF727FCE0B2009001218D
:104770006846FEF721FC00BFECE713B5044620466F
:10478000FEF7CEFB012101A8FEF716FC1CBD0000C0
:104790000FB42DE9FE4305460E461446DDE90F78B9
:1047A00000224FF480511B48FCF724FB24E0BDF8A5
:1047B00034002844F0280FDB0025BDF836003044D3
:1047C00086B2BDF836003044F02800DB17E02078D0
:1047D000202801D1641C0FE0CDE901780E980090EB
:1047E0002278314628460D9BFFF748FFBDF834007C
:1047F000284485B2641C00BF20780028D7D100BFB0
:10480000012211030348FCF7F5FABDE8FE035DF849
:1048100014FB0000000C0140704700002DE9F0413E
:1048200004460D4616461F4607480068C06D40B155
:1048300005480068D0F85CC03B4632462946204611
:10484000E047BDE8F08100008800002010B5FCF7CB
:10485000DDFA10BD10B594B028210AA8FBF76BFC57
:10486000142105A8FBF767FC00200190029003903B
:10487000049005200A904FF480300B9000200C909B
:1048800001200D900E9002201190C10312914FF45F
:10489000E01113910AA8FCF7CBFD18B112A4204631
:1048A000FBF7B6FF0F20059002200690002007902E
:1048B0004FF48060089000200990022105A8FCF7C1
:1048C00093FC18B10DA42046FBF7A2FF0120019034
:1048D0000002029001A8FCF7EFFB18B10CA42046DF
:1048E000FBF796FF14B010BD48414C5F5243435F45
:1048F0004F7363436F6E66696700000048414C5F09
:104900005243435F436C6F636B436F6E666967002E
:1049100048414C5F52434345785F50657269706807
:10492000434C4B436F6E666967000000704770B57B
:1049300005466C6A0020E085E0842046FDF7E6FE2F
:1049400070BD00BF00BF02680C3252E8002F22F495
:10495000907102680C3242E80013002BF3D100BFC3
:1049600000BF00BF0268143252E8002F22F001019C
:104970000268143242E80013002BF3D100BF016B30
:1049800001290ED100BF00BF02680C3252E8002F8F
:1049900022F0100102680C3242E80013002BF3D120
:1049A00000BF202180F8421000210163704710B53C
:1049B00004462068C06820F040002168C8602020BC
:1049C00084F841002046FEF7E9F8002010BDF8B554
:1049D000044694F84200222875D1A068B0F5805FA3
:1049E0000CD1206950B90025A66A20684068C0F340
:1049F00008003080A06A801CA06215E0A56A00262D
:104A0000A068B0F5805F03D0A06828B9206918B904
:104A100020684068287004E02068406800F07F004B
:104A20002870A06A401CA062E08D401E80B2E08524
:104A3000002846D12068C06820F020002168C860A6
:104A40002068C06820F480702168C86020684069D0
:104A500020F0010021684861202084F842000020F5
:104A60006063206B012826D10020206300BF00BFB7
:104A700021680C3151E8001F21F0100021680C3131
:104A800041E80002002AF3D100BF2068006800F06E
:104A9000100010280AD100BF002000902068006894
:104AA000009020684068009000BF00BFA18D2046A4
:104AB000FDF72AFE02E02046FEF74EF80020F8BD82
:104AC00001E00020FBE70220F9E7000070B5044692
:104AD0002168096921F44051E2681143226811619B
:104AE0002269A1681143626941EA02052168C96827
:104AF00041F20C62914329432268D16021684969DF
:104B000021F44071A2691143226851612D4A216844
:104B1000914202D1FCF744FC01E0FCF731FC00EBD0
:104B2000C00101EB001162689200B1FBF2F100EBF1
:104B3000C00202EB001263689B00B2FBF3F2642335
:104B4000B2FBF3F202EBC20303EB0212A1EB820110
:104B5000322202EB01116422B1FBF2F101F0F0010B
:104B600000EBC00202EB001263689B00B2FBF3F2A1
:104B70006423B2FBF3F201EB021200EBC00101EB84
:104B8000001163689B00B1FBF3F100EBC00303EB82
:104B900000136668B600B3FBF6F36426B3FBF6F3C6
:104BA00003EBC30606EB0313A1EB8301322303EBF4
:104BB00001116423B1FBF3F101F00F0111442268EC
:104BC000916070BD0038014010B5034699629A8526
:104BD000DA8500205864222083F84200186928B141
:104BE0001868C06840F480701C68E060186840690C
:104BF00040F001001C6860611868C06840F0200047
:104C00001C68E060002010BD014691F84100212899
:104C100028D18868B0F5805F0BD1086948B90A6A65
:104C20001088C0F308000B685860086A801C08628E
:104C300005E00B6A581C086218780B685860C88C2D
:104C4000401E80B2C88458B90868C06820F080004F
:104C50000B68D8600868C06840F040000B68D860F6
:104C6000002070470220FCE710B50248FDF75EFD0A
:104C700010BD00002001002000BFFEE70FB4054B6F
:104C800010B503A9044A029800F048F810BC5DF87A
:104C900014FB000025520008190000200FB4084B37
:104CA00010B504A902AA039800F038F8044602A936
:104CB000002000F05EFA204610BC5DF814FB0000F6
:104CC0007351000802480068C0F3022070470000DA
:104CD0000CED00E010B5002804DB0A07130E054AAE
:104CE000135406E00A07140E034A00F00F031B1FBB
:104CF000D45410BD00E400E018ED00E002E008C864
:104D0000121F08C1002AFAD170477047002001E045
:104D100001C1121F002AFBD1704700002DE9FF4F8F
:104D20008DB00F460546002606E025280BD0DDE9AC
:104D30000F1290476D1C761C28780028F5D111B011
:104D40003046BDE8F08F0024A246A1460122E94981
:104D500000E0044315F8013F203B02FA03F008424B
:104D6000F7D128782A2810D06FF02F022878A0F1E8
:104D70003001092914D80AEB8A0102EB410144F001
:104D8000020400EB010A6D1CF0E701CF5FEA000AA4
:104D900003D544F40054CAF1000A44F002046D1C27
:104DA00028782E2817D115F8010F44F004042A287A
:104DB0000ED06FF02F022878A0F1300109290AD80F
:104DC00009EB890102EB410100EB01096D1CF2E7DF
:104DD00057F8049B6D1C28786C280FD006DC4C28F3
:104DE00017D068280DD06A2814D104E0742810D098
:104DF0007A280FD10DE044F400140AE044F4801442
:104E000001E044F440146978814202D104F5801431
:104E10006D1C6D1C28786E281ED00CDC632830D0E9
:104E200004DC00288BD0582811D19FE0642867D07B
:104E300069280CD164E073282DD004DC6F2872D06F
:104E4000702804D194E075286ED078286DD0DDE903
:104E50000F129047761C4BE1C4F30250022806D093
:104E6000032809D0042801CF09D0066040E101CF12
:104E7000F117C0E900613BE101CF068038E106701F
:104E800036E117F8040B8DF8000000208DF80100C2
:104E9000EB46012003E057F804BB4FF0FF306107F9
:104EA0004FF0000102D40DE008F1010188464945A8
:104EB0000FDA8045F8DB1BF808100029F4D108E070
:104EC00008F1010188468142FADB1BF8081000292D
:104ED000F6D1DDE90F23AAEB08008146214600F058
:104EE00031F9304400EB080604E0DDE90F121BF84D
:104EF000010B9047B8F10108F7D221464846F2E08D
:104F00000A21C4F302524FF0000B0891022A04D088
:104F100001CFC117032A09D00AE0FF1D27F00707B8
:104F2000F7E8020108E02CE01EE01FE000B2C11724
:104F3000042A01D140B2C117021E71F1000206DA43
:104F40000023D0EB030063EB01012D2202E02205D8
:104F500004D52B228DF82420012203E0E20701D0A2
:104F60002022F7E7904653E00A210BE0102109E0E8
:104F700010214FF0000B44F004044FF00809089191
:104F800003E008214FF0000B0891C4F30252022AFB
:104F900004D001CF0021032A06D006E0FF1D27F030
:104FA0000707F7E8020103E080B2042A00D1C0B28B
:104FB0004FF0000822072BD52A78702A07D0DDF899
:104FC00020C08CF0100C5CEA0B0C05D00EE04022E7
:104FD0008DF82420012208E050EA010306D0302396
:104FE0008DF824308DF8252002229046089B83F00E
:104FF000080353EA0B030BD150EA010201D1620707
:1050000006D530228DF824204FF00108A9F10109BE
:105010002A78582A04D038A20B9208AA0A920BE0E8
:105020003AA2F9E75B46089AFBF79AF80B9B9B5C60
:105030000A9A521E0A92137050EA0102F2D10A989B
:10504000ADEB000000F1200B600702D524F48034A2
:1050500001E04FF00109D94502DDA9EB0B0000E0AA
:10506000002000EB0B0141440890AAEB010AE00389
:1050700006D4DDE90F232146504600F063F80644CC
:105080004FF0000908E009A911F80900DDE90F1245
:10509000904709F10109761CC145F4DBE0030CD50A
:1050A000DDE90F232146504600F04CF8064404E0A9
:1050B000DDE90F1230209047761C0899481E0890B1
:1050C0000029F5DC08E00A980A990078491C0A9141
:1050D000DDE90F129047761CBBF10001ABF1010B2B
:1050E000F1DC21465046DDE90F2300F019F80644B3
:1050F0006D1C21E609280100303132333435363752
:105100003839616263646566000000003031323313
:1051100034353637383941424344454600000000B3
:105120002DE9F041044600251E461746880404D4A4
:1051300005E039462020B0476D1C641EF9D528468D
:10514000BDE8F0812DE9F041044600251E46904659
:10515000C80301D5302700E02027880404D505E0E6
:1051600041463846B0476D1C641EF9D52846BDE857
:10517000F0810A68531C0B601070704770B50346CD
:105180000C4600210022002500BF03E0985C01448A
:10519000501CC2B2A242F9DB0846CE1701EB1666DC
:1051A0003612A1EB0626A1EB0626F5B2284670BD05
:1051B0001CB50CA4246801940BA4246800940C88EA
:1051C00004809DF8044084701488A0F803409DF882
:1051D00004404471BDF80040C4801C880481002450
:1051E00084721CBD2E000000323000001CB50BA4E0
:1051F000246801940AA4246800940C8804809DF813
:10520000044084701488A0F803409DF80440447161
:105210001C88C480002404721CBD00003A000000F9
:105220003230000070B504460D462046FDF7BEFC46
:1052300070BD000086B0FBF7F5FDFFF70BFB00200B
:10524000FBF7CAF9FDF7F4FFEDA0EE490860EEA008
:105250004860F0A0C860F3A08860F5A0F549086038
:10526000F5A04860F8A0C860FAA08860FCA00861BA
:105270000120FE490870FE4800680068FC4800688C
:10528000C068EC4A1168DF4A106800F07BFB10B17F
:105290000020F6490870E74A5168DA4A506800F081
:1052A00071FB10B10020F1490870E24AD168D54A7B
:1052B000D06800F067FB10B10020EC490870ED48A1
:1052C000ED4908604FF0FF3048600846FCF764FC89
:1052D00018B1EAA63046FBF79BFAFDF7B9FDFEF7D9
:1052E00069FBFEF73FFBE9A0FFF7C8FCFBF73EF9BF
:1052F000F4480168049140680590F025F0244FF6C9
:10530000FF7032231A46194600901846FDF766FCD6
:1053100032210846FFF70CF94FF4FC60EA490860B7
:1053200032231A4619461846FBF7ACF832231A46C0
:1053300019461846FBF7EEF84FF4FC60FAF774FFD5
:105340004FF4FC6023462A46002100900846FDF7F2
:1053500045FC4FF6FF70FAF767FFC4480078012854
:105360007ED1B44A1168A74A106800F00BFB18B14F
:10537000D6A63046FBF74CFA46206043642190FBEA
:10538000F1F086B2A80090FBF1F087B200204FF454
:10539000FC61CDE90110059800909A4802683146F9
:1053A0003846049BFDF7FEFE04EB041000EB800082
:1053B000642190FBF1F086B2A80090FBF1F087B277
:1053C00000204FF4FC61CDE9011005980090994848
:1053D000026831463846049BFDF7E4FE4FF4FA704C
:1053E000FBF7B0FA934A5168864A506800F0CAFA4F
:1053F00018B1B6A63046FBF70BFA4620604364218D
:1054000090FBF1F086B2002023462A4631460090F8
:10541000FDF7E4FB46206043642190FBF1F086B287
:10542000A80090FBF1F087B200204FF4FC61CDE9B9
:105430000110059800907348426831463846049B35
:10544000FDF7B0FE04EB041000EB8000642190FB3C
:10545000F1F086B2A80090FBF1F087B2002000E0E6
:1054600089E04FF4FC61CDE9011005980090714886
:10547000426831463846049BFDF794FE4FF4FA70BB
:10548000FBF760FA6B4AD1685E4AD06800F07AFA9E
:1054900018B18EA63046FBF7BBF946206043642165
:1054A00090FBF1F086B2002023462A463146009058
:1054B000FDF794FB46206043642190FBF1F086B237
:1054C000A80090FBF1F087B200204FF4FC61CDE919
:1054D0000110059800904B48C26831463846049B3D
:1054E000FDF760FE04EB041000EB8000642190FBEC
:1054F000F1F086B2A80090FBF1F087B200204FF4E3
:10550000FC61CDE90110059800904A48C268314617
:105510003846049BFDF746FE4FF4FA70FBF712FA8B
:1055200046206043642190FBF1F086B200202346C0
:105530002A4631460090FDF751FB49A03D490861DC
:1055400004EB041000EB8000642190FBF1F086B2C4
:10555000A80090FBF1F087B200204FF4FC61CDE988
:105560000110059800903348026931463846049B83
:10557000FDF718FE1CE058A02E49086104EB04104A
:1055800000EB8000642190FBF1F086B2A80090FB54
:10559000F1F087B200204FF4FC61CDE901100598CD
:1055A00000902448026931463846049BFDF7FAFD15
:1055B00000204D49087048704CA0FFF75FFB04EBDA
:1055C0008400642190FBF1F086B2A80090FBF1F01A
:1055D00087B200204FF4FC61CDE9011005980090DE
:1055E0004DA231463846049BFDF7DCFD04EB8400F8
:1055F000C000642190FBF1F086B2A80092E00000A8
:10560000415400002E05002041542B564552534969
:105610004F4E000041542B4E414D456D7948432D6E
:105620003036000041542B42415544380000000000
:105630004F4B00003E0500204F4B6C696E766F7239
:1056400056312E38000000004F4B7365746E616D4B
:10565000650000004F4B3131353230300000000022
:10566000424C2070726573656E7400003A00002031
:1056700020010020002800400C01002048414C5F20
:105680005254435F496E6974000000003D3D3D3D4A
:105690003D3D3D3D3D3D3D3D3D3D3D3D3D3D5374ED
:1056A000617274205254432057617463683D3D3DDC
:1056B0003D3D3D3D3D3D3D3D3D3D3D3D3D3D3D3D1A
:1056C0000A0D00009C000020080600206D79457836
:1056D0006368616E67650000424C206E6F742070D5
:1056E000726573656E740000200500203D3D3D3DF0
:1056F0003D3D3D3D3D3D3D414141414141414141B6
:10570000414141413D3D3D3D3D3D3D3D3D3D3D3DB9
:105710003D3D0A0D000000005265616C204461743B
:10572000653A000090FBF1F087B200204FF4FC6175
:10573000CDE901100598009084A231463846049BBB
:10574000FDF730FD1520844908700320487055206E
:1057500088700520814988700420087006204870F0
:105760002520C87008468078302141EA20107C4905
:1057700008707A48807800F00F0040F030004870E0
:1057800076484078302141EA201075498870734886
:10579000407800F00F0040F03000C8706F48C078CB
:1057A000302141EA20106E4908716C48C07800F041
:1057B0000F0040F03000487167480078302141EA1E
:1057C0002010674988716448007800F00F0040F0AD
:1057D0003000C87160484078302141EA20106049AB
:1057E00008725D48407800F00F0040F030004872C9
:1057F00059488078302141EA20105949887256482A
:10580000807800F00F0040F03000C8720120554948
:105810000870FDF7A1FE98E004EB8400800064218D
:1058200090FBF1F086B2A80090FBF1F087B2314610
:105830003846FDF771FD04EBC400C0EB8410642111
:1058400090FBF1F086B2A80090FBF1F087B23146F0
:105850003846FDF717FF4448FCF71CF80E22404974
:105860004248FDF763F930B1012864D0022863D0C3
:10587000032863D161E03E48007801282ED13B48DF
:10588000808D801E81B23648FFF778FC3949087058
:10589000084600780609324637A103A8FFF7FEF94B
:1058A0003448007800F00F06324633A10DF10D00A8
:1058B000FFF7F4F9022203A929480C30FAF7E2FEB7
:1058C00010B9FDF791FE05E02020284981F842003B
:1058D0000020086300202649087000BF2148007896
:1058E000012827D104EB84008000642190FBF1F0B3
:1058F00086B2A80090FBF1F087B231463846FDF73A
:105900000BFD04EBC400C0EB8410642190FBF1F0AC
:1059100086B2A80090FBF1F087B231463846FDF719
:10592000B1FE1648807816490870FDF715FE002074
:105930000C49087002E001E000E000BF00BF0A4827
:10594000FCF73CF86420FAF7FDFF65E75265616CEF
:105950002054696D653A0000060000200200002016
:1059600020050020600000200C0100202001002004
:105970000100002038000020257800002C000020C5
:10598000390000202DE9F84F05460C4629480560EE
:10599000142200210068FAF7D9FB804625480078D8
:1059A000A8EB000000F0FF094A462248016822489F
:1059B000FDF7D8F830B10FF2840A514625A0FFF761
:1059C0005DF900BF00BF244800780128FBD100200A
:1059D00021490870142200212046FAF7B7FB064639
:1059E000301B87B20C20144988854FF4FA6001F10E
:1059F0002C033A46194900900F48FCF7F1FD30B1ED
:105A000001280FD002280ED0032810D10DE03A460D
:105A100021461248FAF736FE10B10120BDE8F88F92
:105A20000020FBE703E00220F8E70320F6E700BFD1
:105A30000020F3E7340000202001002048414C5FA3
:105A4000554152545F5472616E736D69745F49546D
:105A50000000000025730000010000202005002048
:105A600002030405060708090A0B0C0D0E0F10109F
:105A7000010202030405060708090A0B0C0D0E0FAC
:105A800010100102000000000000000001020304E9
:105A900006070809000000000102030400200100BD
:105AA00006000000000000000000000000000000F0
:105AB0000000000000000010001000100010001096
:105AC000001000000010000000000028002800283E
:105AD00000000000000000000000000000000024A2
