:020000040800F2
:1000000028040020050100080D0100080F01000868
:10001000110100081301000815010008000000008C
:1000200000000000000000000000000017010008B0
:1000300019010008000000001B0100081D01000854
:100040001F0100081F0100081F0100081F01000810
:100050001F0100081F0100081F0100081F01000800
:100060001F0100081F0100081F0100081F010008F0
:100070001F0100081F0100081F0100081F010008E0
:100080001F0100081F0100081F0100081F010008D0
:100090001F0100081F0100081F0100081F010008C0
:1000A0001F0100081F0100081F0100081F010008B0
:1000B0001F0100081F0100081F0100081F010008A0
:1000C0001F0100081F0100081F0100081F01000890
:1000D0001F0100081F0100081F0100081F01000880
:1000E0001F0100081F0100081F010008DFF810D0E1
:1000F00000F022F800480047931E0008AFF300808C
:10010000280400200648804706480047FEE7FEE72F
:10011000FEE7FEE7FEE7FEE7FEE7FEE7FEE7FEE7B7
:10012000D5160008ED000008421C10F8011B00293C
:10013000FBD1801A70470000064C074D06E0E068CE
:1001400040F0010394E8070098471034AC42F6D31E
:10015000FFF7D0FF14440008344400080EB517A080
:1001600000F096F80020102118A24FF6E073CDE9B8
:10017000002102901F2219210A2001F011FA01200A
:10018000182117A24FF6E073CDE9002102901F223B
:100190002D210A2001F004FA0120202114A24FF69B
:1001A000E073CDE9002102901F2246210A2001F0D0
:1001B000F7F94FF4966001F001FE0EBDD6D0CEC423
:1001C000CFD4CABEB2E2CAD40000000031365831E2
:1001D000363AC8ABB6AFB5E7D7D3BBB6D3AD0000A0
:1001E00032345832343AD6D0CEC4B2E2CAD4000047
:1001F00033325833323AD7D6CCE5B2E2CAD4000013
:100200002DE9F04106460F4614461D464FF6FF7095
:100210001E4908803B4622463946304600F000FD24
:100220002B4632463946304600F0FAFC48F2104080
:10023000164908806A1E93B291B2721C90B222468F
:1002400000F0EEFC44F20820104908802B462246BC
:100250002946304600F0E4FC48F210400B49088083
:10026000631E9AB27B1C99B2631E98B22B4600F0B3
:10027000D7FC44F20820054908802B46224639461F
:10028000204600F0CDFCBDE8F08100000A0000200F
:100290003EB504464FF6FF7000F082FC1F20009030
:1002A0001948028814230021084600F03FFD1F2052
:1002B00000901548438802884088143881B2002095
:1002C00000F034FD4FF6FF70104908800120102126
:1002D0001F234FF6FF72CDE900410290022100205A
:1002E00000F03EFC0120102109A2CDE9002102907E
:1002F00005484088123881B21F234FF6FF72002054
:1003000000F02EFC3EBD0000140000200A0000207A
:100310007777772E6C636477696B692E636F6D00F6
:100320002DE9F04704460D4616461F46DDE90889CB
:100330003B4632462946204600F072FC4B46424678
:100340003946304600F06CFC2B4622464946404672
:1003500000F066FCBDE8F0870EB52BA0FFF798FF14
:1003600000200C212CA24FF6E073CDE90021029071
:100370001F2216210A2001F013F901200C212CA2C2
:100380004FF6E073CDE9002102901F2222210A20BE
:1003900001F006F900200C212BA24FF6E073CDE905
:1003A000002102901F222F210A2001F0F9F80020DD
:1003B00010212BA24FF6E073CDE9002102901F22FD
:1003C0003C210A2001F0ECF80120102128A24FF670
:1003D000E073CDE9002102901F224C210A2001F098
:1003E000DFF80020102126A24FF6E073CDE90021AE
:1003F00002901F225C210A2001F0D2F84FF496608F
:1004000001F0DCFC0EBD0000D3A2CEC4CFD4CABE26
:10041000B2E2CAD400000000365831323A61626359
:100420006465666768303132333435363700000032
:10043000365831323A4142434445464748303132DA
:100440003334353637000000365831323A7E214099
:100450002324255E262A28295F2B7B7D3A00000075
:10046000385831363A616263646530313233340072
:10047000385831363A414243444530313233340002
:10048000385831363A7E21402324255E262A2829F1
:10049000000000002DE9FF4F85B000260027BDF8C1
:1004A0001800BDF82010884207DD08A906A801F051
:1004B00062FC07A905A801F05EFCBDF82000BDF8AC
:1004C0004C10884207DD08A913A801F054FC07A9C5
:1004D00012A801F050FCBDF81800BDF820108842A9
:1004E00007DD08A906A801F046FC07A905A801F048
:1004F00042FCBDF81800BDF84C10884238D1BDF858
:10050000140003900490BDF81C00BDF81010884240
:1005100003DABDF81C00049008E0BDF81C00BDF82B
:100520000C10884202DDBDF81C000390BDF84800A5
:10053000BDF81010884203DABDF84800049008E0C6
:10054000BDF84800BDF80C10884202DDBDF8480037
:100550000390534800880090BDF81830BDF80C2077
:100560001946BDF8100000F0E1FB09B0BDE8F08FBE
:10057000BDF81C00BDF81410A0EB010BBDF8200065
:10058000BDF81810401A0290BDF84800BDF81410CC
:10059000451ABDF84C00BDF81810A0EB0109BDF8D4
:1005A0004800BDF81C10A0EB010ABDF84C00BDF8D6
:1005B0002010401A0190BDF82000BDF84C10884270
:1005C00002D1BDF8208004E0BDF82000401E1FFAD3
:1005D00080F8BDF8184027E0029896FBF0F0BDF8CF
:1005E0001410084480B2049097FBF9F0BDF8141081
:1005F000084480B203905E442F44BDF81000BDF85B
:100600000C10884203DD03A904A801F0B4FB2448C0
:10061000008823460090BDF80C202146BDF810004C
:1006200000F084FB601C84B24445D5DDBDF8200099
:10063000201A00FB0AF6BDF81800201A00FB05F787
:1006400027E0019896FBF0F0BDF81C10084480B23A
:10065000049097FBF9F0BDF81410084480B20390A1
:1006600056442F44BDF81000BDF80C10884203DD3D
:1006700003A904A801F07FFB0948008823460090E5
:10068000BDF80C202146BDF8100000F04FFB601CA7
:1006900084B2BDF84C008442D3DD00BF65E70000A2
:1006A0000A0000202DE9F041024600250026002026
:1006B00000230024002791F803C00CF00F0591F8E7
:1006C00003C00CF0100CBCF1000F03D091F802C075
:1006D0004CEA050591F800C0BCF1000F31D0146858
:1006E00000202BE04FF0010C0CFA00F3B1F800C031
:1006F0000CEA03069E4220D183004FF00F0C0CFA47
:1007000003F7BC4305FA03FC4CEA040491F803C068
:10071000BCF1280F06D14FF0010C0CFA00FCC2F816
:1007200014C00AE091F803C0BCF1480F05D14FF0A6
:10073000010C0CFA00FCC2F810C0401C0828D1D3F0
:100740001460B1F800C0BCF1FF0F34DD5468002024
:100750002EE000F1080C4FF0010808FA0CF3B1F894
:1007600000C00CEA03069E4221D183004FF00F0C1B
:100770000CFA03F7BC4305FA03FC4CEA040491F8B5
:1007800003C0BCF1280F05D100F1080C08FA0CF8E1
:10079000C2F8148091F803C0BCF1480F07D100F1F2
:1007A000080C4FF0010808FA0CF8C2F81080401C41
:1007B0000828CED35460BDE8F08101617047000085
:1007C0002DE9FC5F0546884691469A46DDF830B033
:1007D00000953E20019000245FE004EB04103749AF
:1007E00011F810009BF80010884253D104EB04105C
:1007F000324901EB400040789BF80110884249D112
:1008000008F10F0083B205F10F0082B2414628467D
:1008100000F0C8FB00263BE0002734E00D9890B9BB
:1008200004EB0410254901EB4000801C805D802111
:100830003941084018B1484600F004FD21E0504617
:1008400000F000FD1DE01E48A0F8009004EB04102D
:100850001A4901EB4000801C805D8021394108402D
:1008600018B14146284600F033FA681C85B200985A
:10087000281A102805D1009D08F101001FFA80F800
:1008800003E0781CC7B2082FC8DB00BF701CC6B2DB
:10089000202EC1DB00BF601C84B2019884429CDB27
:1008A00008484088401E83B206480088401E82B235
:1008B0000021084600F076FBBDE8FC9F9037000859
:1008C0000A000020140000202DE9FC5F0546884640
:1008D00091469A46DDF830B000950720019000243B
:1008E00067E004EB840000EB44103A4911F8100073
:1008F0009BF80010884259D104EB840000EB4410AF
:10090000344901EB400040789BF8011088424DD1FA
:1009100008F1170083B205F1170082B2414628465C
:1009200000F040FB00263FE0002738E00D98A0B91A
:1009300004EB840000EB4410264901EB4000801CCE
:10094000805D80213941084018B1484600F07AFCAA
:1009500023E0504600F076FC1FE01F48A0F800900E
:1009600004EB840000EB44101A4901EB4000801CAA
:10097000805D80213941084018B14146284600F089
:10098000A7F9681C85B20098281A182805D1009D7F
:1009900008F101001FFA80F803E0781CC7B2082FA5
:1009A000C4DB00BF701CC6B2482EBDDB00BF601C9C
:1009B00084B20198844294DB08484088401E83B288
:1009C00006480088401E82B20021084600F0EAFA7C
:1009D000BDE8FC9FCC3F00080A0000201400002066
:1009E0002DE9FC5F0546884691469A46DDF830B011
:1009F00000950420019000245FE004EB8410374947
:100A000011F810009BF80010884253D104EB8410B9
:100A1000324901EB400040789BF80110884249D1EF
:100A200008F11F0083B205F11F0082B2414628463B
:100A300000F0B8FA00263BE0002734E00D9890B9AA
:100A400004EB8410254901EB4000801C805D80216F
:100A50003941084018B1484600F0F4FB21E0504607
:100A600000F0F0FB1DE01E48A0F8009004EB84109D
:100A70001A4901EB4000801C805D8021394108400B
:100A800018B14146284600F023F9681C85B2009849
:100A9000281A202805D1009D08F101001FFA80F8CE
:100AA00003E0781CC7B2082FC8DB00BF701CC6B2B9
:100AB000802EC1DB00BF601C84B2019884429CDBA5
:100AC00008484088401E83B206480088401E82B213
:100AD0000021084600F066FABDE8FC9FD2410008FC
:100AE0000A0000201400002070B505460E4614468A
:100AF0003146284600F04CFA204600F0A3FB70BDBA
:100B00002DE9F04706460F46154607F1270083B248
:100B100006F1270082B23946304600F043FA00243D
:100B20000AE015F8149005EB440090F8018049EABA
:100B3000082000F087FB641CB4F5C86FF1DB0748A0
:100B40004088401E83B205480088401E82B20021C2
:100B5000084600F027FABDE8F087000014000020E6
:100B60002DE9FE4F0E4617469846DDE90D9A0C9C7E
:100B70002046FFF7D9FA85B208490988A1EBC500DC
:100B800000EBD071C1F34F0B43463A46314658460D
:100B90008DE8100600F004FDBDE8FE8F1400002073
:100BA00070B5044612484088401E83B21048008841
:100BB000401E82B20021084600F0F4F902200D49DF
:100BC000086000250FE0002608E021120A4800F026
:100BD00061FCE1B2084800F05DFC761C0448008826
:100BE000B042F2D86D1C02484088A842EBD870BDD4
:100BF00014000020100C014000380040F8B50446F5
:100C00000D4616461F46054800883B463246294693
:100C10000090204600F08AF8F8BD00000A0000208D
:100C20002DE9FF4F85B081468A460020049003904D
:100C30000798A0EB09050898A0EB0A06CDF80890E4
:100C4000CDF804A0002D01DD012705E00DB9002736
:100C500002E04FF0FF376D42002E02DD4FF0010839
:100C600006E016B94FF0000802E04FF0FF38764278
:100C7000B54201DD2C4600E034464FF0000B21E088
:100C8000019A91B2029A90B200F022F80498284496
:100C900004900398304403900498A04205DD049822
:100CA000001B04900298384402900398A04205DD8E
:100CB0000398001B03900198404401900BF1010040
:100CC0001FFA80FB601C8345DADD09B0BDE8F08FB8
:100CD00070B504460D462946204600F059F90248F1
:100CE000008800F0AFFA70BD0A0000202DE9F04145
:100CF00004460D4616461F462B46324629462046D8
:100D0000FFF78EFF3B46224629462046FFF788FF25
:100D10003B46324639462046FFF782FF3B46324685
:100D200029463046FFF77CFFBDE8F0812DE9F05FF2
:100D300004460D4616461F46301B401C1FFA80FA1B
:100D4000781B401C1FFA80FB3B4632462946204652
:100D500000F028F94FF000080FE04FF0000906E01E
:100D60000A9800F06FFA09F101001FFA80F9D145E5
:100D7000F6DB08F101001FFA80F8D845EDDB0748E3
:100D80004088401E83B205480088401E82B2002180
:100D9000084600F007F9BDE8F09F000014000020AD
:100DA00008B50121082000F0A9FA41F60200ADF8CB
:100DB000000003208DF8020010208DF80300694622
:100DC0000448FFF76FFC41F602010248FFF7F5FC0B
:100DD00008BD0000000C014010B500F0E1FAFFF77B
:100DE000DFFF00F0C1F8362000F0C4F9002000F069
:100DF000B3F93A2000F0BEF9052000F0ADF9B220B9
:100E000000F0B8F90C2000F0A7F90C2000F0A4F9CC
:100E1000002000F0A1F9332000F09EF9332000F00B
:100E20009BF9B72000F0A6F9352000F095F9BB201A
:100E300000F0A0F9192000F08FF9C02000F09AF915
:100E40002C2000F089F9C22000F094F9012000F074
:100E500083F9C32000F08EF9122000F07DF9C42040
:100E600000F088F9202000F077F9C62000F082F920
:100E70000F2000F071F9D02000F07CF9A42000F0E0
:100E80006BF9A12000F068F9E02000F073F9D020A0
:100E900000F062F9042000F05FF90D2000F05CF929
:100EA000112000F059F9132000F056F92B2000F022
:100EB00053F93F2000F050F9542000F04DF94C2038
:100EC00000F04AF9182000F047F90D2000F044F92D
:100ED0000B2000F041F91F2000F03EF9232000F024
:100EE0003BF9E12000F046F9D02000F035F904206C
:100EF00000F032F90C2000F02FF9112000F02CF94D
:100F0000132000F029F92C2000F026F93F2000F0F2
:100F100023F9442000F020F9512000F01DF92F2082
:100F200000F01AF91F2000F017F91F2000F014F943
:100F3000202000F011F9232000F00EF9212000F00C
:100F400019F9112000F016F9292000F013F90020FA
:100F500000F030F90120034908604FF6FF70FFF7F9
:100F60001FFE10BDA481214210B54FF40060074957
:100F70000860142000F022FF4FF400600349091FAD
:100F80000860142000F01AFF10BD0000140C01408E
:100F900070B504460D462B4622462946204600F0F1
:100FA00001F870BD2DE9F04104460D4616461F4676
:100FB0001F49887A00F0DEF81D49897B2144C1F37E
:100FC000072000F0C9F81A49897B2144C8B200F013
:100FD000C3F81749897B3144C1F3072000F0BCF8FE
:100FE0001349897B3144C8B200F0B6F81049087B38
:100FF00000F0C0F80E49C97B2944C1F3072000F076
:10100000ABF80B49C97B2944C8B200F0A5F80849E0
:10101000C97B3944C1F3072000F09EF80449C97B1D
:101020003944C8B200F098F800F0B2F8BDE8F08199
:10103000140000202DE9FF4F83B081468A46934675
:10104000DDE91064404800880290A6F12000C6B295
:1010500004EBD47009EB6000401E82B20AEB04007E
:10106000401E83B2514648460194FFF79BFF1298F9
:1010700050BB002525E00C2C07D106EB4600334978
:1010800001EB800010F8058004E0314800EB061009
:1010900010F8058000270DE008F0010018B158464F
:1010A00000F0D0F802E0069800F0CCF84FEA6808AB
:1010B000781CC7B204EBD471B7EB610FECDB681C92
:1010C000C5B2A542D7DB2DE0002529E00C2C07D1C5
:1010D00006EB46001D4901EB800010F8058004E096
:1010E0001B4800EB061010F80580002711E0164899
:1010F000A0F800B008F0010038B10AEB050291B287
:1011000009EB070290B2FFF7E3FD4FEA6808781C8D
:10111000C7B204EBD471B7EB610FE8DB681CC5B252
:10112000A542D3DB0849029808800A484088401E3F
:1011300083B208480088401E82B200210846FFF7AB
:1011400031FF07B0BDE8F08F0A0000202C2D000809
:10115000A03100081400002010B504460220034905
:1011600008602146024800F095F910BD100C0140BE
:101170000038004010B504460220034908602146AB
:10118000024800F087F910BD140C014000380040FF
:1011900010B50249087AFFF7EDFF10BD14000020DA
:1011A00070B505460C462846FFF7E4FFE0B2FFF7AE
:1011B000D3FF70BD10B504462A20214948812B2059
:1011C00088812C20088134B1012C10D0022C1AD037
:1011D000032C32D124E0F0201949088048800020F7
:1011E0008873C87300213620FFF7DAFF26E0F0206D
:1011F00013490880488000208873C8736021362016
:10120000FFF7CEFF1AE0F0200D490880488000204B
:1012100088735020C873C0213620FFF7C1FF0DE04E
:10122000F020074908804880502088730020C87348
:10123000A0213620FFF7B4FF00E000BF00BF10BDC3
:101240001400002010B50446022005490860211250
:10125000044800F01FF9E1B2024800F01BF910BD8C
:10126000100C0140003800400EB516A0FFF710F832
:10127000184A1E211420FFF743FC0120102116A25A
:101280004FF6E073CDE9002102901F224B21202070
:1012900000F086F90F4A1E214620FFF731FC01209D
:1012A00010210DA24FF6E073CDE9002102901F221C
:1012B0004B21522000F074F94FF4966000F07EFD4F
:1012C0000EBD0000CDBCC6ACCFD4CABEB2E2CAD4FB
:1012D000000000009C2000085151000029B1064A7E
:1012E000D2690243044BDA6104E0034AD2698243C3
:1012F000014BDA61704700000010024029B1064A34
:1013000092690243044B9A6104E0034A9269824362
:10131000014B9A61704700000010024010B588B080
:101320000024194B0FCBCDE90623CDE9040100BF02
:1013300023E02046FFF73EFF14A0FEF7A9FF01219E
:10134000102204A850F824004FF6E073CDE90121E3
:1013500000901F221E21142000F022F90F4A322192
:101360001E20FFF7CDFB4FF47A7000F027FD4FF4FD
:101370007A7000F023FD601CC4B2042CD9DB00207D
:10138000FFF718FF08B010BD1C2D0008C6C1C4BB74
:10139000D0FDD7AAB2E2CAD4000000009C20000809
:1013A00000B587B001210920FFF7A8FF4FF42040C6
:1013B000ADF8040003208DF8060018208DF8070012
:1013C00001A91D48FFF76EF94FF48040ADF8040005
:1013D00048208DF8070003208DF8060001A9164863
:1013E000FFF760F901218803FFF778FF0020ADF8CF
:1013F00008004FF48270ADF80A000020ADF80C0030
:101400000220ADF80E000120ADF810004002ADF84A
:1014100012000020ADF81400ADF816000720ADF85A
:10142000180002A9054800F017F80121034800F050
:1014300007F807B000BD0000000C01400038004074
:1014400021B1028842F04002028004E002884FF697
:10145000BF731A400280704710B50022028802F460
:1014600041520B884C8823438C882343CC882343E8
:101470000C8923434C8923438C892343CC89234300
:101480001A430280838B4FF2FF74234083830B8ABD
:10149000038210BD024600BF108900F00200002840
:1014A000FAD0918100BF108900F001000028FAD025
:1014B0009089C0B2704710B500F002F810BD00006E
:1014C0000CB50020019000903348006840F4803053
:1014D0003149086000BF3048006800F400300090D7
:1014E0000198401C0190009818B90198B0F5A06FC0
:1014F000F1D12948006800F4003010B101200090BB
:1015000001E0002000900098012843D123480068A2
:1015100040F01000214908600846006820F00700EC
:1015200008600846006840F0020008601A484068F9
:10153000194948600846406848600846406840F4D9
:10154000806048600846406820F47C104860084687
:10155000406840F4E81048600846006840F0807039
:10156000086000BF0C48006800F000700028F9D047
:101570000948406820F00300074948600846406871
:1015800040F00200486000BF0348406800F00C00D3
:101590000828F9D10CBD00000010024000200240D4
:1015A0002DE9FF4F83B0064688469146DDE9114795
:1015B000109DB2464FF0000B71E0BBF1000F40D11F
:1015C00004EBD471384A1288A2EB6101B14204DB0A
:1015D00035494988091B414502DA07B0BDE8F08F5B
:1015E0002878802802DD4FF0010B58E028780D287C
:1015F00006D108EB04001FFA80F856466D1C1EE069
:10160000102C0DDD102128788DE883004A464146D4
:101610003046069BFFF70EFD06F1080086B20EE08D
:1016200028788DE891004A4641463046069BFFF7F0
:1016300001FD204604EBD07106EB61018EB26D1CFA
:101640002DE019480088001BB04204DB1648408892
:10165000001B404500DAC0E74FF0000B202C08D1FA
:10166000CDE900574A4641463046069BFFF7B8F998
:1016700012E0182C08D1CDE900574A4641463046C1
:10168000069BFFF721F907E0CDE900574A4641469E
:101690003046069BFFF794F8AD1C301986B22878C7
:1016A00000288AD100BF98E714000020042808D140
:1016B0004FF0E021096941F004014FF0E02211618F
:1016C00007E04FF0E021096921F004014FF0E0222A
:1016D0001161704710B51348006840F001001149CE
:1016E000086008464068104908400E4948600846AE
:1016F00000680E4908400B4908600846006820F45D
:10170000802008600846406820F4FE0048604FF4DE
:101710001F008860FFF7CFFE4FF0006004490860AB
:1017200010BD0000001002400000FFF8FFFFF6FEB1
:1017300008ED00E0F8B5002434A0FEF7A9FD4FF64F
:10174000FF70009035484088143883B233480288CF
:1017500014210020FFF7EAFA00BF1DE000202F4B04
:1017600000905D8805EBD5735B10193B04EB840793
:1017700007EBC407D919294B1E8806EBD6735B10FB
:10178000283BC4EB0417D819254B33F814200F233A
:1017900000F032FB601CC4B2052CDFDB40F2DC50F1
:1017A00000F00CFB4FF6FF7000901C484088143886
:1017B00083B21A48028814210020FFF7B7FA0024E8
:1017C0001DE00120154B00905D8805EBD5735B1083
:1017D000193B04EB840707EBC407D9190F4B1E888C
:1017E00006EBD6735B10283BC4EB0417D8190C4BDF
:1017F00033F814200F2300F0FFFA601CC4B2052C4C
:10180000DFDB40F2DC5000F0D9FAF8BD475549BBA8
:10181000ADD4B2CCEEB3E4B2E2CAD40014000020DE
:10182000000000200EB54FF6FF700090344843884A
:10183000028800210846FFF779FA0120102131A221
:101840004FF6E073CDE9002102901F221E211420E3
:10185000FFF7A6FE4FF4487000F0B0FA4FF478405E
:10186000009027484388028800210846FFF75EFA67
:101870000120102125A24FF6E073CDE9002102904E
:101880001F221E211420FFF78BFE4FF4487000F03A
:1018900095FA4FF4FC6000901948438802880021B3
:1018A0000846FFF743FA012010211AA24FF6E07311
:1018B000CDE9002102901F221E211420FFF770FEA7
:1018C0004FF4487000F07AFA1F2000900C484388CB
:1018D000028800210846FFF729FA012010210FA2F3
:1018E0004FF6E073CDE9002102904FF478421E21BB
:1018F0001420FFF755FE4FF4487000F05FFA0EBD5C
:1019000014000020424C205465737400524544205A
:1019100000000000475245454E200000424C55450E
:10192000200000002DE9F843002462A0FEF7B0FC7F
:101930004FF6FF70009063484088143883B26148C6
:10194000028814210020FFF7F1F900BF4AE05E4849
:1019500030F814005D490880DFF868C1BCF8025017
:1019600005EBD57C4FEA6C0CACF1280C04EB840938
:1019700009EBC409CC440CF11E0C1FFA8CF3DFF800
:1019800044C1BCF8006006EBD67C4FEA6C0CACF1AD
:10199000280C0CEB041C0CF11E0C1FFA8CF2DFF867
:1019A00024C1BCF8027007EBD77C4FEA6C0CACF199
:1019B000280C04EB840909EBC409CC441FFA8CF110
:1019C000DFF800C1BCF8008008EBD87C4FEA6C0C53
:1019D000ACF1280C0CEB041C1FFA8CF0FFF786F915
:1019E000601CC4B2052CB2DB40F2DC5000F0E6F91A
:1019F0004FF6FF70009033484088143883B2314866
:101A0000028814210020FFF791F900244AE02E48B3
:101A100030F814002D490880DFF8A8C0BCF8025047
:101A200005EBD57C4FEA6C0CACF1280C04EB840977
:101A300009EBC409CC440CF11E0C1FFA8CF3DFF83F
:101A400084C0BCF8007007EBD77C4FEA6C0CACF19B
:101A5000280C0CEB041C0CF11E0C1FFA8CF2DFF8A6
:101A600064C0BCF8028008EBD87C4FEA6C0CACF187
:101A7000280C04EB840909EBC409CC441FFA8CF14F
:101A8000DFF840C0BCF8006006EBD67C4FEA6C0C77
:101A9000ACF1280C0CEB041C1FFA8CF0FFF7AEF82D
:101AA000601CC4B2052CB2DB40F2DC5000F086F9B9
:101AB000BDE8F883475549BED8D0CECCEEB3E4B2EA
:101AC000E2CAD40014000020000000200A00002018
:101AD0002DE9FC5F002478A0FEF7DAFB4FF6FF70DB
:101AE000009079484088143883B2774802881421DE
:101AF0000020FFF71BF900BF60E0744830F81400C5
:101B0000734908807048458805EBD57040100C3843
:101B100004EB440101EBC401084481B26A48068821
:101B200006EBD67040100B38C4EB0412104480B2A0
:101B3000DFF894C1CDE90001BCF8027007EBD77C57
:101B40004FEA6C0CACF1270C04EB440B0BEBC40B11
:101B5000DC441FFA8CF3DFF870C1BCF8008008EB9E
:101B6000D87C4FEA6C0CACF11A0CC4EB041BDC44BF
:101B70001FFA8CF2DFF850C1BCF8029009EBD97C57
:101B80004FEA6C0CACF10C0C04EB440B0BEBC40BEC
:101B9000DC441FFA8CF1DFF830C1BCF800A00AEB7E
:101BA000DA7C4FEA6C0CACF1280CC4EB041BDC446F
:101BB0001FFA8CF0FEF7B4FB601CC4B2052C9CDB52
:101BC00040F2DC5000F0FAF84FF6FF7000903E480B
:101BD0004088143883B23C48028814210020FFF763
:101BE000A5F8002460E0394830F81400384908802E
:101BF0003548458805EBD57040100C3804EB44019E
:101C000001EBC401084481B22F48068806EBD67068
:101C100040100B38C4EB0412104480B2DFF8A8C0A7
:101C2000CDE90001BCF8027007EBD77C4FEA6C0CE1
:101C3000ACF1270C04EB440B0BEBC40BDC441FFA98
:101C40008CF3DFF884C0BCF8008008EBD87C4FEA46
:101C50006C0CACF11A0CC4EB041BDC441FFA8CF2C4
:101C6000DFF864C0BCF8029009EBD97C4FEA6C0C39
:101C7000ACF10C0C04EB440B0BEBC40BDC441FFA73
:101C80008CF1DFF844C0BCF800A00AEBDA7C4FEA24
:101C90006C0CACF1280CC4EB041BDC441FFA8CF078
:101CA000FEF7F8FB601CC4B2052C9CDB40F2DC5054
:101CB00000F084F8BDE8FC9F47554920547269CC78
:101CC000EEB3E4B2E2CAD400140000200000002009
:101CD0000A00002002E008C8121F08C1002AFAD139
:101CE00070477047002001E001C1121F002AFBD19C
:101CF00070472DE9F04104460D4616461F46DDF8B3
:101D00001880EA1991B2A21990B24246FEF7ECFE91
:101D1000EA1991B2A21B90B24246FEF7E5FEEA1B19
:101D200091B2A21990B24246FEF7DEFEEA1B91B2D2
:101D3000A21B90B24246FEF7D7FEAA1991B2E21951
:101D400090B24246FEF7D0FEAA1991B2E21B90B2C1
:101D50004246FEF7C9FEAA1B91B2E21990B2424672
:101D6000FEF7C2FEAA1B91B2E21B90B24246FEF7FA
:101D7000BBFEBDE8F08102880B8803800A807047B3
:101D800010B504466FF00400FFF790FCE11704EB78
:101D90005171C1F3C701074A11701046007800EB7A
:101DA0004001C1EBC0104FF6FF7101EAC0000249CB
:101DB000088010BD100000201200002001460D4ACE
:101DC00012884A434FF0E0235A6100229A610122AF
:101DD0001A6100BF4FF0E022106900F001021AB151
:101DE00000F48032002AF5D000224FF0E0231A617F
:101DF0009A617047120000202DE9FF4F81B08246A2
:101E000017469846DDF838B0002445464FEA4800AA
:101E1000C0F10306BBF1000F1FD01BE0A14608E094
:101E20004B462246009750460299FFF762FF09F1A0
:101E30000109A945F4DD002E04DA042000FB04604A
:101E4000861D06E0601B042101FB006000F10A060C
:101E50006D1E641CAC42E1DD18E015E02B46224605
:101E6000009750460299FFF744FF002E04DA042041
:101E700000FB0460861D06E0601B042101FB00607E
:101E800000F10A066D1E641CAC42E7DD05B0BDE83A
:101E9000F08FFFF71FFCFFF71DFC4820FFF770FFD6
:101EA000FEF79AFF13E000F013F800F07BF8FFF75D
:101EB000B9FCFFF737FDFFF73DFCFFF709FEFEF722
:101EC0004BFAFEF74BF9FFF7CFF9FFF727FAEAE7EE
:101ED0000EB525A0FEF7DCF90120102126A21F2354
:101EE000CDE900210290DA0217210020FEF738FE2A
:101EF000012010211CA21F23CDE900210290DA024B
:101F000028210020FEF72CFE012010211DA21F23F6
:101F1000CDE9002102904FF4FC6239210020FEF748
:101F20001FFE012010211AA21F23CDE900210290DB
:101F30004FF4FC624A210020FEF712FE012010211E
:101F400015A21F23CDE9002102901A465B21002033
:101F5000FEF706FE40F2DC50FFF730FF40F2DC50A7
:101F6000FFF72CFF0EBD0000D7DBBACFB2E2CAD418
:101F7000B3CCD0F200000000C8ABB6AFB5E7D7D302
:101F800000000000312E33222053543737383900F7
:101F90003234305832343000323031392D30372D30
:101FA000313700000EB54EF67D70FEF7F9FD1C23AB
:101FB000A92208214720FEF723F90120102127A29A
:101FC0001F23CDE9002102904FF61F020A210020B5
:101FD000FEF7C6FD3A23A92226214720FEF710F975
:101FE0000120102121A24EF67D73CDE9002102903F
:101FF000002228211046FEF7B3FD5823A9224421D0
:102000004720FEF7FDF8012010211CA24EF67D733B
:10201000CDE9002102901F2246210020FEF7A0FDFD
:102020007623A92262214720FEF7EAF80120102139
:1020300016A24EF67D73CDE9002102904FF478424E
:1020400064211020FEF78CFD40F2DC50FFF7B6FE55
:102050004FF4FA70FFF7B2FE0EBD0000CDBCD0CE3B
:10206000CFD4CABEB2E2CAD400000000B4BFC9AB2C
:10207000CCEEB3E4B2E2CAD400000000D6D0CEC4A5
:10208000CFD4CABEB2E2CAD400000000CDBCC6ACF8
:10209000CFD4CABEB2E2CAD400000000FFFFFFFFE7
:1020A000FFFFFFFFFFFFFFFFFFFFFFFFFFFFFFFF40
:1020B000FFFFFFFFFFFFFFFFFFFFBEF7FFFFDEFF9A
:1020C00038C6928C8E6B6E6B107C96AD3CE7FFFF32
:1020D000FFFFFFFFFFFFFFFFFFFFFFFFFFFFFFFF10
:1020E000FFFFFFFFFFFFFFFFFFFFFFFFFFFFFFFF00
:1020F000FFFFFFFFFFFFFFFFFFFFFFFFFFFFFFFFF0
:10210000FFFFFFFFFFFFFFFFFFFF5DEF159D4F6329
:102110006C420A328829461925194521E8318E6B0F
:1021200038C6FFFFFFFFFFFFFFFFFFFFFFFFFFFFBF
:10213000FFFFFFFFFFFFFFFFFFFFFFFFFFFFFFFFAF
:10214000FFFFFFFFFFFFFFFFFFFFFFFFFFFFFFFF9F
:10215000FFFFFFFFFFFFFFFF36A51053104B51534A
:102160000F4B6C3AE93167212519E410A30862008E
:102170008308CB529AD6FFFFFFFFFFFFFFFFFFFF51
:10218000FFFFFFFFFFFFFFFFFFFFFFFFFFFFFFFF5F
:10219000FFFFFFFFFFFFFFFFFFFFFFFFFFFFFFFF4F
:1021A000FFFFFFFF3CE77063B363B87CF563114347
:1021B0004D32EA298821261905190519041104113F
:1021C000E4108300A308728CFFFFFFFFFFFFFFFFF7
:1021D000FFFFFFFFFFFFFFFFFFFFFFFFFFFFFFFF0F
:1021E000FFFFFFFFFFFFFFFFFFFFFFFFFFFFFFFFFF
:1021F000FFFFDBDE4B3AF042356C544BB1322E2AF6
:10220000EB21A92167190519041104110411041106
:1022100004110519E4104200AF73FFFFFFFFFFFF39
:10222000FFFFFFFFFFFFFFFFFFFFFFFFFFFFFFFFBE
:10223000FFFFFFFFFFFFFFFFFFFFFFFFFFFFFFFFAE
:102240005DEF09324C32104B8F324F2A2E2ACC19B7
:10225000891989214719051904110411C410C410E2
:10226000041104110411E41042003184FFFFFFFF48
:10227000FFFFFFFFFFFFFFFFFFFFFFFFFFFFFFFF6E
:10228000FFFFFFFFFFFFFFFFFFFFFFFFFFFFFFFF5E
:10229000EC5247194C320B2AEC21EC210C22915BB9
:1022A000EE4A061126190419E410E410A729662144
:1022B000A308051904110411E4108200F7BDFFFF03
:1022C000FFFFFFFFFFFFFFFFFFFFFFFFFFFFFFFF1E
:1022D000FFFFFFFFFFFFFFFFFFFFFFFFFFFF35A532
:1022E0008308882188218921AA218A216B42718C47
:1022F000FFFF728C83080411C4082942FBDE5DEFE6
:10230000EC5A83080411041104118308E831DFFF3B
:10231000FFFFFFFFFFFFFFFFFFFFFFFFFFFFFFFFCD
:10232000FFFFFFFFFFFFFFFFFFFFFFFFBEF7C7310C
:10233000C4102519261947194719A8298A52284A6D
:1023400055ADFFFFE831A30805194D6B4D6BFFFF3D
:102350007DEF4521C410041104110411620076AD13
:10236000FFFFFFFFFFFFFFFFFFFFFFFFFFFFFFFF7D
:10237000FFFFFFFFFFFFFFFFFFFFFFFF96B56200BC
:102380000411041905110519C4088B4AB6B55DEF8F
:10239000F7BDFFFF8E6B62002942AA5A0842FFFF79
:1023A000FFFFCC528308041104110411A308AD529D
:1023B000FFFFFFFFFFFFFFFFFFFFFFFFFFFFFFFF2D
:1023C000FFFF1CE7FFFFFFFFFFFFFFFF4E63620001
:1023D000041104110411E41062008E63FFFFFFFF7B
:1023E000FFFFFFFFCF730100F39C2C6396B5FFFF47
:1023F000FFFF2D5B8300041104110411E410672119
:102400003DEFFFFFFFFFFFFFFFFFFFFFF8BDB7B589
:102410009EEFCB52B394FFFFFFFFDFFFE831A3082D
:102420000411041104110411A3084942FFF7FFF736
:10243000FFFFFFFF6A4A01007284FFFFFFFFFFF703
:10244000DFEF093AA3080411041104110411051166
:1024500018BEFFFFFFFFFFFFFFFFFFFFF07B6200E3
:10246000E831C731410035A5FFFF5DEF4621C410BB
:102470000411041104110411E410A308769DFFF760
:10248000FFFFB7ADA308A308C7319EE7FFF7FFF72B
:1024900076A5A308E4100411041104110511051117
:1024A00035A5FFFFFFFFFFFFFFFFFFFFDBDEA729D3
:1024B0008300C410C410C4101CE79EEF0511E41083
:1024C00004110411041104110419C408E510D16B9E
:1024D000D16BC5086400A50843002B32779DB384F7
:1024E0002519C41004110411041104112519260919
:1024F000359DFFFFFFFFFFFFFFFFFFFFFFFFAF73F4
:1025000062000419051982000D5B8E9B6210051193
:10251000041104110419E41085000511C439815A0D
:10252000407B229C43AC03A4839B82728249C218E5
:10253000A400C500E4100419041105194719671116
:10254000EC5ABEFFFFFFFFFFFFFFFFFFDFFFDBDEF9
:10255000C410E41004110511A41801C08388E4001C
:1025600005190419C5084421438323D542FEE4FE1E
:1025700027FF07FFA4FE64FE03FEA3FDE2FC42EC7E
:1025800083B32462E510C40804192619A819872109
:102590000090D3BCFFFFFFFFFFFFFFFFDFFFFFFF48
:1025A000107C420005190511832801D044F8A34886
:1025B000E400C508445A02EDE2FD02FE66FE74FF27
:1025C000B8FF73FFE7F6A6F645F6A4F5C3FC62FC78
:1025D000C2FCC2FCE3CBC449061188198701A49050
:1025E00001F8EC9AFFFFFFFFFFFFFFFFFFFFFFFF78
:1025F000BEF7E83183000509824001C023F885F069
:10260000A348A400445A02FD23CCC2DC04FE28FEE9
:1026100048F646F624F6E4F564FDE3FC62FCC2FCF1
:1026200002E402DCE2FCA47A48016701C47824F8E1
:1026300002F884B07DE7FFFFFFFFFFFFFFFFFFFF12
:10264000FFFFDBDE2519A300C43802E022D844F8DE
:10265000A6F8A4786300432183728339829B21F515
:1026600061FD22FDE2FCA2FC42FC42FC42FC22ABEA
:102670008341C392045226012519A49844F823F8F3
:1026800002F8A4D09EEFFFFFFFFFFFFFFFFFFFFF59
:10269000FFFFFFFF9AD68729A50043B822F823E061
:1026A00065F8E8F807C983484200A300840063295D
:1026B000A27A62B3A2CB62D302BB828A8339A4001E
:1026C000E500E500E508C46064D844F824F823F880
:1026D00002F88388DBC6FFFFFFFFFFFFFFFFFFFF5E
:1026E000FFFFFFFFFFFF3DE7505B083123E843F8A2
:1026F00044F065F809F9ABF989D10689A348421875
:102700000200420061008200620062008300A32098
:10271000C450A58885D865F844F844F823F823F810
:1027200003D08210C7295DEFFFFFFFFFFFFFFFFF10
:10273000FFFFFFFFFFFFFFFFFFFF6C32A53802D84E
:1027400023F865F866F8A7F84AF90CFA4DFA4CEA4E
:102750000BD2A9B968B147A927B107B907D1E7E8F2
:10276000C7F8A7F865F865F844F823F803F802D02D
:10277000A3280509C408EC5AFFFFFFFFFFFFFFFF76
:10278000FFFFFFFFFFFFFFFFFBDE0519C400A741AE
:10279000E6C003F886F8A7F887F886F8C7F829F99D
:1027A0008AF9ABF9ABF98BF96AF929F908F9C7F895
:1027B000A6F886F865F864F823F802F006B1252932
:1027C000E400E41025192519149DFFFFFFFFFFFF0A
:1027D000FFFFFFFFFFFFFFFF96AD62008208359508
:1027E000BACE8BA244D025F887F8A7F8C7F8A7F887
:1027F00087F886F886F886F887F8A7F8A7F8A6F885
:1028000085F865F864F824F064B80D93BBB6CF631F
:1028100083080411E4106621493A5DEFFFFFFFFFD2
:10282000FFFFFFFFFFFFFFFFD3944200E410BBCE8A
:10283000FFFFBEE776B5CCAA07C145E045F846F8EC
:1028400066F886F886F886F886F865F845F865F83B
:1028500065E844D043A8018882903CD7FFEF5595A6
:1028600083080411041105194619B394FFFFFFFFF3
:10287000FFFFFFFFFFFFFFFFB394410086215DDFF5
:10288000FFFFFFFFFFFFDFE77AC6D3B44EB32AC2D4
:1028900068D1E6E0A6E8A5E8A5E8E6D888C906A9D3
:1028A00022A802A800A000C800D8F7E5FFE7F8AD0D
:1028B000C410E4100411E41005118B4AFFFFFFFF60
:1028C000FFFFFFFFFFFFFFFF55A54100A7295DDFC9
:1028D000FFF7FFFFFFFFFFFFFFFFFFFFFFEF7DDFC2
:1028E000DBCE59CEF8CDD7CDF7C579CEFBBEABA2A6
:1028F00003F045F842D043E800F072D4FFDF39AE70
:10290000E410E4100411E41005118729FFFFFFFF14
:10291000FFFFFFFFFFFFFFFF59CE830846211CD7B3
:10292000FFF7FFFFFFFFFFFFFFFFFFFFFFFFFFFFBF
:10293000FFFFFFFFFFFFFFFFFFFFFFFFFFEF8BBA70
:1029400004F845F862E044F000F88EDBFFDFF8A5FC
:10295000C410E410E4100411E4102519FFFFFFFF78
:10296000FFFFFFFFFFFFFFFFBEF78729830839B690
:10297000FFF7DFF7FFFFFFFFFFFFFFFFFFFFFFFF97
:10298000FFFFFFFFFFFFFFFFFFFFFFFFBEE74ABAAA
:1029900003F845F864F844F800F86EE3FFD7F48CC8
:1029A00083080411E410E410E4100519FFFFFFFF91
:1029B000FFFFFFFFFFFFFFFFFFFFEF7300007284C9
:1029C000FFEFBEEFDFFFFFFFFFFFFFFFFFFFFFFF98
:1029D000FFFFFFFFFFFFFFFFFFFFFFFFDFE78BBAF8
:1029E00003F845F845F823F800F8D3D4FFD74E5B39
:1029F0002100293A55A58308C4102519FFFFFFFFC0
:102A0000FFFFFFFFFFFFFFFFFFFFFBDEA308E83133
:102A10009EDF9EE7BFEFFFFFFFFFFFFFFFFFFFFF10
:102A2000FFFFFFFFFFFFFFFFFFFFFFFFFFF751BCAF
:102A300002E003F803F043E0ECC27ECFFCBE462187
:102A40002100D394FFFF518400008729FFFFFFFF7F
:102A5000FFFFFFFFFFFFFFFFFFFFFFFF51840000AD
:102A6000F48CFFEF9EE7BFEFDFFFFFFFFFFFFFFFED
:102A7000FFFFFFFFFFFFFFFFFFFFFFFFFFFF3DDF48
:102A800055BD52BC72BCB7B55DC7FFDFF06B00002F
:102A9000093ABFF7FFFFFFFF149D55A5FFFFFFFF9A
:102AA000FFFFFFFFFFFFFFFFFFFFFFFFFFFFAC4A3E
:102AB000A408BBBEDFE77EE7BEEFDFF7DFFFFFFF67
:102AC000FFFFFFFFFFFFFFFFFFFFFFFFDFFFDFF75E
:102AD000FFEFDFDFBFD79ED7DFDFD8A58308261142
:102AE000DBD6FFFFFFFFFFFFFFFFFFFFFFFFFFFF43
:102AF000FFFFFFFFFFFFFFFFFFFFFFFF79EE8BDC14
:102B00002131A9213DCFBFDF7EDF9EE7BEEFBFEFC2
:102B1000DFF7DFF7DFF7DFF7DFF7BFEFBEEF9EE7A7
:102B20007EDF5ED75ED7DFDF9AB626194208EDA3B7
:102B3000BFFFFFFFFFFFFFFFFFFFFFFFFFFFFFFFE5
:102B4000FFFFFFFFFFFFFFFFFFFF74DDC0DB00FEA5
:102B500042EE024289217BB6DFDF7ED77EDF7EDF59
:102B60009EE79EE79EE79EE79EE77EDF7EDF5DD7DE
:102B70005DD79EDFFFE7F8A50711E31802C560FDEA
:102B8000E6D3DBEEFFFFFFFFFFFFFFFFFFFFFFFFCF
:102B9000FFFFFFFFFFFFFFFF9EF784BAC1FC42FE6D
:102BA00082FEA2FE8183452174745EC7DFDF7ED77B
:102BB0005ED75DD75ED75ED75DD75DD75ED79EDF28
:102BC000FFE73DC7F1638408425226E629FF86FEEF
:102BD000E0F36AC3FFFFFFFFFFFFFFFFFFFFFFFF01
:102BE000FFFFFFFFFFFFFFFF18DEC1D2A2FD22FEA5
:102BF00042FE42FE62FEE2D4416A494253743BA661
:102C00003EC7BFD7BFD7BFD7BFDFBFD73EC71AA604
:102C1000F263A729824122B462FE83FEAAFE0FFF5F
:102C200067FD63BA3CEFFFFFFFFFFFFFFFFFFFFF02
:102C3000FFFFFFFFFFFFFFFF9AE680D221FDC2FDED
:102C4000E2F5C2F582F582FD62FD61DC219B846ABA
:102C5000E96A2C63AF6311746E632C63895A045262
:102C6000817AC2CBE2FC62FD82FDC2FDC2FDE4FDC1
:102C700024FD62CA1CE7FFFFFFFFFFFFFFFFFFFF0E
:102C8000FFFFFFFFFFFFFFFFFFFFB1CC81D2C0F3CB
:102C9000C1FC02FD02FDE2FCC2FCC2FC81FC80FB27
:102CA000C0C9A48135AD59CE719C218100DAA1FB48
:102CB00082FCA2FC82FCA2FC02FD22FDE2FC00FCE4
:102CC00060DA90CCFFFFFFFFFFFFFFFFFFFFFFFF7A
:102CD000FFFFFFFFFFFFFFFFFFFFFFFF59DE0DC4F8
:102CE00006CBE4D203DB03DBE3DAC3D2A4C209B32D
:102CF000D2BC9EF7FFFFFFFFFFFFFBE60EB4A6BAB4
:102D000083D2E3E202EB22EB22E303DBE4D26AC3E9
:102D1000B6D5FFFFFFFFFFFFFFFFFFFF08440008DE
:102D2000FC430008EC430008DC43000800000000FE
:102D3000000000000000000000000404040404047B
:102D40000004000000140A0A000000000000000057
:102D5000000014143F140A3F0A0A000000041E1564
:102D600005060C14150F0400000012150D0A142C92
:102D70002A1200000000040A0A1E15150936000078
:102D80000002020100000000000000000020100806
:102D900008080808081020000002040808080808AD
:102DA0000804020000000004150E0E1504000000C7
:102DB00000000404041F04040400000000000000DC
:102DC000000000000002020100000000001F0000DF
:102DD00000000000000000000000000000020000F1
:102DE00000100808080404020202010000000E118D
:102DF00011111111110E0000000004060404040456
:102E0000040E000000000E1111080402011F000052
:102E100000000E11100C1010110E00000000080C24
:102E20000A0A091E0818000000001F01010F1010F7
:102E3000110E000000000E09010F1111110E00000B
:102E400000001F09080404040404000000000E111F
:102E5000110E1111110E000000000E1111111E10A3
:102E6000120E00000000000004000000000400003A
:102E7000000000000004000000040400002010080E
:102E80000402040810200000000000001F00001FC2
:102E900000000000000204081020100804020000D6
:102EA00000000E11110804040004000000000E11BF
:102EB0001915151D011E0000000004040C0A0A1E4D
:102EC0001233000000000F12120E1212120F000037
:102ED00000001E1101010101110E000000000F127F
:102EE00012121212120F000000001F120A0E0A0224
:102EF000121F000000001F120A0E0A020207000043
:102F000000001C1201013911120C000000003312E4
:102F1000121E12121233000000001F0404040404E5
:102F2000041F000000003E08080808080809070000
:102F3000000037120A060A0A1237000000000702D2
:102F400002020202223F000000001B1B1B1B151582
:102F50001515000000003B1216161A1A1217000071
:102F600000000E1111111111110E000000000F12BE
:102F7000120E02020207000000000E1111111117BB
:102F8000190E180000000F12120E0A12123700005C
:102F900000001E1101060810110F000000001F158F
:102FA00004040404040E0000000033121212121272
:102FB000120C000000003312120A0A0C0404000074
:102FC00000001515150E0A0A0A0A000000001B0A67
:102FD0000A04040A0A1B000000001B0A0A04040475
:102FE000040E000000001F0908040402121F000064
:102FF000001C04040404040404041C000002020273
:103000000404080808100000000E08080808080852
:1030100008080E0000040A00000000000000000084
:1030200000000000000000000000003F000400005D
:10303000000000000000000000000000000C121C56
:10304000123C000000000302020E1212120E0000D9
:1030500000000000001C1202021C000000001810FA
:10306000101C1212123C000000000000000C121E86
:10307000021C000000003804041E0404041E0000AA
:1030800000000000003C120C021E221C0000030283
:10309000020E1212123700000000040000060404A1
:1030A000040E000000000800000C080808080807CB
:1030B00000000302023A0A0E123700000000070463
:1030C00004040404041F000000000000000F151594
:1030D0001515000000000000000F1212123700004A
:1030E00000000000000C1212120C00000000000092
:1030F000000F1212120E020700000000001C121234
:10310000121C103800000000001B0602020700001D
:1031100000000000001E020C101E00000000000451
:10312000040E04040418000000000000001B12122A
:10313000123C0000000000000037120A0C040000DE
:10314000000000000015150E0A0A00000000000033
:10315000001B0A040A1B0000000000000037120ACE
:103160000C04040300000000001E0804041E0000FC
:1031700000180808080408080808180008080808C3
:1031800008080808080808080006040404080404DD
:1031900004040600022518000000000000000000E2
:1031A000000000000000000000000000000000001F
:1031B00000000008080808080808000018180000A7
:1031C00000486C2412000000000000000000000015
:1031D0000000002424247F1212127F121212000019
:1031E0000000081C2A2A0A0C1828282A2A1C080869
:1031F00000000022251515152A58545454220000A9
:103200000000000C1212120A76252911916E00009E
:10321000000606040300000000000000000000009B
:10322000004020101008080808080810102040006E
:103230000002040808101010101010080804020002
:103240000000000008086B1C1C6B08080000000050
:1032500000000000080808087F08080808000000AF
:10326000000000000000000000000000060604034B
:103270000000000000000000FE0000000000000050
:103280000000000000000000000000000606000032
:1032900000008040402020101008080404020200B2
:1032A00000000018244242424242424224180000D8
:1032B000000000080E08080808080808083E00007A
:1032C0000000003C4242422020100804427E0000E0
:1032D0000000003C4242201820404042221C0000D6
:1032E000000000203028242422227E2020780000A4
:1032F0000000007E0202021A26404042221C00000A
:10330000000000382402021A26424242241800001B
:103310000000007E2222101008080808080800009B
:103320000000003C4242422418244242423C000039
:10333000000000182442424264584040241C00000F
:10334000000000000000181800000000181800001D
:103350000000000000000008000000000008080451
:103360000000004020100804020408102040000063
:103370000000000000007F0000007F00000000004F
:103380000000000204081020402010080402000081
:103390000000003C42424640201010001818000077
:1033A0000000001C225A555555552D42221C000084
:1033B0000000000808181414243C224242E70000D0
:1033C0000000001F2222221E22424242221F000031
:1033D0000000007C4242010101010142221C000068
:1033E0000000001F2242424242424242221F00008D
:1033F0000000003F4212121E12120242423F000021
:103400000000003F4212121E1212020202070000C8
:103410000000003C2222010101712122221C000037
:10342000000000E7424242427E42424242E7000040
:103430000000003E0808080808080808083E0000C8
:103440000000007C10101010101010101010110F40
:103450000000007722120A0E0A12122222770000C0
:10346000000000070202020202020202427F000084
:1034700000000077363636362A2A2A2A2A6B0000C0
:10348000000000E346464A4A525252626247000038
:103490000000001C2241414141414141221C0000E9
:1034A0000000003F424242423E0202020207000088
:1034B0000000001C2241414141414D53321C60003B
:1034C0000000003F4242423E1212222242C7000048
:1034D0000000007C4242020418204042423E0000AC
:1034E0000000007F4908080808080808081C0000B8
:1034F000000000E74242424242424242423C000057
:10350000000000E742422224241414180808000096
:103510000000006B494949495555362222220000D6
:10352000000000E7422424181818242442E7000071
:10353000000000772222141408080808081C000064
:103540000000007E2120101008040442423F0000C9
:10355000007808080808080808080808080878001B
:103560000000020204040808081010202020404037
:10357000001E1010101010101010101010101E004F
:1035800000384400000000000000000000000000BF
:10359000000000000000000000000000000000FF2C
:1035A000000608000000000000000000000000000D
:1035B000000000000000003C4278444242FC000051
:1035C000000000030202021A26424242261A0000AC
:1035D00000000000000000384402020244380000ED
:1035E00000000060404040784442424264D80000FD
:1035F000000000000000003C427E0202423C00004D
:10360000000000F08808087E08080808083E00004E
:10361000000000000000007C22221C023C42423CD0
:10362000000000030202023A4642424242E7000022
:103630000000000C0C00000E08080808083E0000FE
:103640000000003030000038202020202020221EE2
:103650000000000302020272120A16122277000012
:103660000000000E0808080808080808083E0000C6
:10367000000000000000007F9292929292B700003A
:10368000000000000000003B4642424242E70000CA
:10369000000000000000003C42424242423C000068
:1036A000000000000000001B26424242221E0207CA
:1036B000000000000000007844424242447840E0AC
:1036C00000000000000000774C040404041F000008
:1036D000000000000000007C42023C40423E00002E
:1036E000000000000008083E080808080830000034
:1036F00000000000000000634242424262DC000021
:1037000000000000000000E7422424140808000024
:1037100000000000000000EB49495555222200003E
:10372000000000000000007624181818246E000025
:1037300000000000000000E74224241418080807D5
:10374000000000000000007E22100808447E0000F7
:1037500000C0202020202010202020202020C00079
:103760001010101010101010101010101010101059
:1037700000060808080808100808080808080600D5
:103780000C32C20000000000000000000000000039
:10379000C9EE000027FC140414A481104208404024
:1037A000104017FC2040E0E0215022482C462040E9
:1037B0000040DBDA11041124112411241124FD240A
:1037C000112411241124112411241D24E124422444
:1037D00002040404CAD00200010000007FFC0100C2
:1037E000010001003FF821082108210821082128B3
:1037F000211001000100C8AB000000000180024060
:103800000430180860061FF90100010001003FF8AC
:103810000100010001007FFEB6AF000000000020A3
:103820003E20007C002200227F2210221022122241
:103830001222224223423D82009CB5E70000010093
:1038400001001FF0610C410441047FFC410441046C
:1038500041047FFC01000102010201FCD7D30000FA
:1038600000003FF8001000600080010000807FFE33
:103870000040004000200020002018400780BCBC11
:1038800010201020102013FEFC201020102015FC0A
:1038900018843088D04810501020105051882606C7
:1038A000CAF501000120011001107FFC03800540D2
:1038B0000540092011102108410481020100010086
:1038C0000100D3D002000200FFFE040004000FF04C
:1038D000081018102FF0481088100FF0081008106A
:1038E00008500820CFDE00007BF84A08520853F841
:1038F000620852084BF84A444A486A305220421043
:10390000428843064200B9AB00800480048008402E
:1039100008401020201042088206040004400820BD
:1039200010203FF010100000CBBE00003FF8000850
:1039300000087FE8000800081F8810881088108899
:1039400010881F88108800280010BBB600800080F7
:10395000FC8004FC050449082A401440104028A0BB
:1039600024A045108110020804040802D3AD000011
:103970002080133C122402240224F2241224122454
:1039800012B4132812201020282047FE0000C4FA89
:103990000900090011FC320454489950114812449E
:1039A00014441140108002005104511290120FF083
:1039B000B4BF00000020102013FE202026244A243B
:1039C0007A241224222423FC7C2000220422782240
:1039D000003CC9AB0000000004000FF010202020C4
:1039E0007FFC20842084208420843FF82000200253
:1039F00020021FFECCEE00000000204023FE2040ED
:103A000079FC220423FC220423FC220423FC3A0434
:103A100065FA01980204B3E40000010001007FFE92
:103A200002200410040808043FFC0442044004403F
:103A3000044208421042607EBED800000000207E92
:103A40003E804880488048FE48827F8208820C82FF
:103A500014FA12842280218040FED0CE00000000A3
:103A60007F842208223022C0220222047FC8223012
:103A700022C222022204220822304040BBAD0000B4
:103A800000007FFE00000FF01110111011105112F4
:103A90005FF25112511251124FF240027FFCD4B228
:103AA000000000007FFE47E24812481247E24FF252
:103AB000501250125112511242924472580A3FFC55
:103AC000CDBC000000003FFE440247F24C2253628E
:103AD000408243625E1A41824062430240C24022F9
:103AE0003FFCC6AC000000402040204020403FFE8C
:103AF0002000200020003FE0201020102010201087
:103B000040104010CFD4000000003FFC20042004EF
:103B10003FFC200420041FF824441448144814488F
:103B20000C5004407FFECABE000000003FFC0000B5
:103B3000000000007FFE0080089008881088108434
:103B40002084208240820780B2CB00000020082021
:103B50007FFE002000783F881108089009207FFE32
:103B6000018003400D30310C4002B5A5000000106B
:103B7000081004203FF8210421043FFC2104210403
:103B80003FF801007FFE010001000100D6D00000D7
:103B90000100010001003FFC210421042104210453
:103BA000210421043FFC0100010001000100D3A217
:103BB0000000000008207FFE0820092001003FF8D7
:103BC0002108210821081FF4014002200C10700E6A
:103BD000CEC400000100010000803F7C08100810E6
:103BE00004100420022002400180018002601C18A1
:103BF000E006D7DB00000000102011FE22022202A6
:103C000049FC5800300013FE2528792401240D2496
:103C1000722202A2BACF00000000018002400430EC
:103C2000180860061FF800001FF820042004200474
:103C3000200420041FF8C1C10000010001007FFE24
:103C400000003FF820083FF83FF8400647C24824EC
:103C5000082008221022603EB6C800000000008044
:103C60003FFE44105FFC4410441043F040005FF8F6
:103C70004408423041C04360BC1EB2E20000000074
:103C800067C2145205520552C552255205520552BB
:103C900015521752228222424442483ECAD40000A2
:103CA00000002014101417FE00120010601013F012
:103CB000109010901090149214EA1F0A0006B3CCD2
:103CC0000000000019FE7202120212027DFC1800B0
:103CD0001BFE3420502053FE10201020102013FE15
:103CE000D0F20000000000803FFE400047FC420888
:103CF000413040C05FFE4042404240444048404066
:103D00004440B5F70000000023FE122202FA02220E
:103D1000E22212FE1272128A128A128A16BA1A420B
:103D20001202040EB9E200000100010411080908A2
:103D3000091009207FFE044004400440044008426A
:103D400008421042607CB0E60000000048FE4900D6
:103D5000490049007EFE4182414479444528452876
:103D60004510452846440382C8A8000010001000F2
:103D700013FC7D04110419041884348850485050F1
:103D800010201050108813041402CBF9000000001A
:103D90003F7C204020403E40227E22442244224458
:103DA0003E8420842084408441044204C6C1000033
:103DB0003FF8200820083FF8241022202FF8222066
:103DC00022203FFC22204220442084200820C4BB23
:103DD00004407FFC04401FF010101FF010101FF073
:103DE0000400FFFE11103FF8D11611501120010000
:103DF000D0FD2080108010FE0100FE0021FC202458
:103E00003C2424A024A024BC24A024A04560553E2A
:103E10008A00D7AA202020202020FDFC40205040EE
:103E200093FEFC40108011FC1C04F08850501020C0
:103E300010101010BFAA00007FFC082008200820E6
:103E400008200820FFFE0820082008200820102055
:103E5000102020204020D4B4000027FE142014405D
:103E600085FC450445FC150415FC2524E42024A804
:103E700029242A2230A00040D2BA0080204017FE18
:103E800011208120423C4244166412942348E248A7
:103E900022302220225022880306BEA70FE00820ED
:103EA00008200FE0082008200FE000007EFC42847C
:103EB00042847EFC428442847EFC4284CDF8000031
:103EC0007FFC40044004421452944A544424442445
:103ED0004A544A5452946104400440144008D5BEE8
:103EE0001020082008207E20003E0420442044208A
:103EF00025FC290429040F04F104410401FC0104F8
:103F0000B0B410401020102013FEFA0214441040E8
:103F10001BFE3088D088110810D010201050508817
:103F20002304BCFC201020103B7C211441FE7A1499
:103F3000A27C2710F97C251025FE22102A103500BE
:103F400028FE0000D0A310401020102011FEFC001D
:103F5000108831043A025488508890501050102034
:103F6000105010881306D7BC01404120212023FEA9
:103F7000022016201BFC1220222023FCE2202220FB
:103F8000222023FE22000200B4A520202020782039
:103F900049FC91247D24552455247DFC552454202E
:103FA0007C28542457FE45028C00C3FE11101110CA
:103FB00017FC1110FC0013F8120817F81A0833F850
:103FC000D04017FC10A0111052082406C9EE0000C2
:103FD000000000001000000800080C7FFC044010E6
:103FE00001C8A002186042301832231812C300140E
:103FF000030004030C047FF0080F80080B407813C3
:104000006018332018631818831C1903081803005C
:10401000000300000000DBDA0000000000000410D4
:104020000C04180C04108C04108C04108C04108CDC
:1040300004D08C3F108C04108C04108C04108C0461
:10404000108C04108C04108C05F08C0E208C7820C1
:104050008C20408C00808C01000C02000C000000C1
:10406000CAD0000000000000003000001800001856
:104070000800001C1FFFE000180000182007FFF0D8
:104080000418200418200418200418200418200400
:1040900018200418200418200418200418E004181C
:1040A00040001800001800000000D6D000000000FA
:1040B00000000000000000000018000018000018B8
:1040C000000018003FFFFE301806301806301806B2
:1040D0003018063018063FFFFE30180600180000A2
:1040E0001800001800001800001800000000000070
:1040F00000000000CEC4000000000000000000002E
:104100003800001C00000600FFFFFF06003006001C
:10411000300300600300600180C000C18000E30044
:10412000003600001C0000770003C1E01E003C6068
:104130000007000000000000000000000000B2E2E4
:10414000000000000000000000000000400003210B
:10415000FF33398333118333019B33C19B33719B0D
:1041600033199B33019B33019B33119B3319B333B9
:10417000303033306C0330C6036383032E01BE003E
:104180000000000000000000CAD400000000000091
:104190000000000000004000D83000CE1800C21C13
:1041A00000C001FFFF0000C0F800C01800C019FFE8
:1041B000C01818401818601918601B18611E1831B3
:1041C0001C1FB139F01910000F00000000000000A2
:1041D0000000D7D600000000000600000003000029
:1041E0000000C0000001C0C0000107C00001FF00C6
:1041F000021FFE0007F01C0007C070000F00E00067
:104200000E03F0001C0FF0003C0F70003C00E000BB
:104210001800C0000000C0000000C00000006000E6
:1042200000002000000037000001FF00007FF800C0
:1042300007F830001F8030000080300000C03000E0
:10424000006060000018E000000FC00000060000E1
:1042500000000000CCE500000000000000000000AD
:1042600000C0000000E0002001B800703FF80061CD
:10427000FFC000C3030001C60600038C060003084C
:104280000C0006080C000E18183F1E101BF31F90A0
:104290003F0700803C1C0190707C019060FE01A0F3
:1042A000C3F801A00FD803A008180360001803404A
:1042B000001803C000180380001803000018000055
:1042C0000018000000100000003000000030000066
:1042D000000000000000B2E200000000000000004A
:1042E0000000000000000000020C1008071FF80486
:1042F00003BFF00201BC300303EC3003015C600338
:1043000000D8600300D860038098620361B8430757
:1043100071B14306313243063376C3063A64C706A9
:104320003EECC0063E78C0063C3040067C7000067D
:1043300078E060067BFFF006F7C00006E4000006A8
:1043400040000006000000060000007C00008FF026
:1043500000007C0000000000CAD400000000000043
:1043600000000000000000003F0000007F8000000F
:104370000180000000C0000000C0000000CE0380EB
:1043800000CFFFC000DD41800FFE0007FFFC000CE6
:1043900000F000180FC03E19FF40F311BC608330DD
:1043A0007FE003B1FE200333802003700030036000
:1043B00000100360001807C0000C07C0000407804D
:1043C00000020100000300000001000000000000E6
:1043D000000000000000000000000000526F746147
:1043E00074696F6E3A32373000000000526F7461AA
:1043F00074696F6E3A31383000000000526F74619A
:1044000074696F6E3A393000526F746174696F6EFF
:104410003A3000003444000800000020140000007E
:10442000D41C0008484400081400002014040000B4
:10443000E41C000800F8E0071F00E0FF1FF8000080
:08444000FFFF00000000000076
:04000005080000ED02
:00000001FF
