:020000040800F2
:10000000380D0020050100084929000801230008D7
:100010004529000841030008493700080000000096
:10002000000000000000000000000000193300087C
:1000300045030008000000004B2900081B3300089E
:100040001F0100081F0100081F010008352C0008CF
:100050001F0100081F010008470300081F010008D6
:100060001F0100081F0100081F0100081F010008F0
:100070001F0100081F0100081F0100081F010008E0
:100080001F0100081F0100081F0100081F010008D0
:100090001F0100081F0100081F0100081F010008C0
:1000A0001F0100081F0100081F0100081F010008B0
:1000B0001F0100081F0100081F0100081F010008A0
:1000C0001F0100081F0100081F0100081F01000890
:1000D0001F0100081F010008393700081F01000830
:1000E0001F010008152A00081F010008DFF810D0C2
:1000F00000F068F800480047053D0008AFF30080B5
:10010000380D00200648804706480047FEE7FEE716
:10011000FEE7FEE7FEE7FEE7FEE7FEE7FEE7FEE7B7
:10012000FD330008ED000008D2B201E000F8012B19
:10013000491EFBD270470022F6E710B513460A4667
:1001400004461946FFF7F0FF204610BDCBB203E08E
:100150000178994203D0401C521EF9D2002070470A
:100160002DE9F05F0546002092469B4688460646EC
:10017000814640241BE0284641464746224600F07F
:1001800042F853465A46C01A914110D311461846B8
:10019000224600F029F82D1A67EB01084F46224647
:1001A0000120002100F020F817EB00094E41201E2D
:1001B000A4F10104DFDC484631462A464346BDE847
:1001C000F09F0000064C074D06E0E06840F0010398
:1001D00094E8070098471034AC42F6D3FFF78AFF43
:1001E000142A0108342A0108202A04DB203A00FAE4
:1001F00002F1002070479140C2F1200320FA03F37E
:10020000194390407047202A04DB203A21FA02F07B
:100210000021704721FA02F3D040C2F12002914040
:10022000084319467047000010B501244FF6FF70CF
:1002300009494860094888600020086002F07EFF94
:10024000002002F04BF90A2000F01CF9044800F0ED
:1002500009F80024204610BDC00500207C000020C5
:100260009C0000200149886070470000C005002004
:1002700010B586B0044600BF6CB900BF1448806951
:1002800040F01000124988610846806900F01000B3
:10029000019000BF00BF00BF0E4830F8140002906C
:1002A0000120039000200490032005900A4951F892
:1002B000240002A900F00AF9064A32F81410064A8E
:1002C00052F82400002200F09BFA06B010BD000096
:1002D000001002401C4500087000002010B50446C4
:1002E000044A32F81410044A52F82400012200F0A3
:1002F00087FA10BD1C4500087000002010B50446A8
:10030000044A32F81410044A52F8240000F06EFA3D
:1003100010BD00001C4500087000002010B5034609
:1003200007E018780C78A04201D0104610BD5B1C85
:10033000491C101EA2F10104A2B2F2D100BFF5E7E0
:1003400000BFFEE7704710B5012000F0B1F810BD06
:100350000446214605A003F0F9F905E00020FFF767
:10036000CDFF642000F08EF8F8E700004572726F50
:100370007220696E2025730A0D00000001460022DC
:1003800091F82100022808D00420886300BF0020D3
:1003900081F8200000BF012070470868006820F045
:1003A0000E000B6818600868006820F001000B68F8
:1003B000186091F8403001209840CB6B58600120C4
:1003C00081F8210000BF002081F8200000BF104606
:1003D000E2E7000070B50446002594F821000228E9
:1003E00003D00420A063012548E02068006820F0C5
:1003F0000E00216808602068006820F00100216874
:1004000008601F492068884201D1012026E01C496C
:1004100014312068884201D110201FE0184928318A
:100420002068884201D1801518E015493C312068C8
:10043000884201D1801411E011495031206888426E
:1004400002D14FF4803009E00D49643120688842C0
:1004500002D14FF4801001E04FF080700849083954
:100460004860012084F8210000BF002084F82000AB
:1004700000BF606B10B12046616B8847284670BD95
:100480000800024070B5044600F0C0F90646254653
:10049000681C10B104480078054400BF00F0B6F9AC
:1004A000801BA842FAD370BD68000020704700008E
:1004B00010B5044604480068204020B1024804609A
:1004C0002046FFF7F3FF10BD140401402DE9F84763
:1004D0000346002294466EE14FF0010808FA02F448
:1004E000D1F8008008EA0400A0427DD1DFF8DCA248
:1004F000D1F80480A8EB0A09D0453AD014DCB8F151
:10050000030F50D009DCB8F1000F31D0B8F1010F62
:100510001CD0B8F1020F49D120E0B8F1110F18D06A
:10052000B8F1120F42D11EE0B9F5881F25D006DCC4
:10053000B9F5803F20D0B9F5801F37D11AE0B9F561
:10054000001F18D0B9F5041F30D117E0D1F80CC046
:100550002DE0D1F80C8008F1040C28E0D1F80C80D3
:1005600008F1080C23E0D1F80C8008F10C0C1EE017
:1005700000BF00BF00BF00BF00BF00BFD1F80880B0
:10058000B8F1000F02D14FF0040C0BE0D1F8088055
:10059000B8F1010F03D14FF0080C1C6102E04FF0DD
:1005A000080C5C6103E04FF0000C00E000BF00BFEE
:1005B000FF2801D8984601E003F104084646FF28C9
:1005C00002D84FEA820803E0A2F108084FEA88083F
:1005D0004746D6F800804FF00F0909FA07F928EAD4
:1005E00009080CFA07F900E088E048EA0908C6F8AB
:1005F0000080D1F8048008F08058B8F1805F7DD188
:1006000000BFDFF8CC81D8F8188048F00108DFF887
:10061000C091C9F81880C846D8F8188008F00108B9
:10062000CDF8008000BF00BF4FEAB9384FEA920909
:1006300058F829504FEA82784FEA18794FF00F089E
:1006400008FA09F825EA0805DFF88881434502D150
:100650004FF0000816E0DFF88081434502D14FF0EB
:1006600001080FE0DFF87481434502D14FF0020822
:1006700008E0DFF86C81434502D14FF0030801E048
:100680004FF004084FEA82794FEA197908FA09F81D
:1006900048EA0505DFF84C814FEA920948F82950ED
:1006A000D1F8048008F48018B8F5801F0AD1DFF86B
:1006B0003881D8F8008048EA0008DFF82C91C9F8A2
:1006C000008009E0DFF82081D8F8008028EA0008DF
:1006D000DFF81491C9F80080D1F8048008F40018FC
:1006E000B8F5001F10D1DFF8008108F10408D8F830
:1006F000008048EA0008DFF8F09000E05AE009F1D5
:100700000409C9F800800DE0DFF8DC8008F1040876
:10071000D8F8008028EA0008DFF8CC9009F1040935
:10072000C9F80080D1F8048008F40038B8F5003F1B
:100730000ED1DFF8B480A8F10408D8F8008048EAA8
:100740000008DFF8A490A9F10409C9F800800DE0C1
:10075000DFF89480A8F10408D8F8008028EA00089F
:10076000DFF88490A9F10409C9F80080D1F8048069
:1007700008F48038B8F5803F0ED1DFF86C80A8F11E
:100780000808D8F8008048EA0008DFF85C90A9F172
:100790000809C9F800800DE0DFF84C80A8F10808CE
:1007A000D8F8008028EA0008DFF83C90A9F1080991
:1007B000C9F80080521CD1F8008028FA02F8B8F17C
:1007C000000F7FF489AEBDE8F8870000000011102B
:1007D0000010024000080140000C014000100140E0
:1007E00000140140080001400804014010B5C2682F
:1007F00021EA020302EA010443EA0443036110BD53
:100800000AB1016101E00B0403617047014800680F
:100810007047000060000020034800680349097821
:10082000084401490860704760000020680000200B
:1008300010B50848006840F0100006490860032021
:1008400000F0CAF8042000F007F800F02BF80020B0
:1008500010BD00000020024070B504460E4800782C
:100860004FF47A71B1FBF0F00C490968B1FBF0F577
:10087000284601F048FA08B1012070BD102C07D2BB
:1008800000222146501E00F069F80548046001E08E
:100890000120F2E70020F0E7680000206C00002053
:1008A0006400002008B500BF1148806940F00100D5
:1008B0000F4988610846806900F00100009000BF80
:1008C00000BF00BF0846C06940F08050C8610846BC
:1008D000C06900F08050009000BF00BF00BF054914
:1008E000486820F0E06040F08070486000BF08BDBC
:1008F000001002400000014010B5014608460028E3
:1009000017DB00F01F0301229A400B4B440943F808
:10091000242000BF00BF00BFBFF34F8F00BF00BF48
:1009200000BF00BF00BF00BFBFF36F8F00BF00BF9D
:1009300000BF00BF10BD000080E100E00146084696
:10094000002809DB00F01F0301229A4043099B00A5
:1009500003F1E023C3F8002100BF70472DE9F05FE9
:1009600080460D461646002702F014FF074639461A
:100970002A46334601F00700C0F1070ABAF1040F16
:1009800002D94FF0040A01E0C0F1070AD14600F194
:10099000040ABAF1070F02D24FF0000A01E0A0F1F9
:1009A000030AD4464FF0010A0AFA09FAAAF1010A29
:1009B0000AEA020A0AFA0CFA4FF0010B0BFA0CFBD6
:1009C000ABF1010B0BEA030B4AEA0B04214640464C
:1009D00002F0E8FEBDE8F09F00BF00F00702064B02
:1009E00019684FF6FF031940044B0B4343EA0221F9
:1009F000014B196000BF70470CED00E00000FA05E4
:100A0000012001490862704700000E422DE9F047BD
:100A100006464FF00008002500270024A146012EBD
:100A200031D0022E56D0102E5FD132484468006873
:100A300000F0807008B33048C4F38341475C04F48D
:100A4000803078B12B484068C0F340402B4911F802
:100A5000008004F4803040B12948B0FBF8F000FB7E
:100A600007F502E0274807FB00F52248406800F43C
:100A70008000B0F5800F01D1A94603E06800032192
:100A8000B0FBF1F932E01B48046A04F44070B0F5A1
:100A9000807F05D104F0020010B14FF4004918E046
:100AA00004F44070B0F5007F07D11248406A00F0AE
:100AB000020010B149F640490BE004F44070B0F573
:100AC000407F06D10B48006800F4003008B14FF2B7
:100AD00024490BE000F08CF906494968C1F38131E3
:100AE000491C4900B0FBF1F900E000BF00BF4846D7
:100AF000BDE8F08700100240F244000802450008FB
:100B000000127A0000093D00F8B5044600260025D1
:100B1000207800F0010000286BD000274348C0690E
:100B200000F0805070B900BF4048C06940F080506C
:100B30003E49C8610846C06900F08050009000BF7F
:100B400000BF01273A48006800F48070B0B9384807
:100B5000006840F4807036490860FFF757FE06468B
:100B600006E0FFF753FE801B642801D90320F8BD7F
:100B70002F48006800F480700028F2D02B48006AEB
:100B800000F440752DB3A08800F44070A84220D036
:100B90002648006A20F4407501202649086000209C
:100BA00008602248056205F0010090B1FFF72EFEB3
:100BB000064608E0FFF72AFE801B41F28831884292
:100BC00001D90320D3E71948006A00F00200002889
:100BD000F0D01648006A20F4407061680843134959
:100BE0000862012F04D10846C06920F08050C86116
:100BF00000BF207800F00200022807D10B484068AF
:100C000020F44040A168084308494860207800F07B
:100C10001000102807D10548406820F48000E168E2
:100C20000843024948600020A1E70000001002408C
:100C3000007000404004424270B504460D460CB9B5
:100C4000012070BD5A48006800F00700A8420ED28B
:100C50005748006820F007002843554908600846B7
:100C6000006800F00700A84201D00120E9E72078E1
:100C700000F0020002281DD1207800F004000428B2
:100C800005D14C48406840F4E0604A49486020780B
:100C900000F00800082805D14648406840F460503C
:100CA000444948604348406820F0F000A168084388
:100CB00040494860207800F0010078B3606801285E
:100CC00006D13C48006800F4003090B90120B8E734
:100CD0006068022806D13748006800F0007040B90B
:100CE0000120AEE73348006800F0020008B9012097
:100CF000A7E73048406820F00300616808432D49A9
:100D00004860FFF783FD064609E0FFF77FFD801B83
:100D100041F28831884202D9032092E707E0254852
:100D2000406800F00C006168B0EB810FEDD1204805
:100D3000006800F00700A8420ED91D48006820F0A6
:100D4000070028431A4908600846006800F00700B9
:100D5000A84201D0012074E7207800F004000428A4
:100D600007D11448406820F4E060E1680843114965
:100D70004860207800F00800082808D10D48406835
:100D800020F46050216940EAC1000A49486000F03F
:100D90003FF808494968C1F30311074A515CC8404C
:100DA0000649086006480068FFF756FD002048E73E
:100DB0000020024000100240044500086C000020A2
:100DC0006400002001480068704700006C000020AB
:100DD00000B5FFF7F7FF04494968C1F30221034A50
:100DE000515CC84000BD00000010024014450008DE
:100DF00000B5FFF7E7FF04494968C1F3C221034A80
:100E0000515CC84000BD00000010024014450008BD
:100E100070B500210022002400230020134D6968D2
:100E200001F00C05F5B1042D02D0082D19D101E017
:100E30000F4819E00F4DC1F38346AB5D01F48035D7
:100E400055B10A4D6D68C5F340450B4E725D084DB6
:100E50005D43B5FBF2F402E0084D03FB05F42046C8
:100E600002E000BF024800BF00BF70BD001002409A
:100E700000127A00E0440008F044000800093D0038
:100E8000F8B504460CB90120F8BD207800F0010047
:100E9000002878D0F848406800F00C0004280CD0F6
:100EA000F548406800F00C00082811D1F24840686D
:100EB00000F48030B0F5803F0AD1EF48006800F4BC
:100EC000003000285FD0606800285CD10120DBE79B
:100ED00000BF6068B0F5803F06D1E748006840F485
:100EE0008030E549086028E0606858B9E248006849
:100EF00020F48030E04908600846006820F4802033
:100F000008601AE06068B0F5A02F0BD1DA480068DD
:100F100040F48020D84908600846006840F48030DA
:100F200008600AE0D448006820F48030D2490860A4
:100F30000846006820F48020086000BF606888B11F
:100F4000FFF764FC054606E0FFF760FC401B6428E1
:100F500001D9032098E7C848006800F40030002851
:100F6000F2D010E0FFF752FC054606E0FFF74EFC1A
:100F7000401B642801D9032086E7BF48006800F4BD
:100F800000300028F2D1207800F00200022857D16A
:100F9000B948406800F00C0050B1B748406800F014
:100FA0000C00082818D1B448406800F4803098B983
:100FB000B148006800F0020020B12069012801D08A
:100FC000012061E7AC48006820F0F800616940EA60
:100FD000C100A949086033E02069E8B10120A749B0
:100FE0000860FFF713FC054606E0FFF70FFC401B07
:100FF000022801D9032047E79F48006800F002005B
:101000000028F2D09C48006820F0F800616940EAAE
:10101000C1009949086013E0002098490860FFF773
:10102000F5FB054606E0FFF7F1FB401B022801D95E
:10103000032029E79048006800F002000028F2D160
:10104000207800F0080008282DD1A069B8B101204F
:101050008B490860FFF7DAFB054606E0FFF7D6FB91
:10106000401B022801D903200EE78348406A00F0A4
:1010700002000028F2D0012001F068FC13E00020FB
:101080007F490860FFF7C2FB054606E0FFF7BEFB9D
:10109000401B022801D90320F6E67748406A00F099
:1010A00002000028F2D1207800F00400042873D157
:1010B00000277148C06900F0805070B900BF6E48C9
:1010C000C06940F080506C49C8610846C06900F0B2
:1010D0008050009000BF00BF01276A48006800F4FC
:1010E0008070B0B96748006840F480706549086056
:1010F000FFF78CFB054606E0FFF788FB401B6428E2
:1011000001D90320C0E65F48006800F48070002821
:10111000F2D000BFE068012806D15748006A40F0CD
:1011200001005549086227E0E06858B95248006A52
:1011300020F00100504908620846006A20F00400CF
:10114000086219E0E06805280BD14B48006A40F0BE
:101150000400494908620846006A40F0010008623C
:101160000AE04548006A20F0010043490862084649
:10117000006A20F00400086200BFE068A0B1FFF739
:1011800045FB054609E0FFF741FB401B41F2883172
:10119000884202D9032077E622E03748006A00F04F
:1011A00002000028EFD012E0FFF730FB054608E010
:1011B000FFF72CFB401B41F28831884201D9032004
:1011C00062E62D48006A00F002000028F0D1012FED
:1011D00005D12948C06920F080502749C86100BF67
:1011E000E069C8B32448406800F00C00082860D0CB
:1011F000E069022848D1002020490866FFF706FB75
:10120000054606E0FFF702FB401B022801D9032038
:101210003AE61948006800F000700028F2D1206A10
:10122000B0F5803F07D11448406820F40030A16831
:10123000084311494860D4E9080108430E49496848
:1012400021F4741108430C49486001200B490866D9
:10125000FFF7DCFA054607E03DE0FFF7D7FA401B51
:10126000022801D903200FE60348006800F000704F
:101270000028F2D02FE0000000100240000042429F
:101280008004424200700040002014490866FFF7C5
:10129000BDFA054606E0FFF7B9FA401B022801D95E
:1012A0000320F1E50E48006800F000700028F2D13C
:1012B00011E0E069012800D1E6E50948466806F436
:1012C0008031206A814204D106F47011606A814243
:1012D00001D00120D8E50020D6E500000000424200
:1012E000001002407CB504461F4801680091406828
:1012F0000190F025F02600221C49204600F0D3F88A
:101300001A480078C0EB00108000C0EB001080008D
:1013100016494978C1EB011100EB81001349897826
:1013200008441349884218DD12480078A8B90F48CC
:101330000078C0EB00108000C0EB001080000B496B
:101340004978C1EB011100EB810008498978084414
:10135000094908800120074908704FF400510748E7
:10136000FFF744FA7CBD0000BC00002028000020EC
:101370008B50010037000020380000200010014091
:10138000704710B504462068006800F00100F0B115
:101390002068406800F00100C8B120684068C0F3D0
:1013A000800048B12046FFF7EBFF6FF00400216892
:1013B00048600420607404E02046FFF793FF01209A
:1013C00060742068406820F001002168486010BD0A
:1013D000014609B90120704700BF087C012801D1EE
:1013E0000220F8E70120087400BF02204874086852
:1013F000006840F001000A6810600120487400BFD6
:101400000020087400BF00BFE5E710B504460020C7
:10141000FEF764FF10BD000010B5044620680068A8
:10142000C0F3400068B120684068C0F3400040B19C
:101430002046FFF7EAFF2068406820F0020021689C
:1014400048604FF40030024908600120607410BD0C
:1014500014040140F8B505460C46164600200090DD
:1014600005B10CB90120F8BD00226946284600F0FC
:101470001AF808B10120F6E7287B2070E87BE070BD
:10148000687B6070A87BA0705EB1E07801F0D5FA4F
:10149000E070607801F0D1FA6070A07801F0CDFAC8
:1014A000A0700020DFE72DE9F04780460C4691460A
:1014B00000250026AA460027B8F1000F00D014B975
:1014C0000120BDE8F087D8F800004068C0F3800034
:1014D00008B10120F5E7404601F0D9FB05464FF47D
:1014E0006160B5FBF0F7B5FBF0F100FB11503C215A
:1014F000B0FBF1F060704FF46160B5FBF0F100FB00
:1015000011503C21B0FBF1F201FB1200A070182F2A
:1015100039D31820B7FBF0FAB7FBF0F100FB1170DC
:101520002070404601F0A7FB0646701C18B1AE4281
:1015300001D9761B01E04FF0FF360AEB4A00C000EC
:10154000C0EB4011C1EB0020A5EB00152946404639
:1015500001F0EBFC08B10120B3E7701C38B12E4458
:101560003146404601F0CAFC40B10120A9E73146AE
:10157000404601F0C3FC08B10120A2E751464046B5
:1015800001F0C2FA00E02770B9F1000F0BD020780B
:1015900001F053FA2070607801F04FFA6070A07883
:1015A00001F04BFAA07000208BE7000070B50446F4
:1015B00000250CB9012070BD607C20B9002020748A
:1015C000204600F053F802206074204600F016FA1E
:1015D00018B1042060740120EDE7204601F0EFFA15
:1015E00018B1042060740120E5E72068406820F00D
:1015F000070021684860A06828B11B48006820F0F7
:101600000100194908601848001F006820F4607044
:10161000A16808431449091F08606068401C08B1AC
:10162000656809E00120FFF7F1F905461DB90420BE
:1016300060740120BFE76D1EC5F303402168886018
:10164000A8B22168C860204601F0D6FA18B104207B
:1016500060740120AFE70021E17301216173A17380
:10166000012060740020A6E7306C004030B58FB0D8
:10167000054600BF1C48C06940F080501A49C86147
:101680000846C06900F08050009000BF00BFFFF71F
:10169000B7F90C20059000200C9001200890002044
:1016A0000B9005A8FFF7ECFB20B110A42046FEF735
:1016B0004FFE00BF012001900002029001A8FFF739
:1016C00023FA20B10EA42046FEF742FE00BF0120FF
:1016D00012490860002205210320FFF73FF903208B
:1016E000FFF72CF90FB030BD0010024048414C5FAD
:1016F0005243435F4F7363436F6E66696700000038
:1017000048414C5F52434345785F50657269706849
:10171000434C4B436F6E6669670000003C044242D5
:101720002DE9F84304460D46174600260020009098
:1017300004B115B90120BDE8F88300BF207C012861
:1017400001D10220F7E70120207400BF022060745D
:10175000002269462046FFF7A6FE08B10120EAE70D
:101760009DF800004FF4616148439DF80110C1EB02
:10177000011100EB81009DF8021000EB01085FB938
:1017800028784FF4616148436978C1EB011100EB9F
:101790008100A978461811E0287801F043F94FF448
:1017A000616100FB01F3687801F03CF9C0EB0010C7
:1017B00003EB8003A87801F035F91E18464501D2E5
:1017C000184806443146204601F098FB38B1042001
:1017D000607400BF0020207400BF0120ABE72068C8
:1017E000406820F00200216848602068006840F0EE
:1017F0000200216808600C48006840F400300A4983
:10180000086009480830006840F400300649083193
:1018100008600120607400BF0020207400BF00BF7A
:1018200089E7000080510100000401402DE9F047E4
:1018300004460D46904600260027B14604B115B96E
:101840000120BDE8F08700BF207C012801D10220E3
:10185000F7E70120207400BF02206074B8F1000F88
:1018600006D1E978E17369786173A978A1730BE017
:10187000E87801F0D7F8E073687801F0D3F8607386
:10188000A87801F0CFF8A073A27B617BE07B01F028
:10189000F3FA2073207B2870204601F0F8F9064601
:1018A0004FF46160B6FBF0F9B9F1180F2FD9182089
:1018B000B9FBF0F000EB4000C000C0EB4011C1EB01
:1018C0000020A6EB00163146204601F02EFB38B171
:1018D0000420607400BF0020207400BF0120B0E726
:1018E000204601F0C8F90746781C80B1B7420ED2F5
:1018F0000B4807443946204601F000FB38B104206C
:10190000607400BF0020207400BF012099E701200F
:10191000607400BF0020207400BF00BF91E700008A
:10192000805101002DE9F04104460D469046002605
:10193000002704B115B90120BDE8F08100BF207C6B
:10194000012801D10220F7E70120207400BF022006
:101950006074B8F1000F0BD128784FF461614843EF
:101960006978C1EB011100EB8100A978461811E0FC
:10197000287801F057F84FF4616100FB01F36878B3
:1019800001F050F8C0EB001003EB8003A87801F0E1
:1019900049F81E183146204601F0C7FA38B1042034
:1019A000607400BF0020207400BF0120C4E72068DD
:1019B000406820F0050021684860204601F05BF98E
:1019C0000746781C80B1B7420ED20B48074439460F
:1019D000204601F093FA38B10420607400BF002063
:1019E000207400BF0120A7E70120607400BF002021
:1019F000207400BF00BF9FE78051010070B504460E
:101A000000250CB9012070BD2068406820F0080056
:101A100021684860FEF7FAFE054607E0FEF7F6FE8D
:101A2000401BB0F57A7F01D90320ECE720684068BD
:101A300000F008000028F1D00020E4E7014691F80A
:101A400051007047014609B901207047486A38B90A
:101A50004868B0F5827F00D105E00022CA6102E04B
:101A600000220A614A61886AB0F5005F00D100BFB8
:101A700091F8510010B9002081F85000022081F83F
:101A800051000868006820F040000A6810608888EB
:101A900000F482700A8902F4044210438A8902F435
:101AA000006210430A7C02F0020210430A7D02F039
:101AB000010210430A8B02F4007210430A7F02F005
:101AC000380210432022525C02F0800210430A8D3B
:101AD00002F4005210430A6810600422886902EA86
:101AE00010400A685060886AB0F5005F03D1888DA5
:101AF00080B20A6810610868C06920F400600A6852
:101B0000D06100204865012081F8510000209CE749
:101B10002DE9F84304460F4616461D46FEF776FEAD
:101B20008046B14694F85100012802D00220BDE859
:101B3000F88307B10EB90120F9E700BF94F850000F
:101B4000012801D10220F2E7012084F8500000BFF3
:101B5000032084F85100002060652763A686E6868E
:101B6000A063A087E08760642064A068B0F5004FA0
:101B70000BD12068006820F04000216808602068D0
:101B8000006840F4804021680860A06AB0F5005FFA
:101B90000DD100BF2068006820F400502168086063
:101BA0002068006840F400502168086000BF206889
:101BB000006800F04000402805D02068006840F030
:101BC000400021680860E068B0F5006F37D16068B8
:101BD00010B1B9F1010F09D1206B00882168C860EC
:101BE000206B801C2063E08E401EE08623E020688E
:101BF000806800F0020002280AD1206B008821686A
:101C0000C860206B801C2063E08E401EE08612E0DE
:101C1000FEF7FCFDA0EB0800A84201D3681C00B948
:101C20004DB9012084F8510000BF002084F8500015
:101C300000BF03207BE7E08E0028D8D136E0606843
:101C400010B1B9F1010F09D1206B00782168087338
:101C5000206B401C2063E08E401EE08623E020685D
:101C6000806800F0020002280AD1206B0078216809
:101C70000873206B401C2063E08E401EE08612E05B
:101C8000FEF7C4FDA0EB0800A84201D3681C00B910
:101C90004DB9012084F8510000BF002084F85000A5
:101CA00000BF032043E7E08E0028D8D1A06AB0F53A
:101CB000005F05D12068006840F48050216808600A
:101CC00042462946204601F047F908B120206065C8
:101CD000A06850B900BF002000902068C068009044
:101CE00020688068009000BF00BF012084F8510088
:101CF00000BF002084F8500000BF606D08B10120D3
:101D000015E7002013E770B504462546681EB0F1BC
:101D1000807F01D301200FE0681E4FF0E021486171
:101D20000F214FF0FF3001F03DFD00204FF0E0218A
:101D3000886107200861002070BD2DE9F84F044636
:101D40000F4690461D46DDF828A094F84200202852
:101D500078D117B1B8F1000F02D10120BDE8F88F9A
:101D600000206064222084F84200012020630020CB
:101D70006063FEF74BFD8346A4F82C80A4F82E8008
:101D8000A068B0F5805F04D1206910B90026B9467B
:101D900002E03E464FF000090020288053E0206812
:101DA000006800F01000102813D100BF0020009040
:101DB00020680068009020684068009000BF00BF65
:101DC000288830B102206063202084F8420000207F
:101DD000C4E72068006800F02000202821D146B91F
:101DE00020684068C0F30800A9F8000009F1020962
:101DF00011E0A068B0F5805F03D0A06828B9206921
:101E000018B920684068307004E02068406800F02D
:101E10007F003070761C2888401C2880E08D401E92
:101E2000E0850AF1010070B1FEF7F0FCA0EB0B00B9
:101E3000504502D8BAF1000F05D1202084F84200A5
:101E400003208BE70BE0E08D0028A8D1A08DE18D69
:101E5000401A2880202084F8420000207EE70220DB
:101E60007CE77047014601A07047000048414C5F85
:101E7000554152545F4572726F7243616C6C62617E
:101E8000636B00002DE9F84F044620680568206860
:101E9000C668206847694FF00009CA4605F00F0977
:101EA000B9F1000F0AD105F0200038B106F020008A
:101EB00020B1204601F0F3FABDE8F88FB9F1000F28
:101EC0007BD007F0010018B906F49070002874D098
:101ED00005F0010030B106F4807018B1606C40F07C
:101EE0000100606405F0040030B107F0010018B192
:101EF000606C40F00200606405F0020030B107F051
:101F0000010018B1606C40F00400606405F0080046
:101F100048B106F0200010B907F0010018B1606C5C
:101F200040F008006064606C002845D005F0200097
:101F300028B106F0200010B1204601F0B0FA206868
:101F40004069C0F3801A606C00F0080010B9BAF163
:101F5000000F2CD0204601F05CFA2068406900F0A8
:101F6000400000B300BF00BF2168143151E8001FDA
:101F700021F040002168143141E80002002AF3D129
:101F800000BFE06B50B17948E16B4863E06BFEF74E
:101F900021FA88B1E06B416B88470DE02046FFF7DE
:101FA00061FF09E009E02046FFF75CFF04E02046FE
:101FB000FFF758FF002060647EE7206B012877D18F
:101FC00005F01000002873D006F010000028FAD0A9
:101FD00000BF0020009020680068009020684068E2
:101FE000009000BF00BF2068406900F0400000285A
:101FF0005FD0E06B006840681FFA80F8B8F1000F0E
:1020000055D0A08D404552DDA4F82E80E06B80694C
:10201000202843D000BF00BF21680C3151E8001FC9
:1020200021F4807021680C3141E80002002AF3D1CC
:1020300000BF00BF00BF2168143151E8001F21F02C
:1020400001002168143141E80002002AF3D100BFE9
:1020500000BF00BF2168143151E8001F21F040008B
:102060002168143141E80002002AF3D100BF20208A
:1020700084F842000020206300BF00BF21680C31BB
:1020800051E8001F21F0100021680C3141E80002E6
:10209000002AF3D100BFE06BFEF770F90220606305
:1020A000A08DE28D801A81B22046FFF7DAFE03E7A9
:1020B00045E0A08DE18D401A1FFA80F8E08DD0B385
:1020C000B8F1000F37D000BF00BF21680C3151E8D4
:1020D000001F21F4907021680C3141E80002002AB1
:1020E000F3D100BF00BF00BF2168143151E8001FC9
:1020F00021F001002168143141E80002002AF3D1E7
:1021000000BF202084F842000020206300BF00BFF1
:1021100021680C3151E8001F21F0100021680C31BA
:1021200041E80002002AF3D100BF0220606341466B
:102130002046FFF796FE204600F0BAF8BCE605F010
:10214000800030B106F0800018B1204601F0C4FADA
:10215000B2E605F0400030B106F0400018B120466C
:1021600001F08DF9A8E600BFA6E60000FF330008E5
:1021700010B504460CB9012010BDA06900B100E003
:1021800000BF94F8410028B9002084F840002046A0
:1021900000F02AF8242084F841002068C06820F468
:1021A00000502168C860204601F0F8F920680069F5
:1021B00020F49040216808612068406920F02A00DE
:1021C000216848612068C06840F400502168C860F8
:1021D00000206064202084F8410084F84200002040
:1021E000606300BFC8E7000010B586B0044600BFBA
:1021F0002248806940F004002049886108468069CF
:1022000000F00400019000BF00BF00BF08468069D5
:1022100040F0040088610846806900F004000190E5
:1022200000BF00BF00BF0846C06940F40030C8616D
:102230000846C06900F40030019000BF00BF0420D0
:10224000029002200390012004900320059002A92F
:102250000B48FEF73BF9082002900020039002A9EA
:102260000748FEF733F9022211462620FEF776FBD7
:102270002620FEF763FB06B010BD000000100240F0
:102280000008014070B504460D46164694F8420019
:1022900020280BD105B10EB9012070BD00202063AC
:1022A00032462946204601F0F7F9F6E70220F4E726
:1022B0000121014A117070470000002010B503464B
:1022C00093F84100202813D101B10AB9012010BDB3
:1022D00019629A84DA8400205864212083F841002E
:1022E0001868C06840F080001C68E0600020EEE7DD
:1022F0000220ECE70121014A117070470000002024
:1023000000BFFEE70A49096801F0010179B10849F7
:102310008039096801F0010149B100E000BF4FF0C8
:10232000604109680029F9D04FF060421070704791
:10233000800E00E02DE9F84F05460C4617469846FA
:10234000DDF828B04FF0F009CA4600224FF4805162
:102350001748FEF755FA4D4501DA544501DBBDE853
:10236000F88FE819484502DBA9EB050087B204EBBA
:102370000800504503DBAAEB04001FFA80F8002692
:102380000CE0A01983B2E81982B2A01981B22846E4
:10239000CDF800B000F00EF8701CC6B24645F0DD76
:1023A000012211030248FEF72BFA00BFD7E7000015
:1023B000000C01402DE9FC5F05460C4617461E4601
:1023C000301B002801DD301B00E0A01B791B002919
:1023D00001DD791B00E0E91B884201DD012000E0FE
:1023E00000200190019828B1A84625464446B846E9
:1023F00037464646BD4205DDA8463D464746A0460F
:1024000034464646781B0FFA80F9301B002801DD60
:10241000301B00E0A01B00B20090484609EBD071D1
:1024200049100FFA81FAB44202DA4FF0010B01E0D1
:102430004FF0FF3B1DE0019828B1294620460C9A39
:1024400000F01CF804E0214628460C9A00F016F82B
:102450000098AAEB00000FFA80FABAF1000F06DA32
:1024600004EB0B0084B20AEB09000FFA80FA681C37
:1024700085B2BD42DFDDBDE8FC9F00002DE9F843D9
:1024800004460D461646F027B846002C05DBBC4234
:1024900003DA002D01DB454501DBBDE8F8832B465F
:1024A00022462946204600F033F930128DF800000C
:1024B000F0B28DF8010000224FF480510648FEF77B
:1024C0009FF90221684600F0F5F801221103024845
:1024D000FEF796F900BFE0E7000C01402DE9F84354
:1024E00004460027B846B946F025F026701E83B290
:1024F000681E82B20021084600F00AF932462946D9
:1025000018A001F023F900224FF480511F48FEF774
:1025100077F900BF18E04FF0000811E020128DF8A5
:102520000000E0B28DF801000221684600F0C2F818
:1025300009F101001FFA80F908F101001FFA80F883
:10254000B045EBDB781C87B2AF42E4DB494610A014
:1025500001F0FCF8012211030C48FEF751F9BDE827
:10256000F88300002D2D4C43445F574944544820C4
:102570003D202530346420204C43445F4845494782
:102580004854203D20253034640A0D00000C0140E1
:102590002D2D2D2D2D2D2D2D2D2D2D2D7A203D2028
:1025A000253034640A0D000000B585B000BF254811
:1025B000806940F00800234988610846806900F07E
:1025C0000800009000BF00BF00BF0846806940F0CF
:1025D000080088610846806900F00800009000BF8C
:1025E00000BF00BF0846806940F0040088610846CB
:1025F000806900F00400009000BF00BF88140190C3
:10260000012002900320049001A90F48FDF75EFF0E
:102610000220019001A90C48FDF758FF802001908D
:102620000120029001A90948FDF750FF0122110382
:102630000548FEF7E5F8012280210448FEF7E0F89E
:1026400005B000BD00100240000C01400008014030
:1026500010B5002280210748FEF7D2F81420FDF7BC
:1026600011FF012280210348FEF7CAF80A20FDF776
:1026700009FF10BD0008014001B500224FF4805150
:102680000A48FEF7BDF8002202210848FEF7B8F814
:102690004FF0FF33012269460548FFF739FA01225E
:1026A00011030248FEF7ACF808BD0000000C014021
:1026B0002001002070B506460C4600224FF48051E0
:1026C0001148FEF79DF8012202210F48FEF798F805
:1026D00011E0B4F5803F02D34FF6FF7000E02046D2
:1026E00085B24FF0FF332A4631460848FFF710FA0B
:1026F0002E44641B00BF002CEBD1012211030248C1
:10270000FEF77EF870BD0000000C014020010020A3
:102710002DE9F84F04460D4616461F4600224FF499
:1027200080512148FEF76CF81FFA84F81FFA86F9E9
:102730001FFA85FA1FFA87FB2A20FFF79DFF4FEA51
:1027400028208DF8000008F0FF008DF801004FEA06
:1027500029208DF8020009F0FF008DF80300042104
:102760006846FFF7A7FF2B20FFF786FF4FEA2A20D6
:102770008DF800000AF0FF008DF801004FEA2B20D1
:102780008DF802000BF0FF008DF80300042168466D
:10279000FFF790FF2C20FFF76FFF01221103024883
:1027A000FEF72EF8BDE8F88F000C01400FB42DE9BC
:1027B000F84F06460F469046DDE90F9A00224FF487
:1027C00080512948FEF71CF8BDF836003844401EF9
:1027D00083B2BDF834003044401E82B239463046E0
:1027E000FFF796FF002432E0A8F12000BDF8361074
:1027F00000FB01400E9931F810001C4908600025CB
:1028000020E01A480088A84000F4004060B14FEA78
:1028100029208DF8000009F0FF008DF80100022149
:102820006846FFF747FF0CE04FEA2A208DF80000CA
:102830000AF0FF008DF8010002216846FFF73AFF19
:1028400000BF6D1CBDF83400A842DAD8641CBDF886
:102850003600A042C8D8012211030348FDF7D0FF7B
:10286000BDE8F80F5DF814FB000C0140A400002047
:102870000FB42DE9FE4F05460E461446DDE91178EA
:102880004FF0F009CA4600224FF480511A48FDF774
:10289000B7FF24E0BDF83C00284448450FDB002585
:1028A000BDF83E00304486B2BDF83E00304450458D
:1028B00000DB17E02078202801D1641C0FE0CDE96F
:1028C0000178109800902278314628460F9BFFF738
:1028D0006DFFBDF83C00284485B2641C00BF207821
:1028E0000028D7D100BF012211030348FDF788FF5C
:1028F000BDE8FE0F5DF814FB000C014010B50B485D
:102900000B4908604FF41650486000210848816068
:10291000C160016181610C214161FFF729FC18B19F
:1029200004A42046FDF714FD10BD00000044004043
:10293000D800002048414C5F554152545F496E69B0
:102940007400000000BFFEE77047704708B50849F3
:102950000968C9084FF47A72B1FBF2F14143009162
:1029600000BF00BF00994A1E00920029F9D108BD9E
:102970006C00002010B5012214491548FEF756FFDF
:1029800018B114A42046FDF7E3FC012215491048B4
:10299000FEF7C8FF28B114A4214617A000F0D6FE08
:1029A00000BF002015494860142008704520487079
:1029B0000120887001220648FEF7B2FE28B110A45B
:1029C00021460DA000F0C2FE00BF10BD0100002096
:1029D000C400002048414C5F5254435F5365744427
:1029E000617465000500002048414C5F5254435F0C
:1029F00053657454696D650025730000080000205C
:102A000048414C5F5254435F536574416C61726D31
:102A10005F49540010B50248FEF7FEFC10BD0000EF
:102A2000C4000020014600BF080900EB80004200FE
:102A300001F00F001044C0B270470146002203E0CD
:102A4000521CA1F10A00C1B20A29F9D2100741EAC9
:102A50001060704708B501460948405C0007000E49
:102A60008DF80000064A481C105C00F00F008DF83D
:102A700001009DF800009DF801201044C0B208BD7F
:102A8000D804002030B58BB004460D4619480168C3
:102A9000069140680790002217491848FEF7DAFCB3
:102AA0001548827816A10AA800F060FE1248427804
:102AB00013A109A800F05AFE0F48C27810A108A877
:102AC00000F054FE08AB09AA0AA903A801F0D8F83F
:102AD00000208DF816004FF4FC61CDE90110079835
:102AE000009003AA29462046069BFFF7C1FE0BB0C3
:102AF00030BD0000BC0000202B000020C4000020DE
:102B000025303264000000002DE9F0470646884673
:102B1000002700240025A146F77B747BB57B00BF0E
:102B200040E0012C0BD0032C09D0052C07D0072C3A
:102B300005D0082C03D00A2C01D00C2C0CD11F2D51
:102B400001D26D1C2CE00C2C02D0641C012527E066
:102B5000012401257F1C23E0042C05D0062C03D082
:102B6000092C01D00B2C06D11E2D01D26D1C17E0B3
:102B7000641C012514E0022C12D11C2D01D26D1C05
:102B80000EE01C2D08D1B8B200F05CF808B16D1C45
:102B900006E0641C012503E01D2D01D1641C012504
:102BA00009F10109C145BCD3F7737473B573EAB277
:102BB000E1B2384600F060F93073BDE8F08770B5D7
:102BC00004460025FDF722FE054607E0FDF71EFE40
:102BD000401BB0F57A7F01D9032070BD20684068A2
:102BE00000F020000028F1D02068406840F010007C
:102BF000216848600020F0E770B504460025206891
:102C0000406820F0100021684860FDF7FFFD054690
:102C100007E0FDF7FBFD401BB0F57A7F01D90320EB
:102C200070BD2068406800F020000028F1D000202E
:102C3000F6E7000010B50248FEF7A3FB10BD000048
:102C4000C4000020014601F0030008B100207047D5
:102C50006420B1FBF0F200FB121008B10120F6E78E
:102C60004FF4C870B1FBF0F200FB121008B901205C
:102C7000EDE70020EBE70146002200230868006A28
:102C800082B20868406A83B243EA0240704730B5B6
:102C9000014600220023002400200D68AD69AAB27D
:102CA0000D68ED69ACB20D68AD69ABB29A4205D062
:102CB0000D68ED6963F31F45284601E044EA0240D0
:102CC00030BD000010B5012210491148FEF7AEFDDD
:102CD00028B110A4214613A000F038FD00BF012246
:102CE00011490B48FEF71EFE28B110A421460DA085
:102CF00000F02CFD00BF0648FEF76AFB28B10FA4C8
:102D0000214608A000F022FD00BF10BD01000020F8
:102D1000C400002048414C5F5254435F53657444E3
:102D200061746500257300000500002048414C5F78
:102D30005254435F53657454696D650048414C5F5C
:102D400052544345785F5365745365636F6E645F97
:102D50004954000010B50020FFF77CFE1849887028
:102D60000220FFF777FE164948700420FFF772FE35
:102D70001349C87001221348FEF758FD28B112A468
:102D8000214615A000F0E2FC00BF0620FFF762FE1E
:102D9000124908700820FFF75DFE104948700A20AC
:102DA000FFF758FE0D49887001220648FEF7BAFD6C
:102DB00028B10BA4214608A000F0C8FC00BF10BD3C
:102DC0002B000020C400002048414C5F5254435F58
:102DD0005365744461746500257300002800002069
:102DE00048414C5F5254435F53657454696D6500AC
:102DF000F0B58BB004460D461A480168069140684C
:102E00000790F026F027002217491848FEF74BFBE1
:102E10001548027816A10AA800F0A8FC12484278CA
:102E200013A109A800F0A2FC0F48827810A108A8FD
:102E300000F09CFC08AB09AA0AA903A800F03EFF19
:102E400000208DF814004FF4FC61CDE901100798C3
:102E5000009003AA29462046069BFFF709FD0BB008
:102E6000F0BD0000BC00002028000020C4000020AD
:102E70002530326400000000F0B504460B46002106
:102E8000002504F5FA61032B1BD2C3EBC30000EB52
:102E900003100926B0FBF6F01044001D4618481E2A
:102EA00006EB90066427B0FBF7F0361A481EBF0009
:102EB000B0FBF7F030440726B0FBF6F706FB17052A
:102EC0001AE0C3EBC30000EB03100926B0FBF6F0D9
:102ED0001044001D084400EB91006426B1FBF6F697
:102EE000801B4FF4C876B1FBF6F63044801E0726EF
:102EF000B0FBF6F706FB1705E8B2F0BD70B5044667
:102F00000D4600262046FFF75AFE08B101260AE0CA
:102F1000280C21680862A8B2216848622046FFF7A1
:102F20006BFE00B10126304670BD70B504460D46FB
:102F300000262046FFF743FE08B101260AE0280CD0
:102F400021688861A8B22168C8612046FFF754FE55
:102F500000B10126304670BDF8B504460E46154650
:102F60003346012202212046009500F017F828B1CF
:102F7000606D40F0200060650320F8BD33460022FC
:102F800080212046009500F009F828B1606D40F0DE
:102F9000200060650320F0E70020EEE72DE9F84F00
:102FA00004460D4690461E46DDF82890FDF72EFC9F
:102FB000A0EB0900371AFDF729FC82462C4800686F
:102FC000C0F3CB307843009045E0701C002842D01D
:102FD000FDF71CFCA0EB0A00B84200D2A7BB20689A
:102FE000406820F0E000216848606068B0F5827FAA
:102FF0000DD1A068B0F5004F03D0A068B0F5806F88
:1030000005D12068006820F0400021680860A06AAF
:10301000B0F5005F0DD100BF2068006820F40050BB
:10302000216808602068006840F40050216808604A
:1030300000BF012084F8510000BF002084F8500038
:1030400000BF0320BDE8F88FFFE7009800B9002714
:103050000098401E0090206880682840A84201D156
:10306000012000E000204045AFD10020EAE7000049
:103070006C00002010B51148FEF7E0FCE8B91048DC
:103080000E49086000210D48C16181600121416144
:1030900002210161002181620721C1620021C1601A
:1030A00001624FF400718161002141624FF482702E
:1030B000024948600846FEF7C5FC10BD200100200B
:1030C0000038004000B585B00020019002900390C8
:1030D000049000BF1748806940F0080015498861D6
:1030E0000846806900F00800009000BF00BF4FF460
:1030F00000500190022002900320049001A90E4884
:10310000FDF7E4F94FF40040019001A90A48FDF7EA
:10311000DDF900BF0748C06940F480400549C86137
:103120000846C06900F48040009000BF00BF05B0B1
:1031300000BD000000100240000C01401FB50A2035
:10314000FDF7A0F9FFF784FA3A20FFF795FA44A0BB
:1031500000680390012103A8FFF7ACFAB220FFF743
:103160008BFA40A103C9CDE90201052102A8FFF7AE
:10317000A1FA022000F09AF8B720FFF77DFA3BA0F1
:1031800000680390012103A8FFF794FABB20FFF722
:1031900073FA37A000680390012103A8FFF78AFAA9
:1031A000C020FFF769FA33A000680390012103A84B
:1031B000FFF780FAC220FFF75FFA2FA000680390A4
:1031C000012103A8FFF776FAC320FFF755FA2BA0D9
:1031D00000680390012103A8FFF76CFAC420FFF7F1
:1031E0004BFA27A000680390012103A8FFF762FAB9
:1031F000C620FFF741FA23A000680390012103A82D
:10320000FFF758FAD020FFF737FA1FA000680390A5
:10321000022103A8FFF74EFAE020FFF72DFA1BA3C7
:103220000FCB8DE80F000E216846FFF743FAE1202F
:10323000FFF722FA19A30FCB8DE80F000E21684685
:10324000FFF738FA2120FFF717FA1120FFF714FAD9
:103250001320FFF711FA2920FFF70EFA1FBD000017
:10326000550000000C0C0033330000003500000056
:10327000190000002C0000000100000012000000F6
:10328000200000000F000000A4A10000D0040D11D8
:10329000132B3F544C180D0B1F230000D0040C11AE
:1032A000132C3F44512F1F1F2023000038B5044624
:1032B0003620FFF7E1F934B1012C0CD0022C12D0EA
:1032C000032C1FD116E011A0006800900121684670
:1032D000FFF7F0F917E00EA00068009001216846A2
:1032E000FFF7E8F90FE00020009001216846FFF7A2
:1032F000E1F908E007A00068009001216846FFF7A7
:10330000D9F900E000BF00BF38BD0000C0000000D8
:10331000A000000060000000704710B5FDF77CFAC7
:1033200010BD000010B594B028210AA8FCF703FFD7
:10333000142105A8FCF7FFFE0020019002900390E5
:10334000049005200A904FF480300B9000200C90E0
:1033500001200D900E9002201190C10312914FF4A4
:10336000E01113910AA8FDF78BFD18B112A42046B5
:10337000FCF7EEFF0F20059002200690002007903A
:103380004FF48060089000200990022105A8FDF705
:1033900053FC18B10DA42046FCF7DAFF0120019080
:1033A0000002029001A8FDF7AFFB18B10CA4204663
:1033B000FCF7CEFF14B010BD48414C5F5243435F51
:1033C0004F7363436F6E66696700000048414C5F4E
:1033D0005243435F436C6F636B436F6E6669670074
:1033E00048414C5F52434345785F5065726970684D
:1033F000434C4B436F6E666967000000704770B5C1
:1034000005466C6A0020E085E0842046FEF72AFD30
:1034100070BD00BF00BF02680C3252E8002F22F4DA
:10342000907102680C3242E80013002BF3D100BF08
:1034300000BF00BF0268143252E8002F22F00101E1
:103440000268143242E80013002BF3D100BF016B75
:1034500001290ED100BF00BF02680C3252E8002FD4
:1034600022F0100102680C3242E80013002BF3D165
:1034700000BF202180F8421000210163704710B581
:1034800004462068C06820F040002168C860202001
:1034900084F841002046FEF72DFF002010BDF8B54E
:1034A000044694F84200222875D1A068B0F5805FE8
:1034B0000CD1206950B90025A66A20684068C0F385
:1034C00008003080A06A801CA06215E0A56A002672
:1034D000A068B0F5805F03D0A06828B9206918B94A
:1034E00020684068287004E02068406800F07F0091
:1034F0002870A06A401CA062E08D401E80B2E0856A
:10350000002846D12068C06820F020002168C860EB
:103510002068C06820F480702168C8602068406915
:1035200020F0010021684861202084F8420000203A
:103530006063206B012826D10020206300BF00BFFC
:1035400021680C3151E8001F21F0100021680C3176
:1035500041E80002002AF3D100BF2068006800F0B3
:10356000100010280AD100BF0020009020680068D9
:10357000009020684068009000BF00BFA18D2046E9
:10358000FEF76FFC02E02046FEF792FE0020F8BD39
:1035900001E00020FBE70220F9E7000070B50446D7
:1035A0002168096921F44051E268114322681161E0
:1035B0002269A1681143626941EA02052168C9686C
:1035C00041F20C62914329432268D1602168496924
:1035D00021F44071A2691143226851612D4A21688A
:1035E000914202D1FDF704FC01E0FDF7F1FB00EB95
:1035F000C00101EB001162689200B1FBF2F100EB37
:10360000C00202EB001263689B00B2FBF3F264237A
:10361000B2FBF3F202EBC20303EB0212A1EB820155
:10362000322202EB01116422B1FBF2F101F0F00150
:1036300000EBC00202EB001263689B00B2FBF3F2E6
:103640006423B2FBF3F201EB021200EBC00101EBC9
:10365000001163689B00B1FBF3F100EBC00303EBC7
:1036600000136668B600B3FBF6F36426B3FBF6F30B
:1036700003EBC30606EB0313A1EB8301322303EB39
:1036800001116423B1FBF3F101F00F011144226831
:10369000916070BD0038014010B5034699629A856B
:1036A000DA8500205864222083F84200186928B186
:1036B0001868C06840F480701C68E0601868406951
:1036C00040F001001C6860611868C06840F020008C
:1036D0001C68E060002010BD014691F841002128DF
:1036E00028D18868B0F5805F0BD1086948B90A6AAB
:1036F0001088C0F308000B685860086A801C0862D4
:1037000005E00B6A581C086218780B685860C88C72
:10371000401E80B2C88458B90868C06820F0800094
:103720000B68D8600868C06840F040000B68D8603B
:10373000002070470220FCE710B50248FEF7A2FB0C
:1037400010BD0000D800002000BFFEE70FB4054BFD
:1037500010B503A9044A029800F048F810BC5DF8BF
:1037600014FB0000F53C0008150000200FB4084BC6
:1037700010B504A902AA039800F038F8044602A97B
:10378000002000F05EFA204610BC5DF814FB00003B
:10379000433C000802480068C0F302207047000064
:1037A0000CED00E010B5002804DB0A07130E054AF3
:1037B000135406E00A07140E034A00F00F031B1F00
:1037C000D45410BD00E400E018ED00E002E008C8A9
:1037D000121F08C1002AFAD170477047002001E08B
:1037E00001C1121F002AFBD1704700002DE9FF4FD5
:1037F0008DB00F460546002606E025280BD0DDE9F2
:103800000F1290476D1C761C28780028F5D111B056
:103810003046BDE8F08F0024A246A1460122E949C6
:1038200000E0044315F8013F203B02FA03F0084290
:10383000F7D128782A2810D06FF02F022878A0F12D
:103840003001092914D80AEB8A0102EB410144F046
:10385000020400EB010A6D1CF0E701CF5FEA000AE9
:1038600003D544F40054CAF1000A44F002046D1C6C
:1038700028782E2817D115F8010F44F004042A28BF
:103880000ED06FF02F022878A0F1300109290AD854
:1038900009EB890102EB410100EB01096D1CF2E724
:1038A00057F8049B6D1C28786C280FD006DC4C2838
:1038B00017D068280DD06A2814D104E0742810D0DD
:1038C0007A280FD10DE044F400140AE044F4801487
:1038D00001E044F440146978814202D104F5801477
:1038E0006D1C6D1C28786E281ED00CDC632830D02F
:1038F00004DC00288BD0582811D19FE0642867D0C1
:1039000069280CD164E073282DD004DC6F2872D0B4
:10391000702804D194E075286ED078286DD0DDE948
:103920000F129047761C4BE1C4F30250022806D0D8
:10393000032809D0042801CF09D0066040E101CF57
:10394000F117C0E900613BE101CF068038E1067064
:1039500036E117F8040B8DF8000000208DF8010007
:10396000EB46012003E057F804BB4FF0FF3061073E
:103970004FF0000102D40DE008F1010188464945ED
:103980000FDA8045F8DB1BF808100029F4D108E0B5
:1039900008F1010188468142FADB1BF80810002972
:1039A000F6D1DDE90F23AAEB08008146214600F09D
:1039B00031F9304400EB080604E0DDE90F121BF892
:1039C000010B9047B8F10108F7D221464846F2E0D2
:1039D0000A21C4F302524FF0000B0891022A04D0CE
:1039E00001CFC117032A09D00AE0FF1D27F00707FE
:1039F000F7E8020108E02CE01EE01FE000B2C1176A
:103A0000042A01D140B2C117021E71F1000206DA88
:103A10000023D0EB030063EB01012D2202E022051D
:103A200004D52B228DF82420012203E0E20701D0E7
:103A30002022F7E7904653E00A210BE0102109E02D
:103A400010214FF0000B44F004044FF008090891D6
:103A500003E008214FF0000B0891C4F30252022A40
:103A600004D001CF0021032A06D006E0FF1D27F075
:103A70000707F7E8020103E080B2042A00D1C0B2D0
:103A80004FF0000822072BD52A78702A07D0DDF8DE
:103A900020C08CF0100C5CEA0B0C05D00EE040222C
:103AA0008DF82420012208E050EA010306D03023DB
:103AB0008DF824308DF8252002229046089B83F053
:103AC000080353EA0B030BD150EA010201D162074C
:103AD00006D530228DF824204FF00108A9F1010904
:103AE0002A78582A04D038A20B9208AA0A920BE02E
:103AF0003AA2F9E75B46089AFCF732FB0B9B9B5C0A
:103B00000A9A521E0A92137050EA0102F2D10A98E0
:103B1000ADEB000000F1200B600702D524F48034E7
:103B200001E04FF00109D94502DDA9EB0B0000E0EF
:103B3000002000EB0B0141440890AAEB010AE003CE
:103B400006D4DDE90F232146504600F063F8064411
:103B50004FF0000908E009A911F80900DDE90F128A
:103B6000904709F10109761CC145F4DBE0030CD54F
:103B7000DDE90F232146504600F04CF8064404E0EE
:103B8000DDE90F1230209047761C0899481E0890F6
:103B90000029F5DC08E00A980A990078491C0A9186
:103BA000DDE90F129047761CBBF10001ABF1010B70
:103BB000F1DC21465046DDE90F2300F019F80644F8
:103BC0006D1C21E609280100303132333435363797
:103BD0003839616263646566000000003031323359
:103BE00034353637383941424344454600000000F9
:103BF0002DE9F041044600251E461746880404D4EA
:103C000005E039462020B0476D1C641EF9D52846D2
:103C1000BDE8F0812DE9F041044600251E4690469E
:103C2000C80301D5302700E02027880404D505E02B
:103C300041463846B0476D1C641EF9D52846BDE89C
:103C4000F0810A68531C0B601070704770B5034612
:103C50000C4600210022002500BF03E0985C0144CF
:103C6000501CC2B2A242F9DB0846CE1701EB166621
:103C70003612A1EB0626A1EB0626F5B2284670BD4A
:103C80001CB50CA4246801940BA4246800940C882F
:103C900004809DF8044084701488A0F803409DF8C7
:103CA00004404471BDF80040C4801C880481002495
:103CB00084721CBD2E000000323000001CB50BA425
:103CC000246801940AA4246800940C8804809DF858
:103CD000044084701488A0F803409DF804404471A7
:103CE0001C88C480002404721CBD00003A0000003F
:103CF0003230000070B504460D462046FEF702FB48
:103D000070BD000086B0FCF793FDFFF70BFB0020B1
:103D1000FCF7AEFAFEF7F2FDEDA0EE490860EEA06A
:103D20004860F0A0C860F3A08860F5A0F54908607D
:103D3000F5A04860F8A0C860FAA08860FCA00861FF
:103D40000120FE490870FE4800680068FC480068D1
:103D5000C068EC4A1168DF4A106800F053FB10B1EC
:103D60000020F6490870E74A5168DA4A506800F0C6
:103D700049FB10B10020F1490870E24AD168D54AE8
:103D8000D06800F03FFB10B10020EC490870ED480E
:103D9000ED4908604FF0FF3048600846FDF706FC2B
:103DA00018B1EAA63046FCF7D3FAFEF7FDFBFFF7A1
:103DB00089F9FFF75FF9E9A0FFF7C8FCFCF734FACF
:103DC000F4480168049140680590F025F024DB4830
:103DD000007801287ED1CB4A1168BE4A106800F0F5
:103DE00011FB18B1ECA63046FCF7B2FA462060434E
:103DF000642190FBF1F086B2A80090FBF1F087B24D
:103E000000204FF4FC61CDE9011005980090B14805
:103E1000026831463846049BFEF72AFD04EB041085
:103E200000EB8000642190FBF1F086B2A80090FBCB
:103E3000F1F087B200204FF4FC61CDE90110059844
:103E40000090B048026831463846049BFEF710FDEA
:103E50004FF4FA70FCF716FBAA4A51689D4A506865
:103E600000F0D0FA18B1CCA63046FCF771FA462023
:103E70006043642190FBF1F086B2002023462A467D
:103E800031460090FEF756FA46206043642190FBCD
:103E9000F1F086B2A80090FBF1F087B200204FF459
:103EA000FC61CDE90110059800908A4842683146CE
:103EB0003846049BFEF7DCFC04EB041000EB8000AA
:103EC000642190FBF1F086B2A80090FBF1F087B27C
:103ED000002000E089E04FF4FC61CDE90110059875
:103EE00000908848426831463846049BFEF7C0FC83
:103EF0004FF4FA70FCF7C6FA824AD168754AD06866
:103F000000F080FA18B1A4A63046FCF721FA46204A
:103F10006043642190FBF1F086B2002023462A46DC
:103F200031460090FEF706FA46206043642190FB7C
:103F3000F1F086B2A80090FBF1F087B200204FF4B8
:103F4000FC61CDE90110059800906248C2683146D5
:103F50003846049BFEF78CFC04EB041000EB800059
:103F6000642190FBF1F086B2A80090FBF1F087B2DB
:103F700000204FF4FC61CDE90110059800906148E4
:103F8000C26831463846049BFEF772FC4FF4FA7063
:103F9000FCF778FA46206043642190FBF1F086B28A
:103FA000002023462A4631460090FEF7C3F960A060
:103FB0005449086104EB041000EB8000642190FB7D
:103FC000F1F086B2A80090FBF1F087B200204FF428
:103FD000FC61CDE90110059800904A48026931461C
:103FE0003846049BFEF744FC1CE06EA0454908617E
:103FF00004EB041000EB8000642190FBF1F086B22A
:10400000A80090FBF1F087B200204FF4FC61CDE9ED
:104010000110059800903B48026931463846049BE0
:10402000FEF726FC002063490870487062A0FFF785
:104030008DFB0020FEF752FA04EB8400642190FB14
:10404000F1F086B2A80090FBF1F087B200204FF4A7
:10405000FC61CDE901100598009062A23146384616
:10406000049BFEF705FC04EB8400C000642190FB78
:10407000F1F086B2A80090FBF1F087B200204FF477
:10408000FC61CDE901100598009059A231463846EF
:10409000049BFEF7EDFB152058490870032048707B
:1040A0005520887005205649887004200870062025
:1040B00048702520C87008468078302141EA2010D9
:1040C0003C4908704E48807800F00F009AE00000EC
:1040D00041540000E604002041542B5645525349F8
:1040E0004F4E000041542B4E414D456D7948432DB4
:1040F0003036000041542B42415544380000000046
:104100004F4B0000F60400204F4B6C696E766F72C7
:1041100056312E38000000004F4B7365746E616D90
:10412000650000004F4B3131353230300000000067
:10413000424C2070726573656E740000360000207A
:10414000D800002000280040C400002048414C5FF7
:104150005254435F496E6974000000003D3D3D3D8F
:104160003D3D3D3D3D3D3D3D3D3D3D3D3D3D537432
:10417000617274205254432057617463683D3D3D21
:104180003D3D3D3D3D3D3D3D3D3D3D3D3D3D3D3D5F
:104190000A0D0000BC0000206D7945786368616EEF
:1041A00067650000424C206E6F7420707265736505
:1041B0006E740000D80400203D3D3D3D3D3D3D3D39
:1041C0003D3D3D41414141414141414141414141EB
:1041D0003D3D3D3D3D3D3D3D3D3D3D3D3D3D0A0D72
:1041E000000000005265616C20446174653A000073
:1041F0005265616C2054696D653A0000050000202D
:104200000100002040F030004870744840783021B0
:1042100041EA2010724988707048407800F00F0021
:1042200040F03000C8706D48C078302141EA20105D
:104230006B4908716948C07800F00F0040F0300009
:10424000487168480078302141EA2010644988713B
:104250006448007800F00F0040F03000C8716148F9
:104260004078302141EA20105D4908725D4840786D
:1042700000F00F0040F0300048725A48807830213A
:1042800041EA2010564988725648807800F00F00A5
:1042900040F03000C872012053490870FEF712FD4B
:1042A0009AE004EB84008000642190FBF1F086B278
:1042B000A80090FBF1F087B231463846FEF7E2FBEA
:1042C00004EBC400C0EB8410642190FBF1F086B2D3
:1042D000A80090FBF1F087B231463846FEF788FD22
:1042E0000320FCF709FB0E223D494048FDF7CAFFB9
:1042F00030B1012866D0022865D0032865D163E07B
:104300003B48007801282ED13848808D801E81B22C
:104310003348FFF79BFC37490870084600780609C8
:10432000324635A103A8FFF721FA3248007800F0A1
:104330000F06324630A10DF10D00FFF717FA0222E9
:1043400003A927480C30FBF7E9FF10B9FEF702FD7F
:1043500005E02020254981F8420000200863002064
:104360002349087000BF20480078012829D1FEF7B2
:1043700001FB04EB84008000642190FBF1F086B225
:10438000A80090FBF1F087B231463846FEF77AFB81
:1043900004EBC400C0EB8410642190FBF1F086B202
:1043A000A80090FBF1F087B231463846FEF720FDB9
:1043B0001248807812490870FEF784FC00200A49F0
:1043C000087002E001E000E000BF00BF0320FCF73E
:1043D000B5FA6420FCF756F863E7000001000020FE
:1043E000D8040020050000205C000020D800002038
:1043F0000000002034000020257800002800002064
:10440000350000202DE9F84F05460C462948056087
:10441000142200210068FBF799FE804625480078A9
:10442000A8EB000000F0FF094A4622480168224834
:10443000FDF744FF30B10FF2840A514625A0FFF783
:1044400085F900BF00BF244800780128FBD1002077
:1044500021490870142200212046FBF777FE06460A
:10446000301B87B20C20144988854FF4FA6001F1A3
:104470002C033A46194900900F48FDF75EFC30B115
:1044800001280FD002280ED0032810D10DE03A46A3
:1044900021461248FBF742FF10B10120BDE8F88F1A
:1044A0000020FBE703E00220F8E70320F6E700BF67
:1044B0000020F3E730000020D800002048414C5F86
:1044C000554152545F5472616E736D69745F495403
:1044D000000000002573000000000020D804002028
:1044E00002030405060708090A0B0C0D0E0F101035
:1044F000010202030405060708090A0B0C0D0E0F42
:10450000101001020000000000000000010203047E
:104510000607080900000000010203040020010052
:104520000600000000000000000000000000000085
:10453000000000000000000000000000000000007B
:10454000000000000000000000000000000000006B
:10455000000000000000000000000000000000005B
:104560000000000000000000000000000000000348
:10457000800003800003800003800003800003802C
:1045800000038000038000038000010000010000A0
:104590000000000000000380000380000000000015
:1045A000000000000000000000000000000000000B
:1045B000000000000000000000000E70000E7000FF
:1045C0000E700004200004200004200004200000DD
:1045D00000000000000000000000000000000000DB
:1045E00000000000000000000000000000000000CB
:1045F00000000000000000000000000000000006B5
:1046000060000660000660000660000660003FF87B
:10461000003FF8000660000CC0003FF8003FF800C3
:104620000CC0000CC0000CC0000CC0000CC000008E
:10463000000000000000000000000000000000007A
:104640000000000001800001800007B0000FF000B2
:104650001870001870001C00000F800007E00000B8
:10466000F0001830001C30001C70001FE0001BC060
:104670000001800001800001800001800000000036
:104680000000000000000000000000000000000723
:1046900080000FC0001CE0001860001860001CE0E3
:1046A000000FF80007E0001FF000073800061800B0
:1046B00006180007380003F00001E00000000000C9
:1046C00000000000000000000000000000000000EA
:1046D0000000000000000000000000000003F000E7
:1046E00007F0000C60000C00000C00000600000742
:1046F00000000F9C001DFC0018F0001870000FFC5B
:104700000007DC00000000000000000000000000C6
:104710000000000000000000000000000000000099
:1047200000000380000380000380000100000100FE
:104730000001000001000000000000000000000077
:104740000000000000000000000000000000000069
:104750000000000000000000000000000000000059
:104760000000000000000000180000380000700089
:1047700000F00000E00000E00001C00001C0000106
:10478000C00001C00001C00001C00000E00000E066
:1047900000007000007000003800001800000000E9
:1047A00000000000000000000000000000000018F1
:1047B00000001C00000E00000E00000700000700B3
:1047C000000380000380000380000380000380005A
:1047D0000380000700000700000F00000E00001C0F
:1047E00000001800000000000000000000000000B1
:1047F0000000000000000001800001800001800036
:104800001DB8001FF80007E00003C00003C0000649
:1048100060000660000000000000000000000000D2
:104820000000000000000000000000000000000088
:104830000000000000000000000000000000000078
:104840000000000000018000018000018000018064
:10485000000180003FFC003FFC000180000180005F
:1048600001800001800001800000000000000000C5
:104870000000000000000000000000000000000038
:104880000000000000000000000000000000000028
:104890000000000000000000000000000000000018
:1048A000000000000000000000000000E00000C068
:1048B0000001C0000180000180000300000300002F
:1048C00000000000000000000000000000000000E8
:1048D00000000000000000000000000000000000D8
:1048E000000000001FF8001FF8000000000000009A
:1048F00000000000000000000000000000000000B8
:1049000000000000000000000000000000000000A7
:104910000000000000000000000000000000000097
:104920000000000000000000000000000000000087
:10493000000000000000000000000003C00003C0F1
:104940000003C000000000000000000000000000A4
:104950000000000000000000000018000018000027
:10496000380000300000700000600000600000C0EF
:104970000000C0000180000180000300000300006F
:104980000600000600000E00000C00001C000018CD
:1049900000001800000000000000000000000000FF
:1049A0000000000000000003C00007E0000C300021
:1049B0000C300018180018180018180018180018E3
:1049C00018001818001818000C30000C300007E010
:1049D0000003C00000000000000000000000000014
:1049E00000000000000000000000000000000000C7
:1049F00080000780001F80001D8000018000018072
:104A00000001800001800001800001800001800021
:104A10000180000180001FF8001FF8000000000066
:104A20000000000000000000000000000000000086
:104A30000000000000000007C0001FF00038300038
:104A4000301800301800001800003000006000012D
:104A5000C0000380000600000C00001800003FF8B2
:104A6000003FF8000000000000000000000000000F
:104A70000000000000000000000000000000000333
:104A8000C0000FE0000C700000300000300000603B
:104A90000003C00003E000007000001800001800D0
:104AA0000018001838001FF0000FC00000000000C0
:104AB00000000000000000000000000000000000F6
:104AC0000000000000000000E00001E00001E00044
:104AD0000360000660000660000C60000C600018B7
:104AE00060003060003FF8003FF80000600003F80D
:104AF0000003F800000000000000000000000000BB
:104B00000000000000000000000000000000001F86
:104B1000F0001FF0001800001800001800001BC073
:104B2000001FF0001C3000001800001800001800E2
:104B30000018003030003FF0000FC00000000000FF
:104B40000000000000000000000000000000000065
:104B50000000000000000000F80003F8000700005B
:104B60000E00000C00001800001BC0001FF0001C0D
:104B700030001818001818001818000C38000FF032
:104B80000003E00000000000000000000000000042
:104B90000000000000000000000000000000001FF6
:104BA000F8001FF800181800183800003000003016
:104BB0000000700000600000600000E00000C00025
:104BC00000C00001C0000180000180000000000062
:104BD00000000000000000000000000000000000D5
:104BE0000000000000000007E0000FF0001C38008B
:104BF0001818001818000C300007E00007E0000C3F
:104C000030001818001818001818001C38000FF091
:104C10000007E000000000000000000000000000AD
:104C2000000000000000000000000000000000077D
:104C3000C0000FF0001C30001818001818001818D9
:104C4000000C38000FF80003D800001800003000F6
:104C500000700000E0001FC0001F00000000000006
:104C60000000000000000000000000000000000044
:104C70000000000000000000000000000000000034
:104C800000000003C00003C00003C00000000000DB
:104C9000000000000000000000000003C00003C08E
:104CA0000003C00000000000000000000000000041
:104CB00000000000000000000000000000000000F4
:104CC000000000000000000000000000F00000F004
:104CD0000000F000000000000000000000000000E4
:104CE00000E00001C000018000018000030000021C
:104CF00000000000000000000000000000000000B4
:104D000000000000000000000000000000001C0087
:104D1000003C0000F00003C0000F00003C0000F069
:104D200000003C00000F000003C00000F000003C49
:104D300000001C0000000000000000000000000057
:104D40000000000000000000000000000000000063
:104D500000000000000000000000000000007FFCD8
:104D6000007FFC000000000000007FFC007FFC00D2
:104D70000000000000000000000000000000000033
:104D80000000000000000000000000000000000023
:104D900000000000000000000000000000700000A3
:104DA0007800001E000007800001E000007800008D
:104DB0001E0000780001E0000780001E000078005F
:104DC0000070000000000000000000000000000073
:104DD00000000000000000000000000000000000D3
:104DE000000007C0000FE0001870001830001830F5
:104DF0000000700000E00003C0000380000300001A
:104E00000000000000000700000700000000000094
:104E10000000000000000000000000000000000092
:104E20000000000000000003E00007F0000E380062
:104E30000C180018780018F80019D80019980019F3
:104E4000980019980018F8001878001800000C0055
:104E5000000E180007F80003E0000000000000004A
:104E60000000000000000000000000000000000042
:104E700000001F80001FC00001C00003600003602D
:104E8000000630000630000C30000FF8001FF8005C
:104E9000180C00300C00FC7F00FC7F0000000000BC
:104EA0000000000000000000000000000000000002
:104EB000000000000000000000007FE0007FF00024
:104EC0001838001818001818001838001FF0001FB4
:104ED000F800181C00180C00180C00180C007FF8C3
:104EE000007FF00000000000000000000000000053
:104EF00000000000000000000000000000000000B2
:104F0000000003EC000FFC001C1C00180C00300C0F
:104F100000300000300000300000300000300000A1
:104F2000180C001C1C000FF80003F000000000002B
:104F30000000000000000000000000000000000071
:104F4000000000000000000000007FC0007FF000B3
:104F5000183800181800180C00180C00180C00184D
:104F60000C00180C00180C001818001838007FF0FE
:104F7000007FE000000000000000000000000000D2
:104F80000000000000000000000000000000000021
:104F900000007FF8007FF800181800181800199812
:104FA000001980001F80001F8000198000199800E0
:104FB0001818001818007FF8007FF80000000000A3
:104FC00000000000000000000000000000000000E1
:104FD000000000000000000000003FFC003FFC005B
:104FE0000C0C000C0C000CCC000CC0000FC0000F0F
:104FF000C0000CC0000CC0000C00000C00003FC042
:10500000003FC000000000000000000000000000A1
:105010000000000000000000000000000000000090
:10502000000003EC000FFC001C1C00180C00300CEE
:105030000030000030000030FE0030FE00300C0078
:10504000380C001C1C000FFC0003F00000000000E6
:105050000000000000000000000000000000000050
:10506000000000000000000000007E7E007E7E0048
:105070001818001818001818001818001FF8001F3A
:10508000F8001818001818001818001818007E7E6C
:10509000007E7E0000000000000000000000000014
:1050A0000000000000000000000000000000000000
:1050B00000001FF8001FF80001800001800001803F
:1050C000000180000180000180000180000180005B
:1050D0000180000180001FF8001FF80000000000A0
:1050E00000000000000000000000000000000000C0
:1050F0000000000000000000000007FE0007FE00A6
:10510000003000003000003000003000003000307F
:1051100030003030003030003030003060003FE090
:10512000000F8000000000000000000000000000F0
:10513000000000000000000000000000000000006F
:1051400000007F3E007F3E0018300018600018C04D
:10515000001980001B80001FC0001CE000187000B8
:105160001830001838007F1F007F1F00000000006B
:10517000000000000000000000000000000000002F
:10518000000000000000000000007F80007F800021
:105190000C00000C00000C00000C00000C00000CC7
:1051A00000000C0C000C0C000C0C000C0C007FFC24
:1051B000007FFC0000000000000000000000000074
:1051C00000000000000000000000000000000000DF
:1051D0000000F00F00F81F00381C003C3C003C3C75
:1051E00000366C00366C0033CC0033CC00318C00C0
:1051F000300C00300C00FE7F00FE7F00000000003D
:10520000000000000000000000000000000000009E
:105210000000000000000000000078FE0078FE00A2
:105220001C18001E18001F18001B18001B980019DE
:10523000D80018D80018F8001878001838007F181F
:10524000007F1800000000000000000000000000C7
:10525000000000000000000000000000000000004E
:10526000000003C0000FF0001C3800181800381CA4
:1052700000300C00300C00300C00300C00381C00EA
:105280001818001C38000FF00003C00000000000D8
:10529000000000000000000000000000000000000E
:1052A000000000000000000000003FF0003FF80098
:1052B0000C1C000C0C000C0C000C0C000C18000F4B
:1052C000F8000FE0000C00000C00000C00003FC0D4
:1052D000003FC000000000000000000000000000CF
:1052E00000000000000000000000000000000000BE
:1052F000000003C0000FF0001C3800181800381C14
:1053000000300C00300C00300C00300C00381C0059
:105310001818001C38000FF00007C00007CC000F61
:10532000FC000C380000000000000000000000003D
:10533000000000000000000000007FE0007FF0009F
:105340001838001818001818001838001FF0001F2F
:10535000C00018E0001870001830001838007F1ED8
:10536000007F0E00000000000000000000000000B0
:10537000000000000000000000000000000000002D
:10538000000007D8000FF8001C3800181800181883
:10539000001E00000FC00003F00000780018180085
:1053A0001818001C38001FF0001BE000000000006F
:1053B00000000000000000000000000000000000ED
:1053C000000000000000000000003FFC003FFC0067
:1053D000318C00318C00318C00318C000180000157
:1053E00080000180000180000180000180000FF03A
:1053F000000FF000000000000000000000000000AE
:10540000000000000000000000000000000000009C
:1054100000007E7E007E7E00181800181800181804
:10542000001818001818001818001818001818008C
:105430001818000C30000FF00003C000000000003E
:10544000000000000000000000000000000000005C
:10545000000000000000000000007F7F007F7F0050
:10546000180C000C18000C18000C18000630000670
:10547000300003600003600003600001C00001C051
:10548000000080000000000000000000000000009C
:10549000000000000000000000000000000000000C
:1054A0000000FE3F80FE3F80300600300600308660
:1054B0000019CC0019CC001B6C001B6C001E7C007A
:1054C0000E38000E38000C18000C18000000000008
:1054D00000000000000000000000000000000000CC
:1054E000000000000000000000007E7E007E7E00C4
:1054F0001818000C300006600003C0000180000195
:10550000800003C0000660000C30001818007E7E8A
:10551000007E7E000000000000000000000000008F
:10552000000000000000000000000000000000007B
:1055300000007C7E007C7E001818000C30000660A5
:105540000006600003C000018000018000018000AF
:105550000180000180000FF0000FF000000000004B
:10556000000000000000000000000000000000003B
:10557000000000000000000000001FF8001FF800FD
:1055800018180018300018600018C00001800003CF
:1055900000000618000C18001818003018003FF81A
:1055A000003FF800000000000000000000000000C4
:1055B00000000000000000000000000000000001EA
:1055C000F00001F0000180000180000180000180F6
:1055D0000001800001800001800001800001800046
:1055E0000180000180000180000180000180000135
:1055F000F00001F0000000000000000000000000CA
:10560000001800001800001C00000C00000E000034
:1056100006000006000003000003000001800001F6
:10562000800000C00000C00000600000600000704A
:1056300000003000003800001800001800000000D2
:105640000000000000000000000000000000000F4B
:1056500080000F8000018000018000018000018037
:1056600000018000018000018000018000018000B5
:105670000180000180000180000180000180000F96
:1056800080000F800000000000000000000000000B
:105690000000000000800001C00003E0000770006F
:1056A0000630000C1800180C001004000000000068
:1056B00000000000000000000000000000000000EA
:1056C00000000000000000000000000000000000DA
:1056D00000000000000000000000000000000000CA
:1056E00000000000000000000000000000000000BA
:1056F00000000000000000000000000000000000AA
:105700000000000000000000000000000000000099
:105710000000000000000000000000FFFF00FFFF8D
:105720000000000003000003800000E000006000B3
:105730000000000000000000000000000000000069
:105740000000000000000000000000000000000059
:105750000000000000000000000000000000000049
:105760000000000000000000000000000000000039
:1057700000000000000000000000000FC0001FE05B
:105780000000300000300007F0001FF0003830004B
:105790003030003070001FFC000FBC000000000023
:1057A00000000000000000000000000000000000F9
:1057B00000000000000000780000780000180000E1
:1057C0001800001BE0001FF8001C1800180C00183F
:1057D0000C00180C00180C00180C001C18007FF8A6
:1057E000007BE0000000000000000000000000005E
:1057F00000000000000000000000000000000000A9
:10580000000000000000000000000003EC000FFC9E
:10581000001C1C00380C00300C0030000030000070
:10582000380C001C1C000FF80003F0000000000002
:105830000000000000000000000000000000000068
:105840000000000000000000780000780000180050
:1058500000180007D8001FF8001838003018003072
:1058600018003018003018003018001838001FFEDB
:105870000007DE0000000000000000000000000043
:105880000000000000000000000000000000000018
:10589000000000000000000000000007E0001FF80A
:1058A00000181800300C003FFC003FFC00300000E6
:1058B000300000180C001FFC0007F0000000000082
:1058C00000000000000000000000000000000000D8
:1058D0000000000000000001FC0003FC00060000C6
:1058E0000600003FF8003FF8000600000600000632
:1058F00000000600000600000600000600003FF061
:10590000003FF00000000000000000000000000068
:105910000000000000000000000000000000000087
:10592000000000000000000000000007DE001FFE75
:1059300000183800301800301800301800301800F7
:105940003018001838001FF80007D80000180000B1
:1059500018000038000FF0000FC000000000000029
:10596000000000000000007800007800001800002F
:105970001800001BE0001FF0001C38001818001869
:1059800018001818001818001818001818007E7E43
:10599000007E7E000000000000000000000000000B
:1059A00000000000000000000000000000000001F6
:1059B00080000180000000000000001F80001F80A8
:1059C0000001800001800001800001800001800052
:1059D0000180000180003FFC003FFC00000000004F
:1059E00000000000000000000000000000000000B7
:1059F0000000000000000000C00000C00000000027
:105A00000000001FF0001FF0000030000030000018
:105A10003000003000003000003000003000003066
:105A2000000030000030000030000070001FE00077
:105A30001F80000000000000000000000000003C8B
:105A400000003C00000C00000C00000CF8000CF8FA
:105A5000000CC0000D80000F80000F00000F8000C0
:105A60000DC0000CE0003C7C003C7C00000000000D
:105A70000000000000000000000000000000000026
:105A8000000000000000001F80001F800001800057
:105A90000180000180000180000180000180000180
:105AA00080000180000180000180000180003FFC37
:105AB000003FFC00000000000000000000000000AB
:105AC00000000000000000000000000000000000D6
:105AD0000000000000000000000000F77800FFFC5C
