:020000040800F2
:10000000D80E002005010008DD270008BD220008E9
:10001000D9270008BD020008DD34000800000000F8
:100020000000000000000000000000004131000856
:10003000C102000800000000DF270008433100086B
:100040001F0100081F0100081F0100085D290008AA
:100050001F0100081F010008C30200081F0100085B
:100060001F0100081F0100081F0100081F010008F0
:100070001F0100081F0100081F0100081F010008E0
:100080001F0100081F0100081F0100081F010008D0
:100090001F0100081F0100081F0100081F010008C0
:1000A0001F0100081F0100081F0100081F010008B0
:1000B0001F0100081F0100081F0100081F010008A0
:1000C0001F0100081F0100081F0100081F01000890
:1000D0001F0100081F010008CD3400081F0100089F
:1000E0001F010008092800081F010008DFF810D0D0
:1000F00000F04CF80048004715390008AFF30080C5
:10010000D80E00200648804706480047FEE7FEE775
:10011000FEE7FEE7FEE7FEE7FEE7FEE7FEE7FEE7B7
:10012000D3310008ED000008D2B201E000F8012B45
:10013000491EFBD270470022F6E710B513460A4667
:1001400004461946FFF7F0FF204610BDCBB203E08E
:100150000178994203D0401C521EF9D2002070470A
:1001600030B50B46014600202022012409E021FA87
:1001700002F59D4205D303FA02F5491B04FA02F584
:100180002844151EA2F10102F1DC30BD064C074DDA
:1001900006E0E06840F0010394E807009847103457
:1001A000AC42F6D3FFF7A6FF042501082425010879
:1001B00010B501244FF6FF700C4948600C48886068
:1001C000002008600B480C490860096808688047EF
:1001D0004FF6FF7002F092F80A2000F001F907488C
:1001E00000F00EF80024204610BD0000E2040020BC
:1001F00050000020980000207C00002070000020AB
:100200000149886070470000E204002010B586B004
:10021000044600BF6CB900BF1448806940F010006C
:10022000124988610846806900F01000019000BF03
:1002300000BF00BF0E4830F8140002900120039068
:1002400000200490032005900A4951F8240002A9D7
:1002500000F084F9064A32F81410064A52F82400D5
:10026000002200F015FB06B010BD00000010024097
:100270000C4000084400002010B50446044A32F83F
:100280001410044A52F82400012200F001FB10BDB2
:100290000C4000084400002010B5034607E0187821
:1002A0000C78A04201D0104610BD5B1C491C101EEA
:1002B000A2F10104A2B2F2D100BFF5E700BFFEE750
:1002C000704710B5012000F03BF910BD03E04FF47A
:1002D0007A7000F085F8FAE70146002291F82100D3
:1002E000022808D00420886300BF002081F8200085
:1002F00000BF012070470868006820F00E000B68FE
:1003000018600868006820F001000B68186091F818
:10031000403001209840CB6B5860012081F82100CB
:1003200000BF002081F8200000BF1046E2E7000077
:1003300070B50446002594F82100022803D004205B
:10034000A063012548E02068006820F00E002168C5
:1003500008602068006820F00100216808601F49DB
:100360002068884201D1012026E01C491431206810
:10037000884201D110201FE01849283120688842A6
:1003800001D1801518E015493C312068884201D11F
:10039000801411E0114950312068884202D14FF495
:1003A000803009E00D4964312068884202D14FF461
:1003B000801001E04FF08070084908394860012042
:1003C00084F8210000BF002084F8200000BF606B8B
:1003D00010B12046616B8847284670BD0800024076
:1003E00070B5044600F05AFA06462546681C10B15E
:1003F00004480078054400BF00F050FA801BA84272
:10040000FAD370BD3C0000202DE9F04102460B46B6
:10041000002080E00127874007EA0301002979D006
:10042000404F4FEA900C57F82C4087074FEA177C53
:100430000F2707FA0CF73C403B4FBA4201D1002787
:100440000FE03A4FBA4201D101270AE0384FBA42D1
:1004500001D1022705E0374FBA4201D1032700E05E
:1004600004274FEA807C4FEA1C7C07FA0CF7A7426E
:1004700031D1314F3F688F43DFF8BCC0CCF80070FA
:100480000CF104073F688F430CF1040CCCF80070AA
:10049000294F0C373F688F43DFF89CC00CF10C0CE0
:1004A000CCF80070ACF104073F688F43ACF1040C4A
:1004B000CCF8007087074FEA177C0F2707FA0CF477
:1004C000184F4FEA900C57F82CC02CEA040C4FEA56
:1004D000900847F828C0FF2901D8174600E0171DEB
:1004E0003D46FF2901D8870002E0A0F10807BF00C0
:1004F0003E462F684FF00F0C0CFA06FC27EA0C075B
:100500004FF0040C0CFA06FC47EA0C072F60D76882
:100510008F43D760401C23FA00F7002F7FF47AAF97
:10052000BDE8F0810800014000080140000C0140D6
:100530000010014000140140000401407047000019
:1005400010B5044604480068204020B10248046009
:100550002046FFF7F3FF10BD140401402DE9F847D2
:100560000346002294466EE14FF0010808FA02F4B7
:10057000D1F8008008EA0400A0427DD1DFF8DCA2B7
:10058000D1F80480A8EB0A09D0453AD014DCB8F1C0
:10059000030F50D009DCB8F1000F31D0B8F1010FD2
:1005A0001CD0B8F1020F49D120E0B8F1110F18D0DA
:1005B000B8F1120F42D11EE0B9F5881F25D006DC34
:1005C000B9F5803F20D0B9F5801F37D11AE0B9F5D1
:1005D000001F18D0B9F5041F30D117E0D1F80CC0B6
:1005E0002DE0D1F80C8008F1040C28E0D1F80C8043
:1005F00008F1080C23E0D1F80C8008F10C0C1EE087
:1006000000BF00BF00BF00BF00BF00BFD1F808801F
:10061000B8F1000F02D14FF0040C0BE0D1F80880C4
:10062000B8F1010F03D14FF0080C1C6102E04FF04C
:10063000080C5C6103E04FF0000C00E000BF00BF5D
:10064000FF2801D8984601E003F104084646FF2838
:1006500002D84FEA820803E0A2F108084FEA8808AE
:100660004746D6F800804FF00F0909FA07F928EA43
:1006700009080CFA07F900E088E048EA0908C6F81A
:100680000080D1F8048008F08058B8F1805F7DD1F7
:1006900000BFDFF8CC81D8F8188048F00108DFF8F7
:1006A000C091C9F81880C846D8F8188008F0010829
:1006B000CDF8008000BF00BF4FEAB9384FEA920979
:1006C00058F829504FEA82784FEA18794FF00F080E
:1006D00008FA09F825EA0805DFF88881434502D1C0
:1006E0004FF0000816E0DFF88081434502D14FF05B
:1006F00001080FE0DFF87481434502D14FF0020892
:1007000008E0DFF86C81434502D14FF0030801E0B7
:100710004FF004084FEA82794FEA197908FA09F88C
:1007200048EA0505DFF84C814FEA920948F829505C
:10073000D1F8048008F48018B8F5801F0AD1DFF8DA
:100740003881D8F8008048EA0008DFF82C91C9F811
:10075000008009E0DFF82081D8F8008028EA00084E
:10076000DFF81491C9F80080D1F8048008F400186B
:10077000B8F5001F10D1DFF8008108F10408D8F89F
:10078000008048EA0008DFF8F09000E05AE009F144
:100790000409C9F800800DE0DFF8DC8008F10408E6
:1007A000D8F8008028EA0008DFF8CC9009F10409A5
:1007B000C9F80080D1F8048008F40038B8F5003F8B
:1007C0000ED1DFF8B480A8F10408D8F8008048EA18
:1007D0000008DFF8A490A9F10409C9F800800DE031
:1007E000DFF89480A8F10408D8F8008028EA00080F
:1007F000DFF88490A9F10409C9F80080D1F80480D9
:1008000008F48038B8F5803F0ED1DFF86C80A8F18D
:100810000808D8F8008048EA0008DFF85C90A9F1E1
:100820000809C9F800800DE0DFF84C80A8F108083D
:10083000D8F8008028EA0008DFF83C90A9F1080900
:10084000C9F80080521CD1F8008028FA02F8B8F1EB
:10085000000F7FF489AEBDE8F8870000000011109A
:100860000010024000080140000C0140001001404F
:1008700000140140080001400804014010B5C2689E
:1008800021EA020302EA010443EA0443036110BDC2
:100890000AB1016101E00B0403617047014800687F
:1008A00070470000340000200348006803490978BD
:1008B0000844014908607047340000203C000020D3
:1008C00010B50848006840F0100006490860032091
:1008D00000F0A8F80F2000F007F800F02BF8002037
:1008E00010BD00000020024070B504460E4800789C
:1008F0004FF47A71B1FBF0F00C490968B1FBF0F5E7
:10090000284601F0FDF908B1012070BD102C07D276
:1009100000222146501E00F047F80548046001E01F
:100920000120F2E70020F0E73C000020400000201A
:100930003800002008B500BF1148806940F0010070
:100940000F4988610846806900F00100009000BFEF
:1009500000BF00BF0846C06940F08050C86108462B
:10096000C06900F08050009000BF00BF00BF054983
:10097000486820F0E06040F08070486000BF08BD2B
:10098000001002400000014001460846002809DB33
:1009900000F01F0301229A4043099B0003F1E0236A
:1009A000C3F8002100BF70472DE9F05F80460D4677
:1009B0001646002702F0B8FD074639462A46334658
:1009C00001F00700C0F1070ABAF1040F02D94FF095
:1009D000040A01E0C0F1070AD14600F1040ABAF1A5
:1009E000070F02D24FF0000A01E0A0F1030AD4463B
:1009F0004FF0010A0AFA09FAAAF1010A0AEA020A00
:100A00000AFA0CFA4FF0010B0BFA0CFBABF1010BDD
:100A10000BEA030B4AEA0B042146404602F08CFD28
:100A2000BDE8F09F00BF00F00702064B19684FF6C3
:100A3000FF031940044B0B4343EA0221014B1960A9
:100A400000BF70470CED00E00000FA0501200149ED
:100A50000862704700000E422DE9F04706464FF04D
:100A60000008002500270024A146012E31D0022EC7
:100A700056D0102E5FD132484468006800F0807074
:100A800008B33048C4F38341475C04F4803078B144
:100A90002B484068C0F340402B4911F8008004F413
:100AA000803040B12948B0FBF8F000FB07F502E0C8
:100AB000274807FB00F52248406800F48000B0F5A5
:100AC000800F01D1A94603E068000321B0FBF1F9D2
:100AD00032E01B48046A04F44070B0F5807F05D111
:100AE00004F0020010B14FF4004918E004F4407023
:100AF000B0F5007F07D11248406A00F0020010B143
:100B000049F640490BE004F44070B0F5407F06D14F
:100B10000B48006800F4003008B14FF224490BE0A4
:100B200000F08CF906494968C1F38131491C49003C
:100B3000B0FBF1F900E000BF00BF4846BDE8F08718
:100B400000100240E23F0008F23F000800127A0065
:100B500000093D00F8B5044600260025207800F085
:100B6000010000286BD000274348C06900F0805086
:100B700070B900BF4048C06940F080503E49C8612C
:100B80000846C06900F08050009000BF00BF0127F8
:100B90003A48006800F48070B0B93848006840F402
:100BA000807036490860FFF779FE064606E0FFF7D9
:100BB00075FE801B642801D90320F8BD2F4800680A
:100BC00000F480700028F2D02B48006A00F44075D1
:100BD0002DB3A08800F44070A84220D02648006AB7
:100BE00020F4407501202649086000200860224852
:100BF000056205F0010090B1FFF750FE064608E0DF
:100C0000FFF74CFE801B41F28831884201D9032056
:100C1000D3E71948006A00F002000028F0D0164817
:100C2000006A20F440706168084313490862012F8C
:100C300004D10846C06920F08050C86100BF207808
:100C400000F00200022807D10B48406820F4404021
:100C5000A168084308494860207800F01000102877
:100C600007D10548406820F48000E1680843024944
:100C700048600020A1E70000001002400070004022
:100C80004004424270B504460D460CB9012070BDC7
:100C90005A48006800F00700A8420ED25748006882
:100CA00020F007002843554908600846006800F016
:100CB0000700A84201D00120E9E7207800F00200F7
:100CC00002281DD1207800F00400042805D14C48EA
:100CD000406840F4E0604A494860207800F008002D
:100CE000082805D14648406840F4605044494860AF
:100CF0004348406820F0F000A1680843404948603C
:100D0000207800F0010078B36068012806D13C48E3
:100D1000006800F4003090B90120B8E7606802284C
:100D200006D13748006800F0007040B90120AEE7F6
:100D30003348006800F0020008B90120A7E73048F6
:100D4000406820F00300616808432D494860FFF7C0
:100D5000A5FD064609E0FFF7A1FD801B41F28831A1
:100D6000884202D9032092E707E02548406800F056
:100D70000C006168B0EB810FEDD12048006800F0F5
:100D80000700A8420ED91D48006820F0070028433C
:100D90001A4908600846006800F00700A84201D020
:100DA000012074E7207800F00400042807D11448DB
:100DB000406820F4E060E168084311494860207809
:100DC00000F00800082808D10D48406820F4605061
:100DD000216940EAC1000A49486000F03FF808492B
:100DE0004968C1F30311074A515CC84006490860CD
:100DF00006480068FFF778FD002048E70020024021
:100E000000100240F43F000840000020380000209D
:100E100001480068704700004000002000B5FFF75F
:100E2000F7FF04494968C1F30221034A515CC840F5
:100E300000BD0000001002400440000800B5FFF7AC
:100E4000E7FF04494968C1F3C221034A515CC84025
:100E500000BD0000001002400440000870B50021F1
:100E60000022002400230020134D696801F00C05C6
:100E7000F5B1042D02D0082D19D101E00F4819E079
:100E80000F4DC1F38346AB5D01F4803555B10A4D7A
:100E90006D68C5F340450B4E725D084D5D43B5FB73
:100EA000F2F402E0084D03FB05F4204602E000BF27
:100EB000024800BF00BF70BD0010024000127A005F
:100EC000D03F0008E03F000800093D00F8B50446A7
:100ED0000CB90120F8BD207800F00100002878D07E
:100EE000F848406800F00C0004280CD0F548406831
:100EF00000F00C00082811D1F248406800F480305E
:100F0000B0F5803F0AD1EF48006800F400300028B7
:100F10005FD0606800285CD10120DBE700BF60681B
:100F2000B0F5803F06D1E748006840F48030E549DD
:100F3000086028E0606858B9E248006820F4803012
:100F4000E04908600846006820F4802008601AE044
:100F50006068B0F5A02F0BD1DA48006840F480201B
:100F6000D84908600846006840F4803008600AE00C
:100F7000D448006820F48030D249086008460068F0
:100F800020F48020086000BF606888B1FFF786FC0D
:100F9000054606E0FFF782FC401B642801D90320C8
:100FA00098E7C848006800F400300028F2D010E04C
:100FB000FFF774FC054606E0FFF770FC401B642851
:100FC00001D9032086E7BF48006800F400300028FC
:100FD000F2D1207800F00200022857D1B9484068C9
:100FE00000F00C0050B1B748406800F00C00082831
:100FF00018D1B448406800F4803098B9B14800680E
:1010000000F0020020B12069012801D0012061E731
:10101000AC48006820F0F800616940EAC100A949C5
:10102000086033E02069E8B10120A7490860FFF7B4
:1010300035FC054606E0FFF731FC401B022801D9CC
:10104000032047E79F48006800F002000028F2D024
:101050009C48006820F0F800616940EAC1009949A5
:10106000086013E0002098490860FFF717FC054668
:1010700006E0FFF713FC401B022801D9032029E7F3
:101080009048006800F002000028F2D1207800F0BB
:10109000080008282DD1A069B8B101208B4908604B
:1010A000FFF7FCFB054606E0FFF7F8FB401B0228B4
:1010B00001D903200EE78348406A00F002000028AF
:1010C000F2D0012001F08CFB13E000207F49086082
:1010D000FFF7E4FB054606E0FFF7E0FB401B0228B4
:1010E00001D90320F6E67748406A00F002000028A4
:1010F000F2D1207800F00400042873D10027714851
:10110000C06900F0805070B900BF6E48C06940F0FF
:1011100080506C49C8610846C06900F0805000905A
:1011200000BF00BF01276A48006800F48070B0B9B2
:101130006748006840F4807065490860FFF7AEFBBF
:10114000054606E0FFF7AAFB401B642801D90320EF
:10115000C0E65F48006800F480700028F2D000BF4D
:10116000E068012806D15748006A40F0010055495F
:10117000086227E0E06858B95248006A20F0010090
:10118000504908620846006A20F00400086219E02D
:10119000E06805280BD14B48006A40F0040049493B
:1011A00008620846006A40F0010008620AE045480B
:1011B000006A20F00100434908620846006A20F0F6
:1011C0000400086200BFE068A0B1FFF767FB0546B6
:1011D00009E0FFF763FB401B41F28831884202D9E6
:1011E000032077E622E03748006A00F0020000287A
:1011F000EFD012E0FFF752FB054608E0FFF74EFB89
:10120000401B41F28831884201D9032062E62D4813
:10121000006A00F002000028F0D1012F05D1294812
:10122000C06920F080502749C86100BFE069C8B399
:101230002448406800F00C00082860D0E0690228CB
:1012400048D1002020490866FFF728FB054606E044
:10125000FFF724FB401B022801D903203AE6194876
:10126000006800F000700028F2D1206AB0F5803FDD
:1012700007D11448406820F40030A16808431149A0
:101280004860D4E9080108430E49496821F4741103
:1012900008430C49486001200B490866FFF7FEFA35
:1012A000054607E03DE0FFF7F9FA401B022801D9A7
:1012B00003200FE60348006800F000700028F2D019
:1012C0002FE0000000100240000042428004424231
:1012D00000700040002014490866FFF7DFFA054659
:1012E00006E0FFF7DBFA401B022801D90320F1E5F5
:1012F0000E48006800F000700028F2D111E0E069AB
:10130000012800D1E6E50948466806F48031206AE4
:10131000814204D106F47011606A814201D001203B
:10132000D8E50020D6E5000000004242001002404F
:1013300010B5044600220749204600F05BF88221E0
:101340000A2001F053FB4FF400510348FFF796FACF
:1013500010BD00002400002000100140704710B5AF
:1013600004462068006800F00100F0B12068406881
:1013700000F00100C8B120684068C0F3800048B1A7
:101380002046FFF7EBFF6FF004002168486004205F
:10139000607404E02046FFF7CBFF012060742068F2
:1013A000406820F001002168486010BD10B5044677
:1013B0000020FEF761FF10BD10B5044620680068EC
:1013C000C0F3400068B120684068C0F3400040B1FD
:1013D0002046FFF7EBFF2068406820F002002168FC
:1013E00048604FF40030024908600120607410BD6D
:1013F000140401402DE9F04780460C469146002533
:101400000026AA460027B8F1000F00D014B9012029
:10141000BDE8F087D8F800004068C0F3800008B14C
:101420000120F5E7404601F0C6FA05464FF4616039
:10143000B5FBF0F7B5FBF0F100FB11503C21B0FB20
:10144000F1F060704FF46160B5FBF0F100FB1150FA
:101450003C21B0FBF1F201FB1200A070182F39D330
:101460001820B7FBF0FAB7FBF0F100FB1170207009
:10147000404601F094FA0646701C18B1AE4201D9FC
:10148000761B01E04FF0FF360AEB4A00C000C0EBCC
:101490004011C1EB0020A5EB00152946404601F0A4
:1014A00050FB08B10120B3E7701C38B12E4431461F
:1014B000404601F02FFB40B10120A9E731464046EC
:1014C00001F028FB08B10120A2E75146404601F097
:1014D000B0F900E02770B9F1000F0BD0207801F0CF
:1014E0009BF92070607801F097F96070A07801F0A6
:1014F00093F9A07000208BE770B5044600250CB965
:10150000012070BD607C20B900202074204600F0CE
:1015100053F802206074204600F08AF818B10420C5
:1015200060740120EDE7204601F0DEF918B10420D7
:1015300060740120E5E72068406820F0070021681A
:101540004860A06828B11B48006820F001001949D4
:1015500008601848001F006820F46070A168084304
:101560001449091F08606068401C08B1656809E0FB
:101570000120FFF771FA05461DB9042060740120AF
:10158000BFE76D1EC5F3034021688860A8B22168DB
:10159000C860204601F0C5F918B10420607401202C
:1015A000AFE70021E17301216173A1730120607431
:1015B0000020A6E7306C004010B590B0044600BF94
:1015C0001948C06940F080501749C8610846C06991
:1015D00000F08050019000BF00BFFFF737FA0C20E9
:1015E000069000200D900120099000200C9006A884
:1015F000FFF76CFC08B1FEF769FE012002900002C3
:10160000039002A8FFF7A6FA08B1FEF75FFE0120DB
:1016100006490860002205210320FFF7C5F90320D1
:10162000FFF7B2F910B010BD001002403C04424276
:1016300070B5044600250CB9012070BD20684068D3
:1016400020F0080021684860FFF728F9054607E008
:10165000FFF724F9401BB0F57A7F01D90320ECE7AE
:101660002068406800F008000028F1D00020E4E77E
:1016700010B504460CB9012010BD022084F85100B9
:101680002068006820F0400021680860204600F0D3
:1016900075F80020606584F8510000BF84F85000A0
:1016A00000BF00BFE8E7014691F8510070470146CE
:1016B00009B901207047486A38B94868B0F5827F97
:1016C00000D105E00022CA6102E000220A614A61FD
:1016D000886AB0F5005F00D100BF91F8510010B9E1
:1016E000002081F85000022081F85100086800684D
:1016F00020F040000A681060888800F482700A892F
:1017000002F4044210438A8902F4006210430A7C06
:1017100002F0020210430A7D02F0010210430A8B1C
:1017200002F4007210430A7F02F0380210432022B4
:10173000525C02F0800210430A8D02F40052104302
:101740000A6810600422886902EA10400A68506042
:10175000886AB0F5005F03D1888D80B20A68106195
:101760000868C06920F400600A68D06100204865FC
:10177000012081F8510000209CE7000010B50446CC
:101780000749206888420AD10648C06920F4804091
:101790000449C8614FF470410348FEF735FE10BD9F
:1017A0000038004000100240000C01402DE9F843D1
:1017B00004460F4616461D46FFF770F88046B146B0
:1017C00094F85100012802D00220BDE8F88307B147
:1017D0000EB90120F9E700BF94F85000012801D1AB
:1017E0000220F2E7012084F8500000BF032084F8B3
:1017F0005100002060652763A686E686A063A08767
:10180000E08760642064A068B0F5004F0BD12068C9
:10181000006820F04000216808602068006840F4FB
:10182000804021680860A06AB0F5005F0DD100BF5C
:101830002068006820F40050216808602068006873
:1018400040F400502168086000BF2068006800F084
:101850004000402805D02068006840F04000216822
:101860000860E068B0F5006F37D1606810B1B9F179
:10187000010F09D1206B00882168C860206B801C93
:101880002063E08E401EE08623E02068806800F040
:10189000020002280AD1206B00882168C860206BF2
:1018A000801C2063E08E401EE08612E0FEF7F6FF0B
:1018B000A0EB0800A84201D3681C00B94DB9012073
:1018C00084F8510000BF002084F8500000BF0320BE
:1018D0007BE7E08E0028D8D136E0606810B1B9F11E
:1018E000010F09D1206B007821680873206B401C20
:1018F0002063E08E401EE08623E02068806800F0D0
:10190000020002280AD1206B007821680873206B3E
:10191000401C2063E08E401EE08612E0FEF7BEFF12
:10192000A0EB0800A84201D3681C00B94DB9012002
:1019300084F8510000BF002084F8500000BF03204D
:1019400043E7E08E0028D8D1A06AB0F5005F05D14A
:101950002068006840F480502168086042462946AB
:10196000204601F005F908B120206065A06850B953
:1019700000BF002000902068C06800902068806848
:10198000009000BF00BF012084F8510000BF00207C
:1019900084F8500000BF606D08B1012015E70020F9
:1019A00013E72DE9FF5F0446884691461D460E9ECB
:1019B0000020029001200190FEF770FF074694F886
:1019C00051B060680390AA46BBF1010F0CD0039898
:1019D000B0F5827F04D1A06810B9BBF1040F03D029
:1019E000022004B0BDE8F09FB8F1000F03D0B9F1B8
:1019F000000F00D00DB90120F3E700BF94F85000AC
:101A0000012801D10220ECE7012084F8500000BF3A
:101A100094F85100042802D0052084F851000020D9
:101A20006065C4F83890E587A587C4F83080E586FE
:101A3000A58620646064A06AB0F5005F0DD100BF88
:101A40002068006820F40050216808602068006861
:101A500040F400502168086000BF2068006800F072
:101A60004000402805D02068006840F04000216810
:101A70000860E068B0F5006F69D1606810B1BAF134
:101A8000010F15D1206B00882168C860206B801C75
:101A90002063E08E401EE086E08E48B9A06AB0F573
:101AA000005F05D12068006840F48050216808601C
:101AB00046E02068806800F0020002281CD1E08E19
:101AC000D0B10198012817D1206B00882168C86027
:101AD000206B801C2063E08E401EE0860020019079
:101AE000E08E48B9A06AB0F5005F05D120680068B3
:101AF00040F48050216808602068806800F0010090
:101B000068B1E08F58B12068C068A16B0880A06BF5
:101B1000801CA063E08F401EE08701200190FEF74B
:101B2000BDFEC01BB0420BD3701C48B1012084F82D
:101B3000510000BF002084F8500000BF032050E790
:101B4000E08E0028B5D1E08F0028B2D169E060684E
:101B500010B1BAF1010F15D1206B0078216808731C
:101B6000206B401C2063E08E401EE086E08E48B96A
:101B7000A06AB0F5005F05D12068006840F480508D
:101B80002168086047E02068806800F002000228B1
:101B90001CD1E08ED0B10198012817D1206B0078BC
:101BA00021680873206B401C2063E08E401EE08695
:101BB00000200190E08E48B9A06AB0F5005F05D121
:101BC0002068006840F480502168086020688068C0
:101BD00000F0010068B1E08F58B12068C068A16BC7
:101BE0000870A06B401CA063E08F401EE0870120BE
:101BF0000190FEF753FEC01BB04201D3701C00B928
:101C00004EB9012084F8510000BF002084F8500034
:101C100000BF0320E5E6E08E0028B4D1E08F002865
:101C2000B1D1A06AB0F5005F19D133460122114647
:101C30002046009700F0C2FF68B1606D40F00200DE
:101C40006065012084F8510000BF002084F8500036
:101C500000BF0320C5E62068C068029000BF20686E
:101C60008068C0F3001008B3204600F0A3FF0128ED
:101C700018D1606D40F00200606500BF2068006808
:101C800020F40050216808602068006840F400508B
:101C90002168086000BF00BF002084F8500000BF2A
:101CA00001209EE64FF6EF70216888603A46314683
:101CB000204600F05DFF40B12020606500BF00209D
:101CC00084F8500000BF01208BE6A06850B900BF27
:101CD000002000902068C068009020688068009014
:101CE00000BF00BF012084F8510000BF002084F82D
:101CF000500000BF606D08B1012072E6002070E660
:101D000070B504462546681EB0F1807F01D30120DE
:101D10000FE0681E4FF0E02148610F214FF0FF30C7
:101D200001F00AFC00204FF0E021886107200861E3
:101D3000002070BD2DE9F84F04460F4690461D4621
:101D4000DDF828A094F84200202878D117B1B8F126
:101D5000000F02D10120BDE8F88F0020606422202E
:101D600084F842000120206300206063FEF796FDA6
:101D70008346A4F82C80A4F82E80A068B0F5805F7C
:101D800004D1206910B90026B94602E03E464FF062
:101D900000090020288053E02068006800F010004F
:101DA000102813D100BF0020009020680068009028
:101DB00020684068009000BF00BF288830B1022032
:101DC0006063202084F842000020C4E72068006897
:101DD00000F02000202821D146B920684068C0F3D7
:101DE0000800A9F8000009F1020911E0A068B0F5A7
:101DF000805F03D0A06828B9206918B920684068BE
:101E0000307004E02068406800F07F003070761C7D
:101E10002888401C2880E08D401EE0850AF10100E2
:101E200070B1FEF73BFDA0EB0B00504502D8BAF1B4
:101E3000000F05D1202084F8420003208BE70BE03F
:101E4000E08D0028A8D1A08DE18D401A28802020A7
:101E500084F8420000207EE702207CE7704770474C
:101E60002DE9F84F0446206805682068C668206898
:101E700047694FF00009CA4605F00F09B9F1000F94
:101E80000FD105F0200060B106F0200048B1B04845
:101E90000078401CAE490870204601F0EBF9BDE81F
:101EA000F88FB9F1000F7BD007F0010018B906F4E4
:101EB0009070002874D005F0010030B106F48070F5
:101EC00018B1606C40F00100606405F0040030B1AE
:101ED00007F0010018B1606C40F00200606405F08A
:101EE000020030B107F0010018B1606C40F004004E
:101EF000606405F0080048B106F0200010B907F052
:101F0000010018B1606C40F008006064606C00284B
:101F100045D005F0200028B106F0200010B1204681
:101F200001F0A8F920684069C0F3801A606C00F0E5
:101F3000080010B9BAF1000F2CD0204601F054F976
:101F40002068406900F0400000B300BF00BF216876
:101F5000143151E8001F21F040002168143141E89C
:101F60000002002AF3D100BFE06B50B17948E16B69
:101F70004863E06BFEF7DCF988B1E06B416B8847A2
:101F80000DE02046FFF76BFF09E009E02046FFF770
:101F900066FF04E02046FFF762FF002060647EE7F2
:101FA000206B012877D105F01000002873D006F0CF
:101FB00010000028FAD000BF0020009020680068C0
:101FC000009020684068009000BF00BF2068406912
:101FD00000F0400000285FD0E06B006840681FFA06
:101FE00080F8B8F1000F55D0A08D404552DDA4F81F
:101FF0002E80E06B8069202843D000BF00BF21689D
:102000000C3151E8001F21F4807021680C3141E847
:102010000002002AF3D100BF00BF00BF21681431C5
:1020200051E8001F21F001002168143141E800024D
:10203000002AF3D100BF00BF00BF2168143151E86E
:10204000001F21F040002168143141E80002002AFD
:10205000F3D100BF202084F842000020206300BF9D
:1020600000BF21680C3151E8001F21F010002168E9
:102070000C3141E80002002AF3D100BFE06BFEF70B
:102080002BF902206063A08DE28D801A81B2204678
:10209000FFF7E4FE03E745E0A08DE18D401A1FFA4B
:1020A00080F8E08DD0B3B8F1000F37D000BF00BF8B
:1020B00021680C3151E8001F21F4907021680C3127
:1020C00041E80002002AF3D100BF00BF00BF216831
:1020D000143151E8001F21F001002168143141E85A
:1020E0000002002AF3D100BF202084F84200002023
:1020F000206300BF00BF21680C3151E8001F21F0B0
:10210000100021680C3141E80002002AF3D100BF21
:102110000220606341462046FFF7A0FE204600F003
:10212000A5F8BCE605F0800030B106F0800018B1DB
:10213000204601F09BF9B2E605F0400030B106F010
:10214000400018B1204601F085F8A8E600BFA6E6D9
:102150002F000020D531000810B504460CB901202D
:1021600010BDA06900B100E000BF94F8410028B99B
:10217000002084F84000204600F02AF8242084F84B
:1021800041002068C06820F400502168C8602046E3
:1021900001F0EEF82068006920F4904021680861A1
:1021A0002068406920F02A00216848612068C068E2
:1021B00040F400502168C86000206064202084F84A
:1021C000410084F842000020606300BFC8E70000BF
:1021D00010B586B0044600BF2248806940F0040074
:1021E000204988610846806900F00400019000BF22
:1021F00000BF00BF0846806940F0040088610846BF
:10220000806900F00400019000BF00BF00BF0846D5
:10221000C06940F40030C8610846C06900F400306D
:10222000019000BF00BF0420029002200390012013
:1022300004900320059002A90B48FEF78FF90820AF
:1022400002900020039002A90748FEF787F90222B6
:1022500011462620FEF7A8FB2620FEF795FB06B0C8
:1022600010BD000000100240000801400121014A99
:10227000117070470000002010B5034693F841002C
:10228000202813D101B10AB9012010BD19629A8426
:10229000DA8400205864212083F841001868C0685F
:1022A00040F080001C68E0600020EEE70220ECE7D0
:1022B0000121014A117070470000002000BFFEE7B5
:1022C0000A49096801F0010179B1084980390968B2
:1022D00001F0010149B100E000BF4FF06041096821
:1022E0000029F9D04FF0604210707047800E00E076
:1022F00010B504462046FEF773F810BD2DE9F843EB
:1023000004460027B846B94680258026701E83B251
:10231000681E82B20021084600F04EF93246294676
:1023200017A001F0DDF8002269011F48FEF7B0FA9E
:1023300000BF18E04FF0000811E020128DF80000F7
:10234000E0B28DF801000221684600F0C1F809F101
:1023500001001FFA80F908F101001FFA80F8B0456A
:10236000EBDB781C87B2AF42E4DB49460FA001F0FB
:10237000B7F8012211030C48FEF78AFABDE8F8838A
:102380002D2D4C43445F5749445448203D2025306F
:10239000346420204C43445F484549474854203D1D
:1023A00020253034640A0D00000C01402D2D2D2D08
:1023B0002D2D2D2D2D2D2D2D7A203D2025303464D1
:1023C0000A0D000000B585B000BF2548806940F0C7
:1023D0000800234988610846806900F008000090E1
:1023E00000BF00BF00BF0846806940F00800886158
:1023F0000846806900F00800009000BF00BF00BFE1
:102400000846806940F0040088610846806900F051
:102410000400009000BF00BF8814019001200290CA
:102420000320049001A90F48FEF798F802200190BC
:1024300001A90C48FEF792F880200190012002903B
:1024400001A90948FEF78AF8012211030548FEF7A1
:102450001FFA012280210448FEF71AFA05B000BDD8
:1024600000100240000C01400008014010B500229D
:1024700080210748FEF70CFA1420FDF7B1FF012276
:1024800080210348FEF704FA0A20FDF7A9FF10BDDA
:102490000008014001B500224FF480510A48FEF7C0
:1024A000F7F9002202210848FEF7F2F94FF0FF3356
:1024B000012269460548FFF779F901221103024814
:1024C000FEF7E6F908BD0000000C014038010020CD
:1024D00070B506460C4600224FF480511148FEF7B5
:1024E000D7F9012202210F48FEF7D2F911E0B4F525
:1024F000803F02D34FF6FF7000E0204685B24FF0D8
:10250000FF332A4631460848FFF750F92E44641B32
:1025100000BF002CEBD1012211030248FEF7B8F9ED
:1025200070BD0000000C01403801002070B5044669
:102530000D46002600224FF480511D48FEF7A8F9F1
:10254000012202211A48FEF7A3F9012D03D12078B8
:1025500000F00EFC26E02E461AE000BF1548006889
:10256000806800F002000228F8D1607811490968FB
:10257000087300BF0F480068806800F0020002285E
:10258000F8D120780B4909680873761EA41C761EC2
:10259000002EE2D100BF07480068806800F080008C
:1025A0000028F8D1012211030148FEF771F970BD2E
:1025B000000C0140380100202DE9F84F04460D467B
:1025C00016461F4600224FF480512148FEF760F95D
:1025D0001FFA84F81FFA86F91FFA85FA1FFA87FB9B
:1025E0002A20FFF757FF4FEA28208DF8000008F057
:1025F000FF008DF801004FEA29208DF8020009F054
:10260000FF008DF8030004216846FFF761FF2B20CF
:10261000FFF740FF4FEA2A208DF800000AF0FF0084
:102620008DF801004FEA2B208DF802000BF0FF001F
:102630008DF8030004216846FFF74AFF2C20FFF7BE
:1026400029FF012211030248FEF722F9BDE8F88FA5
:10265000000C01400FB42DE9F84F06460F46904696
:10266000DDE90F9A00224FF480512948FEF710F956
:10267000BDF836003844401E83B2BDF83400304403
:10268000401E82B239463046FFF796FF002432E002
:10269000A8F12000BDF8361000FB01400E9931F87A
:1026A00010001C490860002520E01A480088A84056
:1026B00000F4004060B14FEA29208DF8000009F0D5
:1026C000FF008DF8010002216846FFF701FF0CE0D2
:1026D0004FEA2A208DF800000AF0FF008DF8010073
:1026E00002216846FFF7F4FE00BF6D1CBDF8340000
:1026F000A842DAD8641CBDF83600A042C8D801222E
:1027000011030348FEF7C4F8BDE8F80F5DF814FBA9
:10271000000C0140780000200FB42DE9FE4F054663
:102720000E461446DDE911784FF08009CA460022B2
:102730004FF480511A48FEF7ABF824E0BDF83C0096
:10274000284448450FDB0025BDF83E00304486B2E2
:10275000BDF83E003044504500DB17E020782028CB
:1027600001D1641C0FE0CDE9017810980090227827
:10277000314628460F9BFFF76DFFBDF83C0028440B
:1027800085B2641C00BF20780028D7D100BF012289
:1027900011030348FEF77CF8BDE8FE0F5DF814FB5B
:1027A000000C014010B50A480A4908604FF4165061
:1027B0004860002107488160C160016181610C218E
:1027C0004161FFF7C9FC08B1FDF780FD10BD0000B5
:1027D00000440040F000002000BFFEE77047704753
:1027E00008B508490968C9084FF47A72B1FBF2F1DB
:1027F0004143009100BF00BF00994A1E009200298A
:10280000F9D108BD4000002010B50248FEF7D4FD04
:1028100010BD0000DC0000200146002203E0521C35
:10282000A1F10A00C1B20A29F9D2100741EA1060E9
:1028300070472DE9F047064688460027002400250A
:10284000A146F77B747BB57B00BF40E0012C0BD029
:10285000032C09D0052C07D0072C05D0082C03D059
:102860000A2C01D00C2C0CD11F2D01D26D1C2CE098
:102870000C2C02D0641C012527E0012401257F1CBB
:1028800023E0042C05D0062C03D0092C01D00B2CFE
:1028900006D11E2D01D26D1C17E0641C012514E029
:1028A000022C12D11C2D01D26D1C0EE01C2D08D162
:1028B000B8B200F05BF808B16D1C06E0641C01259D
:1028C00003E01D2D01D1641C012509F10109C14559
:1028D000BCD3F7737473B573EAB2E1B2384600F053
:1028E000D7F83073BDE8F08770B504460025FDF7D2
:1028F000D5FF054607E0FDF7D1FF401BB0F57A7F15
:1029000001D9032070BD2068406800F02000002835
:10291000F1D02068406840F0100021684860002035
:10292000F0E770B5044600252068406820F01000EC
:1029300021684860FDF7B2FF054607E0FDF7AEFFEE
:10294000401BB0F57A7F01D9032070BD2068406834
:1029500000F020000028F1D00020F6E710B5024872
:10296000FEF7FDFC10BD0000DC000020014601F078
:10297000030008B1002070476420B1FBF0F200FBB7
:10298000121008B10120F6E74FF4C870B1FBF0F265
:1029900000FB121008B90120EDE70020EBE701462B
:1029A000002200230868006A82B20868406A83B285
:1029B00043EA0240704730B501460022002300245C
:1029C00000200D68AD69AAB20D68ED69ACB20D6862
:1029D000AD69ABB29A4205D00D68ED6963F31F454E
:1029E000284601E044EA024030BD000030B589B01D
:1029F00004460D4600221B491B48FEF7FBFC194804
:102A000002781AA11B4800F07BFD1648427817A1F6
:102A1000194800F075FD1348827814A1174800F09A
:102A20006FFD164B144A134906A800F04FFF06A984
:102A300013A000F055FD4FF6FF704FF47841CDE93B
:102A400001101248406800901048016804914068E5
:102A50000B4606AA29460590204600F02DFB09B03A
:102A600030BD000024000020DC000020253032644E
:102A7000000000000C0000200E00002010000020CC
:102A800074696D65203D2025730A0D0090000020BB
:102A9000F0B504460B460021002504F5FA61032B2E
:102AA0001BD2C3EBC30000EB03100926B0FBF6F00A
:102AB0001044001D4618481E06EB90066427B0FB24
:102AC000F7F0361A481EBF00B0FBF7F03044072677
:102AD000B0FBF6F706FB17051AE0C3EBC30000EBEB
:102AE00003100926B0FBF6F01044001D084400EB6B
:102AF00091006426B1FBF6F6801B4FF4C876B1FB5B
:102B0000F6F63044801E0726B0FBF6F706FB1705E5
:102B1000E8B2F0BD70B504460D4600262046FFF72A
:102B2000E3FE08B101260AE0280C21680862A8B279
:102B3000216848622046FFF7F4FE00B101263046C6
:102B400070BD70B504460D4600262046FFF7CCFE4A
:102B500008B101260AE0280C21688861A8B2216822
:102B6000C8612046FFF7DDFE00B10126304670BD8A
:102B7000F8B504460E46154633460122022120468A
:102B8000009500F01BF828B1606D40F020006065F2
:102B90000320F8BD3346002280212046009500F036
:102BA0000DF828B1606D40F0200060650320F0E76B
:102BB0000020EEE701460120704700002DE9F84FA4
:102BC00004460D4690461E46DDF82890FDF766FE49
:102BD000A0EB0900371AFDF761FE82462C48006819
:102BE000C0F3CB307843009045E0701C002842D001
:102BF000FDF754FEA0EB0A00B84200D2A7BB206844
:102C0000406820F0E000216848606068B0F5827F8D
:102C10000DD1A068B0F5004F03D0A068B0F5806F6B
:102C200005D12068006820F0400021680860A06A93
:102C3000B0F5005F0DD100BF2068006820F400509F
:102C4000216808602068006840F40050216808602E
:102C500000BF012084F8510000BF002084F850001C
:102C600000BF0320BDE8F88FFFE7009800B90027F8
:102C70000098401E0090206880682840A84201D13A
:102C8000012000E000204045AFD10020EAE700002D
:102C90004000002010B50348FEF7EAFC00F004F8FD
:102CA00010BD00003801002010B51148FEF7FBFCF4
:102CB000E8B910480E49086000210D48C1618160E3
:102CC0000121416102210161002181620721C1626C
:102CD0000021C16001624FF40071816100214162F5
:102CE0004FF48270024948600846FEF7E0FC10BDD0
:102CF000380100200038004000B585B00020019068
:102D000002900390049000BF1748806940F00800CB
:102D1000154988610846806900F00800009000BFEE
:102D200000BF4FF400500190022002900320049055
:102D300001A90E48FDF712FC4FF40040019001A9D3
:102D40000A48FDF70BFC00BF0748C06940F480400B
:102D50000549C8610846C06900F48040009000BF82
:102D600000BF05B000BD000000100240000C014093
:102D700011B583B0002407480068012302AA03A903
:102D800000900548FEF70DFE04460CB1FFF782FFE8
:102D90001FBD00004C000020380100202DE9F84341
:102DA00004460D4616461F46DDF820802F48B0F930
:102DB0000000844204DA2E48B0F90000854201DBAD
:102DC000BDE8F883A019401E2849B1F900108842D7
:102DD00003DB26480088001B86B2E819401E244900
:102DE000B1F90010884203DB21480088401B87B2FC
:102DF00000224FF480511F48FDF74AFD05EB070CF8
:102E0000ACF1010C0CF0FF0304EB060CACF1010C6F
:102E10000CF0FF02E9B2E0B200F042F84FEA2820DD
:102E20008DF8000008F0FF008DF80100012202215A
:102E30001048FDF72DFD3D460EE0344608E04FF00A
:102E4000FF33022269460C48FEF7B0FC601E84B2D4
:102E5000002CF4DC681E85B2002DEEDC012211038B
:102E60000448FDF715FD00BFAAE70000D8000020C8
:102E7000D6000020000C01403801002038B504467F
:102E800005480094008883B20448008882B200217B
:102E90000846FFF783FF38BDD6000020D800002089
:102EA000F8B504460D4616461F462A2000F02EF8B7
:102EB00000200090134800782044C0B28DF8010033
:102EC000104800783044C0B28DF8030004216846F1
:102ED00000F02EF82B2000F019F80B480078284459
:102EE000C0B28DF80100084800783844C0B28DF8AF
:102EF00003000421684600F01BF82C2000F006F8BF
:102F0000F8BD0000DA000020DB00002001B500223F
:102F100002210548FDF7BCFC4FF0FF330122694652
:102F20000248FEF743FC08BD000C014038010020B8
:102F300070B504460D46012202210548FDF7A8FCA4
:102F4000AAB24FF0FF3321460248FEF72FFC70BDB6
:102F5000000C0140380100202DE9F84F04460D46D1
:102F600016461F4600224FF480512148FDF790FC81
:102F70001FFA84F81FFA86F91FFA85FA1FFA87FBF1
:102F80002A20FFF787FA4FEA28208DF8000008F082
:102F9000FF008DF801004FEA29208DF8020009F0AA
:102FA000FF008DF8030004216846FFF791FA2B20FB
:102FB000FFF770FA4FEA2A208DF800000AF0FF00B0
:102FC0008DF801004FEA2B208DF802000BF0FF0076
:102FD0008DF8030004216846FFF77AFA2C20FFF7EA
:102FE00059FA012211030248FDF752FCBDE8F88F9F
:102FF000000C01400FB42DE9F84F06460F469046ED
:10300000DDE90F9A00224FF480512948FDF740FC7A
:10301000BDF836003844401E83B2BDF83400304459
:10302000401E82B239463046FFF796FF002432E058
:10303000A8F12000BDF8361000FB01400E9931F8D0
:1030400010001C490860002520E01A480088A840AC
:1030500000F4004060B14FEA29208DF8000009F02B
:10306000FF008DF8010002216846FFF731FA0CE0FD
:103070004FEA2A208DF800000AF0FF008DF80100C9
:1030800002216846FFF724FA00BF6D1CBDF834002A
:10309000A842DAD8641CBDF83600A042C8D8012284
:1030A00011030348FDF7F4FBBDE8F80F5DF814FBCE
:1030B000000C0140780000200FB42DE9FE430546C6
:1030C0000E461446DDE90F7800224FF480511B486C
:1030D000FDF7DEFB24E0BDF834002844F0280FDBC8
:1030E0000025BDF83600304486B2BDF836003044C5
:1030F000F02800DB17E02078202801D1641C0FE0C5
:10310000CDE901780E9800902278314628460D9B33
:10311000FFF770FFBDF83400284485B2641C00BF7F
:1031200020780028D7D100BF012211030348FDF702
:10313000AFFBBDE8FE035DF814FB0000000C01408E
:10314000704710B5FDF7B0FB10BD00B593B0282156
:1031500009A8FCF7F0FF142104A8FCF7ECFF0020FD
:103160000090019002900390052009904FF4803068
:103170000A9000200B9001200C900D9002201090DE
:10318000C10311914FF4E011129109A8FDF79EFEC1
:1031900008B1FDF79BF80F20049002200590002055
:1031A00006904FF48060079000200890022104A848
:1031B000FDF768FD08B1FDF789F8012000900002D5
:1031C00001906846FDF7C6FC08B1FDF77FF813B023
:1031D00000BD704770B505466C6A0020E085E0844C
:1031E0002046FEF73CFE70BD00BF00BF02680C32F7
:1031F00052E8002F22F4907102680C3242E800136A
:10320000002BF3D100BF00BF00BF0268143252E8A8
:10321000002F22F001010268143242E80013002B53
:10322000F3D100BF016B01290ED100BF00BF0268BE
:103230000C3252E8002F22F0100102680C3242E8F2
:103240000013002BF3D100BF202180F84210002191
:103250000163704710B504462068C06820F0400044
:103260002168C860202084F841002046FFF720F83C
:10327000002010BDF8B5044694F84200222875D10C
:10328000A068B0F5805F0CD1206950B90025A66A0E
:1032900020684068C0F308003080A06A801CA062EB
:1032A00015E0A56A0026A068B0F5805F03D0A0688D
:1032B00028B9206918B920684068287004E020689F
:1032C000406800F07F002870A06A401CA062E08D7A
:1032D000401E80B2E085002846D12068C06820F0FA
:1032E00020002168C8602068C06820F480702168D0
:1032F000C8602068406920F00100216848612020F2
:1033000084F8420000206063206B012826D1002051
:10331000206300BF00BF21680C3151E8001F21F07D
:10332000100021680C3141E80002002AF3D100BFEF
:103330002068006800F0100010280AD100BF0020AB
:10334000009020680068009020684068009000BFEE
:1033500000BFA18D2046FEF781FD02E02046FEF76A
:1033600085FF0020F8BD01E00020FBE70220F9E71F
:1033700070B504462168096921F44051E26811439F
:10338000226811612269A1681143626941EA02055C
:103390002168C96841F20C62914329432268D160D7
:1033A0002168496921F44071A26911432268516181
:1033B0002D4A2168914202D1FDF740FD01E0FDF761
:1033C0002DFD00EBC00101EB001162689200B1FB22
:1033D000F2F100EBC00202EB001263689B00B2FB4B
:1033E000F3F26423B2FBF3F202EBC20303EB02122B
:1033F000A1EB8201322202EB01116422B1FBF2F156
:1034000001F0F00100EBC00202EB001263689B00C8
:10341000B2FBF3F26423B2FBF3F201EB021200EB16
:10342000C00101EB001163689B00B1FBF3F100EBFD
:10343000C00303EB00136668B600B3FBF6F3642623
:10344000B3FBF6F303EBC30606EB0313A1EB830117
:10345000322303EB01116423B1FBF3F101F00F01FF
:1034600011442268916070BD00380140014691F816
:103470004100212828D18868B0F5805F0BD1086908
:1034800048B90A6A1088C0F308000B685860086AD7
:10349000801C086205E00B6A581C086218780B68EB
:1034A0005860C88C401E80B2C88458B90868C0688B
:1034B00020F080000B68D8600868C06840F04000C9
:1034C0000B68D860002070470220FCE710B5024866
:1034D000FEF7C6FC10BD0000F000002000BFFEE7B4
:1034E0000FB4054B10B503A9044A029800F048F840
:1034F00010BC5DF814FB0000053900081200002024
:103500000FB4084B10B504A902AA039800F038F8CC
:10351000044602A9002000F0D4F9204610BC5DF852
:1035200014FB0000C338000802480068C0F3022002
:10353000704700000CED00E010B5002804DB0A071E
:10354000130E054A135406E00A07140E034A00F04E
:103550000F031B1FD45410BD00E400E018ED00E081
:1035600002E008C8121F08C1002AFAD1704770474C
:10357000002001E001C1121F002AFBD170470000AA
:103580002DE9FF4F8BB088460546002606E025282A
:103590000BD0DDE90D1290476D1C761C28780028B1
:1035A000F5D10FB03046BDE8F08F0024A146A24609
:1035B0000122AE4900E0044315F8013F203B02FA26
:1035C00003F00842F7D128782A2810D06FF02F0294
:1035D0002878A0F13001092915D809EB890102EBFF
:1035E000410144F0020400EB01096D1CF0E758F8BA
:1035F000041B5FEA010903D544F40054C9F1000932
:1036000044F002046D1C28782E2817D115F8010FFC
:1036100044F004042A280ED06FF02F022878A0F17D
:10362000300109290AD80AEB8A0102EB410100EBBB
:10363000010A6D1CF2E758F804AB6D1C28786C2861
:103640000FD006DC4C2817D068280DD06A2814D17A
:1036500004E0742810D07A280FD10DE044F400144F
:103660000AE044F4801401E044F440146978814293
:1036700002D104F580146D1C6D1C2878692865D072
:1036800006DC00288DD0632827D0642806D15DE0B1
:103690006E2808D073282AD0752877D0DDE90D125E
:1036A0009047761CE0E0C4F30250022809D00328BA
:1036B0000DD0D8F8001004280DD00E6008F10408D1
:1036C000D2E0D8F80010F217C1E90062F6E7D8F8A6
:1036D00000100E80F2E70E70F0E718F8041B8DF86A
:1036E000001000208DF80100EB46012003E058F89F
:1036F00004BB4FF0FF3061074FF0000701D40AE030
:103700007F1C57450DDA8742FADB1BF807100029AA
:10371000F6D106E07F1C8742FCDB1BF8071000296E
:10372000F8D1DDE90D23A9EB07008146214600F021
:10373000B1F83044C61904E0DDE90D121BF8010BA5
:1037400090477F1EF8D22146484688E058F8040B7F
:10375000C4F302514FF00A0B032900D100B204292F
:1037600000D140B2002802DA40422D2102E02105BA
:1037700005D52B218DF82410012104E006E0E10796
:1037800010D02021F6E708AF089113E058F8040B99
:10379000C4F302514FF00A0B032900D180B204296F
:1037A00000D1C0B20021EEE75946FCF7D9FC303118
:1037B00007F8011D0028F7D1ADEB070000F1200B41
:1037C000600702D524F4803401E04FF0010ADA45A5
:1037D00002DDAAEB0B0000E00020824600EB0B01AB
:1037E00008980144A9EB01000A90E00306D4DDE942
:1037F0000D2321460A9800F04DF806444FF00009C9
:1038000008E009A911F80900DDE90D12904709F156
:103810000109761C08998945F3DBE0030CD5DDE945
:103820000D2321460A9800F035F8064404E0DDE94E
:103830000D1230209047761CBAF10001AAF1010A5E
:10384000F5DC05E0DDE90D1217F8010B9047761C59
:10385000BBF10001ABF1010BF4DC0A982146DDE974
:103860000D2300F005F806446D1C97E609280100B9
:103870002DE9F041044600251E461746880404D46D
:1038800005E039462020B0476D1C641EF9D5284656
:10389000BDE8F0812DE9F041044600251E46904622
:1038A000C80301D5302700E02027880404D505E0AF
:1038B00041463846B0476D1C641EF9D52846BDE820
:1038C000F0810A68531C0B60107070471CB50BA484
:1038D000246801940AA4246800940C8804809DF84C
:1038E000044084701488A0F803409DF8044044719B
:1038F0001C88C480002404721CBD00003A00000033
:103900003230000070B504460D462046FEF7D8FC64
:1039100070BD000086B0FCF7D3FFFFF716FC002057
:10392000FCF774FCFEF73EFF3BA03C4908603CA05E
:1039300048603EA0C86041A0886043A04349086039
:1039400043A0486046A0C86048A088604AA00861BB
:1039500001204C4908703D4A1168304A106800F057
:10396000BFF810B1002047490870384A51682B4A07
:10397000506800F0B5F810B1002042490870334A91
:10398000D168264AD06800F0ABF810B100203D495C
:1039900008703D483D4908604FF0FF3048600846D8
:1039A000FDF7AAFD08B1FCF791FCFEF70BFDFFF750
:1039B000A3F9FFF779F936A0FFF792FDFCF7F8FBC2
:1039C00028E04FF47840FFF759FA1F20FFF756FA26
:1039D0000A20FCF705FD4FF6FF70FEF78FFC642010
:1039E000FCF7FEFC4FF6FF704FF47841CDE9011073
:1039F00035484068009034480168049140680B469F
:103A000032A20A2105900846FEF786FE4FF47A702E
:103A1000FCF7E6FCD5E7000041540000BE0400209E
:103A200041542B56455253494F4E000041542B4EA2
:103A3000414D456D7948432D3036000041542B42AD
:103A400041554438000000004F4B0000CE040020D8
:103A50004F4B6C696E766F7256312E380000000045
:103A60004F4B7365746E616D650000004F4B3131D3
:103A70003532303000000000424C207072657365B2
:103A80006E7400002E00002000280040DC000020A2
:103A90003D3D3D3D3D3D3D3D3D3D3D3D3D3D3D3D56
:103AA0003D3D5374617274205254432057617463D6
:103AB000683D3D3D3D3D3D3D3D3D3D3D3D3D3D3D0B
:103AC0003D3D3D3D0A0D00009000002031313A326D
:103AD000382032302E30322E3230323500000000A5
:103AE0002DE9F84305460C462748056014220021BD
:103AF0000068FCF72BFB804623480078A8EB000009
:103B000000F0FF094A46204801682048FEF7B4FB50
:103B100008B1FCF7DBFB00BF1D4800780128FBD192
:103B200000201B490870142200212046FCF70EFBE0
:103B30000646301B87B20C20144988854FF4FA6082
:103B400001F12C033A46134900901048FEF7F2F8B1
:103B500030B101280FD002280FD0032811D10EE078
:103B60003A4621460B48FCF797FB10B10120BDE80F
:103B7000F8830020FBE7FCF7A9FB0220F7E703200E
:103B8000F5E700BF00BFF2E728000020F0000020AA
:103B900000000020B004002008B500200090132091
:103BA000FEF778FC0A20FEF7A3FB2820FEF772FC44
:103BB0000A20FEF79DFB3620FEF76CFCC02000902B
:103BC00001216846FEF7B2FC08BD08B50020009050
:103BD0001320FEF75FFC0A20FEF78AFB2920FEF780
:103BE00059FC0A20FEF784FB3620FEF753FCC02068
:103BF000009001216846FEF799FC08BD2DE9F041CF
:103C0000074688461446002500266688A08846EAAE
:103C100000466589A08945EA0045701B46082C448A
:103C20004021362000F0CAF94146384600F03AF902
:103C300071002046FEF77AFCC021362000F0BEF964
:103C4000BDE8F0812DE9F04107460D4690461C463F
:103C500000262819802801DDBDE8F081414628466C
:103C600000F020F9002604E0064820F81670701CC9
:103C7000C6B2A642F8DB61000248FEF757FC00BF5F
:103C8000EAE70000540800202DE9F0410746884685
:103C900014461D4600266019802801DDBDE8F0812C
:103CA000002607E0A01981B23A46404600F069F9C3
:103CB000701CC6B2AE42F5DB00BFEFE78020704754
:103CC0008020704700B585B0002004900A20FCF7E2
:103CD00087FBFEF7CBFB0120FEF7DCFB9620FCF711
:103CE0007FFB1120FEF7D6FBFF20FCF779FBB1200C
:103CF000FEF7D0FB5AA000680390032103A8FEF74B
:103D0000E7FBB220FEF7C6FB55A000680390032135
:103D100003A8FEF7DDFBB320FEF7BCFB51A103C9EE
:103D2000CDE90201062102A8FEF7D2FBB420FEF77E
:103D3000B1FB07200490012104A8FEF7C9FBC020B5
:103D4000FEF7A8FB49A000680390032103A8FEF733
:103D5000BFFBC120FEF79EFBC5200490012104A8F3
:103D6000FEF7B6FBC220FEF795FB41A0006803906A
:103D7000022103A8FEF7ACFBC320FEF78BFB3DA09E
:103D800000680390022103A8FEF7A2FBC420FEF7FF
:103D900081FB39A000680390022103A8FEF798FB7D
:103DA000C520FEF777FB0E200490012104A8FEF742
:103DB0008FFB2020FEF76EFB3620FEF76BFBC82042
:103DC0000490012104A8FEF783FB3A20FEF762FB72
:103DD00005200490012104A8FEF77AFB2A20FEF7B3
:103DE00059FB26A000680390042103A8FEF770FB8E
:103DF0002B20FEF74FFB21A000680390042103A8AD
:103E0000FEF766FBE020FEF745FB1DA30FCB8DE818
:103E10000F0010216846FEF75BFBE120FEF73AFB3E
:103E20001BA3D3E901211868DB68CDE90213CDE9B2
:103E3000000210216846FEF74BFB1320FEF72AFB19
:103E40000A20FCF7CDFA2920FEF724FB6420FCF7BA
:103E5000C7FA012211031248FCF71AFD05B000BD94
:103E6000012C2D00012C2D012C2D0000A20284001C
:103E70000A0000008A2A00008AEE00000000007F8D
:103E8000021C07123732292D29252B390001031076
:103E9000031D07062E2C292D2E2E373F0000021061
:103EA000000C014038B505460C46002000902A2041
:103EB000FEF7F0FA2812009001216846FEF736FB63
:103EC000E8B2009001216846FEF730FB2B20FEF798
:103ED000E1FA2012009001216846FEF727FBE0B2CC
:103EE000009001216846FEF721FB2C20FEF7D2FA54
:103EF00038BDF8B504460D4616461F460020009012
:103F00002A20FEF7C7FA2012009001216846FEF72A
:103F10000DFBE0B2009001216846FEF707FBA019F7
:103F2000401EC0F30720009001216846FEF7FEFA0C
:103F3000A019401EC0B2009001216846FEF7F6FAB3
:103F40002B20FEF7A7FA2812009001216846FEF701
:103F5000EDFAE8B2009001216846FEF7E7FAE819A9
:103F6000401EC0F30720009001216846FEF7DEFAEC
:103F7000E819401EC0B2009001216846FEF7D6FA4B
:103F8000F8BDF8B506460D46144600200090802E78
:103F900001DA802D00DBF8BD29463046FFF782FFAD
:103FA0002012009001216846FEF7C0FAE0B20090AE
:103FB00001216846FEF7BAFA00BFECE713B50446E4
:103FC0002046FEF767FA012101A8FEF7AFFA1CBDF3
:103FD00002030405060708090A0B0C0D0E0F10104A
:103FE000010202030405060708090A0B0C0D0E0F57
:103FF0001010010200000000000000000102030494
:104000000607080900000000010203040020010067
:10401000060000000000000000000000000000009A
:104020000000000000000000000000000000000090
:104030000000000000000000000000000000000080
:104040000000000000000000000000000000000070
:10405000000000000000000000000000000000035D
:104060008000038000038000038000038000038041
:1040700000038000038000038000010000010000B5
:10408000000000000000038000038000000000002A
:104090000000000000000000000000000000000020
:1040A000000000000000000000000E70000E700014
:1040B0000E700004200004200004200004200000F2
:1040C00000000000000000000000000000000000F0
:1040D00000000000000000000000000000000000E0
:1040E00000000000000000000000000000000006CA
:1040F00060000660000660000660000660003FF891
:10410000003FF8000660000CC0003FF8003FF800D8
:104110000CC0000CC0000CC0000CC0000CC00000A3
:10412000000000000000000000000000000000008F
:104130000000000001800001800007B0000FF000C7
:104140001870001870001C00000F800007E00000CD
:10415000F0001830001C30001C70001FE0001BC075
:10416000000180000180000180000180000000004B
:104170000000000000000000000000000000000738
:1041800080000FC0001CE0001860001860001CE0F8
:10419000000FF80007E0001FF000073800061800C5
:1041A00006180007380003F00001E00000000000DE
:1041B00000000000000000000000000000000000FF
:1041C0000000000000000000000000000003F000FC
:1041D00007F0000C60000C00000C00000600000757
:1041E00000000F9C001DFC0018F0001870000FFC70
:1041F0000007DC00000000000000000000000000DC
:1042000000000000000000000000000000000000AE
:104210000000038000038000038000010000010013
:10422000000100000100000000000000000000008C
:10423000000000000000000000000000000000007E
:10424000000000000000000000000000000000006E
:10425000000000000000000018000038000070009E
:1042600000F00000E00000E00001C00001C000011B
:10427000C00001C00001C00001C00000E00000E07B
:1042800000007000007000003800001800000000FE
:104290000000000000000000000000000000001806
:1042A00000001C00000E00000E00000700000700C8
:1042B000000380000380000380000380000380006F
:1042C0000380000700000700000F00000E00001C24
:1042D00000001800000000000000000000000000C6
:1042E000000000000000000180000180000180004B
:1042F0001DB8001FF80007E00003C00003C000065F
:1043000060000660000000000000000000000000E7
:10431000000000000000000000000000000000009D
:10432000000000000000000000000000000000008D
:104330000000000000018000018000018000018079
:10434000000180003FFC003FFC0001800001800074
:1043500001800001800001800000000000000000DA
:10436000000000000000000000000000000000004D
:10437000000000000000000000000000000000003D
:10438000000000000000000000000000000000002D
:10439000000000000000000000000000E00000C07D
:1043A0000001C00001800001800003000003000044
:1043B00000000000000000000000000000000000FD
:1043C00000000000000000000000000000000000ED
:1043D000000000001FF8001FF800000000000000AF
:1043E00000000000000000000000000000000000CD
:1043F00000000000000000000000000000000000BD
:1044000000000000000000000000000000000000AC
:10441000000000000000000000000000000000009C
:10442000000000000000000000000003C00003C006
:104430000003C000000000000000000000000000B9
:10444000000000000000000000001800001800003C
:10445000380000300000700000600000600000C004
:104460000000C00001800001800003000003000084
:104470000600000600000E00000C00001C000018E2
:104480000000180000000000000000000000000014
:104490000000000000000003C00007E0000C300036
:1044A0000C300018180018180018180018180018F8
:1044B00018001818001818000C30000C300007E025
:1044C0000003C00000000000000000000000000029
:1044D00000000000000000000000000000000000DC
:1044E00080000780001F80001D8000018000018087
:1044F0000001800001800001800001800001800037
:104500000180000180001FF8001FF800000000007B
:10451000000000000000000000000000000000009B
:104520000000000000000007C0001FF0003830004D
:104530003018003018000018000030000060000142
:10454000C0000380000600000C00001800003FF8C7
:10455000003FF80000000000000000000000000024
:104560000000000000000000000000000000000348
:10457000C0000FE0000C7000003000003000006050
:104580000003C00003E000007000001800001800E5
:104590000018001838001FF0000FC00000000000D5
:1045A000000000000000000000000000000000000B
:1045B0000000000000000000E00001E00001E00059
:1045C0000360000660000660000C60000C600018CC
:1045D00060003060003FF8003FF80000600003F822
:1045E0000003F800000000000000000000000000D0
:1045F0000000000000000000000000000000001F9C
:10460000F0001FF0001800001800001800001BC088
:10461000001FF0001C3000001800001800001800F7
:104620000018003030003FF0000FC0000000000014
:10463000000000000000000000000000000000007A
:104640000000000000000000F80003F80007000070
:104650000E00000C00001800001BC0001FF0001C22
:1046600030001818001818001818000C38000FF047
:104670000003E00000000000000000000000000057
:104680000000000000000000000000000000001F0B
:10469000F8001FF80018180018380000300000302B
:1046A0000000700000600000600000E00000C0003A
:1046B00000C00001C0000180000180000000000077
:1046C00000000000000000000000000000000000EA
:1046D0000000000000000007E0000FF0001C3800A0
:1046E0001818001818000C300007E00007E0000C54
:1046F00030001818001818001818001C38000FF0A7
:104700000007E000000000000000000000000000C2
:104710000000000000000000000000000000000792
:10472000C0000FF0001C30001818001818001818EE
:10473000000C38000FF80003D8000018000030000B
:1047400000700000E0001FC0001F0000000000001B
:104750000000000000000000000000000000000059
:104760000000000000000000000000000000000049
:1047700000000003C00003C00003C00000000000F0
:10478000000000000000000000000003C00003C0A3
:104790000003C00000000000000000000000000056
:1047A0000000000000000000000000000000000009
:1047B000000000000000000000000000F00000F019
:1047C0000000F000000000000000000000000000F9
:1047D00000E00001C0000180000180000300000231
:1047E00000000000000000000000000000000000C9
:1047F00000000000000000000000000000001C009D
:10480000003C0000F00003C0000F00003C0000F07E
:1048100000003C00000F000003C00000F000003C5E
:1048200000001C000000000000000000000000006C
:104830000000000000000000000000000000000078
:1048400000000000000000000000000000007FFCED
:10485000007FFC000000000000007FFC007FFC00E7
:104860000000000000000000000000000000000048
:104870000000000000000000000000000000000038
:1048800000000000000000000000000000700000B8
:104890007800001E000007800001E00000780000A2
:1048A0001E0000780001E0000780001E0000780074
:1048B0000070000000000000000000000000000088
:1048C00000000000000000000000000000000000E8
:1048D000000007C0000FE00018700018300018300A
:1048E0000000700000E00003C0000380000300002F
:1048F00000000000000007000007000000000000AA
:1049000000000000000000000000000000000000A7
:104910000000000000000003E00007F0000E380077
:104920000C180018780018F80019D8001998001908
:10493000980019980018F8001878001800000C006A
:10494000000E180007F80003E0000000000000005F
:104950000000000000000000000000000000000057
:1049600000001F80001FC00001C000036000036042
:10497000000630000630000C30000FF8001FF80071
:10498000180C00300C00FC7F00FC7F0000000000D1
:104990000000000000000000000000000000000017
:1049A000000000000000000000007FE0007FF00039
:1049B0001838001818001818001838001FF0001FC9
:1049C000F800181C00180C00180C00180C007FF8D8
:1049D000007FF00000000000000000000000000068
:1049E00000000000000000000000000000000000C7
:1049F000000003EC000FFC001C1C00180C00300C25
:104A000000300000300000300000300000300000B6
:104A1000180C001C1C000FF80003F0000000000040
:104A20000000000000000000000000000000000086
:104A3000000000000000000000007FC0007FF000C8
:104A4000183800181800180C00180C00180C001862
:104A50000C00180C00180C001818001838007FF013
:104A6000007FE000000000000000000000000000E7
:104A70000000000000000000000000000000000036
:104A800000007FF8007FF800181800181800199827
:104A9000001980001F80001F8000198000199800F5
:104AA0001818001818007FF8007FF80000000000B8
:104AB00000000000000000000000000000000000F6
:104AC000000000000000000000003FFC003FFC0070
:104AD0000C0C000C0C000CCC000CC0000FC0000F24
:104AE000C0000CC0000CC0000C00000C00003FC057
:104AF000003FC000000000000000000000000000B7
:104B000000000000000000000000000000000000A5
:104B1000000003EC000FFC001C1C00180C00300C03
:104B20000030000030000030FE0030FE00300C008D
:104B3000380C001C1C000FFC0003F00000000000FB
:104B40000000000000000000000000000000000065
:104B5000000000000000000000007E7E007E7E005D
:104B60001818001818001818001818001FF8001F4F
:104B7000F8001818001818001818001818007E7E81
:104B8000007E7E0000000000000000000000000029
:104B90000000000000000000000000000000000015
:104BA00000001FF8001FF800018000018000018054
:104BB0000001800001800001800001800001800070
:104BC0000180000180001FF8001FF80000000000B5
:104BD00000000000000000000000000000000000D5
:104BE0000000000000000000000007FE0007FE00BB
:104BF0000030000030000030000030000030003095
:104C000030003030003030003030003060003FE0A5
:104C1000000F800000000000000000000000000005
:104C20000000000000000000000000000000000084
:104C300000007F3E007F3E0018300018600018C062
:104C4000001980001B80001FC0001CE000187000CD
:104C50001830001838007F1F007F1F000000000080
:104C60000000000000000000000000000000000044
:104C7000000000000000000000007F80007F800036
:104C80000C00000C00000C00000C00000C00000CDC
:104C900000000C0C000C0C000C0C000C0C007FFC39
:104CA000007FFC0000000000000000000000000089
:104CB00000000000000000000000000000000000F4
:104CC0000000F00F00F81F00381C003C3C003C3C8A
:104CD00000366C00366C0033CC0033CC00318C00D5
:104CE000300C00300C00FE7F00FE7F000000000052
:104CF00000000000000000000000000000000000B4
:104D00000000000000000000000078FE0078FE00B7
:104D10001C18001E18001F18001B18001B980019F3
:104D2000D80018D80018F8001878001838007F1834
:104D3000007F1800000000000000000000000000DC
:104D40000000000000000000000000000000000063
:104D5000000003C0000FF0001C3800181800381CB9
:104D600000300C00300C00300C00300C00381C00FF
:104D70001818001C38000FF00003C00000000000ED
:104D80000000000000000000000000000000000023
:104D9000000000000000000000003FF0003FF800AD
:104DA0000C1C000C0C000C0C000C0C000C18000F60
:104DB000F8000FE0000C00000C00000C00003FC0E9
:104DC000003FC000000000000000000000000000E4
:104DD00000000000000000000000000000000000D3
:104DE000000003C0000FF0001C3800181800381C29
:104DF00000300C00300C00300C00300C00381C006F
:104E00001818001C38000FF00007C00007CC000F76
:104E1000FC000C3800000000000000000000000052
:104E2000000000000000000000007FE0007FF000B4
:104E30001838001818001818001838001FF0001F44
:104E4000C00018E0001870001830001838007F1EED
:104E5000007F0E00000000000000000000000000C5
:104E60000000000000000000000000000000000042
:104E7000000007D8000FF8001C3800181800181898
:104E8000001E00000FC00003F0000078001818009A
:104E90001818001C38001FF0001BE0000000000084
:104EA0000000000000000000000000000000000002
:104EB000000000000000000000003FFC003FFC007C
:104EC000318C00318C00318C00318C00018000016C
:104ED00080000180000180000180000180000FF04F
:104EE000000FF000000000000000000000000000C3
:104EF00000000000000000000000000000000000B2
:104F000000007E7E007E7E00181800181800181819
:104F100000181800181800181800181800181800A1
:104F20001818000C30000FF00003C0000000000053
:104F30000000000000000000000000000000000071
:104F4000000000000000000000007F7F007F7F0065
:104F5000180C000C18000C18000C18000630000685
:104F6000300003600003600003600001C00001C066
:104F700000008000000000000000000000000000B1
:104F80000000000000000000000000000000000021
:104F90000000FE3F80FE3F80300600300600308675
:104FA0000019CC0019CC001B6C001B6C001E7C008F
:104FB0000E38000E38000C18000C1800000000001D
:104FC00000000000000000000000000000000000E1
:104FD000000000000000000000007E7E007E7E00D9
:104FE0001818000C300006600003C00001800001AA
:104FF000800003C0000660000C30001818007E7EA0
:10500000007E7E00000000000000000000000000A4
:105010000000000000000000000000000000000090
:1050200000007C7E007C7E001818000C30000660BA
:105030000006600003C000018000018000018000C4
:105040000180000180000FF0000FF0000000000060
:105050000000000000000000000000000000000050
:10506000000000000000000000001FF8001FF80012
:1050700018180018300018600018C00001800003E4
:1050800000000618000C18001818003018003FF82F
:10509000003FF800000000000000000000000000D9
:1050A00000000000000000000000000000000001FF
:1050B000F00001F00001800001800001800001800B
:1050C000000180000180000180000180000180005B
:1050D000018000018000018000018000018000014A
:1050E000F00001F0000000000000000000000000DF
:1050F000001800001800001C00000C00000E00004A
:10510000060000060000030000030000018000010B
:10511000800000C00000C00000600000600000705F
:1051200000003000003800001800001800000000E7
:105130000000000000000000000000000000000F60
:1051400080000F800001800001800001800001804C
:1051500000018000018000018000018000018000CA
:105160000180000180000180000180000180000FAB
:1051700080000F8000000000000000000000000020
:105180000000000000800001C00003E00007700084
:105190000630000C1800180C00100400000000007D
:1051A00000000000000000000000000000000000FF
:1051B00000000000000000000000000000000000EF
:1051C00000000000000000000000000000000000DF
:1051D00000000000000000000000000000000000CF
:1051E00000000000000000000000000000000000BF
:1051F00000000000000000000000000000000000AF
:105200000000000000000000000000FFFF00FFFFA2
:105210000000000003000003800000E000006000C8
:10522000000000000000000000000000000000007E
:10523000000000000000000000000000000000006E
:10524000000000000000000000000000000000005E
:10525000000000000000000000000000000000004E
:1052600000000000000000000000000FC0001FE070
:105270000000300000300007F0001FF00038300060
:105280003030003070001FFC000FBC000000000038
:10529000000000000000000000000000000000000E
:1052A00000000000000000780000780000180000F6
:1052B0001800001BE0001FF8001C1800180C001854
:1052C0000C00180C00180C00180C001C18007FF8BB
:1052D000007BE00000000000000000000000000073
:1052E00000000000000000000000000000000000BE
:1052F000000000000000000000000003EC000FFCB4
:10530000001C1C00380C00300C0030000030000085
:10531000380C001C1C000FF80003F0000000000017
:10532000000000000000000000000000000000007D
:105330000000000000000000780000780000180065
:1053400000180007D8001FF8001838003018003087
:1053500018003018003018003018001838001FFEF0
:105360000007DE0000000000000000000000000058
:10537000000000000000000000000000000000002D
:10538000000000000000000000000007E0001FF81F
:1053900000181800300C003FFC003FFC00300000FB
:1053A000300000180C001FFC0007F0000000000097
:1053B00000000000000000000000000000000000ED
:1053C0000000000000000001FC0003FC00060000DB
:1053D0000600003FF8003FF8000600000600000647
:1053E00000000600000600000600000600003FF076
:1053F000003FF0000000000000000000000000007E
:10540000000000000000000000000000000000009C
:10541000000000000000000000000007DE001FFE8A
:10542000001838003018003018003018003018000C
:105430003018001838001FF80007D80000180000C6
:1054400018000038000FF0000FC00000000000003E
:105450000000000000000078000078000018000044
:105460001800001BE0001FF0001C3800181800187E
:1054700018001818001818001818001818007E7E58
:10548000007E7E0000000000000000000000000020
:10549000000000000000000000000000000000010B
:1054A00080000180000000000000001F80001F80BD
:1054B0000001800001800001800001800001800067
:1054C0000180000180003FFC003FFC000000000064
:1054D00000000000000000000000000000000000CC
:1054E0000000000000000000C00000C0000000003C
:1054F0000000001FF0001FF000003000003000002E
:10550000300000300000300000300000300000307B
:10551000000030000030000030000070001FE0008C
:105520001F80000000000000000000000000003CA0
:1055300000003C00000C00000C00000CF8000CF80F
:10554000000CC0000D80000F80000F00000F8000D5
:105550000DC0000CE0003C7C003C7C000000000022
:10556000000000000000000000000000000000003B
:10557000000000000000001F80001F80000180006C
:105580000180000180000180000180000180000195
:1055900080000180000180000180000180003FFC4C
:1055A000003FFC00000000000000000000000000C0
:1055B00000000000000000000000000000000000EB
:1055C0000000000000000000000000F77800FFFC71
:1055D0000039CC00318C00318C00318C00318C00D2
:1055E000318C00318C00FDEF00FDEF000000000069
:1055F00000000000000000000000000000000000AB
:10560000000000000000000000000000000000009A
:105610000000007BE0007FF0001C38001818001824
:1056200018001818001818001818001818007E7EA6
:10563000007E7E000000000000000000000000006E
:10564000000000000000000000000000000000005A
:10565000000000000000000000000003C0000FF088
:10566000001C3800381C00300C00300C00300C00DE
:10567000381C001C38000FF00003C00000000000C0
:10568000000000000000000000000000000000001A
:10569000000000000000000000000000000000000A
:1056A0000000007BE0007FF8001C1800180C0018B8
:1056B0000C00180C00180C00180C001C18001FF827
:1056C000001BE0001800001800001800007F000018
:1056D0007F0000000000000000000000000000004B
:1056E000000000000000000000000007DE001FFEB8
:1056F000001838003018003018003018003018003A
:105700003018001838001FF80007D80000180000F3
:10571000180000180000FE0000FE0000000000005D
:105720000000000000000000000000000000000079
:105730000000003E78003EFC0007CC000700000699
:1057400000000600000600000600000600003FF012
:10575000003FF0000000000000000000000000001A
:105760000000000000000000000000000000000039
:10577000000000000000000000000007F8000FF823
:10578000001818001818001F80000FF00000F80023
:105790001818001838001FF0001FE000000000007B
:1057A00000000000000000000000000000000000F9
:1057B000000000000000000C00000C00000C0000C5
:1057C0000C00003FF0003FF0000C00000C00000C4B
:1057D00000000C00000C00000C00000C1C0007FC7A
:1057E0000003F000000000000000000000000000C6
:1057F00000000000000000000000000000000000A9
:1058000000000000000000000000007878007878B8
:105810000018180018180018180018180018180098
:105820001818001838000FFE0007DE000000000006
:105830000000000000000000000000000000000068
:105840000000000000000000000000000000000058
:105850000000007C3E007C3E001818001818000C68
:1058600030000C300006600006600007E00003C056
:105870000003C00000000000000000000000000065
:105880000000000000000000000000000000000018
:105890000000000000000000000000783C00783CA0
:1058A000003118003398003398001AB0001EF00041
:1058B0001EF0001C60000C60000C60000000000086
:1058C00000000000000000000000000000000000D8
:1058D00000000000000000000000000000000000C8
:1058E0000000003E7C003E7C000C3000066000039F
:1058F000C00001800003C0000660000C30003E7C48
:10590000003E7C00000000000000000000000000DD
:105910000000000000000000000000000000000087
:1059200000000000000000000000007E1F007E1F3D
:1059300000180C000C18000C18000630000630008F
:1059400003600003E00001C00000C000018000010E
:1059500080000300003FC0003FC0000000000000C6
:105960000000000000000000000000000000000037
:105970000000001FF8001FF8001830001860000039
:10598000C0000180000300000618000C18001FF87A
:10599000001FF800000000000000000000000000F0
:1059A00000000000000000000000000000000000F7
:1059B000E00001E000018000018000018000018022
:1059C00000018000018000038000070000038000C8
:1059D0000180000180000180000180000180000141
:1059E000E00000E0000000000000000000000000F7
:1059F0000000000000000001800001800001800024
:105A00000180000180000180000180000180000110
:105A10008000018000018000018000018000018081
:105A20000001800001800001800001800000000072
:105A3000000000000000000000000000000000075F
:105A400000000780000180000180000180000180CB
:105A50000001800001800001C00000E00001C000E2
:105A600001800001800001800001800001800007AA
:105A7000800007000000000000000000000000009F
:105A80000000000000000000000000000000000016
:105A90000000000000000000000E00001F18003B86
:105AA000B80031F00000E00000000000000000003D
:105AB00000000000000000000000000000000000E6
:105AC00000000000000000000000000000000000D6
:105AD00000000000000000000000000000000000C6
